{
  "contractName": "RoomFlow",
  "abi": [
    {
      "inputs": [
        {
          "internalType": "uint256",
          "name": "_taxPercent",
          "type": "uint256"
        },
        {
          "internalType": "uint256",
          "name": "_securityFee",
          "type": "uint256"
        }
      ],
      "stateMutability": "nonpayable",
      "type": "constructor"
    },
    {
      "anonymous": false,
      "inputs": [
        {
          "indexed": true,
          "internalType": "address",
          "name": "previousOwner",
          "type": "address"
        },
        {
          "indexed": true,
          "internalType": "address",
          "name": "newOwner",
          "type": "address"
        }
      ],
      "name": "OwnershipTransferred",
      "type": "event"
    },
    {
      "anonymous": false,
      "inputs": [
        {
          "indexed": true,
          "internalType": "uint256",
          "name": "spaceId",
          "type": "uint256"
        },
        {
          "indexed": true,
          "internalType": "address",
          "name": "author",
          "type": "address"
        }
      ],
      "name": "ReviewAdded",
      "type": "event"
    },
    {
      "anonymous": false,
      "inputs": [
        {
          "indexed": false,
          "internalType": "uint256",
          "name": "newFee",
          "type": "uint256"
        }
      ],
      "name": "SecurityFeeUpdated",
      "type": "event"
    },
    {
      "anonymous": false,
      "inputs": [
        {
          "indexed": true,
          "internalType": "uint256",
          "name": "id",
          "type": "uint256"
        },
        {
          "indexed": true,
          "internalType": "address",
          "name": "tenant",
          "type": "address"
        },
        {
          "indexed": false,
          "internalType": "uint256",
          "name": "startDate",
          "type": "uint256"
        },
        {
          "indexed": false,
          "internalType": "uint256",
          "name": "endDate",
          "type": "uint256"
        }
      ],
      "name": "SpaceBooked",
      "type": "event"
    },
    {
      "anonymous": false,
      "inputs": [
        {
          "indexed": true,
          "internalType": "uint256",
          "name": "id",
          "type": "uint256"
        },
        {
          "indexed": true,
          "internalType": "address",
          "name": "tenant",
          "type": "address"
        },
        {
          "indexed": false,
          "internalType": "uint256",
          "name": "bookingId",
          "type": "uint256"
        }
      ],
      "name": "SpaceCheckedIn",
      "type": "event"
    },
    {
      "anonymous": false,
      "inputs": [
        {
          "indexed": true,
          "internalType": "uint256",
          "name": "id",
          "type": "uint256"
        },
        {
          "indexed": true,
          "internalType": "address",
          "name": "owner",
          "type": "address"
        }
      ],
      "name": "SpaceDeleted",
      "type": "event"
    },
    {
      "anonymous": false,
      "inputs": [
        {
          "indexed": true,
          "internalType": "uint256",
          "name": "id",
          "type": "uint256"
        },
        {
          "indexed": true,
          "internalType": "address",
          "name": "owner",
          "type": "address"
        },
        {
          "indexed": false,
          "internalType": "uint256",
          "name": "bookingId",
          "type": "uint256"
        }
      ],
      "name": "SpaceFundsClaimed",
      "type": "event"
    },
    {
      "anonymous": false,
      "inputs": [
        {
          "indexed": true,
          "internalType": "uint256",
          "name": "id",
          "type": "uint256"
        },
        {
          "indexed": true,
          "internalType": "address",
          "name": "owner",
          "type": "address"
        }
      ],
      "name": "SpaceListed",
      "type": "event"
    },
    {
      "anonymous": false,
      "inputs": [
        {
          "indexed": true,
          "internalType": "uint256",
          "name": "id",
          "type": "uint256"
        },
        {
          "indexed": true,
          "internalType": "address",
          "name": "tenant",
          "type": "address"
        },
        {
          "indexed": false,
          "internalType": "uint256",
          "name": "bookingId",
          "type": "uint256"
        }
      ],
      "name": "SpaceRefunded",
      "type": "event"
    },
    {
      "anonymous": false,
      "inputs": [
        {
          "indexed": true,
          "internalType": "uint256",
          "name": "id",
          "type": "uint256"
        },
        {
          "indexed": true,
          "internalType": "address",
          "name": "owner",
          "type": "address"
        }
      ],
      "name": "SpaceUpdated",
      "type": "event"
    },
    {
      "anonymous": false,
      "inputs": [
        {
          "indexed": false,
          "internalType": "uint256",
          "name": "newTaxPercent",
          "type": "uint256"
        }
      ],
      "name": "TaxPercentUpdated",
      "type": "event"
    },
    {
      "inputs": [
        {
          "internalType": "uint256",
          "name": "",
          "type": "uint256"
        },
        {
          "internalType": "uint256",
          "name": "",
          "type": "uint256"
        }
      ],
      "name": "bookedDates",
      "outputs": [
        {
          "internalType": "uint256",
          "name": "",
          "type": "uint256"
        }
      ],
      "stateMutability": "view",
      "type": "function",
      "constant": true
    },
    {
      "inputs": [
        {
          "internalType": "uint256",
          "name": "",
          "type": "uint256"
        },
        {
          "internalType": "uint256",
          "name": "",
          "type": "uint256"
        }
      ],
      "name": "bookingsOf",
      "outputs": [
        {
          "internalType": "uint256",
          "name": "id",
          "type": "uint256"
        },
        {
          "internalType": "address",
          "name": "tenant",
          "type": "address"
        },
        {
          "internalType": "uint256",
          "name": "startDate",
          "type": "uint256"
        },
        {
          "internalType": "uint256",
          "name": "endDate",
          "type": "uint256"
        },
        {
          "internalType": "uint256",
          "name": "totalPrice",
          "type": "uint256"
        },
        {
          "internalType": "bool",
          "name": "checked",
          "type": "bool"
        },
        {
          "internalType": "bool",
          "name": "cancelled",
          "type": "bool"
        }
      ],
      "stateMutability": "view",
      "type": "function",
      "constant": true
    },
    {
      "inputs": [
        {
          "internalType": "address",
          "name": "",
          "type": "address"
        },
        {
          "internalType": "uint256",
          "name": "",
          "type": "uint256"
        }
      ],
      "name": "hasBooked",
      "outputs": [
        {
          "internalType": "bool",
          "name": "",
          "type": "bool"
        }
      ],
      "stateMutability": "view",
      "type": "function",
      "constant": true
    },
    {
      "inputs": [
        {
          "internalType": "uint256",
          "name": "",
          "type": "uint256"
        },
        {
          "internalType": "uint256",
          "name": "",
          "type": "uint256"
        }
      ],
      "name": "isDateBooked",
      "outputs": [
        {
          "internalType": "bool",
          "name": "",
          "type": "bool"
        }
      ],
      "stateMutability": "view",
      "type": "function",
      "constant": true
    },
    {
      "inputs": [],
      "name": "owner",
      "outputs": [
        {
          "internalType": "address",
          "name": "",
          "type": "address"
        }
      ],
      "stateMutability": "view",
      "type": "function",
      "constant": true
    },
    {
      "inputs": [],
      "name": "renounceOwnership",
      "outputs": [],
      "stateMutability": "nonpayable",
      "type": "function"
    },
    {
      "inputs": [
        {
          "internalType": "uint256",
          "name": "",
          "type": "uint256"
        },
        {
          "internalType": "uint256",
          "name": "",
          "type": "uint256"
        }
      ],
      "name": "reviewsOf",
      "outputs": [
        {
          "internalType": "uint256",
          "name": "id",
          "type": "uint256"
        },
        {
          "internalType": "uint256",
          "name": "spaceId",
          "type": "uint256"
        },
        {
          "internalType": "string",
          "name": "reviewText",
          "type": "string"
        },
        {
          "internalType": "uint256",
          "name": "timestamp",
          "type": "uint256"
        },
        {
          "internalType": "address",
          "name": "reviewer",
          "type": "address"
        }
      ],
      "stateMutability": "view",
      "type": "function",
      "constant": true
    },
    {
      "inputs": [],
      "name": "securityFee",
      "outputs": [
        {
          "internalType": "uint256",
          "name": "",
          "type": "uint256"
        }
      ],
      "stateMutability": "view",
      "type": "function",
      "constant": true
    },
    {
      "inputs": [
        {
          "internalType": "uint256",
          "name": "",
          "type": "uint256"
        }
      ],
      "name": "spaceExists",
      "outputs": [
        {
          "internalType": "bool",
          "name": "",
          "type": "bool"
        }
      ],
      "stateMutability": "view",
      "type": "function",
      "constant": true
    },
    {
      "inputs": [
        {
          "internalType": "uint256",
          "name": "",
          "type": "uint256"
        }
      ],
      "name": "spaces",
      "outputs": [
        {
          "internalType": "uint256",
          "name": "id",
          "type": "uint256"
        },
        {
          "internalType": "string",
          "name": "title",
          "type": "string"
        },
        {
          "internalType": "string",
          "name": "subtitle",
          "type": "string"
        },
        {
          "internalType": "string",
          "name": "description",
          "type": "string"
        },
        {
          "internalType": "string",
          "name": "images",
          "type": "string"
        },
        {
          "internalType": "uint256",
          "name": "rooms",
          "type": "uint256"
        },
        {
          "internalType": "uint256",
          "name": "price",
          "type": "uint256"
        },
        {
          "internalType": "address",
          "name": "owner",
          "type": "address"
        },
        {
          "internalType": "bool",
          "name": "booked",
          "type": "bool"
        },
        {
          "internalType": "bool",
          "name": "deleted",
          "type": "bool"
        },
        {
          "internalType": "bool",
          "name": "availability",
          "type": "bool"
        },
        {
          "internalType": "uint256",
          "name": "timestamp",
          "type": "uint256"
        }
      ],
      "stateMutability": "view",
      "type": "function",
      "constant": true
    },
    {
      "inputs": [],
      "name": "taxPercent",
      "outputs": [
        {
          "internalType": "uint256",
          "name": "",
          "type": "uint256"
        }
      ],
      "stateMutability": "view",
      "type": "function",
      "constant": true
    },
    {
      "inputs": [
        {
          "internalType": "address",
          "name": "newOwner",
          "type": "address"
        }
      ],
      "name": "transferOwnership",
      "outputs": [],
      "stateMutability": "nonpayable",
      "type": "function"
    },
    {
      "inputs": [
        {
          "internalType": "string",
          "name": "title",
          "type": "string"
        },
        {
          "internalType": "string",
          "name": "subtitle",
          "type": "string"
        },
        {
          "internalType": "string",
          "name": "description",
          "type": "string"
        },
        {
          "internalType": "string",
          "name": "images",
          "type": "string"
        },
        {
          "internalType": "uint256",
          "name": "rooms",
          "type": "uint256"
        },
        {
          "internalType": "uint256",
          "name": "price",
          "type": "uint256"
        }
      ],
      "name": "createSpace",
      "outputs": [],
      "stateMutability": "nonpayable",
      "type": "function"
    },
    {
      "inputs": [
        {
          "internalType": "uint256",
          "name": "id",
          "type": "uint256"
        },
        {
          "internalType": "string",
          "name": "title",
          "type": "string"
        },
        {
          "internalType": "string",
          "name": "subtitle",
          "type": "string"
        },
        {
          "internalType": "string",
          "name": "description",
          "type": "string"
        },
        {
          "internalType": "string",
          "name": "images",
          "type": "string"
        },
        {
          "internalType": "uint256",
          "name": "rooms",
          "type": "uint256"
        },
        {
          "internalType": "uint256",
          "name": "price",
          "type": "uint256"
        }
      ],
      "name": "updateSpace",
      "outputs": [],
      "stateMutability": "nonpayable",
      "type": "function"
    },
    {
      "inputs": [
        {
          "internalType": "uint256",
          "name": "id",
          "type": "uint256"
        }
      ],
      "name": "deleteSpace",
      "outputs": [],
      "stateMutability": "nonpayable",
      "type": "function"
    },
    {
      "inputs": [],
      "name": "getSpaces",
      "outputs": [
        {
          "components": [
            {
              "internalType": "uint256",
              "name": "id",
              "type": "uint256"
            },
            {
              "internalType": "string",
              "name": "title",
              "type": "string"
            },
            {
              "internalType": "string",
              "name": "subtitle",
              "type": "string"
            },
            {
              "internalType": "string",
              "name": "description",
              "type": "string"
            },
            {
              "internalType": "string",
              "name": "images",
              "type": "string"
            },
            {
              "internalType": "uint256",
              "name": "rooms",
              "type": "uint256"
            },
            {
              "internalType": "uint256",
              "name": "price",
              "type": "uint256"
            },
            {
              "internalType": "address",
              "name": "owner",
              "type": "address"
            },
            {
              "internalType": "bool",
              "name": "booked",
              "type": "bool"
            },
            {
              "internalType": "bool",
              "name": "deleted",
              "type": "bool"
            },
            {
              "internalType": "bool",
              "name": "availability",
              "type": "bool"
            },
            {
              "internalType": "uint256",
              "name": "timestamp",
              "type": "uint256"
            }
          ],
          "internalType": "struct RoomFlow.SpaceListing[]",
          "name": "",
          "type": "tuple[]"
        }
      ],
      "stateMutability": "view",
      "type": "function",
      "constant": true
    },
    {
      "inputs": [
        {
          "internalType": "uint256",
          "name": "id",
          "type": "uint256"
        }
      ],
      "name": "getSpace",
      "outputs": [
        {
          "components": [
            {
              "internalType": "uint256",
              "name": "id",
              "type": "uint256"
            },
            {
              "internalType": "string",
              "name": "title",
              "type": "string"
            },
            {
              "internalType": "string",
              "name": "subtitle",
              "type": "string"
            },
            {
              "internalType": "string",
              "name": "description",
              "type": "string"
            },
            {
              "internalType": "string",
              "name": "images",
              "type": "string"
            },
            {
              "internalType": "uint256",
              "name": "rooms",
              "type": "uint256"
            },
            {
              "internalType": "uint256",
              "name": "price",
              "type": "uint256"
            },
            {
              "internalType": "address",
              "name": "owner",
              "type": "address"
            },
            {
              "internalType": "bool",
              "name": "booked",
              "type": "bool"
            },
            {
              "internalType": "bool",
              "name": "deleted",
              "type": "bool"
            },
            {
              "internalType": "bool",
              "name": "availability",
              "type": "bool"
            },
            {
              "internalType": "uint256",
              "name": "timestamp",
              "type": "uint256"
            }
          ],
          "internalType": "struct RoomFlow.SpaceListing",
          "name": "",
          "type": "tuple"
        }
      ],
      "stateMutability": "view",
      "type": "function",
      "constant": true
    },
    {
      "inputs": [
        {
          "internalType": "uint256",
          "name": "id",
          "type": "uint256"
        },
        {
          "internalType": "uint256",
          "name": "startDate",
          "type": "uint256"
        },
        {
          "internalType": "uint256",
          "name": "endDate",
          "type": "uint256"
        }
      ],
      "name": "bookSpace",
      "outputs": [],
      "stateMutability": "payable",
      "type": "function",
      "payable": true
    },
    {
      "inputs": [
        {
          "internalType": "uint256",
          "name": "id",
          "type": "uint256"
        },
        {
          "internalType": "uint256",
          "name": "bookingId",
          "type": "uint256"
        }
      ],
      "name": "checkInSpace",
      "outputs": [],
      "stateMutability": "nonpayable",
      "type": "function"
    },
    {
      "inputs": [
        {
          "internalType": "uint256",
          "name": "id",
          "type": "uint256"
        },
        {
          "internalType": "uint256",
          "name": "bookingId",
          "type": "uint256"
        }
      ],
      "name": "claimFunds",
      "outputs": [],
      "stateMutability": "nonpayable",
      "type": "function"
    },
    {
      "inputs": [
        {
          "internalType": "uint256",
          "name": "id",
          "type": "uint256"
        },
        {
          "internalType": "uint256",
          "name": "bookingId",
          "type": "uint256"
        },
        {
          "internalType": "uint256",
          "name": "date",
          "type": "uint256"
        }
      ],
      "name": "refundBooking",
      "outputs": [],
      "stateMutability": "nonpayable",
      "type": "function"
    },
    {
      "inputs": [
        {
          "internalType": "uint256",
          "name": "id",
          "type": "uint256"
        },
        {
          "internalType": "uint256",
          "name": "bookingId",
          "type": "uint256"
        }
      ],
      "name": "hasBookedDateReached",
      "outputs": [
        {
          "internalType": "bool",
          "name": "",
          "type": "bool"
        }
      ],
      "stateMutability": "view",
      "type": "function",
      "constant": true
    },
    {
      "inputs": [
        {
          "internalType": "uint256",
          "name": "id",
          "type": "uint256"
        }
      ],
      "name": "getUnavailableDates",
      "outputs": [
        {
          "internalType": "uint256[]",
          "name": "",
          "type": "uint256[]"
        }
      ],
      "stateMutability": "view",
      "type": "function",
      "constant": true
    },
    {
      "inputs": [
        {
          "internalType": "uint256",
          "name": "id",
          "type": "uint256"
        }
      ],
      "name": "getBookings",
      "outputs": [
        {
          "components": [
            {
              "internalType": "uint256",
              "name": "id",
              "type": "uint256"
            },
            {
              "internalType": "address",
              "name": "tenant",
              "type": "address"
            },
            {
              "internalType": "uint256",
              "name": "startDate",
              "type": "uint256"
            },
            {
              "internalType": "uint256",
              "name": "endDate",
              "type": "uint256"
            },
            {
              "internalType": "uint256",
              "name": "totalPrice",
              "type": "uint256"
            },
            {
              "internalType": "bool",
              "name": "checked",
              "type": "bool"
            },
            {
              "internalType": "bool",
              "name": "cancelled",
              "type": "bool"
            }
          ],
          "internalType": "struct RoomFlow.Booking[]",
          "name": "",
          "type": "tuple[]"
        }
      ],
      "stateMutability": "view",
      "type": "function",
      "constant": true
    },
    {
      "inputs": [
        {
          "internalType": "uint256",
          "name": "id",
          "type": "uint256"
        },
        {
          "internalType": "uint256",
          "name": "bookingId",
          "type": "uint256"
        }
      ],
      "name": "getBooking",
      "outputs": [
        {
          "components": [
            {
              "internalType": "uint256",
              "name": "id",
              "type": "uint256"
            },
            {
              "internalType": "address",
              "name": "tenant",
              "type": "address"
            },
            {
              "internalType": "uint256",
              "name": "startDate",
              "type": "uint256"
            },
            {
              "internalType": "uint256",
              "name": "endDate",
              "type": "uint256"
            },
            {
              "internalType": "uint256",
              "name": "totalPrice",
              "type": "uint256"
            },
            {
              "internalType": "bool",
              "name": "checked",
              "type": "bool"
            },
            {
              "internalType": "bool",
              "name": "cancelled",
              "type": "bool"
            }
          ],
          "internalType": "struct RoomFlow.Booking",
          "name": "",
          "type": "tuple"
        }
      ],
      "stateMutability": "view",
      "type": "function",
      "constant": true
    },
    {
      "inputs": [
        {
          "internalType": "uint256",
          "name": "newFee",
          "type": "uint256"
        }
      ],
      "name": "updateSecurityFee",
      "outputs": [],
      "stateMutability": "nonpayable",
      "type": "function"
    },
    {
      "inputs": [
        {
          "internalType": "uint256",
          "name": "newTaxPercent",
          "type": "uint256"
        }
      ],
      "name": "updateTaxPercent",
      "outputs": [],
      "stateMutability": "nonpayable",
      "type": "function"
    },
    {
      "inputs": [
        {
          "internalType": "uint256",
          "name": "spaceId",
          "type": "uint256"
        },
        {
          "internalType": "string",
          "name": "reviewText",
          "type": "string"
        }
      ],
      "name": "addReview",
      "outputs": [],
      "stateMutability": "nonpayable",
      "type": "function"
    },
    {
      "inputs": [
        {
          "internalType": "uint256",
          "name": "spaceId",
          "type": "uint256"
        }
      ],
      "name": "getReviews",
      "outputs": [
        {
          "components": [
            {
              "internalType": "uint256",
              "name": "id",
              "type": "uint256"
            },
            {
              "internalType": "uint256",
              "name": "spaceId",
              "type": "uint256"
            },
            {
              "internalType": "string",
              "name": "reviewText",
              "type": "string"
            },
            {
              "internalType": "uint256",
              "name": "timestamp",
              "type": "uint256"
            },
            {
              "internalType": "address",
              "name": "reviewer",
              "type": "address"
            }
          ],
          "internalType": "struct RoomFlow.Review[]",
          "name": "",
          "type": "tuple[]"
        }
      ],
      "stateMutability": "view",
      "type": "function",
      "constant": true
    },
    {
      "inputs": [
        {
          "internalType": "uint256",
          "name": "spaceId",
          "type": "uint256"
        }
      ],
      "name": "tenantBooked",
      "outputs": [
        {
          "internalType": "bool",
          "name": "",
          "type": "bool"
        }
      ],
      "stateMutability": "view",
      "type": "function",
      "constant": true
    }
  ],
  "bytecode": "0x60806040523480156200001157600080fd5b5060405162003a7838038062003a788339810160408190526200003491620000af565b62000048620000426200005b565b6200005f565b60018055600591909155600455620000d3565b3390565b600080546001600160a01b038381166001600160a01b0319831681178455604051919092169283917f8be0079c531659141344cd1fd0a4f28419497f9722a3daafe3b4186f6b6457e09190a35050565b60008060408385031215620000c2578182fd5b505080516020909101519092909150565b61399580620000e36000396000f3fe6080604052600436106101cd5760003560e01c80638da5cb5b116100f7578063d68e130211610095578063eb46144511610064578063eb4614451461057d578063f2fde38b1461059d578063f4010995146105bd578063f6ab7e3d146105ea576101cd565b8063d68e130214610508578063db2f80b71461051d578063e16ca8d11461054a578063e1c696201461056a576101cd565b80639f31a2be116100d15780639f31a2be14610488578063a74431f4146104a8578063d3dfc0f6146104c8578063d684ccda146104e8576101cd565b80638da5cb5b1461040857806390067e311461042a5780639d4a22551461045b576101cd565b80635bb0c5d61161016f578063715018a61161013e578063715018a6146103795780637541f41c1461038e5780637586353b146103b05780637f75aed5146103e8576101cd565b80635bb0c5d6146102ec578063615911491461030c57806367e42ba71461032c57806370e104311461034c576101cd565b80632ce894bc116101ab5780632ce894bc1461023f5780633fa7e1531461026c578063455b30701461028c578063577bf6ee146102b9576101cd565b8063010b58ee146101d257806301d8a51b146101f457806315478ca914610214575b600080fd5b3480156101de57600080fd5b506101f26101ed366004612f7e565b61060a565b005b34801561020057600080fd5b506101f261020f366004612f7e565b6107a2565b34801561022057600080fd5b506102296109bc565b6040516102369190613261565b60405180910390f35b34801561024b57600080fd5b5061025f61025a366004612f7e565b610ddb565b60405161023691906132f9565b34801561027857600080fd5b506101f2610287366004612da2565b610dfb565b34801561029857600080fd5b506102ac6102a7366004612f7e565b611084565b6040516102369190613705565b3480156102c557600080fd5b506102d96102d4366004612f7e565b611136565b604051610236979695949392919061372f565b3480156102f857600080fd5b506101f2610307366004612e74565b6111a0565b34801561031857600080fd5b506101f2610327366004612e5c565b61130f565b34801561033857600080fd5b506101f2610347366004612eb9565b611377565b34801561035857600080fd5b5061036c610367366004612e5c565b611911565b6040516102369190613713565b34801561038557600080fd5b506101f2611bf7565b34801561039a57600080fd5b506103a3611c0b565b6040516102369190613726565b3480156103bc57600080fd5b506103d06103cb366004612e5c565b611c11565b6040516102369c9b9a9998979695949392919061376c565b3480156103f457600080fd5b5061025f610403366004612d79565b611ea6565b34801561041457600080fd5b5061041d611ec6565b6040516102369190613164565b34801561043657600080fd5b5061044a610445366004612f7e565b611ed5565b60405161023695949392919061382e565b34801561046757600080fd5b5061047b610476366004612e5c565b611fba565b60405161023691906131c6565b34801561049457600080fd5b5061025f6104a3366004612e5c565b6120f5565b3480156104b457600080fd5b5061025f6104c3366004612e5c565b612115565b3480156104d457600080fd5b506103a36104e3366004612f7e565b61212a565b3480156104f457600080fd5b506101f2610503366004612e5c565b61215b565b34801561051457600080fd5b506103a3612223565b34801561052957600080fd5b5061053d610538366004612e5c565b612229565b60405161023691906132c1565b34801561055657600080fd5b506101f2610565366004612f9f565b61228b565b6101f2610578366004612f9f565b612639565b34801561058957600080fd5b506101f2610598366004612e5c565b61284c565b3480156105a957600080fd5b506101f26105b8366004612d5f565b612859565b3480156105c957600080fd5b506105dd6105d8366004612e5c565b612893565b6040516102369190613178565b3480156105f657600080fd5b5061025f610605366004612f7e565b61294e565b6000828152600660205260409020600701546001600160a01b0316331461064c5760405162461bcd60e51b8152600401610643906135c7565b60405180910390fd5b600082815260076020526040902080548290811061067a57634e487b7160e01b600052603260045260246000fd5b600091825260209091206005600690920201015460ff16156106ae5760405162461bcd60e51b8152600401610643906136bf565b60008281526007602052604081208054839081106106dc57634e487b7160e01b600052603260045260246000fd5b9060005260206000209060060201600401549050600060646005548361070291906138a7565b61070c9190613887565b60008581526006602052604090206007015490915061073d906001600160a01b031661073883856138c6565b61299a565b61074e610748611ec6565b8261299a565b61075a3360045461299a565b336001600160a01b0316847fd926062942047dc8fc183828f55f4b9f3c32ea18a739f8d1bc73c82b4129113b856040516107949190613726565b60405180910390a350505050565b60008281526007602052604090208054829081106107d057634e487b7160e01b600052603260045260246000fd5b60009182526020909120600690910201600101546001600160a01b0316331461080b5760405162461bcd60e51b8152600401610643906134f3565b600082815260076020526040902080548290811061083957634e487b7160e01b600052603260045260246000fd5b600091825260209091206005600690920201015460ff161561086d5760405162461bcd60e51b8152600401610643906136bf565b60008281526007602052604090208054600191908390811061089f57634e487b7160e01b600052603260045260246000fd5b60009182526020808320600692909202909101600501805460ff1916931515939093179092558381526007909152604081208054839081106108f157634e487b7160e01b600052603260045260246000fd5b9060005260206000209060060201600401549050600060646005548361091791906138a7565b6109219190613887565b336000908152600c602090815260408083208884528252808320805460ff19166001179055600690915290206007015490915061096b906001600160a01b031661073883856138c6565b610976610748611ec6565b6109823360045461299a565b336001600160a01b0316847f30b418308672466269a424268a426a1214029673211e536dfb7565397433cc91856040516107949190613726565b6060600060015b6109cd6002612a16565b8111610a1357600081815260066020526040902060070154600160a81b900460ff16610a0157816109fd81613918565b9250505b80610a0b81613918565b9150506109c3565b5060008167ffffffffffffffff811115610a3d57634e487b7160e01b600052604160045260246000fd5b604051908082528060200260200182016040528015610a7657816020015b610a63612b3c565b815260200190600190039081610a5b5790505b509050600060015b610a886002612a16565b8111610dd257600081815260066020526040902060070154600160a81b900460ff16610dc057600660008281526020019081526020016000206040518061018001604052908160008201548152602001600182018054610ae7906138dd565b80601f0160208091040260200160405190810160405280929190818152602001828054610b13906138dd565b8015610b605780601f10610b3557610100808354040283529160200191610b60565b820191906000526020600020905b815481529060010190602001808311610b4357829003601f168201915b50505050508152602001600282018054610b79906138dd565b80601f0160208091040260200160405190810160405280929190818152602001828054610ba5906138dd565b8015610bf25780601f10610bc757610100808354040283529160200191610bf2565b820191906000526020600020905b815481529060010190602001808311610bd557829003601f168201915b50505050508152602001600382018054610c0b906138dd565b80601f0160208091040260200160405190810160405280929190818152602001828054610c37906138dd565b8015610c845780601f10610c5957610100808354040283529160200191610c84565b820191906000526020600020905b815481529060010190602001808311610c6757829003601f168201915b50505050508152602001600482018054610c9d906138dd565b80601f0160208091040260200160405190810160405280929190818152602001828054610cc9906138dd565b8015610d165780601f10610ceb57610100808354040283529160200191610d16565b820191906000526020600020905b815481529060010190602001808311610cf957829003601f168201915b5050509183525050600582015460208201526006820154604082015260078201546001600160a01b038116606083015260ff600160a01b8204811615156080840152600160a81b82048116151560a0840152600160b01b90910416151560c082015260089091015460e0909101528351849084908110610da657634e487b7160e01b600052603260045260246000fd5b60200260200101819052508180610dbc90613918565b9250505b80610dca81613918565b915050610a7e565b50909250505090565b600b60209081526000928352604080842090915290825290205460ff1681565b6000865111610e1c5760405162461bcd60e51b81526004016106439061333b565b6000855111610e3d5760405162461bcd60e51b81526004016106439061333b565b6000845111610e5e5760405162461bcd60e51b815260040161064390613457565b6000835111610e7f5760405162461bcd60e51b81526004016106439061362b565b60008211610e9f5760405162461bcd60e51b815260040161064390613429565b60008111610ebf5760405162461bcd60e51b8152600401610643906134c5565b610ec96002612a1a565b610ed1612b3c565b610edb6002612a16565b808252602080830189815260408085018a9052606085018990526080850188905260a0850187905260c085018690523360e08601526001610140860181905242610160870152600094855260098452818520805460ff19168217905585518552600684529320845181559051805185949293610f5b938501920190612bac565b5060408201518051610f77916002840191602090910190612bac565b5060608201518051610f93916003840191602090910190612bac565b5060808201518051610faf916004840191602090910190612bac565b5060a0820151600582015560c0820151600682015560e08201516007820180546101008501516101208601516101408701516001600160a01b03199093166001600160a01b039095169490941760ff60a01b1916600160a01b911515919091021760ff60a81b1916600160a81b931515939093029290921760ff60b01b1916600160b01b921515929092029190911790556101609091015160089091015580516040513391907f868b71f2fccb02b35739f9bb13e51ce12a10ca4ceb16ecd8d3da9a416875edb690600090a350505050505050565b61108c612c30565b60008381526007602052604090208054839081106110ba57634e487b7160e01b600052603260045260246000fd5b60009182526020918290206040805160e08101825260069093029091018054835260018101546001600160a01b031693830193909352600283015490820152600382015460608201526004820154608082015260059091015460ff808216151560a084015261010090910416151560c082015290505b92915050565b6007602052816000526040600020818154811061115257600080fd5b60009182526020909120600690910201805460018201546002830154600384015460048501546005909501549396506001600160a01b03909216945092909160ff8082169161010090041687565b60008281526009602052604090205460ff166111ce5760405162461bcd60e51b815260040161064390613692565b336000908152600c6020908152604080832085845290915290205460ff166112085760405162461bcd60e51b815260040161064390613304565b60008151116112295760405162461bcd60e51b8152600401610643906135f4565b6112336003612a1a565b61123b612c7a565b6112456003612a16565b8152602080820184815260408084018581524260608601523360808601526000878152600885529182208054600181810183559184529285902086516005909402019283559251928201929092559051805184936112aa926002850192910190612bac565b5060608201516003820155608090910151600490910180546001600160a01b0319166001600160a01b03909216919091179055604051339084907f147d2c343f054e85e3a52f84240e7454f6361913e64b66f8abc756ffc455683d90600090a3505050565b611317612a23565b600081116113375760405162461bcd60e51b8152600401610643906133b0565b60048190556040517f3790aeee57809af98fad1b89b9266c7934e03ed46702b541f2fef6f1e89d68279061136c908390613726565b60405180910390a150565b60008781526009602052604090205460ff166113a55760405162461bcd60e51b815260040161064390613692565b6000878152600660205260409020600701546001600160a01b031633146113de5760405162461bcd60e51b8152600401610643906133e7565b60008651116113ff5760405162461bcd60e51b81526004016106439061333b565b60008551116114205760405162461bcd60e51b81526004016106439061333b565b60008451116114415760405162461bcd60e51b815260040161064390613457565b60008351116114625760405162461bcd60e51b81526004016106439061362b565b600082116114825760405162461bcd60e51b815260040161064390613429565b600081116114a25760405162461bcd60e51b8152600401610643906134c5565b60006006600089815260200190815260200160002060405180610180016040529081600082015481526020016001820180546114dd906138dd565b80601f0160208091040260200160405190810160405280929190818152602001828054611509906138dd565b80156115565780601f1061152b57610100808354040283529160200191611556565b820191906000526020600020905b81548152906001019060200180831161153957829003601f168201915b5050505050815260200160028201805461156f906138dd565b80601f016020809104026020016040519081016040528092919081815260200182805461159b906138dd565b80156115e85780601f106115bd576101008083540402835291602001916115e8565b820191906000526020600020905b8154815290600101906020018083116115cb57829003601f168201915b50505050508152602001600382018054611601906138dd565b80601f016020809104026020016040519081016040528092919081815260200182805461162d906138dd565b801561167a5780601f1061164f5761010080835404028352916020019161167a565b820191906000526020600020905b81548152906001019060200180831161165d57829003601f168201915b50505050508152602001600482018054611693906138dd565b80601f01602080910402602001604051908101604052809291908181526020018280546116bf906138dd565b801561170c5780601f106116e15761010080835404028352916020019161170c565b820191906000526020600020905b8154815290600101906020018083116116ef57829003601f168201915b5050509183525050600582015460208083019190915260068084015460408085019190915260078501546001600160a01b03811660608087019190915260ff600160a01b830481161515608080890191909152600160a81b84048216151560a0808a0191909152600160b01b909404909116151560c08089019190915260089098015460e0909701969096528785018f81528884018f90529088018d90529487018b9052860189905293850187905260008d8152908252929092208351815590518051939450849391926117e892600185019290910190612bac565b5060408201518051611804916002840191602090910190612bac565b5060608201518051611820916003840191602090910190612bac565b506080820151805161183c916004840191602090910190612bac565b5060a0820151600582015560c0820151600682015560e08201516007820180546101008501516101208601516101408701516001600160a01b03199093166001600160a01b039095169490941760ff60a01b1916600160a01b911515919091021760ff60a81b1916600160a81b931515939093029290921760ff60b01b1916600160b01b9215159290920291909117905561016090910151600890910155604051339089907f8c1f88cc5fde6e96b35b272bc40125010157a55a39ae25a74f80275ba7d2ba6e90600090a35050505050505050565b611919612b3c565b600660008381526020019081526020016000206040518061018001604052908160008201548152602001600182018054611952906138dd565b80601f016020809104026020016040519081016040528092919081815260200182805461197e906138dd565b80156119cb5780601f106119a0576101008083540402835291602001916119cb565b820191906000526020600020905b8154815290600101906020018083116119ae57829003601f168201915b505050505081526020016002820180546119e4906138dd565b80601f0160208091040260200160405190810160405280929190818152602001828054611a10906138dd565b8015611a5d5780601f10611a3257610100808354040283529160200191611a5d565b820191906000526020600020905b815481529060010190602001808311611a4057829003601f168201915b50505050508152602001600382018054611a76906138dd565b80601f0160208091040260200160405190810160405280929190818152602001828054611aa2906138dd565b8015611aef5780601f10611ac457610100808354040283529160200191611aef565b820191906000526020600020905b815481529060010190602001808311611ad257829003601f168201915b50505050508152602001600482018054611b08906138dd565b80601f0160208091040260200160405190810160405280929190818152602001828054611b34906138dd565b8015611b815780601f10611b5657610100808354040283529160200191611b81565b820191906000526020600020905b815481529060010190602001808311611b6457829003601f168201915b5050509183525050600582015460208201526006820154604082015260078201546001600160a01b038116606083015260ff600160a01b8204811615156080840152600160a81b82048116151560a0840152600160b01b90910416151560c082015260089091015460e09091015290505b919050565b611bff612a23565b611c096000612a62565b565b60055481565b60066020526000908152604090208054600182018054919291611c33906138dd565b80601f0160208091040260200160405190810160405280929190818152602001828054611c5f906138dd565b8015611cac5780601f10611c8157610100808354040283529160200191611cac565b820191906000526020600020905b815481529060010190602001808311611c8f57829003601f168201915b505050505090806002018054611cc1906138dd565b80601f0160208091040260200160405190810160405280929190818152602001828054611ced906138dd565b8015611d3a5780601f10611d0f57610100808354040283529160200191611d3a565b820191906000526020600020905b815481529060010190602001808311611d1d57829003601f168201915b505050505090806003018054611d4f906138dd565b80601f0160208091040260200160405190810160405280929190818152602001828054611d7b906138dd565b8015611dc85780601f10611d9d57610100808354040283529160200191611dc8565b820191906000526020600020905b815481529060010190602001808311611dab57829003601f168201915b505050505090806004018054611ddd906138dd565b80601f0160208091040260200160405190810160405280929190818152602001828054611e09906138dd565b8015611e565780601f10611e2b57610100808354040283529160200191611e56565b820191906000526020600020905b815481529060010190602001808311611e3957829003601f168201915b505050600584015460068501546007860154600890960154949591949093506001600160a01b038216925060ff600160a01b8304811692600160a81b8104821692600160b01b909104909116908c565b600c60209081526000928352604080842090915290825290205460ff1681565b6000546001600160a01b031690565b60086020528160005260406000208181548110611ef157600080fd5b906000526020600020906005020160009150915050806000015490806001015490806002018054611f21906138dd565b80601f0160208091040260200160405190810160405280929190818152602001828054611f4d906138dd565b8015611f9a5780601f10611f6f57610100808354040283529160200191611f9a565b820191906000526020600020905b815481529060010190602001808311611f7d57829003601f168201915b5050505060038301546004909301549192916001600160a01b0316905085565b606060086000838152602001908152602001600020805480602002602001604051908101604052809291908181526020016000905b828210156120ea57838290600052602060002090600502016040518060a00160405290816000820154815260200160018201548152602001600282018054612036906138dd565b80601f0160208091040260200160405190810160405280929190818152602001828054612062906138dd565b80156120af5780601f10612084576101008083540402835291602001916120af565b820191906000526020600020905b81548152906001019060200180831161209257829003601f168201915b505050918352505060038201546020808301919091526004909201546001600160a01b03166040909101529082526001929092019101611fef565b505050509050919050565b336000908152600c60209081526040808320938352929052205460ff1690565b60096020526000908152604090205460ff1681565b600a602052816000526040600020818154811061214657600080fd5b90600052602060002001600091509150505481565b60008181526009602052604090205460ff166121895760405162461bcd60e51b815260040161064390613692565b6000818152600660205260409020600701546001600160a01b031633146121c25760405162461bcd60e51b8152600401610643906135c7565b6000818152600960209081526040808320805460ff191690556006909152808220600701805460ff60a81b1916600160a81b17905551339183917fd473bfc963d89546be6b7891f87adc6e3a54f911cce733a781c0f4111f34af749190a350565b60045481565b6000818152600a602090815260409182902080548351818402810184019094528084526060939283018282801561227f57602002820191906000526020600020905b81548152602001906001019080831161226b575b50505050509050919050565b612293612ab2565b60008381526007602052604090208054839081106122c157634e487b7160e01b600052603260045260246000fd5b600091825260209091206005600690920201015460ff16156122f55760405162461bcd60e51b8152600401610643906136bf565b6122fd611ec6565b6001600160a01b0316336001600160a01b0316146123de57600083815260076020526040902080548390811061234357634e487b7160e01b600052603260045260246000fd5b60009182526020909120600690910201600101546001600160a01b0316331461237e5760405162461bcd60e51b8152600401610643906134f3565b60008381526007602052604090208054429190849081106123af57634e487b7160e01b600052603260045260246000fd5b906000526020600020906006020160020154116123de5760405162461bcd60e51b81526004016106439061357d565b60008381526007602052604090208054600191908490811061241057634e487b7160e01b600052603260045260246000fd5b6000918252602080832060056006909302019190910180549315156101000261ff001990941693909317909255848152600b825260408082208483528352808220805460ff19169055858252600a90925290812054612471906001906138c6565b6000858152600a6020526040812080549293509091839081106124a457634e487b7160e01b600052603260045260246000fd5b9060005260206000200154905080600a600087815260200190815260200160002085815481106124e457634e487b7160e01b600052603260045260246000fd5b9060005260206000200181905550600a600086815260200190815260200160002080548061252257634e487b7160e01b600052603160045260246000fd5b60019003818190600052602060002001600090559055600060076000878152602001908152602001600020858154811061256c57634e487b7160e01b600052603260045260246000fd5b90600052602060002090600602016004015490506000606460055460045461259491906138a7565b61259e9190613887565b6000888152600660205260409020600701546004549192506125d1916001600160a01b03909116906107389084906138c6565b6125dc610748611ec6565b6125e6338361299a565b336001600160a01b0316877fee23823014af21a0665780b9dd21b7f1e277276946bacfb1475ed82f18b30c85886040516126209190613726565b60405180910390a350505050612634612adc565b505050565b612641612ab2565b60008381526009602052604090205460ff1661266f5760405162461bcd60e51b815260040161064390613692565b61267a838383612ae2565b6126965760405162461bcd60e51b81526004016106439061348e565b60006305265c006126a784846138c6565b6126b19190613887565b9050825b8281116127fe576126c4612c30565b60008681526007602090815260409182902054835233908301528101859052606081018490526126f583600161386f565b6000878152600660208190526040909120015461271291906138a7565b60808201908152600087815260076020908152604080832080546001818101835591855283852087516006909202019081558387015181830180546001600160a01b039092166001600160a01b0319909216919091179055828701516002820155606087015160038201559451600486015560a08601516005909501805460c09097015115156101000261ff001996151560ff19988916179690961695909517909455898352600b8252808320868452825280832080549095168417909455888252600a81529281208054928301815581529190912001819055806127f681613918565b9150506126b5565b50336001600160a01b0316847ffd1c7562d632ad1f2eb1d3d73d9d9b803ce2a893c16fdc9d21c3da272e6a8c85858560405161283b929190613820565b60405180910390a350612634612adc565b612854612a23565b600555565b612861612a23565b6001600160a01b0381166128875760405162461bcd60e51b81526004016106439061336a565b61289081612a62565b50565b606060076000838152602001908152602001600020805480602002602001604051908101604052809291908181526020016000905b828210156120ea5760008481526020908190206040805160e08101825260068602909201805483526001808201546001600160a01b03168486015260028201549284019290925260038101546060840152600481015460808401526005015460ff808216151560a085015261010090910416151560c083015290835290920191016128c8565b600082815260076020526040812080544291908490811061297f57634e487b7160e01b600052603260045260246000fd5b90600052602060002090600602016002015410905092915050565b6000826001600160a01b0316826040516129b390613161565b60006040518083038185875af1925050503d80600081146129f0576040519150601f19603f3d011682016040523d82523d6000602084013e6129f5565b606091505b50509050806126345760405162461bcd60e51b815260040161064390613520565b5490565b80546001019055565b612a2b612b38565b6001600160a01b0316612a3c611ec6565b6001600160a01b031614611c095760405162461bcd60e51b815260040161064390613548565b600080546001600160a01b038381166001600160a01b0319831681178455604051919092169283917f8be0079c531659141344cd1fd0a4f28419497f9722a3daafe3b4186f6b6457e09190a35050565b60026001541415612ad55760405162461bcd60e51b81526004016106439061365b565b6002600155565b60018055565b6000825b828111612b2b576000858152600b6020908152604080832084845290915290205460ff1615612b19576000915050612b31565b80612b2381613918565b915050612ae6565b50600190505b9392505050565b3390565b6040518061018001604052806000815260200160608152602001606081526020016060815260200160608152602001600081526020016000815260200160006001600160a01b03168152602001600015158152602001600015158152602001600015158152602001600081525090565b828054612bb8906138dd565b90600052602060002090601f016020900481019282612bda5760008555612c20565b82601f10612bf357805160ff1916838001178555612c20565b82800160010185558215612c20579182015b82811115612c20578251825591602001919060010190612c05565b50612c2c929150612cb2565b5090565b6040518060e001604052806000815260200160006001600160a01b031681526020016000815260200160008152602001600081526020016000151581526020016000151581525090565b6040518060a001604052806000815260200160008152602001606081526020016000815260200160006001600160a01b031681525090565b5b80821115612c2c5760008155600101612cb3565b80356001600160a01b0381168114611bf257600080fd5b600082601f830112612cee578081fd5b813567ffffffffffffffff80821115612d0957612d09613949565b604051601f8301601f191681016020018281118282101715612d2d57612d2d613949565b604052828152848301602001861015612d44578384fd5b82602086016020830137918201602001929092529392505050565b600060208284031215612d70578081fd5b612b3182612cc7565b60008060408385031215612d8b578081fd5b612d9483612cc7565b946020939093013593505050565b60008060008060008060c08789031215612dba578182fd5b863567ffffffffffffffff80821115612dd1578384fd5b612ddd8a838b01612cde565b97506020890135915080821115612df2578384fd5b612dfe8a838b01612cde565b96506040890135915080821115612e13578384fd5b612e1f8a838b01612cde565b95506060890135915080821115612e34578384fd5b50612e4189828a01612cde565b9350506080870135915060a087013590509295509295509295565b600060208284031215612e6d578081fd5b5035919050565b60008060408385031215612e86578182fd5b82359150602083013567ffffffffffffffff811115612ea3578182fd5b612eaf85828601612cde565b9150509250929050565b600080600080600080600060e0888a031215612ed3578081fd5b87359650602088013567ffffffffffffffff80821115612ef1578283fd5b612efd8b838c01612cde565b975060408a0135915080821115612f12578283fd5b612f1e8b838c01612cde565b965060608a0135915080821115612f33578283fd5b612f3f8b838c01612cde565b955060808a0135915080821115612f54578283fd5b50612f618a828b01612cde565b93505060a0880135915060c0880135905092959891949750929550565b60008060408385031215612f90578182fd5b50508035926020909101359150565b600080600060608486031215612fb3578283fd5b505081359360208301359350604090920135919050565b6001600160a01b03169052565b15159052565b60008151808452815b8181101561300257602081850181015186830182015201612fe6565b818111156130135782602083870101525b50601f01601f19169290920160200192915050565b805182526020808201516001600160a01b03169083015260408082015190830152606080820151908301526080808201519083015260a08082015115159083015260c0908101511515910152565b600061018082518452602083015181602086015261309682860182612fdd565b915050604083015184820360408601526130b08282612fdd565b915050606083015184820360608601526130ca8282612fdd565b915050608083015184820360808601526130e48282612fdd565b91505060a083015160a085015260c083015160c085015260e083015161310d60e0860182612fca565b506101008084015161312182870182612fd7565b50506101208084015161313682870182612fd7565b50506101408084015161314b82870182612fd7565b5050610160928301519390920192909252919050565b90565b6001600160a01b0391909116815260200190565b6020808252825182820181905260009190848201906040850190845b818110156131ba576131a7838551613028565b9284019260e09290920191600101613194565b50909695505050505050565b60208082528251828201819052600091906040908185019080840286018301878501865b8381101561325357603f19898403018552815160a081518552888201518986015287820151818987015261322082870182612fdd565b606084810151908801526080938401516001600160a01b03169390960192909252505093860193908601906001016131ea565b509098975050505050505050565b6000602080830181845280855180835260408601915060408482028701019250838701855b828110156132b457603f198886030184526132a2858351613076565b94509285019290850190600101613286565b5092979650505050505050565b6020808252825182820181905260009190848201906040850190845b818110156131ba578351835292840192918401916001016132dd565b901515815260200190565b60208082526018908201527f426f6f6b206669727374206265666f7265207265766965770000000000000000604082015260600190565b6020808252601590820152747469746c652063616e6e6f7420626520656d70747960581b604082015260600190565b60208082526026908201527f4f776e61626c653a206e6577206f776e657220697320746865207a65726f206160408201526564647265737360d01b606082015260800190565b6020808252601a908201527f466565206d7573742062652067726561746572207468616e2030000000000000604082015260600190565b60208082526022908201527f556e617574686f72697a656420706572736f6e6e656c2c206f776e6572206f6e6040820152616c7960f01b606082015260800190565b602080825260149082015273526f6f6d732063616e6e6f74206265207a65726f60601b604082015260600190565b6020808252601b908201527f4465736372697074696f6e2063616e6e6f7420626520656d7074790000000000604082015260600190565b6020808252601d908201527f426f6f6b6564206461746520666f756e6420616d6f6e67206461746573000000604082015260600190565b60208082526014908201527350726963652063616e6e6f74206265207a65726f60601b604082015260600190565b602080825260139082015272155b985d5d1a1bdc9a5e9959081d195b985b9d606a1b604082015260600190565b6020808252600e908201526d14185e5b595b9d0819985a5b195960921b604082015260600190565b6020808252818101527f4f776e61626c653a2063616c6c6572206973206e6f7420746865206f776e6572604082015260600190565b6020808252602a908201527f43616e206e6f206c6f6e67657220726566756e642c20626f6f6b696e672064616040820152691d19481cdd185c9d195960b21b606082015260800190565b602080825260139082015272556e617574686f72697a656420656e7469747960681b604082015260600190565b6020808252601b908201527f52657669657720746578742063616e6e6f7420626520656d7074790000000000604082015260600190565b602080825260169082015275496d616765732063616e6e6f7420626520656d70747960501b604082015260600190565b6020808252601f908201527f5265656e7472616e637947756172643a207265656e7472616e742063616c6c00604082015260600190565b6020808252601390820152725370616365206e6f7420617661696c61626c6560681b604082015260600190565b60208082526026908201527f41706172746d656e7420616c726561647920636865636b6564206f6e2074686960408201526573206461746560d01b606082015260800190565b60e081016111308284613028565b600060208252612b316020830184613076565b90815260200190565b9687526001600160a01b03959095166020870152604086019390935260608501919091526080840152151560a0830152151560c082015260e00190565b60006101808e83528060208401526137868184018f612fdd565b9050828103604084015261379a818e612fdd565b905082810360608401526137ae818d612fdd565b905082810360808401526137c2818c612fdd565b60a084018b905260c084018a90526001600160a01b03891660e085015287151561010085015291506137fa9050610120830186612fd7565b613808610140830185612fd7565b826101608301529d9c50505050505050505050505050565b918252602082015260400190565b600086825285602083015260a0604083015261384d60a0830186612fdd565b6060830194909452506001600160a01b03919091166080909101529392505050565b6000821982111561388257613882613933565b500190565b6000826138a257634e487b7160e01b81526012600452602481fd5b500490565b60008160001904831182151516156138c1576138c1613933565b500290565b6000828210156138d8576138d8613933565b500390565b6002810460018216806138f157607f821691505b6020821081141561391257634e487b7160e01b600052602260045260246000fd5b50919050565b600060001982141561392c5761392c613933565b5060010190565b634e487b7160e01b600052601160045260246000fd5b634e487b7160e01b600052604160045260246000fdfea264697066735822122050cdd93c708801efb7da0498f9d3a6bf7f40bc50b6567568056460d23630500b64736f6c63430008000033",
  "immutableReferences": {},
  "source": "    // SPDX-License-Identifier: MIT\r\n    pragma solidity ^0.8.0;\r\n\r\n    import \"@openzeppelin/contracts/access/Ownable.sol\";\r\n    import \"@openzeppelin/contracts/utils/Counters.sol\";\r\n    import \"@openzeppelin/contracts/security/ReentrancyGuard.sol\";\r\n\r\n    contract RoomFlow is Ownable, ReentrancyGuard {\r\n        using Counters for Counters.Counter;\r\n        Counters.Counter private _totalSpaces;\r\n        Counters.Counter private _totalReviews;\r\n\r\n        struct SpaceListing {\r\n            uint id;\r\n            string title;\r\n            string subtitle;\r\n            string description;\r\n            string images;\r\n            uint rooms;\r\n            uint price;\r\n            address owner;\r\n            bool booked;\r\n            bool deleted;\r\n            bool availability;\r\n            uint timestamp;\r\n        }\r\n\r\n        struct Booking {\r\n            uint id;\r\n            address tenant;\r\n            uint startDate;\r\n            uint endDate;\r\n            uint totalPrice;\r\n            bool checked;\r\n            bool cancelled;\r\n        }\r\n\r\n        struct Review {\r\n            uint id;\r\n            uint spaceId;\r\n            string reviewText;\r\n            uint timestamp;\r\n            address reviewer;\r\n        }\r\n\r\n        // event SecurityFeeUpdated(uint newFee);\r\n\r\n        event SpaceListed(uint indexed id, address indexed owner);\r\n        event SpaceUpdated(uint indexed id, address indexed owner);\r\n        event SpaceDeleted(uint indexed id, address indexed owner);\r\n        event SpaceBooked(\r\n            uint indexed id,\r\n            address indexed tenant,\r\n            uint startDate,\r\n            uint endDate\r\n        );\r\n        event SpaceCheckedIn(\r\n            uint indexed id,\r\n            address indexed tenant,\r\n            uint bookingId\r\n        );\r\n        event SpaceFundsClaimed(\r\n            uint indexed id,\r\n            address indexed owner,\r\n            uint bookingId\r\n        );\r\n        event SpaceRefunded(\r\n            uint indexed id,\r\n            address indexed tenant,\r\n            uint bookingId\r\n        );\r\n        event ReviewAdded(uint indexed spaceId, address indexed author);\r\n        event SecurityFeeUpdated(uint newFee);\r\n        event TaxPercentUpdated(uint newTaxPercent);\r\n\r\n        uint public securityFee;\r\n        uint public taxPercent;\r\n\r\n        mapping(uint => SpaceListing) public spaces;\r\n        mapping(uint => Booking[]) public bookingsOf;\r\n        mapping(uint => Review[]) public reviewsOf;\r\n        mapping(uint => bool) public spaceExists;\r\n        mapping(uint => uint[]) public bookedDates;\r\n        mapping(uint => mapping(uint => bool)) public isDateBooked;\r\n        mapping(address => mapping(uint => bool)) public hasBooked;\r\n\r\n        constructor(uint _taxPercent, uint _securityFee) {\r\n            taxPercent = _taxPercent;\r\n            securityFee = _securityFee;\r\n        }\r\n\r\n        function createSpace(\r\n            string memory title,\r\n            string memory subtitle,\r\n            string memory description,\r\n            string memory images,\r\n            uint rooms,\r\n            uint price\r\n        ) public {\r\n            require(bytes(title).length > 0, \"title cannot be empty\");\r\n            require(bytes(subtitle).length > 0, \"title cannot be empty\");\r\n            require(bytes(description).length > 0, \"Description cannot be empty\");\r\n            require(bytes(images).length > 0, \"Images cannot be empty\");\r\n            require(rooms > 0, \"Rooms cannot be zero\");\r\n            require(price > 0 wei, \"Price cannot be zero\");\r\n\r\n            _totalSpaces.increment();\r\n            SpaceListing memory space;\r\n            space.id = _totalSpaces.current();\r\n            space.title = title;\r\n            space.subtitle = subtitle;\r\n            space.description = description;\r\n            space.images = images;\r\n            space.rooms = rooms;\r\n            space.price = price;\r\n            space.owner = msg.sender;\r\n            space.availability = true;\r\n            space.timestamp = block.timestamp;\r\n\r\n            spaceExists[space.id] = true;\r\n            spaces[space.id] = space;\r\n            emit SpaceListed(space.id, msg.sender);\r\n        }\r\n\r\n        function updateSpace(\r\n            uint id,\r\n            string memory title,\r\n            string memory subtitle,\r\n            string memory description,\r\n            string memory images,\r\n            uint rooms,\r\n            uint price\r\n        ) public {\r\n            require(spaceExists[id], \"Space not available\");\r\n            require(\r\n                msg.sender == spaces[id].owner,\r\n                \"Unauthorized personnel, owner only\"\r\n            );\r\n            require(bytes(title).length > 0, \"title cannot be empty\");\r\n            require(bytes(subtitle).length > 0, \"title cannot be empty\");\r\n            require(bytes(description).length > 0, \"Description cannot be empty\");\r\n            require(bytes(images).length > 0, \"Images cannot be empty\");\r\n            require(rooms > 0, \"Rooms cannot be zero\");\r\n            require(price > 0 wei, \"Price cannot be zero\");\r\n\r\n            SpaceListing memory space = spaces[id];\r\n            space.title = title;\r\n            space.subtitle = subtitle;\r\n            space.description = description;\r\n            space.images = images;\r\n            space.rooms = rooms;\r\n            space.price = price;\r\n\r\n            spaces[id] = space;\r\n            emit SpaceUpdated(id, msg.sender);\r\n        }\r\n\r\n        function deleteSpace(uint id) public {\r\n            require(spaceExists[id], \"Space not available\");\r\n            require(spaces[id].owner == msg.sender, \"Unauthorized entity\");\r\n\r\n            spaceExists[id] = false;\r\n            spaces[id].deleted = true;\r\n            emit SpaceDeleted(id, msg.sender);\r\n        }\r\n\r\n        function getSpaces() public view returns (SpaceListing[] memory) {\r\n            uint256 totalSpace;\r\n            for (uint i = 1; i <= _totalSpaces.current(); i++) {\r\n                if (!spaces[i].deleted) totalSpace++;\r\n            }\r\n\r\n            SpaceListing[] memory spaceListings = new SpaceListing[](totalSpace);\r\n\r\n            uint256 j = 0;\r\n            for (uint i = 1; i <= _totalSpaces.current(); i++) {\r\n                if (!spaces[i].deleted) {\r\n                    spaceListings[j] = spaces[i];\r\n                    j++;\r\n                }\r\n            }\r\n\r\n            return spaceListings;\r\n        }\r\n\r\n        function getSpace(uint id) public view returns (SpaceListing memory) {\r\n            return spaces[id];\r\n        }\r\n\r\n        function bookSpace(\r\n            uint id,\r\n            uint startDate,\r\n            uint endDate\r\n        ) public payable nonReentrant {\r\n            require(spaceExists[id], \"Space not available\");\r\n            // require(\r\n            //     msg.value >=\r\n            //         spaces[id].price * (endDate - startDate + 1) + securityFee,\r\n            //     \"Insufficient fund\"\r\n            // );\r\n            require(\r\n                isDateCleared(id, startDate, endDate),\r\n                \"Booked date found among dates\"\r\n            );\r\n            \r\n            uint day= (endDate - startDate) /86400000;\r\n\r\n            for (uint i = startDate; i <= endDate; i++) {\r\n                Booking memory booking;\r\n                booking.id = bookingsOf[id].length;\r\n                booking.tenant = msg.sender;\r\n                booking.startDate = startDate;\r\n                booking.endDate = endDate;\r\n                booking.totalPrice = spaces[id].price * (day + 1);\r\n                bookingsOf[id].push(booking);\r\n                isDateBooked[id][i] = true;\r\n                bookedDates[id].push(i);\r\n            }\r\n            emit SpaceBooked(id, msg.sender, startDate, endDate);\r\n        }\r\n\r\n        function isDateCleared(\r\n            uint id,\r\n            uint startDate,\r\n            uint endDate\r\n        ) internal view returns (bool) {\r\n            for (uint i = startDate; i <= endDate; i++) {\r\n                if (isDateBooked[id][i]) return false;\r\n            }\r\n            return true;\r\n        }\r\n\r\n        function checkInSpace(uint id, uint bookingId) public {\r\n            require(\r\n                msg.sender == bookingsOf[id][bookingId].tenant,\r\n                \"Unauthorized tenant\"\r\n            );\r\n            require(\r\n                !bookingsOf[id][bookingId].checked,\r\n                \"Apartment already checked on this date\"\r\n            );\r\n\r\n            bookingsOf[id][bookingId].checked = true;\r\n            uint price = bookingsOf[id][bookingId].totalPrice;\r\n            uint fee = (price * taxPercent) / 100;\r\n\r\n            hasBooked[msg.sender][id] = true;\r\n\r\n            payTo(spaces[id].owner, (price - fee));\r\n            payTo(owner(), fee);\r\n            payTo(msg.sender, securityFee);\r\n            emit SpaceCheckedIn(id, msg.sender, bookingId);\r\n        }\r\n\r\n        function claimFunds(uint id, uint bookingId) public {\r\n            require(msg.sender == spaces[id].owner, \"Unauthorized entity\");\r\n            require(\r\n                !bookingsOf[id][bookingId].checked,\r\n                \"Apartment already checked on this date\"\r\n            );\r\n\r\n            uint price = bookingsOf[id][bookingId].totalPrice;\r\n            uint fee = (price * taxPercent) / 100;\r\n\r\n            payTo(spaces[id].owner, (price - fee));\r\n            payTo(owner(), fee);\r\n            payTo(msg.sender, securityFee);\r\n            emit SpaceFundsClaimed(id, msg.sender, bookingId);\r\n        }\r\n\r\n        function refundBooking(\r\n            uint id,\r\n            uint bookingId,\r\n            uint date\r\n        ) public nonReentrant {\r\n            require(\r\n                !bookingsOf[id][bookingId].checked,\r\n                \"Apartment already checked on this date\"\r\n            );\r\n\r\n            if (msg.sender != owner()) {\r\n                require(\r\n                    msg.sender == bookingsOf[id][bookingId].tenant,\r\n                    \"Unauthorized tenant\"\r\n                );\r\n                require(\r\n                    bookingsOf[id][bookingId].startDate > block.timestamp,\r\n                    \"Can no longer refund, booking date started\"\r\n                );\r\n            }\r\n\r\n            bookingsOf[id][bookingId].cancelled = true;\r\n            isDateBooked[id][date] = false;\r\n\r\n            uint lastIndex = bookedDates[id].length - 1;\r\n            uint lastBookingId = bookedDates[id][lastIndex];\r\n            bookedDates[id][bookingId] = lastBookingId;\r\n            bookedDates[id].pop();\r\n\r\n            uint price = bookingsOf[id][bookingId].totalPrice;\r\n            uint fee = (securityFee * taxPercent) / 100;\r\n\r\n            payTo(spaces[id].owner, (securityFee - fee));\r\n            payTo(owner(), fee);\r\n            payTo(msg.sender, price);\r\n            emit SpaceRefunded(id, msg.sender, bookingId);\r\n        }\r\n\r\n        function hasBookedDateReached(\r\n            uint id,\r\n            uint bookingId\r\n        ) public view returns (bool) {\r\n            return bookingsOf[id][bookingId].startDate < block.timestamp;\r\n        }\r\n\r\n        function getUnavailableDates(uint id) public view returns (uint[] memory) {\r\n            return bookedDates[id];\r\n        }\r\n\r\n        function getBookings(uint id) public view returns (Booking[] memory) {\r\n            return bookingsOf[id];\r\n        }\r\n\r\n        function getBooking(\r\n            uint id,\r\n            uint bookingId\r\n        ) public view returns (Booking memory) {\r\n            return bookingsOf[id][bookingId];\r\n        }\r\n\r\n        function updateSecurityFee(uint newFee) public onlyOwner {\r\n            require(newFee > 0, \"Fee must be greater than 0\");\r\n            securityFee = newFee;\r\n            emit SecurityFeeUpdated(newFee);\r\n        }\r\n\r\n        function updateTaxPercent(uint newTaxPercent) public onlyOwner {\r\n            taxPercent = newTaxPercent;\r\n        }\r\n\r\n        function addReview(uint spaceId, string memory reviewText) public {\r\n            require(spaceExists[spaceId], \"Space not available\");\r\n            require(hasBooked[msg.sender][spaceId], \"Book first before review\");\r\n            require(bytes(reviewText).length > 0, \"Review text cannot be empty\");\r\n\r\n            _totalReviews.increment();\r\n            Review memory review;\r\n            review.id = _totalReviews.current();\r\n            review.spaceId = spaceId;\r\n            review.reviewText = reviewText;\r\n            review.timestamp = block.timestamp;\r\n            review.reviewer = msg.sender;\r\n\r\n            reviewsOf[spaceId].push(review);\r\n            emit ReviewAdded(spaceId, msg.sender);\r\n        }\r\n\r\n        function getReviews(uint spaceId) public view returns (Review[] memory) {\r\n            return reviewsOf[spaceId];\r\n        }\r\n\r\n        function tenantBooked(uint spaceId) public view returns (bool) {\r\n            return hasBooked[msg.sender][spaceId];\r\n        }\r\n\r\n        function currentTime() internal view returns (uint256) {\r\n            uint256 newNum = (block.timestamp * 1000) + 1000;\r\n            return newNum;\r\n        }\r\n\r\n        function payTo(address to, uint256 amount) internal {\r\n            (bool success, ) = payable(to).call{value: amount}(\"\");\r\n            require(success, \"Payment failed\");\r\n        }\r\n    }\r\n",
  "sourcePath": "D:\\college\\roomflow\\contracts\\Roomflow.sol",
  "compiler": {
    "name": "solc",
    "version": "0.8.0+commit.c7dfd78e.Emscripten.clang"
  },
  "schemaVersion": "3.4.16",
  "updatedAt": "2024-07-10T12:10:15.979Z",
  "networkType": "ethereum",
  "devdoc": {
    "kind": "dev",
    "methods": {
      "owner()": {
        "details": "Returns the address of the current owner."
      },
      "renounceOwnership()": {
        "details": "Leaves the contract without owner. It will not be possible to call `onlyOwner` functions. Can only be called by the current owner. NOTE: Renouncing ownership will leave the contract without an owner, thereby disabling any functionality that is only available to the owner."
      },
      "transferOwnership(address)": {
        "details": "Transfers ownership of the contract to a new account (`newOwner`). Can only be called by the current owner."
      }
    },
    "version": 1
  },
  "userdoc": {
    "kind": "user",
    "methods": {},
    "version": 1
  }
}