{
  "contractName": "RoomFlow",
  "abi": [
    {
      "inputs": [
        {
          "internalType": "uint256",
          "name": "_taxPercent",
          "type": "uint256"
        },
        {
          "internalType": "uint256",
          "name": "_securityFee",
          "type": "uint256"
        }
      ],
      "stateMutability": "nonpayable",
      "type": "constructor"
    },
    {
      "anonymous": false,
      "inputs": [
        {
          "indexed": true,
          "internalType": "address",
          "name": "previousOwner",
          "type": "address"
        },
        {
          "indexed": true,
          "internalType": "address",
          "name": "newOwner",
          "type": "address"
        }
      ],
      "name": "OwnershipTransferred",
      "type": "event"
    },
    {
      "anonymous": false,
      "inputs": [
        {
          "indexed": true,
          "internalType": "uint256",
          "name": "spaceId",
          "type": "uint256"
        },
        {
          "indexed": true,
          "internalType": "address",
          "name": "author",
          "type": "address"
        }
      ],
      "name": "ReviewAdded",
      "type": "event"
    },
    {
      "anonymous": false,
      "inputs": [
        {
          "indexed": false,
          "internalType": "uint256",
          "name": "newFee",
          "type": "uint256"
        }
      ],
      "name": "SecurityFeeUpdated",
      "type": "event"
    },
    {
      "anonymous": false,
      "inputs": [
        {
          "indexed": true,
          "internalType": "uint256",
          "name": "id",
          "type": "uint256"
        },
        {
          "indexed": true,
          "internalType": "address",
          "name": "tenant",
          "type": "address"
        },
        {
          "indexed": false,
          "internalType": "uint256",
          "name": "startDate",
          "type": "uint256"
        },
        {
          "indexed": false,
          "internalType": "uint256",
          "name": "endDate",
          "type": "uint256"
        }
      ],
      "name": "SpaceBooked",
      "type": "event"
    },
    {
      "anonymous": false,
      "inputs": [
        {
          "indexed": true,
          "internalType": "uint256",
          "name": "id",
          "type": "uint256"
        },
        {
          "indexed": true,
          "internalType": "address",
          "name": "tenant",
          "type": "address"
        },
        {
          "indexed": false,
          "internalType": "uint256",
          "name": "bookingId",
          "type": "uint256"
        }
      ],
      "name": "SpaceCheckedIn",
      "type": "event"
    },
    {
      "anonymous": false,
      "inputs": [
        {
          "indexed": true,
          "internalType": "uint256",
          "name": "id",
          "type": "uint256"
        },
        {
          "indexed": true,
          "internalType": "address",
          "name": "owner",
          "type": "address"
        }
      ],
      "name": "SpaceDeleted",
      "type": "event"
    },
    {
      "anonymous": false,
      "inputs": [
        {
          "indexed": true,
          "internalType": "uint256",
          "name": "id",
          "type": "uint256"
        },
        {
          "indexed": true,
          "internalType": "address",
          "name": "owner",
          "type": "address"
        },
        {
          "indexed": false,
          "internalType": "uint256",
          "name": "bookingId",
          "type": "uint256"
        }
      ],
      "name": "SpaceFundsClaimed",
      "type": "event"
    },
    {
      "anonymous": false,
      "inputs": [
        {
          "indexed": true,
          "internalType": "uint256",
          "name": "id",
          "type": "uint256"
        },
        {
          "indexed": true,
          "internalType": "address",
          "name": "owner",
          "type": "address"
        }
      ],
      "name": "SpaceListed",
      "type": "event"
    },
    {
      "anonymous": false,
      "inputs": [
        {
          "indexed": true,
          "internalType": "uint256",
          "name": "id",
          "type": "uint256"
        },
        {
          "indexed": true,
          "internalType": "address",
          "name": "tenant",
          "type": "address"
        },
        {
          "indexed": false,
          "internalType": "uint256",
          "name": "bookingId",
          "type": "uint256"
        }
      ],
      "name": "SpaceRefunded",
      "type": "event"
    },
    {
      "anonymous": false,
      "inputs": [
        {
          "indexed": true,
          "internalType": "uint256",
          "name": "id",
          "type": "uint256"
        },
        {
          "indexed": true,
          "internalType": "address",
          "name": "owner",
          "type": "address"
        }
      ],
      "name": "SpaceUpdated",
      "type": "event"
    },
    {
      "anonymous": false,
      "inputs": [
        {
          "indexed": false,
          "internalType": "uint256",
          "name": "newTaxPercent",
          "type": "uint256"
        }
      ],
      "name": "TaxPercentUpdated",
      "type": "event"
    },
    {
      "inputs": [
        {
          "internalType": "uint256",
          "name": "",
          "type": "uint256"
        },
        {
          "internalType": "uint256",
          "name": "",
          "type": "uint256"
        }
      ],
      "name": "bookedDates",
      "outputs": [
        {
          "internalType": "uint256",
          "name": "",
          "type": "uint256"
        }
      ],
      "stateMutability": "view",
      "type": "function",
      "constant": true
    },
    {
      "inputs": [
        {
          "internalType": "uint256",
          "name": "",
          "type": "uint256"
        },
        {
          "internalType": "uint256",
          "name": "",
          "type": "uint256"
        }
      ],
      "name": "bookingsOf",
      "outputs": [
        {
          "internalType": "uint256",
          "name": "id",
          "type": "uint256"
        },
        {
          "internalType": "address",
          "name": "tenant",
          "type": "address"
        },
        {
          "internalType": "uint256",
          "name": "startDate",
          "type": "uint256"
        },
        {
          "internalType": "uint256",
          "name": "endDate",
          "type": "uint256"
        },
        {
          "internalType": "uint256",
          "name": "totalPrice",
          "type": "uint256"
        },
        {
          "internalType": "bool",
          "name": "checked",
          "type": "bool"
        },
        {
          "internalType": "bool",
          "name": "cancelled",
          "type": "bool"
        }
      ],
      "stateMutability": "view",
      "type": "function",
      "constant": true
    },
    {
      "inputs": [
        {
          "internalType": "address",
          "name": "",
          "type": "address"
        },
        {
          "internalType": "uint256",
          "name": "",
          "type": "uint256"
        }
      ],
      "name": "hasBooked",
      "outputs": [
        {
          "internalType": "bool",
          "name": "",
          "type": "bool"
        }
      ],
      "stateMutability": "view",
      "type": "function",
      "constant": true
    },
    {
      "inputs": [
        {
          "internalType": "uint256",
          "name": "",
          "type": "uint256"
        },
        {
          "internalType": "uint256",
          "name": "",
          "type": "uint256"
        }
      ],
      "name": "isDateBooked",
      "outputs": [
        {
          "internalType": "bool",
          "name": "",
          "type": "bool"
        }
      ],
      "stateMutability": "view",
      "type": "function",
      "constant": true
    },
    {
      "inputs": [],
      "name": "owner",
      "outputs": [
        {
          "internalType": "address",
          "name": "",
          "type": "address"
        }
      ],
      "stateMutability": "view",
      "type": "function",
      "constant": true
    },
    {
      "inputs": [],
      "name": "renounceOwnership",
      "outputs": [],
      "stateMutability": "nonpayable",
      "type": "function"
    },
    {
      "inputs": [
        {
          "internalType": "uint256",
          "name": "",
          "type": "uint256"
        },
        {
          "internalType": "uint256",
          "name": "",
          "type": "uint256"
        }
      ],
      "name": "reviewsOf",
      "outputs": [
        {
          "internalType": "uint256",
          "name": "id",
          "type": "uint256"
        },
        {
          "internalType": "uint256",
          "name": "spaceId",
          "type": "uint256"
        },
        {
          "internalType": "string",
          "name": "reviewText",
          "type": "string"
        },
        {
          "internalType": "uint256",
          "name": "timestamp",
          "type": "uint256"
        },
        {
          "internalType": "address",
          "name": "reviewer",
          "type": "address"
        }
      ],
      "stateMutability": "view",
      "type": "function",
      "constant": true
    },
    {
      "inputs": [],
      "name": "securityFee",
      "outputs": [
        {
          "internalType": "uint256",
          "name": "",
          "type": "uint256"
        }
      ],
      "stateMutability": "view",
      "type": "function",
      "constant": true
    },
    {
      "inputs": [
        {
          "internalType": "uint256",
          "name": "",
          "type": "uint256"
        }
      ],
      "name": "spaceExists",
      "outputs": [
        {
          "internalType": "bool",
          "name": "",
          "type": "bool"
        }
      ],
      "stateMutability": "view",
      "type": "function",
      "constant": true
    },
    {
      "inputs": [
        {
          "internalType": "uint256",
          "name": "",
          "type": "uint256"
        }
      ],
      "name": "spaces",
      "outputs": [
        {
          "internalType": "uint256",
          "name": "id",
          "type": "uint256"
        },
        {
          "internalType": "string",
          "name": "name",
          "type": "string"
        },
        {
          "internalType": "string",
          "name": "description",
          "type": "string"
        },
        {
          "internalType": "string",
          "name": "images",
          "type": "string"
        },
        {
          "internalType": "uint256",
          "name": "rooms",
          "type": "uint256"
        },
        {
          "internalType": "uint256",
          "name": "price",
          "type": "uint256"
        },
        {
          "internalType": "address",
          "name": "owner",
          "type": "address"
        },
        {
          "internalType": "bool",
          "name": "booked",
          "type": "bool"
        },
        {
          "internalType": "bool",
          "name": "deleted",
          "type": "bool"
        },
        {
          "internalType": "bool",
          "name": "availability",
          "type": "bool"
        },
        {
          "internalType": "uint256",
          "name": "timestamp",
          "type": "uint256"
        }
      ],
      "stateMutability": "view",
      "type": "function",
      "constant": true
    },
    {
      "inputs": [],
      "name": "taxPercent",
      "outputs": [
        {
          "internalType": "uint256",
          "name": "",
          "type": "uint256"
        }
      ],
      "stateMutability": "view",
      "type": "function",
      "constant": true
    },
    {
      "inputs": [],
      "name": "totalReviews",
      "outputs": [
        {
          "internalType": "uint256",
          "name": "_value",
          "type": "uint256"
        }
      ],
      "stateMutability": "view",
      "type": "function",
      "constant": true
    },
    {
      "inputs": [],
      "name": "totalSpaces",
      "outputs": [
        {
          "internalType": "uint256",
          "name": "_value",
          "type": "uint256"
        }
      ],
      "stateMutability": "view",
      "type": "function",
      "constant": true
    },
    {
      "inputs": [
        {
          "internalType": "address",
          "name": "newOwner",
          "type": "address"
        }
      ],
      "name": "transferOwnership",
      "outputs": [],
      "stateMutability": "nonpayable",
      "type": "function"
    },
    {
      "inputs": [
        {
          "internalType": "string",
          "name": "name",
          "type": "string"
        },
        {
          "internalType": "string",
          "name": "description",
          "type": "string"
        },
        {
          "internalType": "string",
          "name": "images",
          "type": "string"
        },
        {
          "internalType": "uint256",
          "name": "rooms",
          "type": "uint256"
        },
        {
          "internalType": "uint256",
          "name": "price",
          "type": "uint256"
        }
      ],
      "name": "createSpace",
      "outputs": [],
      "stateMutability": "nonpayable",
      "type": "function"
    },
    {
      "inputs": [
        {
          "internalType": "uint256",
          "name": "id",
          "type": "uint256"
        },
        {
          "internalType": "string",
          "name": "name",
          "type": "string"
        },
        {
          "internalType": "string",
          "name": "description",
          "type": "string"
        },
        {
          "internalType": "string",
          "name": "images",
          "type": "string"
        },
        {
          "internalType": "uint256",
          "name": "rooms",
          "type": "uint256"
        },
        {
          "internalType": "uint256",
          "name": "price",
          "type": "uint256"
        }
      ],
      "name": "updateSpace",
      "outputs": [],
      "stateMutability": "nonpayable",
      "type": "function"
    },
    {
      "inputs": [
        {
          "internalType": "uint256",
          "name": "id",
          "type": "uint256"
        }
      ],
      "name": "deleteSpace",
      "outputs": [],
      "stateMutability": "nonpayable",
      "type": "function"
    },
    {
      "inputs": [],
      "name": "getSpaces",
      "outputs": [
        {
          "components": [
            {
              "internalType": "uint256",
              "name": "id",
              "type": "uint256"
            },
            {
              "internalType": "string",
              "name": "name",
              "type": "string"
            },
            {
              "internalType": "string",
              "name": "description",
              "type": "string"
            },
            {
              "internalType": "string",
              "name": "images",
              "type": "string"
            },
            {
              "internalType": "uint256",
              "name": "rooms",
              "type": "uint256"
            },
            {
              "internalType": "uint256",
              "name": "price",
              "type": "uint256"
            },
            {
              "internalType": "address",
              "name": "owner",
              "type": "address"
            },
            {
              "internalType": "bool",
              "name": "booked",
              "type": "bool"
            },
            {
              "internalType": "bool",
              "name": "deleted",
              "type": "bool"
            },
            {
              "internalType": "bool",
              "name": "availability",
              "type": "bool"
            },
            {
              "internalType": "uint256",
              "name": "timestamp",
              "type": "uint256"
            }
          ],
          "internalType": "struct RoomFlow.SpaceListing[]",
          "name": "",
          "type": "tuple[]"
        }
      ],
      "stateMutability": "view",
      "type": "function",
      "constant": true
    },
    {
      "inputs": [
        {
          "internalType": "uint256",
          "name": "id",
          "type": "uint256"
        }
      ],
      "name": "getSpace",
      "outputs": [
        {
          "components": [
            {
              "internalType": "uint256",
              "name": "id",
              "type": "uint256"
            },
            {
              "internalType": "string",
              "name": "name",
              "type": "string"
            },
            {
              "internalType": "string",
              "name": "description",
              "type": "string"
            },
            {
              "internalType": "string",
              "name": "images",
              "type": "string"
            },
            {
              "internalType": "uint256",
              "name": "rooms",
              "type": "uint256"
            },
            {
              "internalType": "uint256",
              "name": "price",
              "type": "uint256"
            },
            {
              "internalType": "address",
              "name": "owner",
              "type": "address"
            },
            {
              "internalType": "bool",
              "name": "booked",
              "type": "bool"
            },
            {
              "internalType": "bool",
              "name": "deleted",
              "type": "bool"
            },
            {
              "internalType": "bool",
              "name": "availability",
              "type": "bool"
            },
            {
              "internalType": "uint256",
              "name": "timestamp",
              "type": "uint256"
            }
          ],
          "internalType": "struct RoomFlow.SpaceListing",
          "name": "",
          "type": "tuple"
        }
      ],
      "stateMutability": "view",
      "type": "function",
      "constant": true
    },
    {
      "inputs": [
        {
          "internalType": "uint256",
          "name": "id",
          "type": "uint256"
        },
        {
          "internalType": "uint256",
          "name": "startDate",
          "type": "uint256"
        },
        {
          "internalType": "uint256",
          "name": "endDate",
          "type": "uint256"
        }
      ],
      "name": "bookSpace",
      "outputs": [],
      "stateMutability": "payable",
      "type": "function",
      "payable": true
    },
    {
      "inputs": [
        {
          "internalType": "uint256",
          "name": "id",
          "type": "uint256"
        },
        {
          "internalType": "uint256",
          "name": "bookingId",
          "type": "uint256"
        }
      ],
      "name": "checkInSpace",
      "outputs": [],
      "stateMutability": "nonpayable",
      "type": "function"
    },
    {
      "inputs": [
        {
          "internalType": "uint256",
          "name": "id",
          "type": "uint256"
        },
        {
          "internalType": "uint256",
          "name": "bookingId",
          "type": "uint256"
        }
      ],
      "name": "claimFunds",
      "outputs": [],
      "stateMutability": "nonpayable",
      "type": "function"
    },
    {
      "inputs": [
        {
          "internalType": "uint256",
          "name": "id",
          "type": "uint256"
        },
        {
          "internalType": "uint256",
          "name": "bookingId",
          "type": "uint256"
        },
        {
          "internalType": "uint256",
          "name": "date",
          "type": "uint256"
        }
      ],
      "name": "refundBooking",
      "outputs": [],
      "stateMutability": "nonpayable",
      "type": "function"
    },
    {
      "inputs": [
        {
          "internalType": "uint256",
          "name": "id",
          "type": "uint256"
        },
        {
          "internalType": "uint256",
          "name": "bookingId",
          "type": "uint256"
        }
      ],
      "name": "hasBookedDateReached",
      "outputs": [
        {
          "internalType": "bool",
          "name": "",
          "type": "bool"
        }
      ],
      "stateMutability": "view",
      "type": "function",
      "constant": true
    },
    {
      "inputs": [
        {
          "internalType": "uint256",
          "name": "id",
          "type": "uint256"
        }
      ],
      "name": "getUnavailableDates",
      "outputs": [
        {
          "internalType": "uint256[]",
          "name": "",
          "type": "uint256[]"
        }
      ],
      "stateMutability": "view",
      "type": "function",
      "constant": true
    },
    {
      "inputs": [
        {
          "internalType": "uint256",
          "name": "id",
          "type": "uint256"
        }
      ],
      "name": "getBookings",
      "outputs": [
        {
          "components": [
            {
              "internalType": "uint256",
              "name": "id",
              "type": "uint256"
            },
            {
              "internalType": "address",
              "name": "tenant",
              "type": "address"
            },
            {
              "internalType": "uint256",
              "name": "startDate",
              "type": "uint256"
            },
            {
              "internalType": "uint256",
              "name": "endDate",
              "type": "uint256"
            },
            {
              "internalType": "uint256",
              "name": "totalPrice",
              "type": "uint256"
            },
            {
              "internalType": "bool",
              "name": "checked",
              "type": "bool"
            },
            {
              "internalType": "bool",
              "name": "cancelled",
              "type": "bool"
            }
          ],
          "internalType": "struct RoomFlow.Booking[]",
          "name": "",
          "type": "tuple[]"
        }
      ],
      "stateMutability": "view",
      "type": "function",
      "constant": true
    },
    {
      "inputs": [
        {
          "internalType": "uint256",
          "name": "id",
          "type": "uint256"
        },
        {
          "internalType": "uint256",
          "name": "bookingId",
          "type": "uint256"
        }
      ],
      "name": "getBooking",
      "outputs": [
        {
          "components": [
            {
              "internalType": "uint256",
              "name": "id",
              "type": "uint256"
            },
            {
              "internalType": "address",
              "name": "tenant",
              "type": "address"
            },
            {
              "internalType": "uint256",
              "name": "startDate",
              "type": "uint256"
            },
            {
              "internalType": "uint256",
              "name": "endDate",
              "type": "uint256"
            },
            {
              "internalType": "uint256",
              "name": "totalPrice",
              "type": "uint256"
            },
            {
              "internalType": "bool",
              "name": "checked",
              "type": "bool"
            },
            {
              "internalType": "bool",
              "name": "cancelled",
              "type": "bool"
            }
          ],
          "internalType": "struct RoomFlow.Booking",
          "name": "",
          "type": "tuple"
        }
      ],
      "stateMutability": "view",
      "type": "function",
      "constant": true
    },
    {
      "inputs": [
        {
          "internalType": "uint256",
          "name": "newFee",
          "type": "uint256"
        }
      ],
      "name": "updateSecurityFee",
      "outputs": [],
      "stateMutability": "nonpayable",
      "type": "function"
    },
    {
      "inputs": [
        {
          "internalType": "uint256",
          "name": "newTaxPercent",
          "type": "uint256"
        }
      ],
      "name": "updateTaxPercent",
      "outputs": [],
      "stateMutability": "nonpayable",
      "type": "function"
    },
    {
      "inputs": [
        {
          "internalType": "uint256",
          "name": "spaceId",
          "type": "uint256"
        },
        {
          "internalType": "string",
          "name": "reviewText",
          "type": "string"
        }
      ],
      "name": "addReview",
      "outputs": [],
      "stateMutability": "nonpayable",
      "type": "function"
    },
    {
      "inputs": [
        {
          "internalType": "uint256",
          "name": "spaceId",
          "type": "uint256"
        }
      ],
      "name": "getReviews",
      "outputs": [
        {
          "components": [
            {
              "internalType": "uint256",
              "name": "id",
              "type": "uint256"
            },
            {
              "internalType": "uint256",
              "name": "spaceId",
              "type": "uint256"
            },
            {
              "internalType": "string",
              "name": "reviewText",
              "type": "string"
            },
            {
              "internalType": "uint256",
              "name": "timestamp",
              "type": "uint256"
            },
            {
              "internalType": "address",
              "name": "reviewer",
              "type": "address"
            }
          ],
          "internalType": "struct RoomFlow.Review[]",
          "name": "",
          "type": "tuple[]"
        }
      ],
      "stateMutability": "view",
      "type": "function",
      "constant": true
    },
    {
      "inputs": [
        {
          "internalType": "uint256",
          "name": "spaceId",
          "type": "uint256"
        }
      ],
      "name": "tenantBooked",
      "outputs": [
        {
          "internalType": "bool",
          "name": "",
          "type": "bool"
        }
      ],
      "stateMutability": "view",
      "type": "function",
      "constant": true
    }
  ],
  "bytecode": "0x60806040523480156200001157600080fd5b50604051620037d6380380620037d68339810160408190526200003491620000af565b62000048620000426200005b565b6200005f565b60018055600591909155600455620000d3565b3390565b600080546001600160a01b038381166001600160a01b0319831681178455604051919092169283917f8be0079c531659141344cd1fd0a4f28419497f9722a3daafe3b4186f6b6457e09190a35050565b60008060408385031215620000c2578182fd5b505080516020909101519092909150565b6136f380620000e36000396000f3fe6080604052600436106101e35760003560e01c806390067e3111610102578063db2f80b711610095578063eb46144511610064578063eb461445146105bc578063f2fde38b146105dc578063f4010995146105fc578063f6ab7e3d14610629576101e3565b8063db2f80b714610547578063e16ca8d114610574578063e1c6962014610594578063e2367890146105a7576101e3565b8063d3dfc0f6116100d1578063d3dfc0f6146104dd578063d684ccda146104fd578063d68e13021461051d578063d93f98ba14610532576101e3565b806390067e311461043f5780639d4a2255146104705780639f31a2be1461049d578063a74431f4146104bd576101e3565b80635bb0c5d61161017a5780637541f41c116101495780637541f41c146103a45780637586353b146103c65780637f75aed5146103fd5780638da5cb5b1461041d576101e3565b80635bb0c5d614610322578063615911491461034257806370e1043114610362578063715018a61461038f576101e3565b80632ce894bc116101b65780632ce894bc14610275578063455b3070146102a257806350ed48e4146102cf578063577bf6ee146102ef576101e3565b8063010b58ee146101e857806301d8a51b1461020a5780630c14e65b1461022a57806315478ca91461024a575b600080fd5b3480156101f457600080fd5b50610208610203366004612cf6565b610649565b005b34801561021657600080fd5b50610208610225366004612cf6565b6107e3565b34801561023657600080fd5b50610208610245366004612c56565b6109fd565b34801561025657600080fd5b5061025f610ebd565b60405161026c9190612fbd565b60405180910390f35b34801561028157600080fd5b50610295610290366004612cf6565b61124c565b60405161026c9190613055565b3480156102ae57600080fd5b506102c26102bd366004612cf6565b61126c565b60405161026c919061348b565b3480156102db57600080fd5b506102086102ea366004612b63565b61131e565b3480156102fb57600080fd5b5061030f61030a366004612cf6565b611561565b60405161026c97969594939291906134b5565b34801561032e57600080fd5b5061020861033d366004612c11565b6115cb565b34801561034e57600080fd5b5061020861035d366004612bf9565b61173a565b34801561036e57600080fd5b5061038261037d366004612bf9565b6117a2565b60405161026c9190613499565b34801561039b57600080fd5b506102086119f6565b3480156103b057600080fd5b506103b9611a0a565b60405161026c91906134ac565b3480156103d257600080fd5b506103e66103e1366004612bf9565b611a10565b60405161026c9b9a999897969594939291906134f2565b34801561040957600080fd5b50610295610418366004612b3a565b611c17565b34801561042957600080fd5b50610432611c37565b60405161026c9190612ec0565b34801561044b57600080fd5b5061045f61045a366004612cf6565b611c46565b60405161026c95949392919061358c565b34801561047c57600080fd5b5061049061048b366004612bf9565b611d2b565b60405161026c9190612f22565b3480156104a957600080fd5b506102956104b8366004612bf9565b611e66565b3480156104c957600080fd5b506102956104d8366004612bf9565b611e86565b3480156104e957600080fd5b506103b96104f8366004612cf6565b611e9b565b34801561050957600080fd5b50610208610518366004612bf9565b611ecc565b34801561052957600080fd5b506103b9611f96565b34801561053e57600080fd5b506103b9611f9c565b34801561055357600080fd5b50610567610562366004612bf9565b611fa2565b60405161026c919061301d565b34801561058057600080fd5b5061020861058f366004612d17565b612004565b6102086105a2366004612d17565b6123b3565b3480156105b357600080fd5b506103b961260e565b3480156105c857600080fd5b506102086105d7366004612bf9565b612614565b3480156105e857600080fd5b506102086105f7366004612b20565b612621565b34801561060857600080fd5b5061061c610617366004612bf9565b61265b565b60405161026c9190612ed4565b34801561063557600080fd5b50610295610644366004612cf6565b612716565b600082815260066020819052604090912001546001600160a01b0316331461068c5760405162461bcd60e51b815260040161068390613322565b60405180910390fd5b60008281526007602052604090208054829081106106ba57634e487b7160e01b600052603260045260246000fd5b600091825260209091206005600690920201015460ff16156106ee5760405162461bcd60e51b815260040161068390613445565b600082815260076020526040812080548390811061071c57634e487b7160e01b600052603260045260246000fd5b906000526020600020906006020160040154905060006064600554836107429190613605565b61074c91906135e5565b6000858152600660208190526040909120015490915061077e906001600160a01b03166107798385613624565b612762565b61078f610789611c37565b82612762565b61079b33600454612762565b336001600160a01b0316847fd926062942047dc8fc183828f55f4b9f3c32ea18a739f8d1bc73c82b4129113b856040516107d591906134ac565b60405180910390a350505050565b600082815260076020526040902080548290811061081157634e487b7160e01b600052603260045260246000fd5b60009182526020909120600690910201600101546001600160a01b0316331461084c5760405162461bcd60e51b81526004016106839061324e565b600082815260076020526040902080548290811061087a57634e487b7160e01b600052603260045260246000fd5b600091825260209091206005600690920201015460ff16156108ae5760405162461bcd60e51b815260040161068390613445565b6000828152600760205260409020805460019190839081106108e057634e487b7160e01b600052603260045260246000fd5b60009182526020808320600692909202909101600501805460ff19169315159390931790925583815260079091526040812080548390811061093257634e487b7160e01b600052603260045260246000fd5b906000526020600020906006020160040154905060006064600554836109589190613605565b61096291906135e5565b336000908152600c602090815260408083208884528252808320805460ff1916600117905560069182905290912001549091506109ac906001600160a01b03166107798385613624565b6109b7610789611c37565b6109c333600454612762565b336001600160a01b0316847f30b418308672466269a424268a426a1214029673211e536dfb7565397433cc91856040516107d591906134ac565b60008681526009602052604090205460ff16610a2b5760405162461bcd60e51b815260040161068390613418565b600086815260066020819052604090912001546001600160a01b03163314610a655760405162461bcd60e51b815260040161068390613142565b6000855111610a865760405162461bcd60e51b815260040161068390613097565b6000845111610aa75760405162461bcd60e51b8152600401610683906131b2565b6000835111610ac85760405162461bcd60e51b815260040161068390613386565b60008211610ae85760405162461bcd60e51b815260040161068390613184565b60008111610b085760405162461bcd60e51b815260040161068390613220565b6000600660008881526020019081526020016000206040518061016001604052908160008201548152602001600182018054610b439061363b565b80601f0160208091040260200160405190810160405280929190818152602001828054610b6f9061363b565b8015610bbc5780601f10610b9157610100808354040283529160200191610bbc565b820191906000526020600020905b815481529060010190602001808311610b9f57829003601f168201915b50505050508152602001600282018054610bd59061363b565b80601f0160208091040260200160405190810160405280929190818152602001828054610c019061363b565b8015610c4e5780601f10610c2357610100808354040283529160200191610c4e565b820191906000526020600020905b815481529060010190602001808311610c3157829003601f168201915b50505050508152602001600382018054610c679061363b565b80601f0160208091040260200160405190810160405280929190818152602001828054610c939061363b565b8015610ce05780601f10610cb557610100808354040283529160200191610ce0565b820191906000526020600020905b815481529060010190602001808311610cc357829003601f168201915b5050509183525050600482015460208083019190915260058301546040808401919091526006808501546001600160a01b03811660608087019190915260ff600160a01b830481161515608080890191909152600160a81b84048216151560a0808a0191909152600160b01b909404909116151560c088015260079097015460e0909601959095528684018d81528784018d90529487018b905294860189905293850187905260008c8152938252909220835181559051805193945084939192610db292600185019290910190612904565b5060408201518051610dce916002840191602090910190612904565b5060608201518051610dea916003840191602090910190612904565b506080820151600482015560a0820151600582015560c082015160068201805460e08501516101008601516101208701516001600160a01b03199093166001600160a01b039095169490941760ff60a01b1916600160a01b911515919091021760ff60a81b1916600160a81b931515939093029290921760ff60b01b1916600160b01b9215159290920291909117905561014090910151600790910155604051339088907f8c1f88cc5fde6e96b35b272bc40125010157a55a39ae25a74f80275ba7d2ba6e90600090a350505050505050565b6060600060015b610ece60026127de565b8111610f155760008181526006602081905260409091200154600160a81b900460ff16610f035781610eff81613676565b9250505b80610f0d81613676565b915050610ec4565b5060008167ffffffffffffffff811115610f3f57634e487b7160e01b600052604160045260246000fd5b604051908082528060200260200182016040528015610f7857816020015b610f65612988565b815260200190600190039081610f5d5790505b509050600060015b610f8a60026127de565b81116112435760008181526006602081905260409091200154600160a81b900460ff1661123157600660008281526020019081526020016000206040518061016001604052908160008201548152602001600182018054610fea9061363b565b80601f01602080910402602001604051908101604052809291908181526020018280546110169061363b565b80156110635780601f1061103857610100808354040283529160200191611063565b820191906000526020600020905b81548152906001019060200180831161104657829003601f168201915b5050505050815260200160028201805461107c9061363b565b80601f01602080910402602001604051908101604052809291908181526020018280546110a89061363b565b80156110f55780601f106110ca576101008083540402835291602001916110f5565b820191906000526020600020905b8154815290600101906020018083116110d857829003601f168201915b5050505050815260200160038201805461110e9061363b565b80601f016020809104026020016040519081016040528092919081815260200182805461113a9061363b565b80156111875780601f1061115c57610100808354040283529160200191611187565b820191906000526020600020905b81548152906001019060200180831161116a57829003601f168201915b5050509183525050600482015460208201526005820154604082015260068201546001600160a01b038116606083015260ff600160a01b8204811615156080840152600160a81b82048116151560a0840152600160b01b90910416151560c082015260079091015460e090910152835184908490811061121757634e487b7160e01b600052603260045260246000fd5b6020026020010181905250818061122d90613676565b9250505b8061123b81613676565b915050610f80565b50909250505090565b600b60209081526000928352604080842090915290825290205460ff1681565b6112746129f1565b60008381526007602052604090208054839081106112a257634e487b7160e01b600052603260045260246000fd5b60009182526020918290206040805160e08101825260069093029091018054835260018101546001600160a01b031693830193909352600283015490820152600382015460608201526004820154608082015260059091015460ff808216151560a084015261010090910416151560c082015290505b92915050565b600085511161133f5760405162461bcd60e51b815260040161068390613097565b60008451116113605760405162461bcd60e51b8152600401610683906131b2565b60008351116113815760405162461bcd60e51b815260040161068390613386565b600082116113a15760405162461bcd60e51b815260040161068390613184565b600081116113c15760405162461bcd60e51b815260040161068390613220565b6113cb60026127e2565b6113d3612988565b6113dd60026127de565b80825260208083018881526040808501899052606085018890526080850187905260a085018690523360c08601526001610120860181905242610140870152600094855260098452818520805460ff19168217905585518552600684529320845181559051805185949293611456938501920190612904565b5060408201518051611472916002840191602090910190612904565b506060820151805161148e916003840191602090910190612904565b506080820151600482015560a0820151600582015560c082015160068201805460e08501516101008601516101208701516001600160a01b03199093166001600160a01b039095169490941760ff60a01b1916600160a01b911515919091021760ff60a81b1916600160a81b931515939093029290921760ff60b01b1916600160b01b921515929092029190911790556101409091015160079091015580516040513391907f868b71f2fccb02b35739f9bb13e51ce12a10ca4ceb16ecd8d3da9a416875edb690600090a3505050505050565b6007602052816000526040600020818154811061157d57600080fd5b60009182526020909120600690910201805460018201546002830154600384015460048501546005909501549396506001600160a01b03909216945092909160ff8082169161010090041687565b60008281526009602052604090205460ff166115f95760405162461bcd60e51b815260040161068390613418565b336000908152600c6020908152604080832085845290915290205460ff166116335760405162461bcd60e51b815260040161068390613060565b60008151116116545760405162461bcd60e51b81526004016106839061334f565b61165e60036127e2565b611666612a3b565b61167060036127de565b8152602080820184815260408084018581524260608601523360808601526000878152600885529182208054600181810183559184529285902086516005909402019283559251928201929092559051805184936116d5926002850192910190612904565b5060608201516003820155608090910151600490910180546001600160a01b0319166001600160a01b03909216919091179055604051339084907f147d2c343f054e85e3a52f84240e7454f6361913e64b66f8abc756ffc455683d90600090a3505050565b6117426127eb565b600081116117625760405162461bcd60e51b81526004016106839061310b565b60048190556040517f3790aeee57809af98fad1b89b9266c7934e03ed46702b541f2fef6f1e89d6827906117979083906134ac565b60405180910390a150565b6117aa612988565b6006600083815260200190815260200160002060405180610160016040529081600082015481526020016001820180546117e39061363b565b80601f016020809104026020016040519081016040528092919081815260200182805461180f9061363b565b801561185c5780601f106118315761010080835404028352916020019161185c565b820191906000526020600020905b81548152906001019060200180831161183f57829003601f168201915b505050505081526020016002820180546118759061363b565b80601f01602080910402602001604051908101604052809291908181526020018280546118a19061363b565b80156118ee5780601f106118c3576101008083540402835291602001916118ee565b820191906000526020600020905b8154815290600101906020018083116118d157829003601f168201915b505050505081526020016003820180546119079061363b565b80601f01602080910402602001604051908101604052809291908181526020018280546119339061363b565b80156119805780601f1061195557610100808354040283529160200191611980565b820191906000526020600020905b81548152906001019060200180831161196357829003601f168201915b5050509183525050600482015460208201526005820154604082015260068201546001600160a01b038116606083015260ff600160a01b8204811615156080840152600160a81b82048116151560a0840152600160b01b90910416151560c082015260079091015460e09091015290505b919050565b6119fe6127eb565b611a08600061282a565b565b60055481565b60066020526000908152604090208054600182018054919291611a329061363b565b80601f0160208091040260200160405190810160405280929190818152602001828054611a5e9061363b565b8015611aab5780601f10611a8057610100808354040283529160200191611aab565b820191906000526020600020905b815481529060010190602001808311611a8e57829003601f168201915b505050505090806002018054611ac09061363b565b80601f0160208091040260200160405190810160405280929190818152602001828054611aec9061363b565b8015611b395780601f10611b0e57610100808354040283529160200191611b39565b820191906000526020600020905b815481529060010190602001808311611b1c57829003601f168201915b505050505090806003018054611b4e9061363b565b80601f0160208091040260200160405190810160405280929190818152602001828054611b7a9061363b565b8015611bc75780601f10611b9c57610100808354040283529160200191611bc7565b820191906000526020600020905b815481529060010190602001808311611baa57829003601f168201915b505050600484015460058501546006860154600790960154949591949093506001600160a01b038216925060ff600160a01b8304811692600160a81b8104821692600160b01b909104909116908b565b600c60209081526000928352604080842090915290825290205460ff1681565b6000546001600160a01b031690565b60086020528160005260406000208181548110611c6257600080fd5b906000526020600020906005020160009150915050806000015490806001015490806002018054611c929061363b565b80601f0160208091040260200160405190810160405280929190818152602001828054611cbe9061363b565b8015611d0b5780601f10611ce057610100808354040283529160200191611d0b565b820191906000526020600020905b815481529060010190602001808311611cee57829003601f168201915b5050505060038301546004909301549192916001600160a01b0316905085565b606060086000838152602001908152602001600020805480602002602001604051908101604052809291908181526020016000905b82821015611e5b57838290600052602060002090600502016040518060a00160405290816000820154815260200160018201548152602001600282018054611da79061363b565b80601f0160208091040260200160405190810160405280929190818152602001828054611dd39061363b565b8015611e205780601f10611df557610100808354040283529160200191611e20565b820191906000526020600020905b815481529060010190602001808311611e0357829003601f168201915b505050918352505060038201546020808301919091526004909201546001600160a01b03166040909101529082526001929092019101611d60565b505050509050919050565b336000908152600c60209081526040808320938352929052205460ff1690565b60096020526000908152604090205460ff1681565b600a6020528160005260406000208181548110611eb757600080fd5b90600052602060002001600091509150505481565b60008181526009602052604090205460ff16611efa5760405162461bcd60e51b815260040161068390613418565b600081815260066020819052604090912001546001600160a01b03163314611f345760405162461bcd60e51b815260040161068390613322565b6000818152600960209081526040808320805460ff19169055600691829052808320909101805460ff60a81b1916600160a81b17905551339183917fd473bfc963d89546be6b7891f87adc6e3a54f911cce733a781c0f4111f34af749190a350565b60045481565b60025481565b6000818152600a6020908152604091829020805483518184028101840190945280845260609392830182828015611ff857602002820191906000526020600020905b815481526020019060010190808311611fe4575b50505050509050919050565b61200c61287a565b600083815260076020526040902080548390811061203a57634e487b7160e01b600052603260045260246000fd5b600091825260209091206005600690920201015460ff161561206e5760405162461bcd60e51b815260040161068390613445565b612076611c37565b6001600160a01b0316336001600160a01b0316146121575760008381526007602052604090208054839081106120bc57634e487b7160e01b600052603260045260246000fd5b60009182526020909120600690910201600101546001600160a01b031633146120f75760405162461bcd60e51b81526004016106839061324e565b600083815260076020526040902080544291908490811061212857634e487b7160e01b600052603260045260246000fd5b906000526020600020906006020160020154116121575760405162461bcd60e51b8152600401610683906132d8565b60008381526007602052604090208054600191908490811061218957634e487b7160e01b600052603260045260246000fd5b6000918252602080832060056006909302019190910180549315156101000261ff001990941693909317909255848152600b825260408082208483528352808220805460ff19169055858252600a909252908120546121ea90600190613624565b6000858152600a60205260408120805492935090918390811061221d57634e487b7160e01b600052603260045260246000fd5b9060005260206000200154905080600a6000878152602001908152602001600020858154811061225d57634e487b7160e01b600052603260045260246000fd5b9060005260206000200181905550600a600086815260200190815260200160002080548061229b57634e487b7160e01b600052603160045260246000fd5b6001900381819060005260206000200160009055905560006007600087815260200190815260200160002085815481106122e557634e487b7160e01b600052603260045260246000fd5b90600052602060002090600602016004015490506000606460055460045461230d9190613605565b61231791906135e5565b6000888152600660208190526040909120015460045491925061234b916001600160a01b0390911690610779908490613624565b612356610789611c37565b6123603383612762565b336001600160a01b0316877fee23823014af21a0665780b9dd21b7f1e277276946bacfb1475ed82f18b30c858860405161239a91906134ac565b60405180910390a3505050506123ae6128a4565b505050565b6123bb61287a565b60008381526009602052604090205460ff166123e95760405162461bcd60e51b815260040161068390613418565b6004546123f68383613624565b6124019060016135cd565b60008581526006602052604090206005015461241d9190613605565b61242791906135cd565b3410156124465760405162461bcd60e51b8152600401610683906133b6565b6124518383836128aa565b61246d5760405162461bcd60e51b8152600401610683906131e9565b815b8181116125c15761247e6129f1565b60008581526007602090815260409182902054835233908301528101849052606081018390526124ae8484613624565b6124b99060016135cd565b6000868152600660205260409020600501546124d59190613605565b60808201908152600086815260076020908152604080832080546001818101835591855283852087516006909202019081558387015181830180546001600160a01b039092166001600160a01b0319909216919091179055828701516002820155606087015160038201559451600486015560a08601516005909501805460c09097015115156101000261ff001996151560ff19988916179690961695909517909455888352600b8252808320868452825280832080549095168417909455878252600a81529281208054928301815581529190912001819055806125b981613676565b91505061246f565b50336001600160a01b0316837ffd1c7562d632ad1f2eb1d3d73d9d9b803ce2a893c16fdc9d21c3da272e6a8c8584846040516125fe92919061357e565b60405180910390a36123ae6128a4565b60035481565b61261c6127eb565b600555565b6126296127eb565b6001600160a01b03811661264f5760405162461bcd60e51b8152600401610683906130c5565b6126588161282a565b50565b606060076000838152602001908152602001600020805480602002602001604051908101604052809291908181526020016000905b82821015611e5b5760008481526020908190206040805160e08101825260068602909201805483526001808201546001600160a01b03168486015260028201549284019290925260038101546060840152600481015460808401526005015460ff808216151560a085015261010090910416151560c08301529083529092019101612690565b600082815260076020526040812080544291908490811061274757634e487b7160e01b600052603260045260246000fd5b90600052602060002090600602016002015410905092915050565b6000826001600160a01b03168260405161277b90612ebd565b60006040518083038185875af1925050503d80600081146127b8576040519150601f19603f3d011682016040523d82523d6000602084013e6127bd565b606091505b50509050806123ae5760405162461bcd60e51b81526004016106839061327b565b5490565b80546001019055565b6127f3612900565b6001600160a01b0316612804611c37565b6001600160a01b031614611a085760405162461bcd60e51b8152600401610683906132a3565b600080546001600160a01b038381166001600160a01b0319831681178455604051919092169283917f8be0079c531659141344cd1fd0a4f28419497f9722a3daafe3b4186f6b6457e09190a35050565b6002600154141561289d5760405162461bcd60e51b8152600401610683906133e1565b6002600155565b60018055565b6000825b8281116128f3576000858152600b6020908152604080832084845290915290205460ff16156128e15760009150506128f9565b806128eb81613676565b9150506128ae565b50600190505b9392505050565b3390565b8280546129109061363b565b90600052602060002090601f0160209004810192826129325760008555612978565b82601f1061294b57805160ff1916838001178555612978565b82800160010185558215612978579182015b8281111561297857825182559160200191906001019061295d565b50612984929150612a73565b5090565b60405180610160016040528060008152602001606081526020016060815260200160608152602001600081526020016000815260200160006001600160a01b03168152602001600015158152602001600015158152602001600015158152602001600081525090565b6040518060e001604052806000815260200160006001600160a01b031681526020016000815260200160008152602001600081526020016000151581526020016000151581525090565b6040518060a001604052806000815260200160008152602001606081526020016000815260200160006001600160a01b031681525090565b5b808211156129845760008155600101612a74565b80356001600160a01b03811681146119f157600080fd5b600082601f830112612aaf578081fd5b813567ffffffffffffffff80821115612aca57612aca6136a7565b604051601f8301601f191681016020018281118282101715612aee57612aee6136a7565b604052828152848301602001861015612b05578384fd5b82602086016020830137918201602001929092529392505050565b600060208284031215612b31578081fd5b6128f982612a88565b60008060408385031215612b4c578081fd5b612b5583612a88565b946020939093013593505050565b600080600080600060a08688031215612b7a578081fd5b853567ffffffffffffffff80821115612b91578283fd5b612b9d89838a01612a9f565b96506020880135915080821115612bb2578283fd5b612bbe89838a01612a9f565b95506040880135915080821115612bd3578283fd5b50612be088828901612a9f565b9598949750949560608101359550608001359392505050565b600060208284031215612c0a578081fd5b5035919050565b60008060408385031215612c23578182fd5b82359150602083013567ffffffffffffffff811115612c40578182fd5b612c4c85828601612a9f565b9150509250929050565b60008060008060008060c08789031215612c6e578081fd5b86359550602087013567ffffffffffffffff80821115612c8c578283fd5b612c988a838b01612a9f565b96506040890135915080821115612cad578283fd5b612cb98a838b01612a9f565b95506060890135915080821115612cce578283fd5b50612cdb89828a01612a9f565b9350506080870135915060a087013590509295509295509295565b60008060408385031215612d08578182fd5b50508035926020909101359150565b600080600060608486031215612d2b578283fd5b505081359360208301359350604090920135919050565b6001600160a01b03169052565b15159052565b60008151808452815b81811015612d7a57602081850181015186830182015201612d5e565b81811115612d8b5782602083870101525b50601f01601f19169290920160200192915050565b805182526020808201516001600160a01b03169083015260408082015190830152606080820151908301526080808201519083015260a08082015115159083015260c0908101511515910152565b6000610160825184526020830151816020860152612e0e82860182612d55565b91505060408301518482036040860152612e288282612d55565b91505060608301518482036060860152612e428282612d55565b9150506080830151608085015260a083015160a085015260c0830151612e6b60c0860182612d42565b5060e0830151612e7e60e0860182612d4f565b5061010080840151612e9282870182612d4f565b505061012080840151612ea782870182612d4f565b5050610140928301519390920192909252919050565b90565b6001600160a01b0391909116815260200190565b6020808252825182820181905260009190848201906040850190845b81811015612f1657612f03838551612da0565b9284019260e09290920191600101612ef0565b50909695505050505050565b60208082528251828201819052600091906040908185019080840286018301878501865b83811015612faf57603f19898403018552815160a0815185528882015189860152878201518189870152612f7c82870182612d55565b606084810151908801526080938401516001600160a01b0316939096019290925250509386019390860190600101612f46565b509098975050505050505050565b6000602080830181845280855180835260408601915060408482028701019250838701855b8281101561301057603f19888603018452612ffe858351612dee565b94509285019290850190600101612fe2565b5092979650505050505050565b6020808252825182820181905260009190848201906040850190845b81811015612f1657835183529284019291840191600101613039565b901515815260200190565b60208082526018908201527f426f6f6b206669727374206265666f7265207265766965770000000000000000604082015260600190565b6020808252601490820152734e616d652063616e6e6f7420626520656d70747960601b604082015260600190565b60208082526026908201527f4f776e61626c653a206e6577206f776e657220697320746865207a65726f206160408201526564647265737360d01b606082015260800190565b6020808252601a908201527f466565206d7573742062652067726561746572207468616e2030000000000000604082015260600190565b60208082526022908201527f556e617574686f72697a656420706572736f6e6e656c2c206f776e6572206f6e6040820152616c7960f01b606082015260800190565b602080825260149082015273526f6f6d732063616e6e6f74206265207a65726f60601b604082015260600190565b6020808252601b908201527f4465736372697074696f6e2063616e6e6f7420626520656d7074790000000000604082015260600190565b6020808252601d908201527f426f6f6b6564206461746520666f756e6420616d6f6e67206461746573000000604082015260600190565b60208082526014908201527350726963652063616e6e6f74206265207a65726f60601b604082015260600190565b602080825260139082015272155b985d5d1a1bdc9a5e9959081d195b985b9d606a1b604082015260600190565b6020808252600e908201526d14185e5b595b9d0819985a5b195960921b604082015260600190565b6020808252818101527f4f776e61626c653a2063616c6c6572206973206e6f7420746865206f776e6572604082015260600190565b6020808252602a908201527f43616e206e6f206c6f6e67657220726566756e642c20626f6f6b696e672064616040820152691d19481cdd185c9d195960b21b606082015260800190565b602080825260139082015272556e617574686f72697a656420656e7469747960681b604082015260600190565b6020808252601b908201527f52657669657720746578742063616e6e6f7420626520656d7074790000000000604082015260600190565b602080825260169082015275496d616765732063616e6e6f7420626520656d70747960501b604082015260600190565b602080825260119082015270125b9cdd59999a58da595b9d08199d5b99607a1b604082015260600190565b6020808252601f908201527f5265656e7472616e637947756172643a207265656e7472616e742063616c6c00604082015260600190565b6020808252601390820152725370616365206e6f7420617661696c61626c6560681b604082015260600190565b60208082526026908201527f41706172746d656e7420616c726561647920636865636b6564206f6e2074686960408201526573206461746560d01b606082015260800190565b60e081016113188284612da0565b6000602082526128f96020830184612dee565b90815260200190565b9687526001600160a01b03959095166020870152604086019390935260608501919091526080840152151560a0830152151560c082015260e00190565b60006101608d835280602084015261350c8184018e612d55565b90508281036040840152613520818d612d55565b90508281036060840152613534818c612d55565b608084019a909a52505060a08101969096526001600160a01b039490941660c086015291151560e08501521515610100840152151561012083015261014090910152949350505050565b918252602082015260400190565b600086825285602083015260a060408301526135ab60a0830186612d55565b6060830194909452506001600160a01b03919091166080909101529392505050565b600082198211156135e0576135e0613691565b500190565b60008261360057634e487b7160e01b81526012600452602481fd5b500490565b600081600019048311821515161561361f5761361f613691565b500290565b60008282101561363657613636613691565b500390565b60028104600182168061364f57607f821691505b6020821081141561367057634e487b7160e01b600052602260045260246000fd5b50919050565b600060001982141561368a5761368a613691565b5060010190565b634e487b7160e01b600052601160045260246000fd5b634e487b7160e01b600052604160045260246000fdfea2646970667358221220270997e61129f7561a1b2f2ead2a7237d6d04d435f97087517f0dba220b532f264736f6c63430008000033",
  "immutableReferences": {},
  "source": "// SPDX-License-Identifier: MIT\r\npragma solidity ^0.8.0;\r\n\r\nimport \"@openzeppelin/contracts/access/Ownable.sol\";\r\nimport \"@openzeppelin/contracts/utils/Counters.sol\";\r\nimport \"@openzeppelin/contracts/security/ReentrancyGuard.sol\";\r\n\r\ncontract RoomFlow is Ownable, ReentrancyGuard {\r\n    using Counters for Counters.Counter;\r\n    Counters.Counter public totalSpaces;\r\n    Counters.Counter public totalReviews;\r\n\r\n    struct SpaceListing {\r\n        uint id;\r\n        string name;\r\n        string description;\r\n        string images;\r\n        uint rooms;\r\n        uint price;\r\n        address owner;\r\n        bool booked;\r\n        bool deleted;\r\n        bool availability;\r\n        uint timestamp;\r\n    }\r\n\r\n    struct Booking {\r\n        uint id;\r\n        address tenant;\r\n        uint startDate;\r\n        uint endDate;\r\n        uint totalPrice;\r\n        bool checked;\r\n        bool cancelled;\r\n    }\r\n\r\n    struct Review {\r\n        uint id;\r\n        uint spaceId;\r\n        string reviewText;\r\n        uint timestamp;\r\n        address reviewer;\r\n    }\r\n\r\n    // event SecurityFeeUpdated(uint newFee);\r\n\r\n    event SpaceListed(uint indexed id, address indexed owner);\r\n    event SpaceUpdated(uint indexed id, address indexed owner);\r\n    event SpaceDeleted(uint indexed id, address indexed owner);\r\n    event SpaceBooked(\r\n        uint indexed id,\r\n        address indexed tenant,\r\n        uint startDate,\r\n        uint endDate\r\n    );\r\n    event SpaceCheckedIn(\r\n        uint indexed id,\r\n        address indexed tenant,\r\n        uint bookingId\r\n    );\r\n    event SpaceFundsClaimed(\r\n        uint indexed id,\r\n        address indexed owner,\r\n        uint bookingId\r\n    );\r\n    event SpaceRefunded(\r\n        uint indexed id,\r\n        address indexed tenant,\r\n        uint bookingId\r\n    );\r\n    event ReviewAdded(uint indexed spaceId, address indexed author);\r\n    event SecurityFeeUpdated(uint newFee);\r\n    event TaxPercentUpdated(uint newTaxPercent);\r\n\r\n    uint public securityFee;\r\n    uint public taxPercent;\r\n\r\n    mapping(uint => SpaceListing) public spaces;\r\n    mapping(uint => Booking[]) public bookingsOf;\r\n    mapping(uint => Review[]) public reviewsOf;\r\n    mapping(uint => bool) public spaceExists;\r\n    mapping(uint => uint[]) public bookedDates;\r\n    mapping(uint => mapping(uint => bool)) public isDateBooked;\r\n    mapping(address => mapping(uint => bool)) public hasBooked;\r\n\r\n    constructor(uint _taxPercent, uint _securityFee) {\r\n        taxPercent = _taxPercent;\r\n        securityFee = _securityFee;\r\n    }\r\n\r\n    function createSpace(\r\n        string memory name,\r\n        string memory description,\r\n        string memory images,\r\n        uint rooms,\r\n        uint price\r\n    ) public {\r\n        require(bytes(name).length > 0, \"Name cannot be empty\");\r\n        require(bytes(description).length > 0, \"Description cannot be empty\");\r\n        require(bytes(images).length > 0, \"Images cannot be empty\");\r\n        require(rooms > 0, \"Rooms cannot be zero\");\r\n        require(price > 0 ether, \"Price cannot be zero\");\r\n\r\n        totalSpaces.increment();\r\n        SpaceListing memory space;\r\n        space.id = totalSpaces.current();\r\n        space.name = name;\r\n        space.description = description;\r\n        space.images = images;\r\n        space.rooms = rooms;\r\n        space.price = price;\r\n        space.owner = msg.sender;\r\n        space.availability = true;\r\n        space.timestamp = block.timestamp;\r\n\r\n        spaceExists[space.id] = true;\r\n        spaces[space.id] = space;\r\n        emit SpaceListed(space.id, msg.sender);\r\n    }\r\n\r\n    function updateSpace(\r\n        uint id,\r\n        string memory name,\r\n        string memory description,\r\n        string memory images,\r\n        uint rooms,\r\n        uint price\r\n    ) public {\r\n        require(spaceExists[id], \"Space not available\");\r\n        require(\r\n            msg.sender == spaces[id].owner,\r\n            \"Unauthorized personnel, owner only\"\r\n        );\r\n        require(bytes(name).length > 0, \"Name cannot be empty\");\r\n        require(bytes(description).length > 0, \"Description cannot be empty\");\r\n        require(bytes(images).length > 0, \"Images cannot be empty\");\r\n        require(rooms > 0, \"Rooms cannot be zero\");\r\n        require(price > 0 ether, \"Price cannot be zero\");\r\n\r\n        SpaceListing memory space = spaces[id];\r\n        space.name = name;\r\n        space.description = description;\r\n        space.images = images;\r\n        space.rooms = rooms;\r\n        space.price = price;\r\n\r\n        spaces[id] = space;\r\n        emit SpaceUpdated(id, msg.sender);\r\n    }\r\n\r\n    function deleteSpace(uint id) public {\r\n        require(spaceExists[id], \"Space not available\");\r\n        require(spaces[id].owner == msg.sender, \"Unauthorized entity\");\r\n\r\n        spaceExists[id] = false;\r\n        spaces[id].deleted = true;\r\n        emit SpaceDeleted(id, msg.sender);\r\n    }\r\n\r\n    function getSpaces() public view returns (SpaceListing[] memory) {\r\n        uint256 totalSpace;\r\n        for (uint i = 1; i <= totalSpaces.current(); i++) {\r\n            if (!spaces[i].deleted) totalSpace++;\r\n        }\r\n\r\n        SpaceListing[] memory spaceListings = new SpaceListing[](totalSpace);\r\n\r\n        uint256 j = 0;\r\n        for (uint i = 1; i <= totalSpaces.current(); i++) {\r\n            if (!spaces[i].deleted) {\r\n                spaceListings[j] = spaces[i];\r\n                j++;\r\n            }\r\n        }\r\n\r\n        return spaceListings;\r\n    }\r\n\r\n    function getSpace(uint id) public view returns (SpaceListing memory) {\r\n        return spaces[id];\r\n    }\r\n\r\n    function bookSpace(\r\n        uint id,\r\n        uint startDate,\r\n        uint endDate\r\n    ) public payable nonReentrant {\r\n        require(spaceExists[id], \"Space not available\");\r\n        require(\r\n            msg.value >=\r\n                spaces[id].price * (endDate - startDate + 1) + securityFee,\r\n            \"Insufficient fund\"\r\n        );\r\n        require(\r\n            isDateCleared(id, startDate, endDate),\r\n            \"Booked date found among dates\"\r\n        );\r\n\r\n        for (uint i = startDate; i <= endDate; i++) {\r\n            Booking memory booking;\r\n            booking.id = bookingsOf[id].length;\r\n            booking.tenant = msg.sender;\r\n            booking.startDate = startDate;\r\n            booking.endDate = endDate;\r\n            booking.totalPrice = spaces[id].price * (endDate - startDate + 1);\r\n            bookingsOf[id].push(booking);\r\n            isDateBooked[id][i] = true;\r\n            bookedDates[id].push(i);\r\n        }\r\n        emit SpaceBooked(id, msg.sender, startDate, endDate);\r\n    }\r\n\r\n    function isDateCleared(\r\n        uint id,\r\n        uint startDate,\r\n        uint endDate\r\n    ) internal view returns (bool) {\r\n        for (uint i = startDate; i <= endDate; i++) {\r\n            if (isDateBooked[id][i]) return false;\r\n        }\r\n        return true;\r\n    }\r\n\r\n    function checkInSpace(uint id, uint bookingId) public {\r\n        require(\r\n            msg.sender == bookingsOf[id][bookingId].tenant,\r\n            \"Unauthorized tenant\"\r\n        );\r\n        require(\r\n            !bookingsOf[id][bookingId].checked,\r\n            \"Apartment already checked on this date\"\r\n        );\r\n\r\n        bookingsOf[id][bookingId].checked = true;\r\n        uint price = bookingsOf[id][bookingId].totalPrice;\r\n        uint fee = (price * taxPercent) / 100;\r\n\r\n        hasBooked[msg.sender][id] = true;\r\n\r\n        payTo(spaces[id].owner, (price - fee));\r\n        payTo(owner(), fee);\r\n        payTo(msg.sender, securityFee);\r\n         emit SpaceCheckedIn(id, msg.sender, bookingId);\r\n    }\r\n\r\n    function claimFunds(uint id, uint bookingId) public {\r\n        require(msg.sender == spaces[id].owner, \"Unauthorized entity\");\r\n        require(\r\n            !bookingsOf[id][bookingId].checked,\r\n            \"Apartment already checked on this date\"\r\n        );\r\n\r\n        uint price = bookingsOf[id][bookingId].totalPrice;\r\n        uint fee = (price * taxPercent) / 100;\r\n\r\n        payTo(spaces[id].owner, (price - fee));\r\n        payTo(owner(), fee);\r\n        payTo(msg.sender, securityFee);\r\n        emit SpaceFundsClaimed(id, msg.sender, bookingId);\r\n    }\r\n\r\n    function refundBooking(\r\n        uint id,\r\n        uint bookingId,\r\n        uint date\r\n    ) public nonReentrant {\r\n        require(\r\n            !bookingsOf[id][bookingId].checked,\r\n            \"Apartment already checked on this date\"\r\n        );\r\n\r\n        if (msg.sender != owner()) {\r\n            require(\r\n                msg.sender == bookingsOf[id][bookingId].tenant,\r\n                \"Unauthorized tenant\"\r\n            );\r\n            require(\r\n                bookingsOf[id][bookingId].startDate > block.timestamp,\r\n                \"Can no longer refund, booking date started\"\r\n            );\r\n        }\r\n\r\n        bookingsOf[id][bookingId].cancelled = true;\r\n        isDateBooked[id][date] = false;\r\n\r\n        uint lastIndex = bookedDates[id].length - 1;\r\n        uint lastBookingId = bookedDates[id][lastIndex];\r\n        bookedDates[id][bookingId] = lastBookingId;\r\n        bookedDates[id].pop();\r\n\r\n        uint price = bookingsOf[id][bookingId].totalPrice;\r\n        uint fee = (securityFee * taxPercent) / 100;\r\n\r\n        payTo(spaces[id].owner, (securityFee - fee));\r\n        payTo(owner(), fee);\r\n        payTo(msg.sender, price);\r\n        emit SpaceRefunded(id, msg.sender, bookingId);\r\n    }\r\n\r\n    function hasBookedDateReached(\r\n        uint id,\r\n        uint bookingId\r\n    ) public view returns (bool) {\r\n        return bookingsOf[id][bookingId].startDate < block.timestamp;\r\n    }\r\n\r\n    function getUnavailableDates(uint id) public view returns (uint[] memory) {\r\n        return bookedDates[id];\r\n    }\r\n\r\n    function getBookings(uint id) public view returns (Booking[] memory) {\r\n        return bookingsOf[id];\r\n    }\r\n\r\n    function getBooking(\r\n        uint id,\r\n        uint bookingId\r\n    ) public view returns (Booking memory) {\r\n        return bookingsOf[id][bookingId];\r\n    }\r\n\r\n    function updateSecurityFee(uint newFee) public onlyOwner {\r\n        require(newFee > 0, \"Fee must be greater than 0\");\r\n        securityFee = newFee;\r\n        emit SecurityFeeUpdated(newFee);\r\n    }\r\n\r\n    function updateTaxPercent(uint newTaxPercent) public onlyOwner {\r\n        taxPercent = newTaxPercent;\r\n    }\r\n\r\n    function addReview(uint spaceId, string memory reviewText) public {\r\n        require(spaceExists[spaceId], \"Space not available\");\r\n        require(hasBooked[msg.sender][spaceId], \"Book first before review\");\r\n        require(bytes(reviewText).length > 0, \"Review text cannot be empty\");\r\n\r\n        totalReviews.increment();\r\n        Review memory review;\r\n        review.id = totalReviews.current();\r\n        review.spaceId = spaceId;\r\n        review.reviewText = reviewText;\r\n        review.timestamp = block.timestamp;\r\n        review.reviewer = msg.sender;\r\n\r\n        reviewsOf[spaceId].push(review);\r\n        emit ReviewAdded(spaceId, msg.sender);\r\n    }\r\n\r\n    function getReviews(uint spaceId) public view returns (Review[] memory) {\r\n        return reviewsOf[spaceId];\r\n    }\r\n\r\n    function tenantBooked(uint spaceId) public view returns (bool) {\r\n        return hasBooked[msg.sender][spaceId];\r\n    }\r\n\r\n    function currentTime() internal view returns (uint256) {\r\n        uint256 newNum = (block.timestamp * 1000) + 1000;\r\n        return newNum;\r\n    }\r\n\r\n    function payTo(address to, uint256 amount) internal {\r\n        (bool success, ) = payable(to).call{value: amount}(\"\");\r\n        require(success, \"Payment failed\");\r\n    }\r\n}\r\n",
  "sourcePath": "C:\\Users\\user\\AndroidStudioProjects\\roomflow\\contracts\\Roomflow.sol",
  "compiler": {
    "name": "solc",
    "version": "0.8.0+commit.c7dfd78e.Emscripten.clang"
  },
  "schemaVersion": "3.4.14",
  "updatedAt": "2023-08-05T04:40:42.036Z",
  "networkType": "ethereum",
  "devdoc": {
    "kind": "dev",
    "methods": {
      "owner()": {
        "details": "Returns the address of the current owner."
      },
      "renounceOwnership()": {
        "details": "Leaves the contract without owner. It will not be possible to call `onlyOwner` functions. Can only be called by the current owner. NOTE: Renouncing ownership will leave the contract without an owner, thereby disabling any functionality that is only available to the owner."
      },
      "transferOwnership(address)": {
        "details": "Transfers ownership of the contract to a new account (`newOwner`). Can only be called by the current owner."
      }
    },
    "version": 1
  },
  "userdoc": {
    "kind": "user",
    "methods": {},
    "version": 1
  }
}