{
  "contractName": "RoomFlow",
  "abi": [
    {
      "inputs": [
        {
          "internalType": "uint256",
          "name": "_taxPercent",
          "type": "uint256"
        },
        {
          "internalType": "uint256",
          "name": "_securityFee",
          "type": "uint256"
        }
      ],
      "stateMutability": "nonpayable",
      "type": "constructor"
    },
    {
      "anonymous": false,
      "inputs": [
        {
          "indexed": true,
          "internalType": "address",
          "name": "previousOwner",
          "type": "address"
        },
        {
          "indexed": true,
          "internalType": "address",
          "name": "newOwner",
          "type": "address"
        }
      ],
      "name": "OwnershipTransferred",
      "type": "event"
    },
    {
      "anonymous": false,
      "inputs": [
        {
          "indexed": true,
          "internalType": "uint256",
          "name": "spaceId",
          "type": "uint256"
        },
        {
          "indexed": true,
          "internalType": "address",
          "name": "author",
          "type": "address"
        }
      ],
      "name": "ReviewAdded",
      "type": "event"
    },
    {
      "anonymous": false,
      "inputs": [
        {
          "indexed": false,
          "internalType": "uint256",
          "name": "newFee",
          "type": "uint256"
        }
      ],
      "name": "SecurityFeeUpdated",
      "type": "event"
    },
    {
      "anonymous": false,
      "inputs": [
        {
          "indexed": true,
          "internalType": "uint256",
          "name": "id",
          "type": "uint256"
        },
        {
          "indexed": true,
          "internalType": "address",
          "name": "tenant",
          "type": "address"
        },
        {
          "indexed": false,
          "internalType": "uint256",
          "name": "startDate",
          "type": "uint256"
        },
        {
          "indexed": false,
          "internalType": "uint256",
          "name": "endDate",
          "type": "uint256"
        }
      ],
      "name": "SpaceBooked",
      "type": "event"
    },
    {
      "anonymous": false,
      "inputs": [
        {
          "indexed": true,
          "internalType": "uint256",
          "name": "id",
          "type": "uint256"
        },
        {
          "indexed": true,
          "internalType": "address",
          "name": "tenant",
          "type": "address"
        },
        {
          "indexed": false,
          "internalType": "uint256",
          "name": "bookingId",
          "type": "uint256"
        }
      ],
      "name": "SpaceCheckedIn",
      "type": "event"
    },
    {
      "anonymous": false,
      "inputs": [
        {
          "indexed": true,
          "internalType": "uint256",
          "name": "id",
          "type": "uint256"
        },
        {
          "indexed": true,
          "internalType": "address",
          "name": "owner",
          "type": "address"
        }
      ],
      "name": "SpaceDeleted",
      "type": "event"
    },
    {
      "anonymous": false,
      "inputs": [
        {
          "indexed": true,
          "internalType": "uint256",
          "name": "id",
          "type": "uint256"
        },
        {
          "indexed": true,
          "internalType": "address",
          "name": "owner",
          "type": "address"
        },
        {
          "indexed": false,
          "internalType": "uint256",
          "name": "bookingId",
          "type": "uint256"
        }
      ],
      "name": "SpaceFundsClaimed",
      "type": "event"
    },
    {
      "anonymous": false,
      "inputs": [
        {
          "indexed": true,
          "internalType": "uint256",
          "name": "id",
          "type": "uint256"
        },
        {
          "indexed": true,
          "internalType": "address",
          "name": "owner",
          "type": "address"
        }
      ],
      "name": "SpaceListed",
      "type": "event"
    },
    {
      "anonymous": false,
      "inputs": [
        {
          "indexed": true,
          "internalType": "uint256",
          "name": "id",
          "type": "uint256"
        },
        {
          "indexed": true,
          "internalType": "address",
          "name": "tenant",
          "type": "address"
        },
        {
          "indexed": false,
          "internalType": "uint256",
          "name": "bookingId",
          "type": "uint256"
        }
      ],
      "name": "SpaceRefunded",
      "type": "event"
    },
    {
      "anonymous": false,
      "inputs": [
        {
          "indexed": true,
          "internalType": "uint256",
          "name": "id",
          "type": "uint256"
        },
        {
          "indexed": true,
          "internalType": "address",
          "name": "owner",
          "type": "address"
        }
      ],
      "name": "SpaceUpdated",
      "type": "event"
    },
    {
      "anonymous": false,
      "inputs": [
        {
          "indexed": false,
          "internalType": "uint256",
          "name": "newTaxPercent",
          "type": "uint256"
        }
      ],
      "name": "TaxPercentUpdated",
      "type": "event"
    },
    {
      "inputs": [
        {
          "internalType": "uint256",
          "name": "",
          "type": "uint256"
        },
        {
          "internalType": "uint256",
          "name": "",
          "type": "uint256"
        }
      ],
      "name": "bookedDates",
      "outputs": [
        {
          "internalType": "uint256",
          "name": "",
          "type": "uint256"
        }
      ],
      "stateMutability": "view",
      "type": "function",
      "constant": true
    },
    {
      "inputs": [
        {
          "internalType": "uint256",
          "name": "",
          "type": "uint256"
        },
        {
          "internalType": "uint256",
          "name": "",
          "type": "uint256"
        }
      ],
      "name": "bookingsOf",
      "outputs": [
        {
          "internalType": "uint256",
          "name": "id",
          "type": "uint256"
        },
        {
          "internalType": "address",
          "name": "tenant",
          "type": "address"
        },
        {
          "internalType": "uint256",
          "name": "startDate",
          "type": "uint256"
        },
        {
          "internalType": "uint256",
          "name": "endDate",
          "type": "uint256"
        },
        {
          "internalType": "uint256",
          "name": "totalPrice",
          "type": "uint256"
        },
        {
          "internalType": "bool",
          "name": "checked",
          "type": "bool"
        },
        {
          "internalType": "bool",
          "name": "cancelled",
          "type": "bool"
        }
      ],
      "stateMutability": "view",
      "type": "function",
      "constant": true
    },
    {
      "inputs": [
        {
          "internalType": "address",
          "name": "",
          "type": "address"
        },
        {
          "internalType": "uint256",
          "name": "",
          "type": "uint256"
        }
      ],
      "name": "hasBooked",
      "outputs": [
        {
          "internalType": "bool",
          "name": "",
          "type": "bool"
        }
      ],
      "stateMutability": "view",
      "type": "function",
      "constant": true
    },
    {
      "inputs": [
        {
          "internalType": "uint256",
          "name": "",
          "type": "uint256"
        },
        {
          "internalType": "uint256",
          "name": "",
          "type": "uint256"
        }
      ],
      "name": "isDateBooked",
      "outputs": [
        {
          "internalType": "bool",
          "name": "",
          "type": "bool"
        }
      ],
      "stateMutability": "view",
      "type": "function",
      "constant": true
    },
    {
      "inputs": [],
      "name": "owner",
      "outputs": [
        {
          "internalType": "address",
          "name": "",
          "type": "address"
        }
      ],
      "stateMutability": "view",
      "type": "function",
      "constant": true
    },
    {
      "inputs": [],
      "name": "renounceOwnership",
      "outputs": [],
      "stateMutability": "nonpayable",
      "type": "function"
    },
    {
      "inputs": [
        {
          "internalType": "uint256",
          "name": "",
          "type": "uint256"
        },
        {
          "internalType": "uint256",
          "name": "",
          "type": "uint256"
        }
      ],
      "name": "reviewsOf",
      "outputs": [
        {
          "internalType": "uint256",
          "name": "id",
          "type": "uint256"
        },
        {
          "internalType": "uint256",
          "name": "spaceId",
          "type": "uint256"
        },
        {
          "internalType": "string",
          "name": "reviewText",
          "type": "string"
        },
        {
          "internalType": "uint256",
          "name": "timestamp",
          "type": "uint256"
        },
        {
          "internalType": "address",
          "name": "reviewer",
          "type": "address"
        }
      ],
      "stateMutability": "view",
      "type": "function",
      "constant": true
    },
    {
      "inputs": [],
      "name": "securityFee",
      "outputs": [
        {
          "internalType": "uint256",
          "name": "",
          "type": "uint256"
        }
      ],
      "stateMutability": "view",
      "type": "function",
      "constant": true
    },
    {
      "inputs": [
        {
          "internalType": "uint256",
          "name": "",
          "type": "uint256"
        }
      ],
      "name": "spaceExists",
      "outputs": [
        {
          "internalType": "bool",
          "name": "",
          "type": "bool"
        }
      ],
      "stateMutability": "view",
      "type": "function",
      "constant": true
    },
    {
      "inputs": [
        {
          "internalType": "uint256",
          "name": "",
          "type": "uint256"
        }
      ],
      "name": "spaces",
      "outputs": [
        {
          "internalType": "uint256",
          "name": "id",
          "type": "uint256"
        },
        {
          "internalType": "string",
          "name": "name",
          "type": "string"
        },
        {
          "internalType": "string",
          "name": "description",
          "type": "string"
        },
        {
          "internalType": "string",
          "name": "images",
          "type": "string"
        },
        {
          "internalType": "uint256",
          "name": "rooms",
          "type": "uint256"
        },
        {
          "internalType": "uint256",
          "name": "price",
          "type": "uint256"
        },
        {
          "internalType": "address",
          "name": "owner",
          "type": "address"
        },
        {
          "internalType": "bool",
          "name": "booked",
          "type": "bool"
        },
        {
          "internalType": "bool",
          "name": "deleted",
          "type": "bool"
        },
        {
          "internalType": "bool",
          "name": "availability",
          "type": "bool"
        },
        {
          "internalType": "uint256",
          "name": "timestamp",
          "type": "uint256"
        }
      ],
      "stateMutability": "view",
      "type": "function",
      "constant": true
    },
    {
      "inputs": [],
      "name": "taxPercent",
      "outputs": [
        {
          "internalType": "uint256",
          "name": "",
          "type": "uint256"
        }
      ],
      "stateMutability": "view",
      "type": "function",
      "constant": true
    },
    {
      "inputs": [
        {
          "internalType": "address",
          "name": "newOwner",
          "type": "address"
        }
      ],
      "name": "transferOwnership",
      "outputs": [],
      "stateMutability": "nonpayable",
      "type": "function"
    },
    {
      "inputs": [
        {
          "internalType": "string",
          "name": "name",
          "type": "string"
        },
        {
          "internalType": "string",
          "name": "description",
          "type": "string"
        },
        {
          "internalType": "string",
          "name": "images",
          "type": "string"
        },
        {
          "internalType": "uint256",
          "name": "rooms",
          "type": "uint256"
        },
        {
          "internalType": "uint256",
          "name": "price",
          "type": "uint256"
        }
      ],
      "name": "createSpace",
      "outputs": [],
      "stateMutability": "nonpayable",
      "type": "function"
    },
    {
      "inputs": [
        {
          "internalType": "uint256",
          "name": "id",
          "type": "uint256"
        },
        {
          "internalType": "string",
          "name": "name",
          "type": "string"
        },
        {
          "internalType": "string",
          "name": "description",
          "type": "string"
        },
        {
          "internalType": "string",
          "name": "images",
          "type": "string"
        },
        {
          "internalType": "uint256",
          "name": "rooms",
          "type": "uint256"
        },
        {
          "internalType": "uint256",
          "name": "price",
          "type": "uint256"
        }
      ],
      "name": "updateSpace",
      "outputs": [],
      "stateMutability": "nonpayable",
      "type": "function"
    },
    {
      "inputs": [
        {
          "internalType": "uint256",
          "name": "id",
          "type": "uint256"
        }
      ],
      "name": "deleteSpace",
      "outputs": [],
      "stateMutability": "nonpayable",
      "type": "function"
    },
    {
      "inputs": [],
      "name": "getSpaces",
      "outputs": [
        {
          "components": [
            {
              "internalType": "uint256",
              "name": "id",
              "type": "uint256"
            },
            {
              "internalType": "string",
              "name": "name",
              "type": "string"
            },
            {
              "internalType": "string",
              "name": "description",
              "type": "string"
            },
            {
              "internalType": "string",
              "name": "images",
              "type": "string"
            },
            {
              "internalType": "uint256",
              "name": "rooms",
              "type": "uint256"
            },
            {
              "internalType": "uint256",
              "name": "price",
              "type": "uint256"
            },
            {
              "internalType": "address",
              "name": "owner",
              "type": "address"
            },
            {
              "internalType": "bool",
              "name": "booked",
              "type": "bool"
            },
            {
              "internalType": "bool",
              "name": "deleted",
              "type": "bool"
            },
            {
              "internalType": "bool",
              "name": "availability",
              "type": "bool"
            },
            {
              "internalType": "uint256",
              "name": "timestamp",
              "type": "uint256"
            }
          ],
          "internalType": "struct RoomFlow.SpaceListing[]",
          "name": "",
          "type": "tuple[]"
        }
      ],
      "stateMutability": "view",
      "type": "function",
      "constant": true
    },
    {
      "inputs": [
        {
          "internalType": "uint256",
          "name": "id",
          "type": "uint256"
        }
      ],
      "name": "getSpace",
      "outputs": [
        {
          "components": [
            {
              "internalType": "uint256",
              "name": "id",
              "type": "uint256"
            },
            {
              "internalType": "string",
              "name": "name",
              "type": "string"
            },
            {
              "internalType": "string",
              "name": "description",
              "type": "string"
            },
            {
              "internalType": "string",
              "name": "images",
              "type": "string"
            },
            {
              "internalType": "uint256",
              "name": "rooms",
              "type": "uint256"
            },
            {
              "internalType": "uint256",
              "name": "price",
              "type": "uint256"
            },
            {
              "internalType": "address",
              "name": "owner",
              "type": "address"
            },
            {
              "internalType": "bool",
              "name": "booked",
              "type": "bool"
            },
            {
              "internalType": "bool",
              "name": "deleted",
              "type": "bool"
            },
            {
              "internalType": "bool",
              "name": "availability",
              "type": "bool"
            },
            {
              "internalType": "uint256",
              "name": "timestamp",
              "type": "uint256"
            }
          ],
          "internalType": "struct RoomFlow.SpaceListing",
          "name": "",
          "type": "tuple"
        }
      ],
      "stateMutability": "view",
      "type": "function",
      "constant": true
    },
    {
      "inputs": [
        {
          "internalType": "uint256",
          "name": "id",
          "type": "uint256"
        },
        {
          "internalType": "uint256",
          "name": "startDate",
          "type": "uint256"
        },
        {
          "internalType": "uint256",
          "name": "endDate",
          "type": "uint256"
        }
      ],
      "name": "bookSpace",
      "outputs": [],
      "stateMutability": "payable",
      "type": "function",
      "payable": true
    },
    {
      "inputs": [
        {
          "internalType": "uint256",
          "name": "id",
          "type": "uint256"
        },
        {
          "internalType": "uint256",
          "name": "bookingId",
          "type": "uint256"
        }
      ],
      "name": "checkInSpace",
      "outputs": [],
      "stateMutability": "nonpayable",
      "type": "function"
    },
    {
      "inputs": [
        {
          "internalType": "uint256",
          "name": "id",
          "type": "uint256"
        },
        {
          "internalType": "uint256",
          "name": "bookingId",
          "type": "uint256"
        }
      ],
      "name": "claimFunds",
      "outputs": [],
      "stateMutability": "nonpayable",
      "type": "function"
    },
    {
      "inputs": [
        {
          "internalType": "uint256",
          "name": "id",
          "type": "uint256"
        },
        {
          "internalType": "uint256",
          "name": "bookingId",
          "type": "uint256"
        },
        {
          "internalType": "uint256",
          "name": "date",
          "type": "uint256"
        }
      ],
      "name": "refundBooking",
      "outputs": [],
      "stateMutability": "nonpayable",
      "type": "function"
    },
    {
      "inputs": [
        {
          "internalType": "uint256",
          "name": "id",
          "type": "uint256"
        },
        {
          "internalType": "uint256",
          "name": "bookingId",
          "type": "uint256"
        }
      ],
      "name": "hasBookedDateReached",
      "outputs": [
        {
          "internalType": "bool",
          "name": "",
          "type": "bool"
        }
      ],
      "stateMutability": "view",
      "type": "function",
      "constant": true
    },
    {
      "inputs": [
        {
          "internalType": "uint256",
          "name": "id",
          "type": "uint256"
        }
      ],
      "name": "getUnavailableDates",
      "outputs": [
        {
          "internalType": "uint256[]",
          "name": "",
          "type": "uint256[]"
        }
      ],
      "stateMutability": "view",
      "type": "function",
      "constant": true
    },
    {
      "inputs": [
        {
          "internalType": "uint256",
          "name": "id",
          "type": "uint256"
        }
      ],
      "name": "getBookings",
      "outputs": [
        {
          "components": [
            {
              "internalType": "uint256",
              "name": "id",
              "type": "uint256"
            },
            {
              "internalType": "address",
              "name": "tenant",
              "type": "address"
            },
            {
              "internalType": "uint256",
              "name": "startDate",
              "type": "uint256"
            },
            {
              "internalType": "uint256",
              "name": "endDate",
              "type": "uint256"
            },
            {
              "internalType": "uint256",
              "name": "totalPrice",
              "type": "uint256"
            },
            {
              "internalType": "bool",
              "name": "checked",
              "type": "bool"
            },
            {
              "internalType": "bool",
              "name": "cancelled",
              "type": "bool"
            }
          ],
          "internalType": "struct RoomFlow.Booking[]",
          "name": "",
          "type": "tuple[]"
        }
      ],
      "stateMutability": "view",
      "type": "function",
      "constant": true
    },
    {
      "inputs": [
        {
          "internalType": "uint256",
          "name": "id",
          "type": "uint256"
        },
        {
          "internalType": "uint256",
          "name": "bookingId",
          "type": "uint256"
        }
      ],
      "name": "getBooking",
      "outputs": [
        {
          "components": [
            {
              "internalType": "uint256",
              "name": "id",
              "type": "uint256"
            },
            {
              "internalType": "address",
              "name": "tenant",
              "type": "address"
            },
            {
              "internalType": "uint256",
              "name": "startDate",
              "type": "uint256"
            },
            {
              "internalType": "uint256",
              "name": "endDate",
              "type": "uint256"
            },
            {
              "internalType": "uint256",
              "name": "totalPrice",
              "type": "uint256"
            },
            {
              "internalType": "bool",
              "name": "checked",
              "type": "bool"
            },
            {
              "internalType": "bool",
              "name": "cancelled",
              "type": "bool"
            }
          ],
          "internalType": "struct RoomFlow.Booking",
          "name": "",
          "type": "tuple"
        }
      ],
      "stateMutability": "view",
      "type": "function",
      "constant": true
    },
    {
      "inputs": [
        {
          "internalType": "uint256",
          "name": "newFee",
          "type": "uint256"
        }
      ],
      "name": "updateSecurityFee",
      "outputs": [],
      "stateMutability": "nonpayable",
      "type": "function"
    },
    {
      "inputs": [
        {
          "internalType": "uint256",
          "name": "newTaxPercent",
          "type": "uint256"
        }
      ],
      "name": "updateTaxPercent",
      "outputs": [],
      "stateMutability": "nonpayable",
      "type": "function"
    },
    {
      "inputs": [
        {
          "internalType": "uint256",
          "name": "spaceId",
          "type": "uint256"
        },
        {
          "internalType": "string",
          "name": "reviewText",
          "type": "string"
        }
      ],
      "name": "addReview",
      "outputs": [],
      "stateMutability": "nonpayable",
      "type": "function"
    },
    {
      "inputs": [
        {
          "internalType": "uint256",
          "name": "spaceId",
          "type": "uint256"
        }
      ],
      "name": "getReviews",
      "outputs": [
        {
          "components": [
            {
              "internalType": "uint256",
              "name": "id",
              "type": "uint256"
            },
            {
              "internalType": "uint256",
              "name": "spaceId",
              "type": "uint256"
            },
            {
              "internalType": "string",
              "name": "reviewText",
              "type": "string"
            },
            {
              "internalType": "uint256",
              "name": "timestamp",
              "type": "uint256"
            },
            {
              "internalType": "address",
              "name": "reviewer",
              "type": "address"
            }
          ],
          "internalType": "struct RoomFlow.Review[]",
          "name": "",
          "type": "tuple[]"
        }
      ],
      "stateMutability": "view",
      "type": "function",
      "constant": true
    },
    {
      "inputs": [
        {
          "internalType": "uint256",
          "name": "spaceId",
          "type": "uint256"
        }
      ],
      "name": "tenantBooked",
      "outputs": [
        {
          "internalType": "bool",
          "name": "",
          "type": "bool"
        }
      ],
      "stateMutability": "view",
      "type": "function",
      "constant": true
    }
  ],
  "bytecode": "0x60806040523480156200001157600080fd5b506040516200378a3803806200378a8339810160408190526200003491620000af565b62000048620000426200005b565b6200005f565b60018055600591909155600455620000d3565b3390565b600080546001600160a01b038381166001600160a01b0319831681178455604051919092169283917f8be0079c531659141344cd1fd0a4f28419497f9722a3daafe3b4186f6b6457e09190a35050565b60008060408385031215620000c2578182fd5b505080516020909101519092909150565b6136a780620000e36000396000f3fe6080604052600436106101cd5760003560e01c80638da5cb5b116100f7578063d68e130211610095578063eb46144511610064578063eb4614451461057c578063f2fde38b1461059c578063f4010995146105bc578063f6ab7e3d146105e9576101cd565b8063d68e130214610507578063db2f80b71461051c578063e16ca8d114610549578063e1c6962014610569576101cd565b80639f31a2be116100d15780639f31a2be14610487578063a74431f4146104a7578063d3dfc0f6146104c7578063d684ccda146104e7576101cd565b80638da5cb5b1461040757806390067e31146104295780639d4a22551461045a576101cd565b8063577bf6ee1161016f578063715018a61161013e578063715018a6146103795780637541f41c1461038e5780637586353b146103b05780637f75aed5146103e7576101cd565b8063577bf6ee146102d95780635bb0c5d61461030c578063615911491461032c57806370e104311461034c576101cd565b806315478ca9116101ab57806315478ca9146102345780632ce894bc1461025f578063455b30701461028c57806350ed48e4146102b9576101cd565b8063010b58ee146101d257806301d8a51b146101f45780630c14e65b14610214575b600080fd5b3480156101de57600080fd5b506101f26101ed366004612caa565b610609565b005b34801561020057600080fd5b506101f261020f366004612caa565b6107a3565b34801561022057600080fd5b506101f261022f366004612c0a565b6109bd565b34801561024057600080fd5b50610249610e7d565b6040516102569190612f71565b60405180910390f35b34801561026b57600080fd5b5061027f61027a366004612caa565b61120c565b6040516102569190613009565b34801561029857600080fd5b506102ac6102a7366004612caa565b61122c565b604051610256919061343f565b3480156102c557600080fd5b506101f26102d4366004612b17565b6112de565b3480156102e557600080fd5b506102f96102f4366004612caa565b611521565b6040516102569796959493929190613469565b34801561031857600080fd5b506101f2610327366004612bc5565b61158b565b34801561033857600080fd5b506101f2610347366004612bad565b6116fa565b34801561035857600080fd5b5061036c610367366004612bad565b611762565b604051610256919061344d565b34801561038557600080fd5b506101f26119b6565b34801561039a57600080fd5b506103a36119ca565b6040516102569190613460565b3480156103bc57600080fd5b506103d06103cb366004612bad565b6119d0565b6040516102569b9a999897969594939291906134a6565b3480156103f357600080fd5b5061027f610402366004612aee565b611bd7565b34801561041357600080fd5b5061041c611bf7565b6040516102569190612e74565b34801561043557600080fd5b50610449610444366004612caa565b611c06565b604051610256959493929190613540565b34801561046657600080fd5b5061047a610475366004612bad565b611ceb565b6040516102569190612ed6565b34801561049357600080fd5b5061027f6104a2366004612bad565b611e26565b3480156104b357600080fd5b5061027f6104c2366004612bad565b611e46565b3480156104d357600080fd5b506103a36104e2366004612caa565b611e5b565b3480156104f357600080fd5b506101f2610502366004612bad565b611e8c565b34801561051357600080fd5b506103a3611f56565b34801561052857600080fd5b5061053c610537366004612bad565b611f5c565b6040516102569190612fd1565b34801561055557600080fd5b506101f2610564366004612ccb565b611fbe565b6101f2610577366004612ccb565b61236d565b34801561058857600080fd5b506101f2610597366004612bad565b6125c8565b3480156105a857600080fd5b506101f26105b7366004612ad4565b6125d5565b3480156105c857600080fd5b506105dc6105d7366004612bad565b61260f565b6040516102569190612e88565b3480156105f557600080fd5b5061027f610604366004612caa565b6126ca565b600082815260066020819052604090912001546001600160a01b0316331461064c5760405162461bcd60e51b8152600401610643906132d6565b60405180910390fd5b600082815260076020526040902080548290811061067a57634e487b7160e01b600052603260045260246000fd5b600091825260209091206005600690920201015460ff16156106ae5760405162461bcd60e51b8152600401610643906133f9565b60008281526007602052604081208054839081106106dc57634e487b7160e01b600052603260045260246000fd5b9060005260206000209060060201600401549050600060646005548361070291906135b9565b61070c9190613599565b6000858152600660208190526040909120015490915061073e906001600160a01b031661073983856135d8565b612716565b61074f610749611bf7565b82612716565b61075b33600454612716565b336001600160a01b0316847fd926062942047dc8fc183828f55f4b9f3c32ea18a739f8d1bc73c82b4129113b856040516107959190613460565b60405180910390a350505050565b60008281526007602052604090208054829081106107d157634e487b7160e01b600052603260045260246000fd5b60009182526020909120600690910201600101546001600160a01b0316331461080c5760405162461bcd60e51b815260040161064390613202565b600082815260076020526040902080548290811061083a57634e487b7160e01b600052603260045260246000fd5b600091825260209091206005600690920201015460ff161561086e5760405162461bcd60e51b8152600401610643906133f9565b6000828152600760205260409020805460019190839081106108a057634e487b7160e01b600052603260045260246000fd5b60009182526020808320600692909202909101600501805460ff1916931515939093179092558381526007909152604081208054839081106108f257634e487b7160e01b600052603260045260246000fd5b9060005260206000209060060201600401549050600060646005548361091891906135b9565b6109229190613599565b336000908152600c602090815260408083208884528252808320805460ff19166001179055600691829052909120015490915061096c906001600160a01b031661073983856135d8565b610977610749611bf7565b61098333600454612716565b336001600160a01b0316847f30b418308672466269a424268a426a1214029673211e536dfb7565397433cc91856040516107959190613460565b60008681526009602052604090205460ff166109eb5760405162461bcd60e51b8152600401610643906133cc565b600086815260066020819052604090912001546001600160a01b03163314610a255760405162461bcd60e51b8152600401610643906130f6565b6000855111610a465760405162461bcd60e51b81526004016106439061304b565b6000845111610a675760405162461bcd60e51b815260040161064390613166565b6000835111610a885760405162461bcd60e51b81526004016106439061333a565b60008211610aa85760405162461bcd60e51b815260040161064390613138565b60008111610ac85760405162461bcd60e51b8152600401610643906131d4565b6000600660008881526020019081526020016000206040518061016001604052908160008201548152602001600182018054610b03906135ef565b80601f0160208091040260200160405190810160405280929190818152602001828054610b2f906135ef565b8015610b7c5780601f10610b5157610100808354040283529160200191610b7c565b820191906000526020600020905b815481529060010190602001808311610b5f57829003601f168201915b50505050508152602001600282018054610b95906135ef565b80601f0160208091040260200160405190810160405280929190818152602001828054610bc1906135ef565b8015610c0e5780601f10610be357610100808354040283529160200191610c0e565b820191906000526020600020905b815481529060010190602001808311610bf157829003601f168201915b50505050508152602001600382018054610c27906135ef565b80601f0160208091040260200160405190810160405280929190818152602001828054610c53906135ef565b8015610ca05780601f10610c7557610100808354040283529160200191610ca0565b820191906000526020600020905b815481529060010190602001808311610c8357829003601f168201915b5050509183525050600482015460208083019190915260058301546040808401919091526006808501546001600160a01b03811660608087019190915260ff600160a01b830481161515608080890191909152600160a81b84048216151560a0808a0191909152600160b01b909404909116151560c088015260079097015460e0909601959095528684018d81528784018d90529487018b905294860189905293850187905260008c8152938252909220835181559051805193945084939192610d72926001850192909101906128b8565b5060408201518051610d8e9160028401916020909101906128b8565b5060608201518051610daa9160038401916020909101906128b8565b506080820151600482015560a0820151600582015560c082015160068201805460e08501516101008601516101208701516001600160a01b03199093166001600160a01b039095169490941760ff60a01b1916600160a01b911515919091021760ff60a81b1916600160a81b931515939093029290921760ff60b01b1916600160b01b9215159290920291909117905561014090910151600790910155604051339088907f8c1f88cc5fde6e96b35b272bc40125010157a55a39ae25a74f80275ba7d2ba6e90600090a350505050505050565b6060600060015b610e8e6002612792565b8111610ed55760008181526006602081905260409091200154600160a81b900460ff16610ec35781610ebf8161362a565b9250505b80610ecd8161362a565b915050610e84565b5060008167ffffffffffffffff811115610eff57634e487b7160e01b600052604160045260246000fd5b604051908082528060200260200182016040528015610f3857816020015b610f2561293c565b815260200190600190039081610f1d5790505b509050600060015b610f4a6002612792565b81116112035760008181526006602081905260409091200154600160a81b900460ff166111f157600660008281526020019081526020016000206040518061016001604052908160008201548152602001600182018054610faa906135ef565b80601f0160208091040260200160405190810160405280929190818152602001828054610fd6906135ef565b80156110235780601f10610ff857610100808354040283529160200191611023565b820191906000526020600020905b81548152906001019060200180831161100657829003601f168201915b5050505050815260200160028201805461103c906135ef565b80601f0160208091040260200160405190810160405280929190818152602001828054611068906135ef565b80156110b55780601f1061108a576101008083540402835291602001916110b5565b820191906000526020600020905b81548152906001019060200180831161109857829003601f168201915b505050505081526020016003820180546110ce906135ef565b80601f01602080910402602001604051908101604052809291908181526020018280546110fa906135ef565b80156111475780601f1061111c57610100808354040283529160200191611147565b820191906000526020600020905b81548152906001019060200180831161112a57829003601f168201915b5050509183525050600482015460208201526005820154604082015260068201546001600160a01b038116606083015260ff600160a01b8204811615156080840152600160a81b82048116151560a0840152600160b01b90910416151560c082015260079091015460e09091015283518490849081106111d757634e487b7160e01b600052603260045260246000fd5b602002602001018190525081806111ed9061362a565b9250505b806111fb8161362a565b915050610f40565b50909250505090565b600b60209081526000928352604080842090915290825290205460ff1681565b6112346129a5565b600083815260076020526040902080548390811061126257634e487b7160e01b600052603260045260246000fd5b60009182526020918290206040805160e08101825260069093029091018054835260018101546001600160a01b031693830193909352600283015490820152600382015460608201526004820154608082015260059091015460ff808216151560a084015261010090910416151560c082015290505b92915050565b60008551116112ff5760405162461bcd60e51b81526004016106439061304b565b60008451116113205760405162461bcd60e51b815260040161064390613166565b60008351116113415760405162461bcd60e51b81526004016106439061333a565b600082116113615760405162461bcd60e51b815260040161064390613138565b600081116113815760405162461bcd60e51b8152600401610643906131d4565b61138b6002612796565b61139361293c565b61139d6002612792565b80825260208083018881526040808501899052606085018890526080850187905260a085018690523360c08601526001610120860181905242610140870152600094855260098452818520805460ff191682179055855185526006845293208451815590518051859492936114169385019201906128b8565b50604082015180516114329160028401916020909101906128b8565b506060820151805161144e9160038401916020909101906128b8565b506080820151600482015560a0820151600582015560c082015160068201805460e08501516101008601516101208701516001600160a01b03199093166001600160a01b039095169490941760ff60a01b1916600160a01b911515919091021760ff60a81b1916600160a81b931515939093029290921760ff60b01b1916600160b01b921515929092029190911790556101409091015160079091015580516040513391907f868b71f2fccb02b35739f9bb13e51ce12a10ca4ceb16ecd8d3da9a416875edb690600090a3505050505050565b6007602052816000526040600020818154811061153d57600080fd5b60009182526020909120600690910201805460018201546002830154600384015460048501546005909501549396506001600160a01b03909216945092909160ff8082169161010090041687565b60008281526009602052604090205460ff166115b95760405162461bcd60e51b8152600401610643906133cc565b336000908152600c6020908152604080832085845290915290205460ff166115f35760405162461bcd60e51b815260040161064390613014565b60008151116116145760405162461bcd60e51b815260040161064390613303565b61161e6003612796565b6116266129ef565b6116306003612792565b8152602080820184815260408084018581524260608601523360808601526000878152600885529182208054600181810183559184529285902086516005909402019283559251928201929092559051805184936116959260028501929101906128b8565b5060608201516003820155608090910151600490910180546001600160a01b0319166001600160a01b03909216919091179055604051339084907f147d2c343f054e85e3a52f84240e7454f6361913e64b66f8abc756ffc455683d90600090a3505050565b61170261279f565b600081116117225760405162461bcd60e51b8152600401610643906130bf565b60048190556040517f3790aeee57809af98fad1b89b9266c7934e03ed46702b541f2fef6f1e89d682790611757908390613460565b60405180910390a150565b61176a61293c565b6006600083815260200190815260200160002060405180610160016040529081600082015481526020016001820180546117a3906135ef565b80601f01602080910402602001604051908101604052809291908181526020018280546117cf906135ef565b801561181c5780601f106117f15761010080835404028352916020019161181c565b820191906000526020600020905b8154815290600101906020018083116117ff57829003601f168201915b50505050508152602001600282018054611835906135ef565b80601f0160208091040260200160405190810160405280929190818152602001828054611861906135ef565b80156118ae5780601f10611883576101008083540402835291602001916118ae565b820191906000526020600020905b81548152906001019060200180831161189157829003601f168201915b505050505081526020016003820180546118c7906135ef565b80601f01602080910402602001604051908101604052809291908181526020018280546118f3906135ef565b80156119405780601f1061191557610100808354040283529160200191611940565b820191906000526020600020905b81548152906001019060200180831161192357829003601f168201915b5050509183525050600482015460208201526005820154604082015260068201546001600160a01b038116606083015260ff600160a01b8204811615156080840152600160a81b82048116151560a0840152600160b01b90910416151560c082015260079091015460e09091015290505b919050565b6119be61279f565b6119c860006127de565b565b60055481565b600660205260009081526040902080546001820180549192916119f2906135ef565b80601f0160208091040260200160405190810160405280929190818152602001828054611a1e906135ef565b8015611a6b5780601f10611a4057610100808354040283529160200191611a6b565b820191906000526020600020905b815481529060010190602001808311611a4e57829003601f168201915b505050505090806002018054611a80906135ef565b80601f0160208091040260200160405190810160405280929190818152602001828054611aac906135ef565b8015611af95780601f10611ace57610100808354040283529160200191611af9565b820191906000526020600020905b815481529060010190602001808311611adc57829003601f168201915b505050505090806003018054611b0e906135ef565b80601f0160208091040260200160405190810160405280929190818152602001828054611b3a906135ef565b8015611b875780601f10611b5c57610100808354040283529160200191611b87565b820191906000526020600020905b815481529060010190602001808311611b6a57829003601f168201915b505050600484015460058501546006860154600790960154949591949093506001600160a01b038216925060ff600160a01b8304811692600160a81b8104821692600160b01b909104909116908b565b600c60209081526000928352604080842090915290825290205460ff1681565b6000546001600160a01b031690565b60086020528160005260406000208181548110611c2257600080fd5b906000526020600020906005020160009150915050806000015490806001015490806002018054611c52906135ef565b80601f0160208091040260200160405190810160405280929190818152602001828054611c7e906135ef565b8015611ccb5780601f10611ca057610100808354040283529160200191611ccb565b820191906000526020600020905b815481529060010190602001808311611cae57829003601f168201915b5050505060038301546004909301549192916001600160a01b0316905085565b606060086000838152602001908152602001600020805480602002602001604051908101604052809291908181526020016000905b82821015611e1b57838290600052602060002090600502016040518060a00160405290816000820154815260200160018201548152602001600282018054611d67906135ef565b80601f0160208091040260200160405190810160405280929190818152602001828054611d93906135ef565b8015611de05780601f10611db557610100808354040283529160200191611de0565b820191906000526020600020905b815481529060010190602001808311611dc357829003601f168201915b505050918352505060038201546020808301919091526004909201546001600160a01b03166040909101529082526001929092019101611d20565b505050509050919050565b336000908152600c60209081526040808320938352929052205460ff1690565b60096020526000908152604090205460ff1681565b600a6020528160005260406000208181548110611e7757600080fd5b90600052602060002001600091509150505481565b60008181526009602052604090205460ff16611eba5760405162461bcd60e51b8152600401610643906133cc565b600081815260066020819052604090912001546001600160a01b03163314611ef45760405162461bcd60e51b8152600401610643906132d6565b6000818152600960209081526040808320805460ff19169055600691829052808320909101805460ff60a81b1916600160a81b17905551339183917fd473bfc963d89546be6b7891f87adc6e3a54f911cce733a781c0f4111f34af749190a350565b60045481565b6000818152600a6020908152604091829020805483518184028101840190945280845260609392830182828015611fb257602002820191906000526020600020905b815481526020019060010190808311611f9e575b50505050509050919050565b611fc661282e565b6000838152600760205260409020805483908110611ff457634e487b7160e01b600052603260045260246000fd5b600091825260209091206005600690920201015460ff16156120285760405162461bcd60e51b8152600401610643906133f9565b612030611bf7565b6001600160a01b0316336001600160a01b03161461211157600083815260076020526040902080548390811061207657634e487b7160e01b600052603260045260246000fd5b60009182526020909120600690910201600101546001600160a01b031633146120b15760405162461bcd60e51b815260040161064390613202565b60008381526007602052604090208054429190849081106120e257634e487b7160e01b600052603260045260246000fd5b906000526020600020906006020160020154116121115760405162461bcd60e51b81526004016106439061328c565b60008381526007602052604090208054600191908490811061214357634e487b7160e01b600052603260045260246000fd5b6000918252602080832060056006909302019190910180549315156101000261ff001990941693909317909255848152600b825260408082208483528352808220805460ff19169055858252600a909252908120546121a4906001906135d8565b6000858152600a6020526040812080549293509091839081106121d757634e487b7160e01b600052603260045260246000fd5b9060005260206000200154905080600a6000878152602001908152602001600020858154811061221757634e487b7160e01b600052603260045260246000fd5b9060005260206000200181905550600a600086815260200190815260200160002080548061225557634e487b7160e01b600052603160045260246000fd5b60019003818190600052602060002001600090559055600060076000878152602001908152602001600020858154811061229f57634e487b7160e01b600052603260045260246000fd5b9060005260206000209060060201600401549050600060646005546004546122c791906135b9565b6122d19190613599565b60008881526006602081905260409091200154600454919250612305916001600160a01b03909116906107399084906135d8565b612310610749611bf7565b61231a3383612716565b336001600160a01b0316877fee23823014af21a0665780b9dd21b7f1e277276946bacfb1475ed82f18b30c85886040516123549190613460565b60405180910390a350505050612368612858565b505050565b61237561282e565b60008381526009602052604090205460ff166123a35760405162461bcd60e51b8152600401610643906133cc565b6004546123b083836135d8565b6123bb906001613581565b6000858152600660205260409020600501546123d791906135b9565b6123e19190613581565b3410156124005760405162461bcd60e51b81526004016106439061336a565b61240b83838361285e565b6124275760405162461bcd60e51b81526004016106439061319d565b815b81811161257b576124386129a5565b600085815260076020908152604091829020548352339083015281018490526060810183905261246884846135d8565b612473906001613581565b60008681526006602052604090206005015461248f91906135b9565b60808201908152600086815260076020908152604080832080546001818101835591855283852087516006909202019081558387015181830180546001600160a01b039092166001600160a01b0319909216919091179055828701516002820155606087015160038201559451600486015560a08601516005909501805460c09097015115156101000261ff001996151560ff19988916179690961695909517909455888352600b8252808320868452825280832080549095168417909455878252600a81529281208054928301815581529190912001819055806125738161362a565b915050612429565b50336001600160a01b0316837ffd1c7562d632ad1f2eb1d3d73d9d9b803ce2a893c16fdc9d21c3da272e6a8c8584846040516125b8929190613532565b60405180910390a3612368612858565b6125d061279f565b600555565b6125dd61279f565b6001600160a01b0381166126035760405162461bcd60e51b815260040161064390613079565b61260c816127de565b50565b606060076000838152602001908152602001600020805480602002602001604051908101604052809291908181526020016000905b82821015611e1b5760008481526020908190206040805160e08101825260068602909201805483526001808201546001600160a01b03168486015260028201549284019290925260038101546060840152600481015460808401526005015460ff808216151560a085015261010090910416151560c08301529083529092019101612644565b60008281526007602052604081208054429190849081106126fb57634e487b7160e01b600052603260045260246000fd5b90600052602060002090600602016002015410905092915050565b6000826001600160a01b03168260405161272f90612e71565b60006040518083038185875af1925050503d806000811461276c576040519150601f19603f3d011682016040523d82523d6000602084013e612771565b606091505b50509050806123685760405162461bcd60e51b81526004016106439061322f565b5490565b80546001019055565b6127a76128b4565b6001600160a01b03166127b8611bf7565b6001600160a01b0316146119c85760405162461bcd60e51b815260040161064390613257565b600080546001600160a01b038381166001600160a01b0319831681178455604051919092169283917f8be0079c531659141344cd1fd0a4f28419497f9722a3daafe3b4186f6b6457e09190a35050565b600260015414156128515760405162461bcd60e51b815260040161064390613395565b6002600155565b60018055565b6000825b8281116128a7576000858152600b6020908152604080832084845290915290205460ff16156128955760009150506128ad565b8061289f8161362a565b915050612862565b50600190505b9392505050565b3390565b8280546128c4906135ef565b90600052602060002090601f0160209004810192826128e6576000855561292c565b82601f106128ff57805160ff191683800117855561292c565b8280016001018555821561292c579182015b8281111561292c578251825591602001919060010190612911565b50612938929150612a27565b5090565b60405180610160016040528060008152602001606081526020016060815260200160608152602001600081526020016000815260200160006001600160a01b03168152602001600015158152602001600015158152602001600015158152602001600081525090565b6040518060e001604052806000815260200160006001600160a01b031681526020016000815260200160008152602001600081526020016000151581526020016000151581525090565b6040518060a001604052806000815260200160008152602001606081526020016000815260200160006001600160a01b031681525090565b5b808211156129385760008155600101612a28565b80356001600160a01b03811681146119b157600080fd5b600082601f830112612a63578081fd5b813567ffffffffffffffff80821115612a7e57612a7e61365b565b604051601f8301601f191681016020018281118282101715612aa257612aa261365b565b604052828152848301602001861015612ab9578384fd5b82602086016020830137918201602001929092529392505050565b600060208284031215612ae5578081fd5b6128ad82612a3c565b60008060408385031215612b00578081fd5b612b0983612a3c565b946020939093013593505050565b600080600080600060a08688031215612b2e578081fd5b853567ffffffffffffffff80821115612b45578283fd5b612b5189838a01612a53565b96506020880135915080821115612b66578283fd5b612b7289838a01612a53565b95506040880135915080821115612b87578283fd5b50612b9488828901612a53565b9598949750949560608101359550608001359392505050565b600060208284031215612bbe578081fd5b5035919050565b60008060408385031215612bd7578182fd5b82359150602083013567ffffffffffffffff811115612bf4578182fd5b612c0085828601612a53565b9150509250929050565b60008060008060008060c08789031215612c22578081fd5b86359550602087013567ffffffffffffffff80821115612c40578283fd5b612c4c8a838b01612a53565b96506040890135915080821115612c61578283fd5b612c6d8a838b01612a53565b95506060890135915080821115612c82578283fd5b50612c8f89828a01612a53565b9350506080870135915060a087013590509295509295509295565b60008060408385031215612cbc578182fd5b50508035926020909101359150565b600080600060608486031215612cdf578283fd5b505081359360208301359350604090920135919050565b6001600160a01b03169052565b15159052565b60008151808452815b81811015612d2e57602081850181015186830182015201612d12565b81811115612d3f5782602083870101525b50601f01601f19169290920160200192915050565b805182526020808201516001600160a01b03169083015260408082015190830152606080820151908301526080808201519083015260a08082015115159083015260c0908101511515910152565b6000610160825184526020830151816020860152612dc282860182612d09565b91505060408301518482036040860152612ddc8282612d09565b91505060608301518482036060860152612df68282612d09565b9150506080830151608085015260a083015160a085015260c0830151612e1f60c0860182612cf6565b5060e0830151612e3260e0860182612d03565b5061010080840151612e4682870182612d03565b505061012080840151612e5b82870182612d03565b5050610140928301519390920192909252919050565b90565b6001600160a01b0391909116815260200190565b6020808252825182820181905260009190848201906040850190845b81811015612eca57612eb7838551612d54565b9284019260e09290920191600101612ea4565b50909695505050505050565b60208082528251828201819052600091906040908185019080840286018301878501865b83811015612f6357603f19898403018552815160a0815185528882015189860152878201518189870152612f3082870182612d09565b606084810151908801526080938401516001600160a01b0316939096019290925250509386019390860190600101612efa565b509098975050505050505050565b6000602080830181845280855180835260408601915060408482028701019250838701855b82811015612fc457603f19888603018452612fb2858351612da2565b94509285019290850190600101612f96565b5092979650505050505050565b6020808252825182820181905260009190848201906040850190845b81811015612eca57835183529284019291840191600101612fed565b901515815260200190565b60208082526018908201527f426f6f6b206669727374206265666f7265207265766965770000000000000000604082015260600190565b6020808252601490820152734e616d652063616e6e6f7420626520656d70747960601b604082015260600190565b60208082526026908201527f4f776e61626c653a206e6577206f776e657220697320746865207a65726f206160408201526564647265737360d01b606082015260800190565b6020808252601a908201527f466565206d7573742062652067726561746572207468616e2030000000000000604082015260600190565b60208082526022908201527f556e617574686f72697a656420706572736f6e6e656c2c206f776e6572206f6e6040820152616c7960f01b606082015260800190565b602080825260149082015273526f6f6d732063616e6e6f74206265207a65726f60601b604082015260600190565b6020808252601b908201527f4465736372697074696f6e2063616e6e6f7420626520656d7074790000000000604082015260600190565b6020808252601d908201527f426f6f6b6564206461746520666f756e6420616d6f6e67206461746573000000604082015260600190565b60208082526014908201527350726963652063616e6e6f74206265207a65726f60601b604082015260600190565b602080825260139082015272155b985d5d1a1bdc9a5e9959081d195b985b9d606a1b604082015260600190565b6020808252600e908201526d14185e5b595b9d0819985a5b195960921b604082015260600190565b6020808252818101527f4f776e61626c653a2063616c6c6572206973206e6f7420746865206f776e6572604082015260600190565b6020808252602a908201527f43616e206e6f206c6f6e67657220726566756e642c20626f6f6b696e672064616040820152691d19481cdd185c9d195960b21b606082015260800190565b602080825260139082015272556e617574686f72697a656420656e7469747960681b604082015260600190565b6020808252601b908201527f52657669657720746578742063616e6e6f7420626520656d7074790000000000604082015260600190565b602080825260169082015275496d616765732063616e6e6f7420626520656d70747960501b604082015260600190565b602080825260119082015270125b9cdd59999a58da595b9d08199d5b99607a1b604082015260600190565b6020808252601f908201527f5265656e7472616e637947756172643a207265656e7472616e742063616c6c00604082015260600190565b6020808252601390820152725370616365206e6f7420617661696c61626c6560681b604082015260600190565b60208082526026908201527f41706172746d656e7420616c726561647920636865636b6564206f6e2074686960408201526573206461746560d01b606082015260800190565b60e081016112d88284612d54565b6000602082526128ad6020830184612da2565b90815260200190565b9687526001600160a01b03959095166020870152604086019390935260608501919091526080840152151560a0830152151560c082015260e00190565b60006101608d83528060208401526134c08184018e612d09565b905082810360408401526134d4818d612d09565b905082810360608401526134e8818c612d09565b608084019a909a52505060a08101969096526001600160a01b039490941660c086015291151560e08501521515610100840152151561012083015261014090910152949350505050565b918252602082015260400190565b600086825285602083015260a0604083015261355f60a0830186612d09565b6060830194909452506001600160a01b03919091166080909101529392505050565b6000821982111561359457613594613645565b500190565b6000826135b457634e487b7160e01b81526012600452602481fd5b500490565b60008160001904831182151516156135d3576135d3613645565b500290565b6000828210156135ea576135ea613645565b500390565b60028104600182168061360357607f821691505b6020821081141561362457634e487b7160e01b600052602260045260246000fd5b50919050565b600060001982141561363e5761363e613645565b5060010190565b634e487b7160e01b600052601160045260246000fd5b634e487b7160e01b600052604160045260246000fdfea2646970667358221220c50c99ca3ef18499166734955213fd981d27189edc98dc71bfa6dd75a76d8d3464736f6c63430008000033",
  "immutableReferences": {},
  "source": "// SPDX-License-Identifier: MIT\r\npragma solidity ^0.8.0;\r\n\r\nimport \"@openzeppelin/contracts/access/Ownable.sol\";\r\nimport \"@openzeppelin/contracts/utils/Counters.sol\";\r\nimport \"@openzeppelin/contracts/security/ReentrancyGuard.sol\";\r\n\r\ncontract RoomFlow is Ownable, ReentrancyGuard {\r\n    using Counters for Counters.Counter;\r\n    Counters.Counter private _totalSpaces;\r\n    Counters.Counter private _totalReviews;\r\n\r\n    struct SpaceListing {\r\n        uint id;\r\n        string name;\r\n        string description;\r\n        string images;\r\n        uint rooms;\r\n        uint price;\r\n        address owner;\r\n        bool booked;\r\n        bool deleted;\r\n        bool availability;\r\n        uint timestamp;\r\n    }\r\n\r\n    struct Booking {\r\n        uint id;\r\n        address tenant;\r\n        uint startDate;\r\n        uint endDate;\r\n        uint totalPrice;\r\n        bool checked;\r\n        bool cancelled;\r\n    }\r\n\r\n    struct Review {\r\n        uint id;\r\n        uint spaceId;\r\n        string reviewText;\r\n        uint timestamp;\r\n        address reviewer;\r\n    }\r\n\r\n    // event SecurityFeeUpdated(uint newFee);\r\n\r\n    event SpaceListed(uint indexed id, address indexed owner);\r\n    event SpaceUpdated(uint indexed id, address indexed owner);\r\n    event SpaceDeleted(uint indexed id, address indexed owner);\r\n    event SpaceBooked(\r\n        uint indexed id,\r\n        address indexed tenant,\r\n        uint startDate,\r\n        uint endDate\r\n    );\r\n    event SpaceCheckedIn(\r\n        uint indexed id,\r\n        address indexed tenant,\r\n        uint bookingId\r\n    );\r\n    event SpaceFundsClaimed(\r\n        uint indexed id,\r\n        address indexed owner,\r\n        uint bookingId\r\n    );\r\n    event SpaceRefunded(\r\n        uint indexed id,\r\n        address indexed tenant,\r\n        uint bookingId\r\n    );\r\n    event ReviewAdded(uint indexed spaceId, address indexed author);\r\n    event SecurityFeeUpdated(uint newFee);\r\n    event TaxPercentUpdated(uint newTaxPercent);\r\n\r\n    uint public securityFee;\r\n    uint public taxPercent;\r\n\r\n    mapping(uint => SpaceListing) public spaces;\r\n    mapping(uint => Booking[]) public bookingsOf;\r\n    mapping(uint => Review[]) public reviewsOf;\r\n    mapping(uint => bool) public spaceExists;\r\n    mapping(uint => uint[]) public bookedDates;\r\n    mapping(uint => mapping(uint => bool)) public isDateBooked;\r\n    mapping(address => mapping(uint => bool)) public hasBooked;\r\n\r\n    constructor(uint _taxPercent, uint _securityFee) {\r\n        taxPercent = _taxPercent;\r\n        securityFee = _securityFee;\r\n    }\r\n\r\n    function createSpace(\r\n        string memory name,\r\n        string memory description,\r\n        string memory images,\r\n        uint rooms,\r\n        uint price\r\n    ) public {\r\n        require(bytes(name).length > 0, \"Name cannot be empty\");\r\n        require(bytes(description).length > 0, \"Description cannot be empty\");\r\n        require(bytes(images).length > 0, \"Images cannot be empty\");\r\n        require(rooms > 0, \"Rooms cannot be zero\");\r\n        require(price > 0 ether, \"Price cannot be zero\");\r\n\r\n        _totalSpaces.increment();\r\n        SpaceListing memory space;\r\n        space.id = _totalSpaces.current();\r\n        space.name = name;\r\n        space.description = description;\r\n        space.images = images;\r\n        space.rooms = rooms;\r\n        space.price = price;\r\n        space.owner = msg.sender;\r\n        space.availability = true;\r\n        space.timestamp = block.timestamp;\r\n\r\n        spaceExists[space.id] = true;\r\n        spaces[space.id] = space;\r\n        emit SpaceListed(space.id, msg.sender);\r\n    }\r\n\r\n    function updateSpace(\r\n        uint id,\r\n        string memory name,\r\n        string memory description,\r\n        string memory images,\r\n        uint rooms,\r\n        uint price\r\n    ) public {\r\n        require(spaceExists[id], \"Space not available\");\r\n        require(\r\n            msg.sender == spaces[id].owner,\r\n            \"Unauthorized personnel, owner only\"\r\n        );\r\n        require(bytes(name).length > 0, \"Name cannot be empty\");\r\n        require(bytes(description).length > 0, \"Description cannot be empty\");\r\n        require(bytes(images).length > 0, \"Images cannot be empty\");\r\n        require(rooms > 0, \"Rooms cannot be zero\");\r\n        require(price > 0 ether, \"Price cannot be zero\");\r\n\r\n        SpaceListing memory space = spaces[id];\r\n        space.name = name;\r\n        space.description = description;\r\n        space.images = images;\r\n        space.rooms = rooms;\r\n        space.price = price;\r\n\r\n        spaces[id] = space;\r\n        emit SpaceUpdated(id, msg.sender);\r\n    }\r\n\r\n    function deleteSpace(uint id) public {\r\n        require(spaceExists[id], \"Space not available\");\r\n        require(spaces[id].owner == msg.sender, \"Unauthorized entity\");\r\n\r\n        spaceExists[id] = false;\r\n        spaces[id].deleted = true;\r\n        emit SpaceDeleted(id, msg.sender);\r\n    }\r\n\r\n    function getSpaces() public view returns (SpaceListing[] memory) {\r\n        uint256 totalSpace;\r\n        for (uint i = 1; i <= _totalSpaces.current(); i++) {\r\n            if (!spaces[i].deleted) totalSpace++;\r\n        }\r\n\r\n        SpaceListing[] memory spaceListings = new SpaceListing[](totalSpace);\r\n\r\n        uint256 j = 0;\r\n        for (uint i = 1; i <= _totalSpaces.current(); i++) {\r\n            if (!spaces[i].deleted) {\r\n                spaceListings[j] = spaces[i];\r\n                j++;\r\n            }\r\n        }\r\n\r\n        return spaceListings;\r\n    }\r\n\r\n    function getSpace(uint id) public view returns (SpaceListing memory) {\r\n        return spaces[id];\r\n    }\r\n\r\n    function bookSpace(\r\n        uint id,\r\n        uint startDate,\r\n        uint endDate\r\n    ) public payable nonReentrant {\r\n        require(spaceExists[id], \"Space not available\");\r\n        require(\r\n            msg.value >=\r\n                spaces[id].price * (endDate - startDate + 1) + securityFee,\r\n            \"Insufficient fund\"\r\n        );\r\n        require(\r\n            isDateCleared(id, startDate, endDate),\r\n            \"Booked date found among dates\"\r\n        );\r\n\r\n        for (uint i = startDate; i <= endDate; i++) {\r\n            Booking memory booking;\r\n            booking.id = bookingsOf[id].length;\r\n            booking.tenant = msg.sender;\r\n            booking.startDate = startDate;\r\n            booking.endDate = endDate;\r\n            booking.totalPrice = spaces[id].price * (endDate - startDate + 1);\r\n            bookingsOf[id].push(booking);\r\n            isDateBooked[id][i] = true;\r\n            bookedDates[id].push(i);\r\n        }\r\n        emit SpaceBooked(id, msg.sender, startDate, endDate);\r\n    }\r\n\r\n    function isDateCleared(\r\n        uint id,\r\n        uint startDate,\r\n        uint endDate\r\n    ) internal view returns (bool) {\r\n        for (uint i = startDate; i <= endDate; i++) {\r\n            if (isDateBooked[id][i]) return false;\r\n        }\r\n        return true;\r\n    }\r\n\r\n    function checkInSpace(uint id, uint bookingId) public {\r\n        require(\r\n            msg.sender == bookingsOf[id][bookingId].tenant,\r\n            \"Unauthorized tenant\"\r\n        );\r\n        require(\r\n            !bookingsOf[id][bookingId].checked,\r\n            \"Apartment already checked on this date\"\r\n        );\r\n\r\n        bookingsOf[id][bookingId].checked = true;\r\n        uint price = bookingsOf[id][bookingId].totalPrice;\r\n        uint fee = (price * taxPercent) / 100;\r\n\r\n        hasBooked[msg.sender][id] = true;\r\n\r\n        payTo(spaces[id].owner, (price - fee));\r\n        payTo(owner(), fee);\r\n        payTo(msg.sender, securityFee);\r\n         emit SpaceCheckedIn(id, msg.sender, bookingId);\r\n    }\r\n\r\n    function claimFunds(uint id, uint bookingId) public {\r\n        require(msg.sender == spaces[id].owner, \"Unauthorized entity\");\r\n        require(\r\n            !bookingsOf[id][bookingId].checked,\r\n            \"Apartment already checked on this date\"\r\n        );\r\n\r\n        uint price = bookingsOf[id][bookingId].totalPrice;\r\n        uint fee = (price * taxPercent) / 100;\r\n\r\n        payTo(spaces[id].owner, (price - fee));\r\n        payTo(owner(), fee);\r\n        payTo(msg.sender, securityFee);\r\n        emit SpaceFundsClaimed(id, msg.sender, bookingId);\r\n    }\r\n\r\n    function refundBooking(\r\n        uint id,\r\n        uint bookingId,\r\n        uint date\r\n    ) public nonReentrant {\r\n        require(\r\n            !bookingsOf[id][bookingId].checked,\r\n            \"Apartment already checked on this date\"\r\n        );\r\n\r\n        if (msg.sender != owner()) {\r\n            require(\r\n                msg.sender == bookingsOf[id][bookingId].tenant,\r\n                \"Unauthorized tenant\"\r\n            );\r\n            require(\r\n                bookingsOf[id][bookingId].startDate > block.timestamp,\r\n                \"Can no longer refund, booking date started\"\r\n            );\r\n        }\r\n\r\n        bookingsOf[id][bookingId].cancelled = true;\r\n        isDateBooked[id][date] = false;\r\n\r\n        uint lastIndex = bookedDates[id].length - 1;\r\n        uint lastBookingId = bookedDates[id][lastIndex];\r\n        bookedDates[id][bookingId] = lastBookingId;\r\n        bookedDates[id].pop();\r\n\r\n        uint price = bookingsOf[id][bookingId].totalPrice;\r\n        uint fee = (securityFee * taxPercent) / 100;\r\n\r\n        payTo(spaces[id].owner, (securityFee - fee));\r\n        payTo(owner(), fee);\r\n        payTo(msg.sender, price);\r\n        emit SpaceRefunded(id, msg.sender, bookingId);\r\n    }\r\n\r\n    function hasBookedDateReached(\r\n        uint id,\r\n        uint bookingId\r\n    ) public view returns (bool) {\r\n        return bookingsOf[id][bookingId].startDate < block.timestamp;\r\n    }\r\n\r\n    function getUnavailableDates(uint id) public view returns (uint[] memory) {\r\n        return bookedDates[id];\r\n    }\r\n\r\n    function getBookings(uint id) public view returns (Booking[] memory) {\r\n        return bookingsOf[id];\r\n    }\r\n\r\n    function getBooking(\r\n        uint id,\r\n        uint bookingId\r\n    ) public view returns (Booking memory) {\r\n        return bookingsOf[id][bookingId];\r\n    }\r\n\r\n    function updateSecurityFee(uint newFee) public onlyOwner {\r\n        require(newFee > 0, \"Fee must be greater than 0\");\r\n        securityFee = newFee;\r\n        emit SecurityFeeUpdated(newFee);\r\n    }\r\n\r\n    function updateTaxPercent(uint newTaxPercent) public onlyOwner {\r\n        taxPercent = newTaxPercent;\r\n    }\r\n\r\n    function addReview(uint spaceId, string memory reviewText) public {\r\n        require(spaceExists[spaceId], \"Space not available\");\r\n        require(hasBooked[msg.sender][spaceId], \"Book first before review\");\r\n        require(bytes(reviewText).length > 0, \"Review text cannot be empty\");\r\n\r\n        _totalReviews.increment();\r\n        Review memory review;\r\n        review.id = _totalReviews.current();\r\n        review.spaceId = spaceId;\r\n        review.reviewText = reviewText;\r\n        review.timestamp = block.timestamp;\r\n        review.reviewer = msg.sender;\r\n\r\n        reviewsOf[spaceId].push(review);\r\n        emit ReviewAdded(spaceId, msg.sender);\r\n    }\r\n\r\n    function getReviews(uint spaceId) public view returns (Review[] memory) {\r\n        return reviewsOf[spaceId];\r\n    }\r\n\r\n    function tenantBooked(uint spaceId) public view returns (bool) {\r\n        return hasBooked[msg.sender][spaceId];\r\n    }\r\n\r\n    function currentTime() internal view returns (uint256) {\r\n        uint256 newNum = (block.timestamp * 1000) + 1000;\r\n        return newNum;\r\n    }\r\n\r\n    function payTo(address to, uint256 amount) internal {\r\n        (bool success, ) = payable(to).call{value: amount}(\"\");\r\n        require(success, \"Payment failed\");\r\n    }\r\n}\r\n",
  "sourcePath": "C:\\Users\\user\\AndroidStudioProjects\\roomflow\\contracts\\Roomflow.sol",
  "compiler": {
    "name": "solc",
    "version": "0.8.0+commit.c7dfd78e.Emscripten.clang"
  },
  "schemaVersion": "3.4.14",
  "updatedAt": "2023-08-04T15:38:54.296Z",
  "networkType": "ethereum",
  "devdoc": {
    "kind": "dev",
    "methods": {
      "owner()": {
        "details": "Returns the address of the current owner."
      },
      "renounceOwnership()": {
        "details": "Leaves the contract without owner. It will not be possible to call `onlyOwner` functions. Can only be called by the current owner. NOTE: Renouncing ownership will leave the contract without an owner, thereby disabling any functionality that is only available to the owner."
      },
      "transferOwnership(address)": {
        "details": "Transfers ownership of the contract to a new account (`newOwner`). Can only be called by the current owner."
      }
    },
    "version": 1
  },
  "userdoc": {
    "kind": "user",
    "methods": {},
    "version": 1
  }
}