{
	"AndroidStudioProjects/roomflow/contracts/Roomflow.sol": {
		"RoomFlow": {
			"abi": [
				{
					"inputs": [
						{
							"internalType": "uint256",
							"name": "_taxPercent",
							"type": "uint256"
						},
						{
							"internalType": "uint256",
							"name": "_securityFee",
							"type": "uint256"
						}
					],
					"stateMutability": "nonpayable",
					"type": "constructor"
				},
				{
					"anonymous": false,
					"inputs": [
						{
							"indexed": true,
							"internalType": "address",
							"name": "previousOwner",
							"type": "address"
						},
						{
							"indexed": true,
							"internalType": "address",
							"name": "newOwner",
							"type": "address"
						}
					],
					"name": "OwnershipTransferred",
					"type": "event"
				},
				{
					"anonymous": false,
					"inputs": [
						{
							"indexed": true,
							"internalType": "uint256",
							"name": "spaceId",
							"type": "uint256"
						},
						{
							"indexed": true,
							"internalType": "address",
							"name": "author",
							"type": "address"
						}
					],
					"name": "ReviewAdded",
					"type": "event"
				},
				{
					"anonymous": false,
					"inputs": [
						{
							"indexed": false,
							"internalType": "uint256",
							"name": "newFee",
							"type": "uint256"
						}
					],
					"name": "SecurityFeeUpdated",
					"type": "event"
				},
				{
					"anonymous": false,
					"inputs": [
						{
							"indexed": true,
							"internalType": "uint256",
							"name": "id",
							"type": "uint256"
						},
						{
							"indexed": true,
							"internalType": "address",
							"name": "tenant",
							"type": "address"
						},
						{
							"indexed": false,
							"internalType": "uint256",
							"name": "startDate",
							"type": "uint256"
						},
						{
							"indexed": false,
							"internalType": "uint256",
							"name": "endDate",
							"type": "uint256"
						}
					],
					"name": "SpaceBooked",
					"type": "event"
				},
				{
					"anonymous": false,
					"inputs": [
						{
							"indexed": true,
							"internalType": "uint256",
							"name": "id",
							"type": "uint256"
						},
						{
							"indexed": true,
							"internalType": "address",
							"name": "tenant",
							"type": "address"
						},
						{
							"indexed": false,
							"internalType": "uint256",
							"name": "bookingId",
							"type": "uint256"
						}
					],
					"name": "SpaceCheckedIn",
					"type": "event"
				},
				{
					"anonymous": false,
					"inputs": [
						{
							"indexed": true,
							"internalType": "uint256",
							"name": "id",
							"type": "uint256"
						},
						{
							"indexed": true,
							"internalType": "address",
							"name": "owner",
							"type": "address"
						}
					],
					"name": "SpaceDeleted",
					"type": "event"
				},
				{
					"anonymous": false,
					"inputs": [
						{
							"indexed": true,
							"internalType": "uint256",
							"name": "id",
							"type": "uint256"
						},
						{
							"indexed": true,
							"internalType": "address",
							"name": "owner",
							"type": "address"
						},
						{
							"indexed": false,
							"internalType": "uint256",
							"name": "bookingId",
							"type": "uint256"
						}
					],
					"name": "SpaceFundsClaimed",
					"type": "event"
				},
				{
					"anonymous": false,
					"inputs": [
						{
							"indexed": true,
							"internalType": "uint256",
							"name": "id",
							"type": "uint256"
						},
						{
							"indexed": true,
							"internalType": "address",
							"name": "owner",
							"type": "address"
						}
					],
					"name": "SpaceListed",
					"type": "event"
				},
				{
					"anonymous": false,
					"inputs": [
						{
							"indexed": true,
							"internalType": "uint256",
							"name": "id",
							"type": "uint256"
						},
						{
							"indexed": true,
							"internalType": "address",
							"name": "tenant",
							"type": "address"
						},
						{
							"indexed": false,
							"internalType": "uint256",
							"name": "bookingId",
							"type": "uint256"
						}
					],
					"name": "SpaceRefunded",
					"type": "event"
				},
				{
					"anonymous": false,
					"inputs": [
						{
							"indexed": true,
							"internalType": "uint256",
							"name": "id",
							"type": "uint256"
						},
						{
							"indexed": true,
							"internalType": "address",
							"name": "owner",
							"type": "address"
						}
					],
					"name": "SpaceUpdated",
					"type": "event"
				},
				{
					"anonymous": false,
					"inputs": [
						{
							"indexed": false,
							"internalType": "uint256",
							"name": "newTaxPercent",
							"type": "uint256"
						}
					],
					"name": "TaxPercentUpdated",
					"type": "event"
				},
				{
					"inputs": [
						{
							"internalType": "uint256",
							"name": "spaceId",
							"type": "uint256"
						},
						{
							"internalType": "string",
							"name": "reviewText",
							"type": "string"
						}
					],
					"name": "addReview",
					"outputs": [],
					"stateMutability": "nonpayable",
					"type": "function"
				},
				{
					"inputs": [
						{
							"internalType": "uint256",
							"name": "id",
							"type": "uint256"
						},
						{
							"internalType": "uint256",
							"name": "startDate",
							"type": "uint256"
						},
						{
							"internalType": "uint256",
							"name": "endDate",
							"type": "uint256"
						}
					],
					"name": "bookSpace",
					"outputs": [],
					"stateMutability": "payable",
					"type": "function"
				},
				{
					"inputs": [
						{
							"internalType": "uint256",
							"name": "",
							"type": "uint256"
						},
						{
							"internalType": "uint256",
							"name": "",
							"type": "uint256"
						}
					],
					"name": "bookedDates",
					"outputs": [
						{
							"internalType": "uint256",
							"name": "",
							"type": "uint256"
						}
					],
					"stateMutability": "view",
					"type": "function"
				},
				{
					"inputs": [
						{
							"internalType": "uint256",
							"name": "",
							"type": "uint256"
						},
						{
							"internalType": "uint256",
							"name": "",
							"type": "uint256"
						}
					],
					"name": "bookingsOf",
					"outputs": [
						{
							"internalType": "uint256",
							"name": "id",
							"type": "uint256"
						},
						{
							"internalType": "address",
							"name": "tenant",
							"type": "address"
						},
						{
							"internalType": "uint256",
							"name": "startDate",
							"type": "uint256"
						},
						{
							"internalType": "uint256",
							"name": "endDate",
							"type": "uint256"
						},
						{
							"internalType": "uint256",
							"name": "totalPrice",
							"type": "uint256"
						},
						{
							"internalType": "bool",
							"name": "checked",
							"type": "bool"
						},
						{
							"internalType": "bool",
							"name": "cancelled",
							"type": "bool"
						}
					],
					"stateMutability": "view",
					"type": "function"
				},
				{
					"inputs": [
						{
							"internalType": "uint256",
							"name": "id",
							"type": "uint256"
						},
						{
							"internalType": "uint256",
							"name": "bookingId",
							"type": "uint256"
						}
					],
					"name": "checkInSpace",
					"outputs": [],
					"stateMutability": "nonpayable",
					"type": "function"
				},
				{
					"inputs": [
						{
							"internalType": "uint256",
							"name": "id",
							"type": "uint256"
						},
						{
							"internalType": "uint256",
							"name": "bookingId",
							"type": "uint256"
						}
					],
					"name": "claimFunds",
					"outputs": [],
					"stateMutability": "nonpayable",
					"type": "function"
				},
				{
					"inputs": [
						{
							"internalType": "string",
							"name": "title",
							"type": "string"
						},
						{
							"internalType": "string",
							"name": "subtitle",
							"type": "string"
						},
						{
							"internalType": "string",
							"name": "description",
							"type": "string"
						},
						{
							"internalType": "string",
							"name": "images",
							"type": "string"
						},
						{
							"internalType": "uint256",
							"name": "rooms",
							"type": "uint256"
						},
						{
							"internalType": "uint256",
							"name": "price",
							"type": "uint256"
						}
					],
					"name": "createSpace",
					"outputs": [],
					"stateMutability": "nonpayable",
					"type": "function"
				},
				{
					"inputs": [
						{
							"internalType": "uint256",
							"name": "id",
							"type": "uint256"
						}
					],
					"name": "deleteSpace",
					"outputs": [],
					"stateMutability": "nonpayable",
					"type": "function"
				},
				{
					"inputs": [
						{
							"internalType": "uint256",
							"name": "id",
							"type": "uint256"
						},
						{
							"internalType": "uint256",
							"name": "bookingId",
							"type": "uint256"
						}
					],
					"name": "getBooking",
					"outputs": [
						{
							"components": [
								{
									"internalType": "uint256",
									"name": "id",
									"type": "uint256"
								},
								{
									"internalType": "address",
									"name": "tenant",
									"type": "address"
								},
								{
									"internalType": "uint256",
									"name": "startDate",
									"type": "uint256"
								},
								{
									"internalType": "uint256",
									"name": "endDate",
									"type": "uint256"
								},
								{
									"internalType": "uint256",
									"name": "totalPrice",
									"type": "uint256"
								},
								{
									"internalType": "bool",
									"name": "checked",
									"type": "bool"
								},
								{
									"internalType": "bool",
									"name": "cancelled",
									"type": "bool"
								}
							],
							"internalType": "struct RoomFlow.Booking",
							"name": "",
							"type": "tuple"
						}
					],
					"stateMutability": "view",
					"type": "function"
				},
				{
					"inputs": [
						{
							"internalType": "uint256",
							"name": "id",
							"type": "uint256"
						}
					],
					"name": "getBookings",
					"outputs": [
						{
							"components": [
								{
									"internalType": "uint256",
									"name": "id",
									"type": "uint256"
								},
								{
									"internalType": "address",
									"name": "tenant",
									"type": "address"
								},
								{
									"internalType": "uint256",
									"name": "startDate",
									"type": "uint256"
								},
								{
									"internalType": "uint256",
									"name": "endDate",
									"type": "uint256"
								},
								{
									"internalType": "uint256",
									"name": "totalPrice",
									"type": "uint256"
								},
								{
									"internalType": "bool",
									"name": "checked",
									"type": "bool"
								},
								{
									"internalType": "bool",
									"name": "cancelled",
									"type": "bool"
								}
							],
							"internalType": "struct RoomFlow.Booking[]",
							"name": "",
							"type": "tuple[]"
						}
					],
					"stateMutability": "view",
					"type": "function"
				},
				{
					"inputs": [
						{
							"internalType": "uint256",
							"name": "spaceId",
							"type": "uint256"
						}
					],
					"name": "getReviews",
					"outputs": [
						{
							"components": [
								{
									"internalType": "uint256",
									"name": "id",
									"type": "uint256"
								},
								{
									"internalType": "uint256",
									"name": "spaceId",
									"type": "uint256"
								},
								{
									"internalType": "string",
									"name": "reviewText",
									"type": "string"
								},
								{
									"internalType": "uint256",
									"name": "timestamp",
									"type": "uint256"
								},
								{
									"internalType": "address",
									"name": "reviewer",
									"type": "address"
								}
							],
							"internalType": "struct RoomFlow.Review[]",
							"name": "",
							"type": "tuple[]"
						}
					],
					"stateMutability": "view",
					"type": "function"
				},
				{
					"inputs": [
						{
							"internalType": "uint256",
							"name": "id",
							"type": "uint256"
						}
					],
					"name": "getSpace",
					"outputs": [
						{
							"components": [
								{
									"internalType": "uint256",
									"name": "id",
									"type": "uint256"
								},
								{
									"internalType": "string",
									"name": "title",
									"type": "string"
								},
								{
									"internalType": "string",
									"name": "subtitle",
									"type": "string"
								},
								{
									"internalType": "string",
									"name": "description",
									"type": "string"
								},
								{
									"internalType": "string",
									"name": "images",
									"type": "string"
								},
								{
									"internalType": "uint256",
									"name": "rooms",
									"type": "uint256"
								},
								{
									"internalType": "uint256",
									"name": "price",
									"type": "uint256"
								},
								{
									"internalType": "address",
									"name": "owner",
									"type": "address"
								},
								{
									"internalType": "bool",
									"name": "booked",
									"type": "bool"
								},
								{
									"internalType": "bool",
									"name": "deleted",
									"type": "bool"
								},
								{
									"internalType": "bool",
									"name": "availability",
									"type": "bool"
								},
								{
									"internalType": "uint256",
									"name": "timestamp",
									"type": "uint256"
								}
							],
							"internalType": "struct RoomFlow.SpaceListing",
							"name": "",
							"type": "tuple"
						}
					],
					"stateMutability": "view",
					"type": "function"
				},
				{
					"inputs": [],
					"name": "getSpaces",
					"outputs": [
						{
							"components": [
								{
									"internalType": "uint256",
									"name": "id",
									"type": "uint256"
								},
								{
									"internalType": "string",
									"name": "title",
									"type": "string"
								},
								{
									"internalType": "string",
									"name": "subtitle",
									"type": "string"
								},
								{
									"internalType": "string",
									"name": "description",
									"type": "string"
								},
								{
									"internalType": "string",
									"name": "images",
									"type": "string"
								},
								{
									"internalType": "uint256",
									"name": "rooms",
									"type": "uint256"
								},
								{
									"internalType": "uint256",
									"name": "price",
									"type": "uint256"
								},
								{
									"internalType": "address",
									"name": "owner",
									"type": "address"
								},
								{
									"internalType": "bool",
									"name": "booked",
									"type": "bool"
								},
								{
									"internalType": "bool",
									"name": "deleted",
									"type": "bool"
								},
								{
									"internalType": "bool",
									"name": "availability",
									"type": "bool"
								},
								{
									"internalType": "uint256",
									"name": "timestamp",
									"type": "uint256"
								}
							],
							"internalType": "struct RoomFlow.SpaceListing[]",
							"name": "",
							"type": "tuple[]"
						}
					],
					"stateMutability": "view",
					"type": "function"
				},
				{
					"inputs": [
						{
							"internalType": "uint256",
							"name": "id",
							"type": "uint256"
						}
					],
					"name": "getUnavailableDates",
					"outputs": [
						{
							"internalType": "uint256[]",
							"name": "",
							"type": "uint256[]"
						}
					],
					"stateMutability": "view",
					"type": "function"
				},
				{
					"inputs": [
						{
							"internalType": "address",
							"name": "",
							"type": "address"
						},
						{
							"internalType": "uint256",
							"name": "",
							"type": "uint256"
						}
					],
					"name": "hasBooked",
					"outputs": [
						{
							"internalType": "bool",
							"name": "",
							"type": "bool"
						}
					],
					"stateMutability": "view",
					"type": "function"
				},
				{
					"inputs": [
						{
							"internalType": "uint256",
							"name": "id",
							"type": "uint256"
						},
						{
							"internalType": "uint256",
							"name": "bookingId",
							"type": "uint256"
						}
					],
					"name": "hasBookedDateReached",
					"outputs": [
						{
							"internalType": "bool",
							"name": "",
							"type": "bool"
						}
					],
					"stateMutability": "view",
					"type": "function"
				},
				{
					"inputs": [
						{
							"internalType": "uint256",
							"name": "",
							"type": "uint256"
						},
						{
							"internalType": "uint256",
							"name": "",
							"type": "uint256"
						}
					],
					"name": "isDateBooked",
					"outputs": [
						{
							"internalType": "bool",
							"name": "",
							"type": "bool"
						}
					],
					"stateMutability": "view",
					"type": "function"
				},
				{
					"inputs": [],
					"name": "owner",
					"outputs": [
						{
							"internalType": "address",
							"name": "",
							"type": "address"
						}
					],
					"stateMutability": "view",
					"type": "function"
				},
				{
					"inputs": [
						{
							"internalType": "uint256",
							"name": "id",
							"type": "uint256"
						},
						{
							"internalType": "uint256",
							"name": "bookingId",
							"type": "uint256"
						},
						{
							"internalType": "uint256",
							"name": "date",
							"type": "uint256"
						}
					],
					"name": "refundBooking",
					"outputs": [],
					"stateMutability": "nonpayable",
					"type": "function"
				},
				{
					"inputs": [],
					"name": "renounceOwnership",
					"outputs": [],
					"stateMutability": "nonpayable",
					"type": "function"
				},
				{
					"inputs": [
						{
							"internalType": "uint256",
							"name": "",
							"type": "uint256"
						},
						{
							"internalType": "uint256",
							"name": "",
							"type": "uint256"
						}
					],
					"name": "reviewsOf",
					"outputs": [
						{
							"internalType": "uint256",
							"name": "id",
							"type": "uint256"
						},
						{
							"internalType": "uint256",
							"name": "spaceId",
							"type": "uint256"
						},
						{
							"internalType": "string",
							"name": "reviewText",
							"type": "string"
						},
						{
							"internalType": "uint256",
							"name": "timestamp",
							"type": "uint256"
						},
						{
							"internalType": "address",
							"name": "reviewer",
							"type": "address"
						}
					],
					"stateMutability": "view",
					"type": "function"
				},
				{
					"inputs": [],
					"name": "securityFee",
					"outputs": [
						{
							"internalType": "uint256",
							"name": "",
							"type": "uint256"
						}
					],
					"stateMutability": "view",
					"type": "function"
				},
				{
					"inputs": [
						{
							"internalType": "uint256",
							"name": "",
							"type": "uint256"
						}
					],
					"name": "spaceExists",
					"outputs": [
						{
							"internalType": "bool",
							"name": "",
							"type": "bool"
						}
					],
					"stateMutability": "view",
					"type": "function"
				},
				{
					"inputs": [
						{
							"internalType": "uint256",
							"name": "",
							"type": "uint256"
						}
					],
					"name": "spaces",
					"outputs": [
						{
							"internalType": "uint256",
							"name": "id",
							"type": "uint256"
						},
						{
							"internalType": "string",
							"name": "title",
							"type": "string"
						},
						{
							"internalType": "string",
							"name": "subtitle",
							"type": "string"
						},
						{
							"internalType": "string",
							"name": "description",
							"type": "string"
						},
						{
							"internalType": "string",
							"name": "images",
							"type": "string"
						},
						{
							"internalType": "uint256",
							"name": "rooms",
							"type": "uint256"
						},
						{
							"internalType": "uint256",
							"name": "price",
							"type": "uint256"
						},
						{
							"internalType": "address",
							"name": "owner",
							"type": "address"
						},
						{
							"internalType": "bool",
							"name": "booked",
							"type": "bool"
						},
						{
							"internalType": "bool",
							"name": "deleted",
							"type": "bool"
						},
						{
							"internalType": "bool",
							"name": "availability",
							"type": "bool"
						},
						{
							"internalType": "uint256",
							"name": "timestamp",
							"type": "uint256"
						}
					],
					"stateMutability": "view",
					"type": "function"
				},
				{
					"inputs": [],
					"name": "taxPercent",
					"outputs": [
						{
							"internalType": "uint256",
							"name": "",
							"type": "uint256"
						}
					],
					"stateMutability": "view",
					"type": "function"
				},
				{
					"inputs": [
						{
							"internalType": "uint256",
							"name": "spaceId",
							"type": "uint256"
						}
					],
					"name": "tenantBooked",
					"outputs": [
						{
							"internalType": "bool",
							"name": "",
							"type": "bool"
						}
					],
					"stateMutability": "view",
					"type": "function"
				},
				{
					"inputs": [
						{
							"internalType": "address",
							"name": "newOwner",
							"type": "address"
						}
					],
					"name": "transferOwnership",
					"outputs": [],
					"stateMutability": "nonpayable",
					"type": "function"
				},
				{
					"inputs": [
						{
							"internalType": "uint256",
							"name": "newFee",
							"type": "uint256"
						}
					],
					"name": "updateSecurityFee",
					"outputs": [],
					"stateMutability": "nonpayable",
					"type": "function"
				},
				{
					"inputs": [
						{
							"internalType": "uint256",
							"name": "id",
							"type": "uint256"
						},
						{
							"internalType": "string",
							"name": "title",
							"type": "string"
						},
						{
							"internalType": "string",
							"name": "subtitle",
							"type": "string"
						},
						{
							"internalType": "string",
							"name": "description",
							"type": "string"
						},
						{
							"internalType": "string",
							"name": "images",
							"type": "string"
						},
						{
							"internalType": "uint256",
							"name": "rooms",
							"type": "uint256"
						},
						{
							"internalType": "uint256",
							"name": "price",
							"type": "uint256"
						}
					],
					"name": "updateSpace",
					"outputs": [],
					"stateMutability": "nonpayable",
					"type": "function"
				},
				{
					"inputs": [
						{
							"internalType": "uint256",
							"name": "newTaxPercent",
							"type": "uint256"
						}
					],
					"name": "updateTaxPercent",
					"outputs": [],
					"stateMutability": "nonpayable",
					"type": "function"
				}
			],
			"devdoc": {
				"kind": "dev",
				"methods": {
					"owner()": {
						"details": "Returns the address of the current owner."
					},
					"renounceOwnership()": {
						"details": "Leaves the contract without owner. It will not be possible to call `onlyOwner` functions. Can only be called by the current owner. NOTE: Renouncing ownership will leave the contract without an owner, thereby disabling any functionality that is only available to the owner."
					},
					"transferOwnership(address)": {
						"details": "Transfers ownership of the contract to a new account (`newOwner`). Can only be called by the current owner."
					}
				},
				"version": 1
			},
			"evm": {
				"assembly": "    /* \"AndroidStudioProjects/roomflow/contracts/Roomflow.sol\":258:13138  contract RoomFlow is Ownable, ReentrancyGuard {... */\n  mstore(0x40, 0x80)\n    /* \"AndroidStudioProjects/roomflow/contracts/Roomflow.sol\":2736:2877  constructor(uint _taxPercent, uint _securityFee) {... */\n  callvalue\n  dup1\n  iszero\n  tag_1\n  jumpi\n  0x00\n  dup1\n  revert\ntag_1:\n  pop\n  mload(0x40)\n  sub(codesize, bytecodeSize)\n  dup1\n  bytecodeSize\n  dup4\n  codecopy\n  dup2\n  add\n  0x40\n  dup2\n  swap1\n  mstore\n  tag_2\n  swap2\n  tag_3\n  jump\t// in\ntag_2:\n    /* \"@openzeppelin/contracts/access/Ownable.sol\":936:968  _transferOwnership(_msgSender()) */\n  tag_8\n    /* \"@openzeppelin/contracts/utils/Context.sol\":719:729  msg.sender */\n  caller\n    /* \"@openzeppelin/contracts/access/Ownable.sol\":936:954  _transferOwnership */\n  tag_11\n    /* \"@openzeppelin/contracts/access/Ownable.sol\":936:968  _transferOwnership(_msgSender()) */\n  jump\t// in\ntag_8:\n    /* \"@openzeppelin/contracts/security/ReentrancyGuard.sol\":1716:1717  1 */\n  0x01\n    /* \"@openzeppelin/contracts/security/ReentrancyGuard.sol\":1821:1843  _status = _NOT_ENTERED */\n  dup1\n  sstore\n    /* \"AndroidStudioProjects/roomflow/contracts/Roomflow.sol\":2800:2810  taxPercent */\n  0x05\n    /* \"AndroidStudioProjects/roomflow/contracts/Roomflow.sol\":2800:2824  taxPercent = _taxPercent */\n  swap2\n  swap1\n  swap2\n  sstore\n    /* \"AndroidStudioProjects/roomflow/contracts/Roomflow.sol\":2839:2850  securityFee */\n  0x04\n    /* \"AndroidStudioProjects/roomflow/contracts/Roomflow.sol\":2839:2865  securityFee = _securityFee */\n  sstore\n    /* \"AndroidStudioProjects/roomflow/contracts/Roomflow.sol\":258:13138  contract RoomFlow is Ownable, ReentrancyGuard {... */\n  jump(tag_17)\n    /* \"@openzeppelin/contracts/access/Ownable.sol\":2426:2613  function _transferOwnership(address newOwner) internal virtual {... */\ntag_11:\n    /* \"@openzeppelin/contracts/access/Ownable.sol\":2499:2515  address oldOwner */\n  0x00\n    /* \"@openzeppelin/contracts/access/Ownable.sol\":2518:2524  _owner */\n  dup1\n  sload\n  sub(shl(0xa0, 0x01), 0x01)\n    /* \"@openzeppelin/contracts/access/Ownable.sol\":2534:2551  _owner = newOwner */\n  dup4\n  dup2\n  and\n  not(sub(shl(0xa0, 0x01), 0x01))\n  dup4\n  and\n  dup2\n  or\n  dup5\n  sstore\n    /* \"@openzeppelin/contracts/access/Ownable.sol\":2566:2606  OwnershipTransferred(oldOwner, newOwner) */\n  mload(0x40)\n    /* \"@openzeppelin/contracts/access/Ownable.sol\":2518:2524  _owner */\n  swap2\n  swap1\n  swap3\n  and\n  swap3\n  dup4\n  swap2\n    /* \"@openzeppelin/contracts/access/Ownable.sol\":2566:2606  OwnershipTransferred(oldOwner, newOwner) */\n  0x8be0079c531659141344cd1fd0a4f28419497f9722a3daafe3b4186f6b6457e0\n  swap2\n    /* \"@openzeppelin/contracts/access/Ownable.sol\":2499:2515  address oldOwner */\n  swap1\n    /* \"@openzeppelin/contracts/access/Ownable.sol\":2566:2606  OwnershipTransferred(oldOwner, newOwner) */\n  log3\n    /* \"@openzeppelin/contracts/access/Ownable.sol\":2489:2613  {... */\n  pop\n    /* \"@openzeppelin/contracts/access/Ownable.sol\":2426:2613  function _transferOwnership(address newOwner) internal virtual {... */\n  pop\n  jump\t// out\n    /* \"#utility.yul\":14:259   */\ntag_3:\n    /* \"#utility.yul\":93:99   */\n  0x00\n    /* \"#utility.yul\":101:107   */\n  dup1\n    /* \"#utility.yul\":154:156   */\n  0x40\n    /* \"#utility.yul\":142:151   */\n  dup4\n    /* \"#utility.yul\":133:140   */\n  dup6\n    /* \"#utility.yul\":129:152   */\n  sub\n    /* \"#utility.yul\":125:157   */\n  slt\n    /* \"#utility.yul\":122:174   */\n  iszero\n  tag_19\n  jumpi\n    /* \"#utility.yul\":170:171   */\n  0x00\n    /* \"#utility.yul\":167:168   */\n  dup1\n    /* \"#utility.yul\":160:172   */\n  revert\n    /* \"#utility.yul\":122:174   */\ntag_19:\n  pop\n  pop\n    /* \"#utility.yul\":193:209   */\n  dup1\n  mload\n    /* \"#utility.yul\":249:251   */\n  0x20\n    /* \"#utility.yul\":234:252   */\n  swap1\n  swap2\n  add\n    /* \"#utility.yul\":228:253   */\n  mload\n    /* \"#utility.yul\":193:209   */\n  swap1\n  swap3\n    /* \"#utility.yul\":228:253   */\n  swap1\n  swap2\n  pop\n    /* \"#utility.yul\":14:259   */\n  jump\t// out\ntag_17:\n    /* \"AndroidStudioProjects/roomflow/contracts/Roomflow.sol\":258:13138  contract RoomFlow is Ownable, ReentrancyGuard {... */\n  dataSize(sub_0)\n  dup1\n  dataOffset(sub_0)\n  0x00\n  codecopy\n  0x00\n  return\nstop\n\nsub_0: assembly {\n        /* \"AndroidStudioProjects/roomflow/contracts/Roomflow.sol\":258:13138  contract RoomFlow is Ownable, ReentrancyGuard {... */\n      mstore(0x40, 0x80)\n      jumpi(tag_1, lt(calldatasize, 0x04))\n      shr(0xe0, calldataload(0x00))\n      dup1\n      0x8da5cb5b\n      gt\n      tag_32\n      jumpi\n      dup1\n      0xd68e1302\n      gt\n      tag_33\n      jumpi\n      dup1\n      0xeb461445\n      gt\n      tag_34\n      jumpi\n      dup1\n      0xeb461445\n      eq\n      tag_28\n      jumpi\n      dup1\n      0xf2fde38b\n      eq\n      tag_29\n      jumpi\n      dup1\n      0xf4010995\n      eq\n      tag_30\n      jumpi\n      dup1\n      0xf6ab7e3d\n      eq\n      tag_31\n      jumpi\n      0x00\n      dup1\n      revert\n    tag_34:\n      dup1\n      0xd68e1302\n      eq\n      tag_24\n      jumpi\n      dup1\n      0xdb2f80b7\n      eq\n      tag_25\n      jumpi\n      dup1\n      0xe16ca8d1\n      eq\n      tag_26\n      jumpi\n      dup1\n      0xe1c69620\n      eq\n      tag_27\n      jumpi\n      0x00\n      dup1\n      revert\n    tag_33:\n      dup1\n      0x9f31a2be\n      gt\n      tag_35\n      jumpi\n      dup1\n      0x9f31a2be\n      eq\n      tag_20\n      jumpi\n      dup1\n      0xa74431f4\n      eq\n      tag_21\n      jumpi\n      dup1\n      0xd3dfc0f6\n      eq\n      tag_22\n      jumpi\n      dup1\n      0xd684ccda\n      eq\n      tag_23\n      jumpi\n      0x00\n      dup1\n      revert\n    tag_35:\n      dup1\n      0x8da5cb5b\n      eq\n      tag_17\n      jumpi\n      dup1\n      0x90067e31\n      eq\n      tag_18\n      jumpi\n      dup1\n      0x9d4a2255\n      eq\n      tag_19\n      jumpi\n      0x00\n      dup1\n      revert\n    tag_32:\n      dup1\n      0x5bb0c5d6\n      gt\n      tag_36\n      jumpi\n      dup1\n      0x715018a6\n      gt\n      tag_37\n      jumpi\n      dup1\n      0x715018a6\n      eq\n      tag_13\n      jumpi\n      dup1\n      0x7541f41c\n      eq\n      tag_14\n      jumpi\n      dup1\n      0x7586353b\n      eq\n      tag_15\n      jumpi\n      dup1\n      0x7f75aed5\n      eq\n      tag_16\n      jumpi\n      0x00\n      dup1\n      revert\n    tag_37:\n      dup1\n      0x5bb0c5d6\n      eq\n      tag_9\n      jumpi\n      dup1\n      0x61591149\n      eq\n      tag_10\n      jumpi\n      dup1\n      0x67e42ba7\n      eq\n      tag_11\n      jumpi\n      dup1\n      0x70e10431\n      eq\n      tag_12\n      jumpi\n      0x00\n      dup1\n      revert\n    tag_36:\n      dup1\n      0x2ce894bc\n      gt\n      tag_38\n      jumpi\n      dup1\n      0x2ce894bc\n      eq\n      tag_5\n      jumpi\n      dup1\n      0x3fa7e153\n      eq\n      tag_6\n      jumpi\n      dup1\n      0x455b3070\n      eq\n      tag_7\n      jumpi\n      dup1\n      0x577bf6ee\n      eq\n      tag_8\n      jumpi\n      0x00\n      dup1\n      revert\n    tag_38:\n      dup1\n      0x010b58ee\n      eq\n      tag_2\n      jumpi\n      dup1\n      0x01d8a51b\n      eq\n      tag_3\n      jumpi\n      dup1\n      0x15478ca9\n      eq\n      tag_4\n      jumpi\n    tag_1:\n      0x00\n      dup1\n      revert\n        /* \"AndroidStudioProjects/roomflow/contracts/Roomflow.sol\":8791:9397  function claimFunds(uint id, uint bookingId) public {... */\n    tag_2:\n      callvalue\n      dup1\n      iszero\n      tag_39\n      jumpi\n      0x00\n      dup1\n      revert\n    tag_39:\n      pop\n      tag_40\n      tag_41\n      calldatasize\n      0x04\n      tag_42\n      jump\t// in\n    tag_41:\n      tag_43\n      jump\t// in\n    tag_40:\n      stop\n        /* \"AndroidStudioProjects/roomflow/contracts/Roomflow.sol\":8005:8779  function checkInSpace(uint id, uint bookingId) public {... */\n    tag_3:\n      callvalue\n      dup1\n      iszero\n      tag_44\n      jumpi\n      0x00\n      dup1\n      revert\n    tag_44:\n      pop\n      tag_40\n      tag_46\n      calldatasize\n      0x04\n      tag_42\n      jump\t// in\n    tag_46:\n      tag_47\n      jump\t// in\n        /* \"AndroidStudioProjects/roomflow/contracts/Roomflow.sol\":5785:6403  function getSpaces() public view returns (SpaceListing[] memory) {... */\n    tag_4:\n      callvalue\n      dup1\n      iszero\n      tag_48\n      jumpi\n      0x00\n      dup1\n      revert\n    tag_48:\n      pop\n      tag_49\n      tag_50\n      jump\t// in\n    tag_49:\n      mload(0x40)\n      tag_51\n      swap2\n      swap1\n      tag_52\n      jump\t// in\n    tag_51:\n      mload(0x40)\n      dup1\n      swap2\n      sub\n      swap1\n      return\n        /* \"AndroidStudioProjects/roomflow/contracts/Roomflow.sol\":2596:2654  mapping(uint => mapping(uint => bool)) public isDateBooked */\n    tag_5:\n      callvalue\n      dup1\n      iszero\n      tag_53\n      jumpi\n      0x00\n      dup1\n      revert\n    tag_53:\n      pop\n      tag_54\n      tag_55\n      calldatasize\n      0x04\n      tag_42\n      jump\t// in\n    tag_55:\n      0x0b\n      0x20\n      swap1\n      dup2\n      mstore\n      0x00\n      swap3\n      dup4\n      mstore\n      0x40\n      dup1\n      dup5\n      keccak256\n      swap1\n      swap2\n      mstore\n      swap1\n      dup3\n      mstore\n      swap1\n      keccak256\n      sload\n      0xff\n      and\n      dup2\n      jump\n    tag_54:\n      mload(0x40)\n        /* \"#utility.yul\":3425:3439   */\n      swap1\n      iszero\n        /* \"#utility.yul\":3418:3440   */\n      iszero\n        /* \"#utility.yul\":3400:3441   */\n      dup2\n      mstore\n        /* \"#utility.yul\":3388:3390   */\n      0x20\n        /* \"#utility.yul\":3373:3391   */\n      add\n        /* \"AndroidStudioProjects/roomflow/contracts/Roomflow.sol\":2596:2654  mapping(uint => mapping(uint => bool)) public isDateBooked */\n      tag_51\n        /* \"#utility.yul\":3260:3447   */\n      jump\n        /* \"AndroidStudioProjects/roomflow/contracts/Roomflow.sol\":2889:4176  function createSpace(... */\n    tag_6:\n      callvalue\n      dup1\n      iszero\n      tag_59\n      jumpi\n      0x00\n      dup1\n      revert\n    tag_59:\n      pop\n      tag_40\n      tag_61\n      calldatasize\n      0x04\n      tag_62\n      jump\t// in\n    tag_61:\n      tag_63\n      jump\t// in\n        /* \"AndroidStudioProjects/roomflow/contracts/Roomflow.sol\":11235:11413  function getBooking(... */\n    tag_7:\n      callvalue\n      dup1\n      iszero\n      tag_64\n      jumpi\n      0x00\n      dup1\n      revert\n    tag_64:\n      pop\n      tag_65\n      tag_66\n      calldatasize\n      0x04\n      tag_42\n      jump\t// in\n    tag_66:\n      tag_67\n      jump\t// in\n    tag_65:\n      mload(0x40)\n      tag_51\n      swap2\n      swap1\n      tag_69\n      jump\t// in\n        /* \"AndroidStudioProjects/roomflow/contracts/Roomflow.sol\":2384:2428  mapping(uint => Booking[]) public bookingsOf */\n    tag_8:\n      callvalue\n      dup1\n      iszero\n      tag_70\n      jumpi\n      0x00\n      dup1\n      revert\n    tag_70:\n      pop\n      tag_71\n      tag_72\n      calldatasize\n      0x04\n      tag_42\n      jump\t// in\n    tag_72:\n      tag_73\n      jump\t// in\n    tag_71:\n      0x40\n      dup1\n      mload\n        /* \"#utility.yul\":6439:6464   */\n      swap8\n      dup9\n      mstore\n      sub(shl(0xa0, 0x01), 0x01)\n        /* \"#utility.yul\":6500:6532   */\n      swap1\n      swap7\n      and\n        /* \"#utility.yul\":6495:6497   */\n      0x20\n        /* \"#utility.yul\":6480:6498   */\n      dup9\n      add\n        /* \"#utility.yul\":6473:6533   */\n      mstore\n        /* \"#utility.yul\":6549:6567   */\n      swap5\n      dup7\n      add\n        /* \"#utility.yul\":6542:6576   */\n      swap4\n      swap1\n      swap4\n      mstore\n        /* \"#utility.yul\":6607:6609   */\n      0x60\n        /* \"#utility.yul\":6592:6610   */\n      dup6\n      add\n        /* \"#utility.yul\":6585:6619   */\n      swap2\n      swap1\n      swap2\n      mstore\n        /* \"#utility.yul\":6650:6653   */\n      0x80\n        /* \"#utility.yul\":6635:6654   */\n      dup5\n      add\n        /* \"#utility.yul\":6628:6663   */\n      mstore\n        /* \"#utility.yul\":6707:6721   */\n      iszero\n        /* \"#utility.yul\":6700:6722   */\n      iszero\n        /* \"#utility.yul\":6520:6523   */\n      0xa0\n        /* \"#utility.yul\":6679:6698   */\n      dup4\n      add\n        /* \"#utility.yul\":6672:6723   */\n      mstore\n        /* \"#utility.yul\":6767:6781   */\n      iszero\n        /* \"#utility.yul\":6760:6782   */\n      iszero\n        /* \"#utility.yul\":6754:6757   */\n      0xc0\n        /* \"#utility.yul\":6739:6758   */\n      dup3\n      add\n        /* \"#utility.yul\":6732:6783   */\n      mstore\n        /* \"#utility.yul\":6426:6429   */\n      0xe0\n        /* \"#utility.yul\":6411:6430   */\n      add\n        /* \"AndroidStudioProjects/roomflow/contracts/Roomflow.sol\":2384:2428  mapping(uint => Booking[]) public bookingsOf */\n      tag_51\n        /* \"#utility.yul\":6136:6789   */\n      jump\n        /* \"AndroidStudioProjects/roomflow/contracts/Roomflow.sol\":11779:12492  function addReview(uint spaceId, string memory reviewText) public {... */\n    tag_9:\n      callvalue\n      dup1\n      iszero\n      tag_76\n      jumpi\n      0x00\n      dup1\n      revert\n    tag_76:\n      pop\n      tag_40\n      tag_78\n      calldatasize\n      0x04\n      tag_79\n      jump\t// in\n    tag_78:\n      tag_80\n      jump\t// in\n        /* \"AndroidStudioProjects/roomflow/contracts/Roomflow.sol\":11425:11639  function updateSecurityFee(uint newFee) public onlyOwner {... */\n    tag_10:\n      callvalue\n      dup1\n      iszero\n      tag_81\n      jumpi\n      0x00\n      dup1\n      revert\n    tag_81:\n      pop\n      tag_40\n      tag_83\n      calldatasize\n      0x04\n      tag_84\n      jump\t// in\n    tag_83:\n      tag_85\n      jump\t// in\n        /* \"AndroidStudioProjects/roomflow/contracts/Roomflow.sol\":4188:5445  function updateSpace(... */\n    tag_11:\n      callvalue\n      dup1\n      iszero\n      tag_86\n      jumpi\n      0x00\n      dup1\n      revert\n    tag_86:\n      pop\n      tag_40\n      tag_88\n      calldatasize\n      0x04\n      tag_89\n      jump\t// in\n    tag_88:\n      tag_90\n      jump\t// in\n        /* \"AndroidStudioProjects/roomflow/contracts/Roomflow.sol\":6415:6528  function getSpace(uint id) public view returns (SpaceListing memory) {... */\n    tag_12:\n      callvalue\n      dup1\n      iszero\n      tag_91\n      jumpi\n      0x00\n      dup1\n      revert\n    tag_91:\n      pop\n      tag_92\n      tag_93\n      calldatasize\n      0x04\n      tag_84\n      jump\t// in\n    tag_93:\n      tag_94\n      jump\t// in\n    tag_92:\n      mload(0x40)\n      tag_51\n      swap2\n      swap1\n      tag_96\n      jump\t// in\n        /* \"@openzeppelin/contracts/access/Ownable.sol\":1824:1925  function renounceOwnership() public virtual onlyOwner {... */\n    tag_13:\n      callvalue\n      dup1\n      iszero\n      tag_97\n      jumpi\n      0x00\n      dup1\n      revert\n    tag_97:\n      pop\n      tag_40\n      tag_99\n      jump\t// in\n        /* \"AndroidStudioProjects/roomflow/contracts/Roomflow.sol\":2295:2317  uint public taxPercent */\n    tag_14:\n      callvalue\n      dup1\n      iszero\n      tag_100\n      jumpi\n      0x00\n      dup1\n      revert\n    tag_100:\n      pop\n      tag_101\n      sload(0x05)\n      dup2\n      jump\n    tag_101:\n      mload(0x40)\n        /* \"#utility.yul\":8952:8977   */\n      swap1\n      dup2\n      mstore\n        /* \"#utility.yul\":8940:8942   */\n      0x20\n        /* \"#utility.yul\":8925:8943   */\n      add\n        /* \"AndroidStudioProjects/roomflow/contracts/Roomflow.sol\":2295:2317  uint public taxPercent */\n      tag_51\n        /* \"#utility.yul\":8806:8983   */\n      jump\n        /* \"AndroidStudioProjects/roomflow/contracts/Roomflow.sol\":2330:2373  mapping(uint => SpaceListing) public spaces */\n    tag_15:\n      callvalue\n      dup1\n      iszero\n      tag_105\n      jumpi\n      0x00\n      dup1\n      revert\n    tag_105:\n      pop\n      tag_106\n      tag_107\n      calldatasize\n      0x04\n      tag_84\n      jump\t// in\n    tag_107:\n      tag_108\n      jump\t// in\n    tag_106:\n      mload(0x40)\n      tag_51\n      swap13\n      swap12\n      swap11\n      swap10\n      swap9\n      swap8\n      swap7\n      swap6\n      swap5\n      swap4\n      swap3\n      swap2\n      swap1\n      tag_110\n      jump\t// in\n        /* \"AndroidStudioProjects/roomflow/contracts/Roomflow.sol\":2665:2723  mapping(address => mapping(uint => bool)) public hasBooked */\n    tag_16:\n      callvalue\n      dup1\n      iszero\n      tag_111\n      jumpi\n      0x00\n      dup1\n      revert\n    tag_111:\n      pop\n      tag_54\n      tag_113\n      calldatasize\n      0x04\n      tag_114\n      jump\t// in\n    tag_113:\n      0x0c\n      0x20\n      swap1\n      dup2\n      mstore\n      0x00\n      swap3\n      dup4\n      mstore\n      0x40\n      dup1\n      dup5\n      keccak256\n      swap1\n      swap2\n      mstore\n      swap1\n      dup3\n      mstore\n      swap1\n      keccak256\n      sload\n      0xff\n      and\n      dup2\n      jump\n        /* \"@openzeppelin/contracts/access/Ownable.sol\":1201:1286  function owner() public view virtual returns (address) {... */\n    tag_17:\n      callvalue\n      dup1\n      iszero\n      tag_117\n      jumpi\n      0x00\n      dup1\n      revert\n    tag_117:\n      pop\n        /* \"@openzeppelin/contracts/access/Ownable.sol\":1247:1254  address */\n      0x00\n        /* \"@openzeppelin/contracts/access/Ownable.sol\":1273:1279  _owner */\n      sload\n        /* \"@openzeppelin/contracts/access/Ownable.sol\":1201:1286  function owner() public view virtual returns (address) {... */\n      mload(0x40)\n      sub(shl(0xa0, 0x01), 0x01)\n        /* \"@openzeppelin/contracts/access/Ownable.sol\":1273:1279  _owner */\n      swap1\n      swap2\n      and\n        /* \"#utility.yul\":10929:10980   */\n      dup2\n      mstore\n        /* \"#utility.yul\":10917:10919   */\n      0x20\n        /* \"#utility.yul\":10902:10920   */\n      add\n        /* \"@openzeppelin/contracts/access/Ownable.sol\":1201:1286  function owner() public view virtual returns (address) {... */\n      tag_51\n        /* \"#utility.yul\":10783:10986   */\n      jump\n        /* \"AndroidStudioProjects/roomflow/contracts/Roomflow.sol\":2439:2481  mapping(uint => Review[]) public reviewsOf */\n    tag_18:\n      callvalue\n      dup1\n      iszero\n      tag_122\n      jumpi\n      0x00\n      dup1\n      revert\n    tag_122:\n      pop\n      tag_123\n      tag_124\n      calldatasize\n      0x04\n      tag_42\n      jump\t// in\n    tag_124:\n      tag_125\n      jump\t// in\n    tag_123:\n      mload(0x40)\n      tag_51\n      swap6\n      swap5\n      swap4\n      swap3\n      swap2\n      swap1\n      tag_127\n      jump\t// in\n        /* \"AndroidStudioProjects/roomflow/contracts/Roomflow.sol\":12504:12628  function getReviews(uint spaceId) public view returns (Review[] memory) {... */\n    tag_19:\n      callvalue\n      dup1\n      iszero\n      tag_128\n      jumpi\n      0x00\n      dup1\n      revert\n    tag_128:\n      pop\n      tag_129\n      tag_130\n      calldatasize\n      0x04\n      tag_84\n      jump\t// in\n    tag_130:\n      tag_131\n      jump\t// in\n    tag_129:\n      mload(0x40)\n      tag_51\n      swap2\n      swap1\n      tag_133\n      jump\t// in\n        /* \"AndroidStudioProjects/roomflow/contracts/Roomflow.sol\":12640:12767  function tenantBooked(uint spaceId) public view returns (bool) {... */\n    tag_20:\n      callvalue\n      dup1\n      iszero\n      tag_134\n      jumpi\n      0x00\n      dup1\n      revert\n    tag_134:\n      pop\n      tag_54\n      tag_136\n      calldatasize\n      0x04\n      tag_84\n      jump\t// in\n    tag_136:\n        /* \"AndroidStudioProjects/roomflow/contracts/Roomflow.sol\":12735:12745  msg.sender */\n      caller\n        /* \"AndroidStudioProjects/roomflow/contracts/Roomflow.sol\":12697:12701  bool */\n      0x00\n        /* \"AndroidStudioProjects/roomflow/contracts/Roomflow.sol\":12725:12746  hasBooked[msg.sender] */\n      swap1\n      dup2\n      mstore\n        /* \"AndroidStudioProjects/roomflow/contracts/Roomflow.sol\":12725:12734  hasBooked */\n      0x0c\n        /* \"AndroidStudioProjects/roomflow/contracts/Roomflow.sol\":12725:12746  hasBooked[msg.sender] */\n      0x20\n      swap1\n      dup2\n      mstore\n      0x40\n      dup1\n      dup4\n      keccak256\n        /* \"AndroidStudioProjects/roomflow/contracts/Roomflow.sol\":12725:12755  hasBooked[msg.sender][spaceId] */\n      swap4\n      dup4\n      mstore\n      swap3\n      swap1\n      mstore\n      keccak256\n      sload\n      0xff\n      and\n      swap1\n        /* \"AndroidStudioProjects/roomflow/contracts/Roomflow.sol\":12640:12767  function tenantBooked(uint spaceId) public view returns (bool) {... */\n      jump\n        /* \"AndroidStudioProjects/roomflow/contracts/Roomflow.sol\":2492:2532  mapping(uint => bool) public spaceExists */\n    tag_21:\n      callvalue\n      dup1\n      iszero\n      tag_139\n      jumpi\n      0x00\n      dup1\n      revert\n    tag_139:\n      pop\n      tag_54\n      tag_141\n      calldatasize\n      0x04\n      tag_84\n      jump\t// in\n    tag_141:\n      mstore(0x20, 0x09)\n      0x00\n      swap1\n      dup2\n      mstore\n      0x40\n      swap1\n      keccak256\n      sload\n      0xff\n      and\n      dup2\n      jump\n        /* \"AndroidStudioProjects/roomflow/contracts/Roomflow.sol\":2543:2585  mapping(uint => uint[]) public bookedDates */\n    tag_22:\n      callvalue\n      dup1\n      iszero\n      tag_144\n      jumpi\n      0x00\n      dup1\n      revert\n    tag_144:\n      pop\n      tag_101\n      tag_146\n      calldatasize\n      0x04\n      tag_42\n      jump\t// in\n    tag_146:\n      tag_147\n      jump\t// in\n        /* \"AndroidStudioProjects/roomflow/contracts/Roomflow.sol\":5457:5773  function deleteSpace(uint id) public {... */\n    tag_23:\n      callvalue\n      dup1\n      iszero\n      tag_149\n      jumpi\n      0x00\n      dup1\n      revert\n    tag_149:\n      pop\n      tag_40\n      tag_151\n      calldatasize\n      0x04\n      tag_84\n      jump\t// in\n    tag_151:\n      tag_152\n      jump\t// in\n        /* \"AndroidStudioProjects/roomflow/contracts/Roomflow.sol\":2261:2284  uint public securityFee */\n    tag_24:\n      callvalue\n      dup1\n      iszero\n      tag_153\n      jumpi\n      0x00\n      dup1\n      revert\n    tag_153:\n      pop\n      tag_101\n      sload(0x04)\n      dup2\n      jump\n        /* \"AndroidStudioProjects/roomflow/contracts/Roomflow.sol\":10971:11094  function getUnavailableDates(uint id) public view returns (uint[] memory) {... */\n    tag_25:\n      callvalue\n      dup1\n      iszero\n      tag_157\n      jumpi\n      0x00\n      dup1\n      revert\n    tag_157:\n      pop\n      tag_158\n      tag_159\n      calldatasize\n      0x04\n      tag_84\n      jump\t// in\n    tag_159:\n      tag_160\n      jump\t// in\n    tag_158:\n      mload(0x40)\n      tag_51\n      swap2\n      swap1\n      tag_162\n      jump\t// in\n        /* \"AndroidStudioProjects/roomflow/contracts/Roomflow.sol\":9409:10741  function refundBooking(... */\n    tag_26:\n      callvalue\n      dup1\n      iszero\n      tag_163\n      jumpi\n      0x00\n      dup1\n      revert\n    tag_163:\n      pop\n      tag_40\n      tag_165\n      calldatasize\n      0x04\n      tag_166\n      jump\t// in\n    tag_165:\n      tag_167\n      jump\t// in\n        /* \"AndroidStudioProjects/roomflow/contracts/Roomflow.sol\":6540:7672  function bookSpace(... */\n    tag_27:\n      tag_40\n      tag_169\n      calldatasize\n      0x04\n      tag_166\n      jump\t// in\n    tag_169:\n      tag_170\n      jump\t// in\n        /* \"AndroidStudioProjects/roomflow/contracts/Roomflow.sol\":11651:11767  function updateTaxPercent(uint newTaxPercent) public onlyOwner {... */\n    tag_28:\n      callvalue\n      dup1\n      iszero\n      tag_171\n      jumpi\n      0x00\n      dup1\n      revert\n    tag_171:\n      pop\n      tag_40\n      tag_173\n      calldatasize\n      0x04\n      tag_84\n      jump\t// in\n    tag_173:\n      tag_174\n      jump\t// in\n        /* \"@openzeppelin/contracts/access/Ownable.sol\":2074:2272  function transferOwnership(address newOwner) public virtual onlyOwner {... */\n    tag_29:\n      callvalue\n      dup1\n      iszero\n      tag_175\n      jumpi\n      0x00\n      dup1\n      revert\n    tag_175:\n      pop\n      tag_40\n      tag_177\n      calldatasize\n      0x04\n      tag_178\n      jump\t// in\n    tag_177:\n      tag_179\n      jump\t// in\n        /* \"AndroidStudioProjects/roomflow/contracts/Roomflow.sol\":11106:11223  function getBookings(uint id) public view returns (Booking[] memory) {... */\n    tag_30:\n      callvalue\n      dup1\n      iszero\n      tag_180\n      jumpi\n      0x00\n      dup1\n      revert\n    tag_180:\n      pop\n      tag_181\n      tag_182\n      calldatasize\n      0x04\n      tag_84\n      jump\t// in\n    tag_182:\n      tag_183\n      jump\t// in\n    tag_181:\n      mload(0x40)\n      tag_51\n      swap2\n      swap1\n      tag_185\n      jump\t// in\n        /* \"AndroidStudioProjects/roomflow/contracts/Roomflow.sol\":10753:10959  function hasBookedDateReached(... */\n    tag_31:\n      callvalue\n      dup1\n      iszero\n      tag_186\n      jumpi\n      0x00\n      dup1\n      revert\n    tag_186:\n      pop\n      tag_54\n      tag_188\n      calldatasize\n      0x04\n      tag_42\n      jump\t// in\n    tag_188:\n      tag_189\n      jump\t// in\n        /* \"AndroidStudioProjects/roomflow/contracts/Roomflow.sol\":8791:9397  function claimFunds(uint id, uint bookingId) public {... */\n    tag_43:\n        /* \"AndroidStudioProjects/roomflow/contracts/Roomflow.sol\":8880:8890  spaces[id] */\n      0x00\n      dup3\n      dup2\n      mstore\n        /* \"AndroidStudioProjects/roomflow/contracts/Roomflow.sol\":8880:8886  spaces */\n      0x06\n        /* \"AndroidStudioProjects/roomflow/contracts/Roomflow.sol\":8880:8890  spaces[id] */\n      0x20\n      mstore\n      0x40\n      swap1\n      keccak256\n        /* \"AndroidStudioProjects/roomflow/contracts/Roomflow.sol\":8880:8896  spaces[id].owner */\n      0x07\n      add\n      sload\n      sub(shl(0xa0, 0x01), 0x01)\n      and\n        /* \"AndroidStudioProjects/roomflow/contracts/Roomflow.sol\":8866:8876  msg.sender */\n      caller\n        /* \"AndroidStudioProjects/roomflow/contracts/Roomflow.sol\":8866:8896  msg.sender == spaces[id].owner */\n      eq\n        /* \"AndroidStudioProjects/roomflow/contracts/Roomflow.sol\":8858:8920  require(msg.sender == spaces[id].owner, \"Unauthorized entity\") */\n      tag_192\n      jumpi\n      mload(0x40)\n      shl(0xe5, 0x461bcd)\n      dup2\n      mstore\n        /* \"#utility.yul\":14922:14924   */\n      0x20\n        /* \"AndroidStudioProjects/roomflow/contracts/Roomflow.sol\":8858:8920  require(msg.sender == spaces[id].owner, \"Unauthorized entity\") */\n      0x04\n      dup3\n      add\n        /* \"#utility.yul\":14904:14925   */\n      mstore\n        /* \"#utility.yul\":14961:14963   */\n      0x13\n        /* \"#utility.yul\":14941:14959   */\n      0x24\n      dup3\n      add\n        /* \"#utility.yul\":14934:14964   */\n      mstore\n      shl(0x68, 0x556e617574686f72697a656420656e74697479)\n        /* \"#utility.yul\":14980:14998   */\n      0x44\n      dup3\n      add\n        /* \"#utility.yul\":14973:15022   */\n      mstore\n        /* \"#utility.yul\":15039:15057   */\n      0x64\n      add\n        /* \"AndroidStudioProjects/roomflow/contracts/Roomflow.sol\":8858:8920  require(msg.sender == spaces[id].owner, \"Unauthorized entity\") */\n    tag_193:\n      mload(0x40)\n      dup1\n      swap2\n      sub\n      swap1\n      revert\n    tag_192:\n        /* \"AndroidStudioProjects/roomflow/contracts/Roomflow.sol\":8962:8976  bookingsOf[id] */\n      0x00\n      dup3\n      dup2\n      mstore\n        /* \"AndroidStudioProjects/roomflow/contracts/Roomflow.sol\":8962:8972  bookingsOf */\n      0x07\n        /* \"AndroidStudioProjects/roomflow/contracts/Roomflow.sol\":8962:8976  bookingsOf[id] */\n      0x20\n      mstore\n      0x40\n      swap1\n      keccak256\n        /* \"AndroidStudioProjects/roomflow/contracts/Roomflow.sol\":8962:8987  bookingsOf[id][bookingId] */\n      dup1\n      sload\n        /* \"AndroidStudioProjects/roomflow/contracts/Roomflow.sol\":8977:8986  bookingId */\n      dup3\n      swap1\n        /* \"AndroidStudioProjects/roomflow/contracts/Roomflow.sol\":8962:8987  bookingsOf[id][bookingId] */\n      dup2\n      lt\n      tag_196\n      jumpi\n      tag_196\n      tag_197\n      jump\t// in\n    tag_196:\n      0x00\n      swap2\n      dup3\n      mstore\n      0x20\n      swap1\n      swap2\n      keccak256\n        /* \"AndroidStudioProjects/roomflow/contracts/Roomflow.sol\":8962:8995  bookingsOf[id][bookingId].checked */\n      0x05\n        /* \"AndroidStudioProjects/roomflow/contracts/Roomflow.sol\":8962:8987  bookingsOf[id][bookingId] */\n      0x06\n      swap1\n      swap3\n      mul\n      add\n        /* \"AndroidStudioProjects/roomflow/contracts/Roomflow.sol\":8962:8995  bookingsOf[id][bookingId].checked */\n      add\n      sload\n      0xff\n      and\n        /* \"AndroidStudioProjects/roomflow/contracts/Roomflow.sol\":8961:8995  !bookingsOf[id][bookingId].checked */\n      iszero\n        /* \"AndroidStudioProjects/roomflow/contracts/Roomflow.sol\":8935:9069  require(... */\n      tag_199\n      jumpi\n      mload(0x40)\n      shl(0xe5, 0x461bcd)\n      dup2\n      mstore\n      0x04\n      add\n      tag_193\n      swap1\n      tag_201\n      jump\t// in\n    tag_199:\n        /* \"AndroidStudioProjects/roomflow/contracts/Roomflow.sol\":9086:9096  uint price */\n      0x00\n        /* \"AndroidStudioProjects/roomflow/contracts/Roomflow.sol\":9099:9113  bookingsOf[id] */\n      dup3\n      dup2\n      mstore\n        /* \"AndroidStudioProjects/roomflow/contracts/Roomflow.sol\":9099:9109  bookingsOf */\n      0x07\n        /* \"AndroidStudioProjects/roomflow/contracts/Roomflow.sol\":9099:9113  bookingsOf[id] */\n      0x20\n      mstore\n      0x40\n      dup2\n      keccak256\n        /* \"AndroidStudioProjects/roomflow/contracts/Roomflow.sol\":9099:9124  bookingsOf[id][bookingId] */\n      dup1\n      sload\n        /* \"AndroidStudioProjects/roomflow/contracts/Roomflow.sol\":9114:9123  bookingId */\n      dup4\n      swap1\n        /* \"AndroidStudioProjects/roomflow/contracts/Roomflow.sol\":9099:9124  bookingsOf[id][bookingId] */\n      dup2\n      lt\n      tag_203\n      jumpi\n      tag_203\n      tag_197\n      jump\t// in\n    tag_203:\n      swap1\n      0x00\n      mstore\n      keccak256(0x00, 0x20)\n      swap1\n      0x06\n      mul\n      add\n        /* \"AndroidStudioProjects/roomflow/contracts/Roomflow.sol\":9099:9135  bookingsOf[id][bookingId].totalPrice */\n      0x04\n      add\n      sload\n        /* \"AndroidStudioProjects/roomflow/contracts/Roomflow.sol\":9086:9135  uint price = bookingsOf[id][bookingId].totalPrice */\n      swap1\n      pop\n        /* \"AndroidStudioProjects/roomflow/contracts/Roomflow.sol\":9150:9158  uint fee */\n      0x00\n        /* \"AndroidStudioProjects/roomflow/contracts/Roomflow.sol\":9184:9187  100 */\n      0x64\n        /* \"AndroidStudioProjects/roomflow/contracts/Roomflow.sol\":9170:9180  taxPercent */\n      sload(0x05)\n        /* \"AndroidStudioProjects/roomflow/contracts/Roomflow.sol\":9162:9167  price */\n      dup4\n        /* \"AndroidStudioProjects/roomflow/contracts/Roomflow.sol\":9162:9180  price * taxPercent */\n      tag_205\n      swap2\n      swap1\n      tag_206\n      jump\t// in\n    tag_205:\n        /* \"AndroidStudioProjects/roomflow/contracts/Roomflow.sol\":9161:9187  (price * taxPercent) / 100 */\n      tag_207\n      swap2\n      swap1\n      tag_208\n      jump\t// in\n    tag_207:\n        /* \"AndroidStudioProjects/roomflow/contracts/Roomflow.sol\":9210:9220  spaces[id] */\n      0x00\n      dup6\n      dup2\n      mstore\n        /* \"AndroidStudioProjects/roomflow/contracts/Roomflow.sol\":9210:9216  spaces */\n      0x06\n        /* \"AndroidStudioProjects/roomflow/contracts/Roomflow.sol\":9210:9220  spaces[id] */\n      0x20\n      mstore\n      0x40\n      swap1\n      keccak256\n        /* \"AndroidStudioProjects/roomflow/contracts/Roomflow.sol\":9210:9226  spaces[id].owner */\n      0x07\n      add\n      sload\n        /* \"AndroidStudioProjects/roomflow/contracts/Roomflow.sol\":9150:9187  uint fee = (price * taxPercent) / 100 */\n      swap1\n      swap2\n      pop\n        /* \"AndroidStudioProjects/roomflow/contracts/Roomflow.sol\":9204:9242  payTo(spaces[id].owner, (price - fee)) */\n      tag_209\n      swap1\n      sub(shl(0xa0, 0x01), 0x01)\n        /* \"AndroidStudioProjects/roomflow/contracts/Roomflow.sol\":9210:9226  spaces[id].owner */\n      and\n        /* \"AndroidStudioProjects/roomflow/contracts/Roomflow.sol\":9229:9240  price - fee */\n      tag_210\n        /* \"AndroidStudioProjects/roomflow/contracts/Roomflow.sol\":9150:9187  uint fee = (price * taxPercent) / 100 */\n      dup4\n        /* \"AndroidStudioProjects/roomflow/contracts/Roomflow.sol\":9229:9234  price */\n      dup6\n        /* \"AndroidStudioProjects/roomflow/contracts/Roomflow.sol\":9229:9240  price - fee */\n      tag_211\n      jump\t// in\n    tag_210:\n        /* \"AndroidStudioProjects/roomflow/contracts/Roomflow.sol\":9204:9209  payTo */\n      tag_212\n        /* \"AndroidStudioProjects/roomflow/contracts/Roomflow.sol\":9204:9242  payTo(spaces[id].owner, (price - fee)) */\n      jump\t// in\n    tag_209:\n        /* \"AndroidStudioProjects/roomflow/contracts/Roomflow.sol\":9257:9276  payTo(owner(), fee) */\n      tag_213\n        /* \"AndroidStudioProjects/roomflow/contracts/Roomflow.sol\":9263:9270  owner() */\n      tag_214\n        /* \"@openzeppelin/contracts/access/Ownable.sol\":1247:1254  address */\n      0x00\n        /* \"@openzeppelin/contracts/access/Ownable.sol\":1273:1279  _owner */\n      sload\n      sub(shl(0xa0, 0x01), 0x01)\n      and\n      swap1\n        /* \"@openzeppelin/contracts/access/Ownable.sol\":1201:1286  function owner() public view virtual returns (address) {... */\n      jump\n        /* \"AndroidStudioProjects/roomflow/contracts/Roomflow.sol\":9263:9270  owner() */\n    tag_214:\n        /* \"AndroidStudioProjects/roomflow/contracts/Roomflow.sol\":9272:9275  fee */\n      dup3\n        /* \"AndroidStudioProjects/roomflow/contracts/Roomflow.sol\":9257:9262  payTo */\n      tag_212\n        /* \"AndroidStudioProjects/roomflow/contracts/Roomflow.sol\":9257:9276  payTo(owner(), fee) */\n      jump\t// in\n    tag_213:\n        /* \"AndroidStudioProjects/roomflow/contracts/Roomflow.sol\":9291:9321  payTo(msg.sender, securityFee) */\n      tag_215\n        /* \"AndroidStudioProjects/roomflow/contracts/Roomflow.sol\":9297:9307  msg.sender */\n      caller\n        /* \"AndroidStudioProjects/roomflow/contracts/Roomflow.sol\":9309:9320  securityFee */\n      sload(0x04)\n        /* \"AndroidStudioProjects/roomflow/contracts/Roomflow.sol\":9291:9296  payTo */\n      tag_212\n        /* \"AndroidStudioProjects/roomflow/contracts/Roomflow.sol\":9291:9321  payTo(msg.sender, securityFee) */\n      jump\t// in\n    tag_215:\n        /* \"AndroidStudioProjects/roomflow/contracts/Roomflow.sol\":9341:9385  SpaceFundsClaimed(id, msg.sender, bookingId) */\n      mload(0x40)\n        /* \"#utility.yul\":8952:8977   */\n      dup4\n      dup2\n      mstore\n        /* \"AndroidStudioProjects/roomflow/contracts/Roomflow.sol\":9363:9373  msg.sender */\n      caller\n      swap1\n        /* \"AndroidStudioProjects/roomflow/contracts/Roomflow.sol\":9359:9361  id */\n      dup6\n      swap1\n        /* \"AndroidStudioProjects/roomflow/contracts/Roomflow.sol\":9341:9385  SpaceFundsClaimed(id, msg.sender, bookingId) */\n      0xd926062942047dc8fc183828f55f4b9f3c32ea18a739f8d1bc73c82b4129113b\n      swap1\n        /* \"#utility.yul\":8940:8942   */\n      0x20\n        /* \"#utility.yul\":8925:8943   */\n      add\n        /* \"AndroidStudioProjects/roomflow/contracts/Roomflow.sol\":9341:9385  SpaceFundsClaimed(id, msg.sender, bookingId) */\n    tag_216:\n      mload(0x40)\n      dup1\n      swap2\n      sub\n      swap1\n      log3\n        /* \"AndroidStudioProjects/roomflow/contracts/Roomflow.sol\":8843:9397  {... */\n      pop\n      pop\n        /* \"AndroidStudioProjects/roomflow/contracts/Roomflow.sol\":8791:9397  function claimFunds(uint id, uint bookingId) public {... */\n      pop\n      pop\n      jump\t// out\n        /* \"AndroidStudioProjects/roomflow/contracts/Roomflow.sol\":8005:8779  function checkInSpace(uint id, uint bookingId) public {... */\n    tag_47:\n        /* \"AndroidStudioProjects/roomflow/contracts/Roomflow.sol\":8114:8128  bookingsOf[id] */\n      0x00\n      dup3\n      dup2\n      mstore\n        /* \"AndroidStudioProjects/roomflow/contracts/Roomflow.sol\":8114:8124  bookingsOf */\n      0x07\n        /* \"AndroidStudioProjects/roomflow/contracts/Roomflow.sol\":8114:8128  bookingsOf[id] */\n      0x20\n      mstore\n      0x40\n      swap1\n      keccak256\n        /* \"AndroidStudioProjects/roomflow/contracts/Roomflow.sol\":8114:8139  bookingsOf[id][bookingId] */\n      dup1\n      sload\n        /* \"AndroidStudioProjects/roomflow/contracts/Roomflow.sol\":8129:8138  bookingId */\n      dup3\n      swap1\n        /* \"AndroidStudioProjects/roomflow/contracts/Roomflow.sol\":8114:8139  bookingsOf[id][bookingId] */\n      dup2\n      lt\n      tag_219\n      jumpi\n      tag_219\n      tag_197\n      jump\t// in\n    tag_219:\n      0x00\n      swap2\n      dup3\n      mstore\n      0x20\n      swap1\n      swap2\n      keccak256\n      0x06\n      swap1\n      swap2\n      mul\n      add\n        /* \"AndroidStudioProjects/roomflow/contracts/Roomflow.sol\":8114:8146  bookingsOf[id][bookingId].tenant */\n      0x01\n      add\n      sload\n      sub(shl(0xa0, 0x01), 0x01)\n      and\n        /* \"AndroidStudioProjects/roomflow/contracts/Roomflow.sol\":8100:8110  msg.sender */\n      caller\n        /* \"AndroidStudioProjects/roomflow/contracts/Roomflow.sol\":8100:8146  msg.sender == bookingsOf[id][bookingId].tenant */\n      eq\n        /* \"AndroidStudioProjects/roomflow/contracts/Roomflow.sol\":8074:8201  require(... */\n      tag_221\n      jumpi\n      mload(0x40)\n      shl(0xe5, 0x461bcd)\n      dup2\n      mstore\n        /* \"#utility.yul\":16469:16471   */\n      0x20\n        /* \"AndroidStudioProjects/roomflow/contracts/Roomflow.sol\":8074:8201  require(... */\n      0x04\n      dup3\n      add\n        /* \"#utility.yul\":16451:16472   */\n      mstore\n        /* \"#utility.yul\":16508:16510   */\n      0x13\n        /* \"#utility.yul\":16488:16506   */\n      0x24\n      dup3\n      add\n        /* \"#utility.yul\":16481:16511   */\n      mstore\n      shl(0x6a, 0x155b985d5d1a1bdc9a5e9959081d195b985b9d)\n        /* \"#utility.yul\":16527:16545   */\n      0x44\n      dup3\n      add\n        /* \"#utility.yul\":16520:16569   */\n      mstore\n        /* \"#utility.yul\":16586:16604   */\n      0x64\n      add\n        /* \"AndroidStudioProjects/roomflow/contracts/Roomflow.sol\":8074:8201  require(... */\n      tag_193\n        /* \"#utility.yul\":16267:16610   */\n      jump\n        /* \"AndroidStudioProjects/roomflow/contracts/Roomflow.sol\":8074:8201  require(... */\n    tag_221:\n        /* \"AndroidStudioProjects/roomflow/contracts/Roomflow.sol\":8243:8257  bookingsOf[id] */\n      0x00\n      dup3\n      dup2\n      mstore\n        /* \"AndroidStudioProjects/roomflow/contracts/Roomflow.sol\":8243:8253  bookingsOf */\n      0x07\n        /* \"AndroidStudioProjects/roomflow/contracts/Roomflow.sol\":8243:8257  bookingsOf[id] */\n      0x20\n      mstore\n      0x40\n      swap1\n      keccak256\n        /* \"AndroidStudioProjects/roomflow/contracts/Roomflow.sol\":8243:8268  bookingsOf[id][bookingId] */\n      dup1\n      sload\n        /* \"AndroidStudioProjects/roomflow/contracts/Roomflow.sol\":8258:8267  bookingId */\n      dup3\n      swap1\n        /* \"AndroidStudioProjects/roomflow/contracts/Roomflow.sol\":8243:8268  bookingsOf[id][bookingId] */\n      dup2\n      lt\n      tag_225\n      jumpi\n      tag_225\n      tag_197\n      jump\t// in\n    tag_225:\n      0x00\n      swap2\n      dup3\n      mstore\n      0x20\n      swap1\n      swap2\n      keccak256\n        /* \"AndroidStudioProjects/roomflow/contracts/Roomflow.sol\":8243:8276  bookingsOf[id][bookingId].checked */\n      0x05\n        /* \"AndroidStudioProjects/roomflow/contracts/Roomflow.sol\":8243:8268  bookingsOf[id][bookingId] */\n      0x06\n      swap1\n      swap3\n      mul\n      add\n        /* \"AndroidStudioProjects/roomflow/contracts/Roomflow.sol\":8243:8276  bookingsOf[id][bookingId].checked */\n      add\n      sload\n      0xff\n      and\n        /* \"AndroidStudioProjects/roomflow/contracts/Roomflow.sol\":8242:8276  !bookingsOf[id][bookingId].checked */\n      iszero\n        /* \"AndroidStudioProjects/roomflow/contracts/Roomflow.sol\":8216:8350  require(... */\n      tag_227\n      jumpi\n      mload(0x40)\n      shl(0xe5, 0x461bcd)\n      dup2\n      mstore\n      0x04\n      add\n      tag_193\n      swap1\n      tag_201\n      jump\t// in\n    tag_227:\n        /* \"AndroidStudioProjects/roomflow/contracts/Roomflow.sol\":8367:8381  bookingsOf[id] */\n      0x00\n      dup3\n      dup2\n      mstore\n        /* \"AndroidStudioProjects/roomflow/contracts/Roomflow.sol\":8367:8377  bookingsOf */\n      0x07\n        /* \"AndroidStudioProjects/roomflow/contracts/Roomflow.sol\":8367:8381  bookingsOf[id] */\n      0x20\n      mstore\n      0x40\n      swap1\n      keccak256\n        /* \"AndroidStudioProjects/roomflow/contracts/Roomflow.sol\":8367:8392  bookingsOf[id][bookingId] */\n      dup1\n      sload\n        /* \"AndroidStudioProjects/roomflow/contracts/Roomflow.sol\":8403:8407  true */\n      0x01\n      swap2\n        /* \"AndroidStudioProjects/roomflow/contracts/Roomflow.sol\":8367:8381  bookingsOf[id] */\n      swap1\n        /* \"AndroidStudioProjects/roomflow/contracts/Roomflow.sol\":8382:8391  bookingId */\n      dup4\n      swap1\n        /* \"AndroidStudioProjects/roomflow/contracts/Roomflow.sol\":8367:8392  bookingsOf[id][bookingId] */\n      dup2\n      lt\n      tag_230\n      jumpi\n      tag_230\n      tag_197\n      jump\t// in\n    tag_230:\n      0x00\n      swap2\n      dup3\n      mstore\n      0x20\n      dup1\n      dup4\n      keccak256\n      0x06\n      swap3\n      swap1\n      swap3\n      mul\n      swap1\n      swap2\n      add\n        /* \"AndroidStudioProjects/roomflow/contracts/Roomflow.sol\":8367:8400  bookingsOf[id][bookingId].checked */\n      0x05\n      add\n        /* \"AndroidStudioProjects/roomflow/contracts/Roomflow.sol\":8367:8407  bookingsOf[id][bookingId].checked = true */\n      dup1\n      sload\n      not(0xff)\n      and\n      swap4\n      iszero\n      iszero\n      swap4\n      swap1\n      swap4\n      or\n      swap1\n      swap3\n      sstore\n        /* \"AndroidStudioProjects/roomflow/contracts/Roomflow.sol\":8435:8449  bookingsOf[id] */\n      dup4\n      dup2\n      mstore\n        /* \"AndroidStudioProjects/roomflow/contracts/Roomflow.sol\":8435:8445  bookingsOf */\n      0x07\n        /* \"AndroidStudioProjects/roomflow/contracts/Roomflow.sol\":8435:8449  bookingsOf[id] */\n      swap1\n      swap2\n      mstore\n      0x40\n      dup2\n      keccak256\n        /* \"AndroidStudioProjects/roomflow/contracts/Roomflow.sol\":8435:8460  bookingsOf[id][bookingId] */\n      dup1\n      sload\n        /* \"AndroidStudioProjects/roomflow/contracts/Roomflow.sol\":8450:8459  bookingId */\n      dup4\n      swap1\n        /* \"AndroidStudioProjects/roomflow/contracts/Roomflow.sol\":8435:8460  bookingsOf[id][bookingId] */\n      dup2\n      lt\n      tag_233\n      jumpi\n      tag_233\n      tag_197\n      jump\t// in\n    tag_233:\n      swap1\n      0x00\n      mstore\n      keccak256(0x00, 0x20)\n      swap1\n      0x06\n      mul\n      add\n        /* \"AndroidStudioProjects/roomflow/contracts/Roomflow.sol\":8435:8471  bookingsOf[id][bookingId].totalPrice */\n      0x04\n      add\n      sload\n        /* \"AndroidStudioProjects/roomflow/contracts/Roomflow.sol\":8422:8471  uint price = bookingsOf[id][bookingId].totalPrice */\n      swap1\n      pop\n        /* \"AndroidStudioProjects/roomflow/contracts/Roomflow.sol\":8486:8494  uint fee */\n      0x00\n        /* \"AndroidStudioProjects/roomflow/contracts/Roomflow.sol\":8520:8523  100 */\n      0x64\n        /* \"AndroidStudioProjects/roomflow/contracts/Roomflow.sol\":8506:8516  taxPercent */\n      sload(0x05)\n        /* \"AndroidStudioProjects/roomflow/contracts/Roomflow.sol\":8498:8503  price */\n      dup4\n        /* \"AndroidStudioProjects/roomflow/contracts/Roomflow.sol\":8498:8516  price * taxPercent */\n      tag_235\n      swap2\n      swap1\n      tag_206\n      jump\t// in\n    tag_235:\n        /* \"AndroidStudioProjects/roomflow/contracts/Roomflow.sol\":8497:8523  (price * taxPercent) / 100 */\n      tag_236\n      swap2\n      swap1\n      tag_208\n      jump\t// in\n    tag_236:\n        /* \"AndroidStudioProjects/roomflow/contracts/Roomflow.sol\":8550:8560  msg.sender */\n      caller\n        /* \"AndroidStudioProjects/roomflow/contracts/Roomflow.sol\":8540:8561  hasBooked[msg.sender] */\n      0x00\n      swap1\n      dup2\n      mstore\n        /* \"AndroidStudioProjects/roomflow/contracts/Roomflow.sol\":8540:8549  hasBooked */\n      0x0c\n        /* \"AndroidStudioProjects/roomflow/contracts/Roomflow.sol\":8540:8561  hasBooked[msg.sender] */\n      0x20\n      swap1\n      dup2\n      mstore\n      0x40\n      dup1\n      dup4\n      keccak256\n        /* \"AndroidStudioProjects/roomflow/contracts/Roomflow.sol\":8540:8565  hasBooked[msg.sender][id] */\n      dup9\n      dup5\n      mstore\n      dup3\n      mstore\n      dup1\n      dup4\n      keccak256\n        /* \"AndroidStudioProjects/roomflow/contracts/Roomflow.sol\":8540:8572  hasBooked[msg.sender][id] = true */\n      dup1\n      sload\n      not(0xff)\n      and\n        /* \"AndroidStudioProjects/roomflow/contracts/Roomflow.sol\":8568:8572  true */\n      0x01\n        /* \"AndroidStudioProjects/roomflow/contracts/Roomflow.sol\":8540:8572  hasBooked[msg.sender][id] = true */\n      or\n      swap1\n      sstore\n        /* \"AndroidStudioProjects/roomflow/contracts/Roomflow.sol\":8595:8601  spaces */\n      0x06\n        /* \"AndroidStudioProjects/roomflow/contracts/Roomflow.sol\":8595:8605  spaces[id] */\n      swap1\n      swap2\n      mstore\n      swap1\n      keccak256\n        /* \"AndroidStudioProjects/roomflow/contracts/Roomflow.sol\":8595:8611  spaces[id].owner */\n      0x07\n      add\n      sload\n        /* \"AndroidStudioProjects/roomflow/contracts/Roomflow.sol\":8486:8523  uint fee = (price * taxPercent) / 100 */\n      swap1\n      swap2\n      pop\n        /* \"AndroidStudioProjects/roomflow/contracts/Roomflow.sol\":8589:8627  payTo(spaces[id].owner, (price - fee)) */\n      tag_237\n      swap1\n      sub(shl(0xa0, 0x01), 0x01)\n        /* \"AndroidStudioProjects/roomflow/contracts/Roomflow.sol\":8595:8611  spaces[id].owner */\n      and\n        /* \"AndroidStudioProjects/roomflow/contracts/Roomflow.sol\":8614:8625  price - fee */\n      tag_210\n        /* \"AndroidStudioProjects/roomflow/contracts/Roomflow.sol\":8486:8523  uint fee = (price * taxPercent) / 100 */\n      dup4\n        /* \"AndroidStudioProjects/roomflow/contracts/Roomflow.sol\":8614:8619  price */\n      dup6\n        /* \"AndroidStudioProjects/roomflow/contracts/Roomflow.sol\":8614:8625  price - fee */\n      tag_211\n      jump\t// in\n        /* \"AndroidStudioProjects/roomflow/contracts/Roomflow.sol\":8589:8627  payTo(spaces[id].owner, (price - fee)) */\n    tag_237:\n        /* \"AndroidStudioProjects/roomflow/contracts/Roomflow.sol\":8642:8661  payTo(owner(), fee) */\n      tag_239\n        /* \"AndroidStudioProjects/roomflow/contracts/Roomflow.sol\":8648:8655  owner() */\n      tag_214\n        /* \"@openzeppelin/contracts/access/Ownable.sol\":1247:1254  address */\n      0x00\n        /* \"@openzeppelin/contracts/access/Ownable.sol\":1273:1279  _owner */\n      sload\n      sub(shl(0xa0, 0x01), 0x01)\n      and\n      swap1\n        /* \"@openzeppelin/contracts/access/Ownable.sol\":1201:1286  function owner() public view virtual returns (address) {... */\n      jump\n        /* \"AndroidStudioProjects/roomflow/contracts/Roomflow.sol\":8642:8661  payTo(owner(), fee) */\n    tag_239:\n        /* \"AndroidStudioProjects/roomflow/contracts/Roomflow.sol\":8676:8706  payTo(msg.sender, securityFee) */\n      tag_241\n        /* \"AndroidStudioProjects/roomflow/contracts/Roomflow.sol\":8682:8692  msg.sender */\n      caller\n        /* \"AndroidStudioProjects/roomflow/contracts/Roomflow.sol\":8694:8705  securityFee */\n      sload(0x04)\n        /* \"AndroidStudioProjects/roomflow/contracts/Roomflow.sol\":8676:8681  payTo */\n      tag_212\n        /* \"AndroidStudioProjects/roomflow/contracts/Roomflow.sol\":8676:8706  payTo(msg.sender, securityFee) */\n      jump\t// in\n    tag_241:\n        /* \"AndroidStudioProjects/roomflow/contracts/Roomflow.sol\":8726:8767  SpaceCheckedIn(id, msg.sender, bookingId) */\n      mload(0x40)\n        /* \"#utility.yul\":8952:8977   */\n      dup4\n      dup2\n      mstore\n        /* \"AndroidStudioProjects/roomflow/contracts/Roomflow.sol\":8745:8755  msg.sender */\n      caller\n      swap1\n        /* \"AndroidStudioProjects/roomflow/contracts/Roomflow.sol\":8741:8743  id */\n      dup6\n      swap1\n        /* \"AndroidStudioProjects/roomflow/contracts/Roomflow.sol\":8726:8767  SpaceCheckedIn(id, msg.sender, bookingId) */\n      0x30b418308672466269a424268a426a1214029673211e536dfb7565397433cc91\n      swap1\n        /* \"#utility.yul\":8940:8942   */\n      0x20\n        /* \"#utility.yul\":8925:8943   */\n      add\n        /* \"AndroidStudioProjects/roomflow/contracts/Roomflow.sol\":8726:8767  SpaceCheckedIn(id, msg.sender, bookingId) */\n      tag_216\n        /* \"#utility.yul\":8806:8983   */\n      jump\n        /* \"AndroidStudioProjects/roomflow/contracts/Roomflow.sol\":5785:6403  function getSpaces() public view returns (SpaceListing[] memory) {... */\n    tag_50:\n        /* \"AndroidStudioProjects/roomflow/contracts/Roomflow.sol\":5827:5848  SpaceListing[] memory */\n      0x60\n        /* \"AndroidStudioProjects/roomflow/contracts/Roomflow.sol\":5865:5883  uint256 totalSpace */\n      0x00\n        /* \"AndroidStudioProjects/roomflow/contracts/Roomflow.sol\":5912:5913  1 */\n      0x01\n        /* \"AndroidStudioProjects/roomflow/contracts/Roomflow.sol\":5898:6020  for (uint i = 1; i <= _totalSpaces.current(); i++) {... */\n    tag_244:\n        /* \"AndroidStudioProjects/roomflow/contracts/Roomflow.sol\":5920:5932  _totalSpaces */\n      0x02\n        /* \"@openzeppelin/contracts/utils/Counters.sol\":918:932  counter._value */\n      sload\n        /* \"AndroidStudioProjects/roomflow/contracts/Roomflow.sol\":5915:5916  i */\n      dup2\n        /* \"AndroidStudioProjects/roomflow/contracts/Roomflow.sol\":5915:5942  i <= _totalSpaces.current() */\n      gt\n        /* \"AndroidStudioProjects/roomflow/contracts/Roomflow.sol\":5898:6020  for (uint i = 1; i <= _totalSpaces.current(); i++) {... */\n      tag_245\n      jumpi\n        /* \"AndroidStudioProjects/roomflow/contracts/Roomflow.sol\":5973:5982  spaces[i] */\n      0x00\n      dup2\n      dup2\n      mstore\n        /* \"AndroidStudioProjects/roomflow/contracts/Roomflow.sol\":5973:5979  spaces */\n      0x06\n        /* \"AndroidStudioProjects/roomflow/contracts/Roomflow.sol\":5973:5982  spaces[i] */\n      0x20\n      mstore\n      0x40\n      swap1\n      keccak256\n        /* \"AndroidStudioProjects/roomflow/contracts/Roomflow.sol\":5973:5990  spaces[i].deleted */\n      0x07\n      add\n      sload\n      shl(0xa8, 0x01)\n      swap1\n      div\n      0xff\n      and\n        /* \"AndroidStudioProjects/roomflow/contracts/Roomflow.sol\":5968:6004  if (!spaces[i].deleted) totalSpace++ */\n      tag_249\n      jumpi\n        /* \"AndroidStudioProjects/roomflow/contracts/Roomflow.sol\":5992:6004  totalSpace++ */\n      dup2\n      tag_250\n      dup2\n      tag_251\n      jump\t// in\n    tag_250:\n      swap3\n      pop\n      pop\n        /* \"AndroidStudioProjects/roomflow/contracts/Roomflow.sol\":5968:6004  if (!spaces[i].deleted) totalSpace++ */\n    tag_249:\n        /* \"AndroidStudioProjects/roomflow/contracts/Roomflow.sol\":5944:5947  i++ */\n      dup1\n      tag_252\n      dup2\n      tag_251\n      jump\t// in\n    tag_252:\n      swap2\n      pop\n      pop\n        /* \"AndroidStudioProjects/roomflow/contracts/Roomflow.sol\":5898:6020  for (uint i = 1; i <= _totalSpaces.current(); i++) {... */\n      jump(tag_244)\n    tag_245:\n      pop\n        /* \"AndroidStudioProjects/roomflow/contracts/Roomflow.sol\":6036:6071  SpaceListing[] memory spaceListings */\n      0x00\n        /* \"AndroidStudioProjects/roomflow/contracts/Roomflow.sol\":6093:6103  totalSpace */\n      dup2\n        /* \"AndroidStudioProjects/roomflow/contracts/Roomflow.sol\":6074:6104  new SpaceListing[](totalSpace) */\n      0xffffffffffffffff\n      dup2\n      gt\n      iszero\n      tag_254\n      jumpi\n      tag_254\n      tag_255\n      jump\t// in\n    tag_254:\n      mload(0x40)\n      swap1\n      dup1\n      dup3\n      mstore\n      dup1\n      0x20\n      mul\n      0x20\n      add\n      dup3\n      add\n      0x40\n      mstore\n      dup1\n      iszero\n      tag_256\n      jumpi\n      dup2\n      0x20\n      add\n    tag_257:\n      tag_258\n      tag_259\n      jump\t// in\n    tag_258:\n      dup2\n      mstore\n      0x20\n      add\n      swap1\n      0x01\n      swap1\n      sub\n      swap1\n      dup2\n      tag_257\n      jumpi\n      swap1\n      pop\n    tag_256:\n      pop\n        /* \"AndroidStudioProjects/roomflow/contracts/Roomflow.sol\":6036:6104  SpaceListing[] memory spaceListings = new SpaceListing[](totalSpace) */\n      swap1\n      pop\n        /* \"AndroidStudioProjects/roomflow/contracts/Roomflow.sol\":6121:6130  uint256 j */\n      0x00\n        /* \"AndroidStudioProjects/roomflow/contracts/Roomflow.sol\":6163:6164  1 */\n      0x01\n        /* \"AndroidStudioProjects/roomflow/contracts/Roomflow.sol\":6149:6355  for (uint i = 1; i <= _totalSpaces.current(); i++) {... */\n    tag_260:\n        /* \"AndroidStudioProjects/roomflow/contracts/Roomflow.sol\":6171:6183  _totalSpaces */\n      0x02\n        /* \"@openzeppelin/contracts/utils/Counters.sol\":918:932  counter._value */\n      sload\n        /* \"AndroidStudioProjects/roomflow/contracts/Roomflow.sol\":6166:6167  i */\n      dup2\n        /* \"AndroidStudioProjects/roomflow/contracts/Roomflow.sol\":6166:6193  i <= _totalSpaces.current() */\n      gt\n        /* \"AndroidStudioProjects/roomflow/contracts/Roomflow.sol\":6149:6355  for (uint i = 1; i <= _totalSpaces.current(); i++) {... */\n      tag_261\n      jumpi\n        /* \"AndroidStudioProjects/roomflow/contracts/Roomflow.sol\":6224:6233  spaces[i] */\n      0x00\n      dup2\n      dup2\n      mstore\n        /* \"AndroidStudioProjects/roomflow/contracts/Roomflow.sol\":6224:6230  spaces */\n      0x06\n        /* \"AndroidStudioProjects/roomflow/contracts/Roomflow.sol\":6224:6233  spaces[i] */\n      0x20\n      mstore\n      0x40\n      swap1\n      keccak256\n        /* \"AndroidStudioProjects/roomflow/contracts/Roomflow.sol\":6224:6241  spaces[i].deleted */\n      0x07\n      add\n      sload\n      shl(0xa8, 0x01)\n      swap1\n      div\n      0xff\n      and\n        /* \"AndroidStudioProjects/roomflow/contracts/Roomflow.sol\":6219:6340  if (!spaces[i].deleted) {... */\n      tag_264\n      jumpi\n        /* \"AndroidStudioProjects/roomflow/contracts/Roomflow.sol\":6285:6291  spaces */\n      0x06\n        /* \"AndroidStudioProjects/roomflow/contracts/Roomflow.sol\":6285:6294  spaces[i] */\n      0x00\n        /* \"AndroidStudioProjects/roomflow/contracts/Roomflow.sol\":6292:6293  i */\n      dup3\n        /* \"AndroidStudioProjects/roomflow/contracts/Roomflow.sol\":6285:6294  spaces[i] */\n      dup2\n      mstore\n      0x20\n      add\n      swap1\n      dup2\n      mstore\n      0x20\n      add\n      0x00\n      keccak256\n        /* \"AndroidStudioProjects/roomflow/contracts/Roomflow.sol\":6266:6294  spaceListings[j] = spaces[i] */\n      mload(0x40)\n      dup1\n      0x0180\n      add\n      0x40\n      mstore\n      swap1\n      dup2\n      0x00\n      dup3\n      add\n      sload\n      dup2\n      mstore\n      0x20\n      add\n      0x01\n      dup3\n      add\n      dup1\n      sload\n      tag_265\n      swap1\n      tag_266\n      jump\t// in\n    tag_265:\n      dup1\n      0x1f\n      add\n      0x20\n      dup1\n      swap2\n      div\n      mul\n      0x20\n      add\n      mload(0x40)\n      swap1\n      dup2\n      add\n      0x40\n      mstore\n      dup1\n      swap3\n      swap2\n      swap1\n      dup2\n      dup2\n      mstore\n      0x20\n      add\n      dup3\n      dup1\n      sload\n      tag_267\n      swap1\n      tag_266\n      jump\t// in\n    tag_267:\n      dup1\n      iszero\n      tag_268\n      jumpi\n      dup1\n      0x1f\n      lt\n      tag_269\n      jumpi\n      0x0100\n      dup1\n      dup4\n      sload\n      div\n      mul\n      dup4\n      mstore\n      swap2\n      0x20\n      add\n      swap2\n      jump(tag_268)\n    tag_269:\n      dup3\n      add\n      swap2\n      swap1\n      0x00\n      mstore\n      keccak256(0x00, 0x20)\n      swap1\n    tag_270:\n      dup2\n      sload\n      dup2\n      mstore\n      swap1\n      0x01\n      add\n      swap1\n      0x20\n      add\n      dup1\n      dup4\n      gt\n      tag_270\n      jumpi\n      dup3\n      swap1\n      sub\n      0x1f\n      and\n      dup3\n      add\n      swap2\n    tag_268:\n      pop\n      pop\n      pop\n      pop\n      pop\n      dup2\n      mstore\n      0x20\n      add\n      0x02\n      dup3\n      add\n      dup1\n      sload\n      tag_271\n      swap1\n      tag_266\n      jump\t// in\n    tag_271:\n      dup1\n      0x1f\n      add\n      0x20\n      dup1\n      swap2\n      div\n      mul\n      0x20\n      add\n      mload(0x40)\n      swap1\n      dup2\n      add\n      0x40\n      mstore\n      dup1\n      swap3\n      swap2\n      swap1\n      dup2\n      dup2\n      mstore\n      0x20\n      add\n      dup3\n      dup1\n      sload\n      tag_272\n      swap1\n      tag_266\n      jump\t// in\n    tag_272:\n      dup1\n      iszero\n      tag_273\n      jumpi\n      dup1\n      0x1f\n      lt\n      tag_274\n      jumpi\n      0x0100\n      dup1\n      dup4\n      sload\n      div\n      mul\n      dup4\n      mstore\n      swap2\n      0x20\n      add\n      swap2\n      jump(tag_273)\n    tag_274:\n      dup3\n      add\n      swap2\n      swap1\n      0x00\n      mstore\n      keccak256(0x00, 0x20)\n      swap1\n    tag_275:\n      dup2\n      sload\n      dup2\n      mstore\n      swap1\n      0x01\n      add\n      swap1\n      0x20\n      add\n      dup1\n      dup4\n      gt\n      tag_275\n      jumpi\n      dup3\n      swap1\n      sub\n      0x1f\n      and\n      dup3\n      add\n      swap2\n    tag_273:\n      pop\n      pop\n      pop\n      pop\n      pop\n      dup2\n      mstore\n      0x20\n      add\n      0x03\n      dup3\n      add\n      dup1\n      sload\n      tag_276\n      swap1\n      tag_266\n      jump\t// in\n    tag_276:\n      dup1\n      0x1f\n      add\n      0x20\n      dup1\n      swap2\n      div\n      mul\n      0x20\n      add\n      mload(0x40)\n      swap1\n      dup2\n      add\n      0x40\n      mstore\n      dup1\n      swap3\n      swap2\n      swap1\n      dup2\n      dup2\n      mstore\n      0x20\n      add\n      dup3\n      dup1\n      sload\n      tag_277\n      swap1\n      tag_266\n      jump\t// in\n    tag_277:\n      dup1\n      iszero\n      tag_278\n      jumpi\n      dup1\n      0x1f\n      lt\n      tag_279\n      jumpi\n      0x0100\n      dup1\n      dup4\n      sload\n      div\n      mul\n      dup4\n      mstore\n      swap2\n      0x20\n      add\n      swap2\n      jump(tag_278)\n    tag_279:\n      dup3\n      add\n      swap2\n      swap1\n      0x00\n      mstore\n      keccak256(0x00, 0x20)\n      swap1\n    tag_280:\n      dup2\n      sload\n      dup2\n      mstore\n      swap1\n      0x01\n      add\n      swap1\n      0x20\n      add\n      dup1\n      dup4\n      gt\n      tag_280\n      jumpi\n      dup3\n      swap1\n      sub\n      0x1f\n      and\n      dup3\n      add\n      swap2\n    tag_278:\n      pop\n      pop\n      pop\n      pop\n      pop\n      dup2\n      mstore\n      0x20\n      add\n      0x04\n      dup3\n      add\n      dup1\n      sload\n      tag_281\n      swap1\n      tag_266\n      jump\t// in\n    tag_281:\n      dup1\n      0x1f\n      add\n      0x20\n      dup1\n      swap2\n      div\n      mul\n      0x20\n      add\n      mload(0x40)\n      swap1\n      dup2\n      add\n      0x40\n      mstore\n      dup1\n      swap3\n      swap2\n      swap1\n      dup2\n      dup2\n      mstore\n      0x20\n      add\n      dup3\n      dup1\n      sload\n      tag_282\n      swap1\n      tag_266\n      jump\t// in\n    tag_282:\n      dup1\n      iszero\n      tag_283\n      jumpi\n      dup1\n      0x1f\n      lt\n      tag_284\n      jumpi\n      0x0100\n      dup1\n      dup4\n      sload\n      div\n      mul\n      dup4\n      mstore\n      swap2\n      0x20\n      add\n      swap2\n      jump(tag_283)\n    tag_284:\n      dup3\n      add\n      swap2\n      swap1\n      0x00\n      mstore\n      keccak256(0x00, 0x20)\n      swap1\n    tag_285:\n      dup2\n      sload\n      dup2\n      mstore\n      swap1\n      0x01\n      add\n      swap1\n      0x20\n      add\n      dup1\n      dup4\n      gt\n      tag_285\n      jumpi\n      dup3\n      swap1\n      sub\n      0x1f\n      and\n      dup3\n      add\n      swap2\n    tag_283:\n      pop\n      pop\n      pop\n      swap2\n      dup4\n      mstore\n      pop\n      pop\n      0x05\n      dup3\n      add\n      sload\n      0x20\n      dup3\n      add\n      mstore\n      0x06\n      dup3\n      add\n      sload\n      0x40\n      dup3\n      add\n      mstore\n      0x07\n      dup3\n      add\n      sload\n      sub(shl(0xa0, 0x01), 0x01)\n      dup2\n      and\n      0x60\n      dup4\n      add\n      mstore\n      0xff\n      shl(0xa0, 0x01)\n      dup3\n      div\n      dup2\n      and\n      iszero\n      iszero\n      0x80\n      dup5\n      add\n      mstore\n      shl(0xa8, 0x01)\n      dup3\n      div\n      dup2\n      and\n      iszero\n      iszero\n      0xa0\n      dup5\n      add\n      mstore\n      shl(0xb0, 0x01)\n      swap1\n      swap2\n      div\n      and\n      iszero\n      iszero\n      0xc0\n      dup3\n      add\n      mstore\n      0x08\n      swap1\n      swap2\n      add\n      sload\n      0xe0\n      swap1\n      swap2\n      add\n      mstore\n        /* \"AndroidStudioProjects/roomflow/contracts/Roomflow.sol\":6266:6282  spaceListings[j] */\n      dup4\n      mload\n        /* \"AndroidStudioProjects/roomflow/contracts/Roomflow.sol\":6266:6279  spaceListings */\n      dup5\n      swap1\n        /* \"AndroidStudioProjects/roomflow/contracts/Roomflow.sol\":6280:6281  j */\n      dup5\n      swap1\n        /* \"AndroidStudioProjects/roomflow/contracts/Roomflow.sol\":6266:6282  spaceListings[j] */\n      dup2\n      lt\n      tag_287\n      jumpi\n      tag_287\n      tag_197\n      jump\t// in\n    tag_287:\n      0x20\n      mul\n      0x20\n      add\n      add\n        /* \"AndroidStudioProjects/roomflow/contracts/Roomflow.sol\":6266:6294  spaceListings[j] = spaces[i] */\n      dup2\n      swap1\n      mstore\n      pop\n        /* \"AndroidStudioProjects/roomflow/contracts/Roomflow.sol\":6317:6320  j++ */\n      dup2\n      dup1\n      tag_288\n      swap1\n      tag_251\n      jump\t// in\n    tag_288:\n      swap3\n      pop\n      pop\n        /* \"AndroidStudioProjects/roomflow/contracts/Roomflow.sol\":6219:6340  if (!spaces[i].deleted) {... */\n    tag_264:\n        /* \"AndroidStudioProjects/roomflow/contracts/Roomflow.sol\":6195:6198  i++ */\n      dup1\n      tag_289\n      dup2\n      tag_251\n      jump\t// in\n    tag_289:\n      swap2\n      pop\n      pop\n        /* \"AndroidStudioProjects/roomflow/contracts/Roomflow.sol\":6149:6355  for (uint i = 1; i <= _totalSpaces.current(); i++) {... */\n      jump(tag_260)\n    tag_261:\n      pop\n        /* \"AndroidStudioProjects/roomflow/contracts/Roomflow.sol\":6378:6391  spaceListings */\n      swap1\n      swap4\n        /* \"AndroidStudioProjects/roomflow/contracts/Roomflow.sol\":5785:6403  function getSpaces() public view returns (SpaceListing[] memory) {... */\n      swap3\n      pop\n      pop\n      pop\n      jump\t// out\n        /* \"AndroidStudioProjects/roomflow/contracts/Roomflow.sol\":2889:4176  function createSpace(... */\n    tag_63:\n        /* \"AndroidStudioProjects/roomflow/contracts/Roomflow.sol\":3169:3170  0 */\n      0x00\n        /* \"AndroidStudioProjects/roomflow/contracts/Roomflow.sol\":3153:3158  title */\n      dup7\n        /* \"AndroidStudioProjects/roomflow/contracts/Roomflow.sol\":3147:3166  bytes(title).length */\n      mload\n        /* \"AndroidStudioProjects/roomflow/contracts/Roomflow.sol\":3147:3170  bytes(title).length > 0 */\n      gt\n        /* \"AndroidStudioProjects/roomflow/contracts/Roomflow.sol\":3139:3196  require(bytes(title).length > 0, \"title cannot be empty\") */\n      tag_291\n      jumpi\n      mload(0x40)\n      shl(0xe5, 0x461bcd)\n      dup2\n      mstore\n      0x04\n      add\n      tag_193\n      swap1\n      tag_293\n      jump\t// in\n    tag_291:\n        /* \"AndroidStudioProjects/roomflow/contracts/Roomflow.sol\":3244:3245  0 */\n      0x00\n        /* \"AndroidStudioProjects/roomflow/contracts/Roomflow.sol\":3225:3233  subtitle */\n      dup6\n        /* \"AndroidStudioProjects/roomflow/contracts/Roomflow.sol\":3219:3241  bytes(subtitle).length */\n      mload\n        /* \"AndroidStudioProjects/roomflow/contracts/Roomflow.sol\":3219:3245  bytes(subtitle).length > 0 */\n      gt\n        /* \"AndroidStudioProjects/roomflow/contracts/Roomflow.sol\":3211:3271  require(bytes(subtitle).length > 0, \"title cannot be empty\") */\n      tag_294\n      jumpi\n      mload(0x40)\n      shl(0xe5, 0x461bcd)\n      dup2\n      mstore\n      0x04\n      add\n      tag_193\n      swap1\n      tag_293\n      jump\t// in\n    tag_294:\n        /* \"AndroidStudioProjects/roomflow/contracts/Roomflow.sol\":3322:3323  0 */\n      0x00\n        /* \"AndroidStudioProjects/roomflow/contracts/Roomflow.sol\":3300:3311  description */\n      dup5\n        /* \"AndroidStudioProjects/roomflow/contracts/Roomflow.sol\":3294:3319  bytes(description).length */\n      mload\n        /* \"AndroidStudioProjects/roomflow/contracts/Roomflow.sol\":3294:3323  bytes(description).length > 0 */\n      gt\n        /* \"AndroidStudioProjects/roomflow/contracts/Roomflow.sol\":3286:3355  require(bytes(description).length > 0, \"Description cannot be empty\") */\n      tag_296\n      jumpi\n      mload(0x40)\n      shl(0xe5, 0x461bcd)\n      dup2\n      mstore\n        /* \"#utility.yul\":17692:17694   */\n      0x20\n        /* \"AndroidStudioProjects/roomflow/contracts/Roomflow.sol\":3286:3355  require(bytes(description).length > 0, \"Description cannot be empty\") */\n      0x04\n      dup3\n      add\n        /* \"#utility.yul\":17674:17695   */\n      mstore\n        /* \"#utility.yul\":17731:17733   */\n      0x1b\n        /* \"#utility.yul\":17711:17729   */\n      0x24\n      dup3\n      add\n        /* \"#utility.yul\":17704:17734   */\n      mstore\n        /* \"#utility.yul\":17770:17799   */\n      0x4465736372697074696f6e2063616e6e6f7420626520656d7074790000000000\n        /* \"#utility.yul\":17750:17768   */\n      0x44\n      dup3\n      add\n        /* \"#utility.yul\":17743:17800   */\n      mstore\n        /* \"#utility.yul\":17817:17835   */\n      0x64\n      add\n        /* \"AndroidStudioProjects/roomflow/contracts/Roomflow.sol\":3286:3355  require(bytes(description).length > 0, \"Description cannot be empty\") */\n      tag_193\n        /* \"#utility.yul\":17490:17841   */\n      jump\n        /* \"AndroidStudioProjects/roomflow/contracts/Roomflow.sol\":3286:3355  require(bytes(description).length > 0, \"Description cannot be empty\") */\n    tag_296:\n        /* \"AndroidStudioProjects/roomflow/contracts/Roomflow.sol\":3401:3402  0 */\n      0x00\n        /* \"AndroidStudioProjects/roomflow/contracts/Roomflow.sol\":3384:3390  images */\n      dup4\n        /* \"AndroidStudioProjects/roomflow/contracts/Roomflow.sol\":3378:3398  bytes(images).length */\n      mload\n        /* \"AndroidStudioProjects/roomflow/contracts/Roomflow.sol\":3378:3402  bytes(images).length > 0 */\n      gt\n        /* \"AndroidStudioProjects/roomflow/contracts/Roomflow.sol\":3370:3429  require(bytes(images).length > 0, \"Images cannot be empty\") */\n      tag_299\n      jumpi\n      mload(0x40)\n      shl(0xe5, 0x461bcd)\n      dup2\n      mstore\n        /* \"#utility.yul\":18048:18050   */\n      0x20\n        /* \"AndroidStudioProjects/roomflow/contracts/Roomflow.sol\":3370:3429  require(bytes(images).length > 0, \"Images cannot be empty\") */\n      0x04\n      dup3\n      add\n        /* \"#utility.yul\":18030:18051   */\n      mstore\n        /* \"#utility.yul\":18087:18089   */\n      0x16\n        /* \"#utility.yul\":18067:18085   */\n      0x24\n      dup3\n      add\n        /* \"#utility.yul\":18060:18090   */\n      mstore\n      shl(0x50, 0x496d616765732063616e6e6f7420626520656d707479)\n        /* \"#utility.yul\":18106:18124   */\n      0x44\n      dup3\n      add\n        /* \"#utility.yul\":18099:18151   */\n      mstore\n        /* \"#utility.yul\":18168:18186   */\n      0x64\n      add\n        /* \"AndroidStudioProjects/roomflow/contracts/Roomflow.sol\":3370:3429  require(bytes(images).length > 0, \"Images cannot be empty\") */\n      tag_193\n        /* \"#utility.yul\":17846:18192   */\n      jump\n        /* \"AndroidStudioProjects/roomflow/contracts/Roomflow.sol\":3370:3429  require(bytes(images).length > 0, \"Images cannot be empty\") */\n    tag_299:\n        /* \"AndroidStudioProjects/roomflow/contracts/Roomflow.sol\":3460:3461  0 */\n      0x00\n        /* \"AndroidStudioProjects/roomflow/contracts/Roomflow.sol\":3452:3457  rooms */\n      dup3\n        /* \"AndroidStudioProjects/roomflow/contracts/Roomflow.sol\":3452:3461  rooms > 0 */\n      gt\n        /* \"AndroidStudioProjects/roomflow/contracts/Roomflow.sol\":3444:3486  require(rooms > 0, \"Rooms cannot be zero\") */\n      tag_302\n      jumpi\n      mload(0x40)\n      shl(0xe5, 0x461bcd)\n      dup2\n      mstore\n        /* \"#utility.yul\":18399:18401   */\n      0x20\n        /* \"AndroidStudioProjects/roomflow/contracts/Roomflow.sol\":3444:3486  require(rooms > 0, \"Rooms cannot be zero\") */\n      0x04\n      dup3\n      add\n        /* \"#utility.yul\":18381:18402   */\n      mstore\n        /* \"#utility.yul\":18438:18440   */\n      0x14\n        /* \"#utility.yul\":18418:18436   */\n      0x24\n      dup3\n      add\n        /* \"#utility.yul\":18411:18441   */\n      mstore\n      shl(0x60, 0x526f6f6d732063616e6e6f74206265207a65726f)\n        /* \"#utility.yul\":18457:18475   */\n      0x44\n      dup3\n      add\n        /* \"#utility.yul\":18450:18500   */\n      mstore\n        /* \"#utility.yul\":18517:18535   */\n      0x64\n      add\n        /* \"AndroidStudioProjects/roomflow/contracts/Roomflow.sol\":3444:3486  require(rooms > 0, \"Rooms cannot be zero\") */\n      tag_193\n        /* \"#utility.yul\":18197:18541   */\n      jump\n        /* \"AndroidStudioProjects/roomflow/contracts/Roomflow.sol\":3444:3486  require(rooms > 0, \"Rooms cannot be zero\") */\n    tag_302:\n        /* \"AndroidStudioProjects/roomflow/contracts/Roomflow.sol\":3517:3522  0 wei */\n      0x00\n        /* \"AndroidStudioProjects/roomflow/contracts/Roomflow.sol\":3509:3514  price */\n      dup2\n        /* \"AndroidStudioProjects/roomflow/contracts/Roomflow.sol\":3509:3522  price > 0 wei */\n      gt\n        /* \"AndroidStudioProjects/roomflow/contracts/Roomflow.sol\":3501:3547  require(price > 0 wei, \"Price cannot be zero\") */\n      tag_305\n      jumpi\n      mload(0x40)\n      shl(0xe5, 0x461bcd)\n      dup2\n      mstore\n        /* \"#utility.yul\":18748:18750   */\n      0x20\n        /* \"AndroidStudioProjects/roomflow/contracts/Roomflow.sol\":3501:3547  require(price > 0 wei, \"Price cannot be zero\") */\n      0x04\n      dup3\n      add\n        /* \"#utility.yul\":18730:18751   */\n      mstore\n        /* \"#utility.yul\":18787:18789   */\n      0x14\n        /* \"#utility.yul\":18767:18785   */\n      0x24\n      dup3\n      add\n        /* \"#utility.yul\":18760:18790   */\n      mstore\n      shl(0x60, 0x50726963652063616e6e6f74206265207a65726f)\n        /* \"#utility.yul\":18806:18824   */\n      0x44\n      dup3\n      add\n        /* \"#utility.yul\":18799:18849   */\n      mstore\n        /* \"#utility.yul\":18866:18884   */\n      0x64\n      add\n        /* \"AndroidStudioProjects/roomflow/contracts/Roomflow.sol\":3501:3547  require(price > 0 wei, \"Price cannot be zero\") */\n      tag_193\n        /* \"#utility.yul\":18546:18890   */\n      jump\n        /* \"AndroidStudioProjects/roomflow/contracts/Roomflow.sol\":3501:3547  require(price > 0 wei, \"Price cannot be zero\") */\n    tag_305:\n        /* \"AndroidStudioProjects/roomflow/contracts/Roomflow.sol\":3564:3588  _totalSpaces.increment() */\n      tag_308\n        /* \"AndroidStudioProjects/roomflow/contracts/Roomflow.sol\":3564:3576  _totalSpaces */\n      0x02\n        /* \"@openzeppelin/contracts/utils/Counters.sol\":1032:1051  counter._value += 1 */\n      dup1\n      sload\n        /* \"@openzeppelin/contracts/utils/Counters.sol\":1050:1051  1 */\n      0x01\n        /* \"@openzeppelin/contracts/utils/Counters.sol\":1032:1051  counter._value += 1 */\n      add\n      swap1\n      sstore\n        /* \"@openzeppelin/contracts/utils/Counters.sol\":945:1068  function increment(Counter storage counter) internal {... */\n      jump\n        /* \"AndroidStudioProjects/roomflow/contracts/Roomflow.sol\":3564:3588  _totalSpaces.increment() */\n    tag_308:\n        /* \"AndroidStudioProjects/roomflow/contracts/Roomflow.sol\":3603:3628  SpaceListing memory space */\n      tag_310\n      tag_259\n      jump\t// in\n    tag_310:\n        /* \"AndroidStudioProjects/roomflow/contracts/Roomflow.sol\":3654:3666  _totalSpaces */\n      0x02\n        /* \"@openzeppelin/contracts/utils/Counters.sol\":918:932  counter._value */\n      sload\n        /* \"AndroidStudioProjects/roomflow/contracts/Roomflow.sol\":3643:3676  space.id = _totalSpaces.current() */\n      dup1\n      dup3\n      mstore\n        /* \"AndroidStudioProjects/roomflow/contracts/Roomflow.sol\":3691:3702  space.title */\n      0x20\n      dup1\n      dup4\n      add\n        /* \"AndroidStudioProjects/roomflow/contracts/Roomflow.sol\":3691:3710  space.title = title */\n      dup10\n      dup2\n      mstore\n        /* \"AndroidStudioProjects/roomflow/contracts/Roomflow.sol\":3725:3739  space.subtitle */\n      0x40\n      dup1\n      dup6\n      add\n        /* \"AndroidStudioProjects/roomflow/contracts/Roomflow.sol\":3725:3750  space.subtitle = subtitle */\n      dup11\n      swap1\n      mstore\n        /* \"AndroidStudioProjects/roomflow/contracts/Roomflow.sol\":3765:3782  space.description */\n      0x60\n      dup6\n      add\n        /* \"AndroidStudioProjects/roomflow/contracts/Roomflow.sol\":3765:3796  space.description = description */\n      dup10\n      swap1\n      mstore\n        /* \"AndroidStudioProjects/roomflow/contracts/Roomflow.sol\":3811:3823  space.images */\n      0x80\n      dup6\n      add\n        /* \"AndroidStudioProjects/roomflow/contracts/Roomflow.sol\":3811:3832  space.images = images */\n      dup9\n      swap1\n      mstore\n        /* \"AndroidStudioProjects/roomflow/contracts/Roomflow.sol\":3847:3858  space.rooms */\n      0xa0\n      dup6\n      add\n        /* \"AndroidStudioProjects/roomflow/contracts/Roomflow.sol\":3847:3866  space.rooms = rooms */\n      dup8\n      swap1\n      mstore\n        /* \"AndroidStudioProjects/roomflow/contracts/Roomflow.sol\":3881:3892  space.price */\n      0xc0\n      dup6\n      add\n        /* \"AndroidStudioProjects/roomflow/contracts/Roomflow.sol\":3881:3900  space.price = price */\n      dup7\n      swap1\n      mstore\n        /* \"AndroidStudioProjects/roomflow/contracts/Roomflow.sol\":3929:3939  msg.sender */\n      caller\n        /* \"AndroidStudioProjects/roomflow/contracts/Roomflow.sol\":3915:3926  space.owner */\n      0xe0\n      dup7\n      add\n        /* \"AndroidStudioProjects/roomflow/contracts/Roomflow.sol\":3915:3939  space.owner = msg.sender */\n      mstore\n        /* \"AndroidStudioProjects/roomflow/contracts/Roomflow.sol\":3975:3979  true */\n      0x01\n        /* \"AndroidStudioProjects/roomflow/contracts/Roomflow.sol\":3954:3972  space.availability */\n      0x0140\n      dup7\n      add\n        /* \"AndroidStudioProjects/roomflow/contracts/Roomflow.sol\":3954:3979  space.availability = true */\n      dup2\n      swap1\n      mstore\n        /* \"AndroidStudioProjects/roomflow/contracts/Roomflow.sol\":4012:4027  block.timestamp */\n      timestamp\n        /* \"AndroidStudioProjects/roomflow/contracts/Roomflow.sol\":3994:4009  space.timestamp */\n      0x0160\n      dup8\n      add\n        /* \"AndroidStudioProjects/roomflow/contracts/Roomflow.sol\":3994:4027  space.timestamp = block.timestamp */\n      mstore\n        /* \"AndroidStudioProjects/roomflow/contracts/Roomflow.sol\":3643:3651  space.id */\n      0x00\n        /* \"AndroidStudioProjects/roomflow/contracts/Roomflow.sol\":4044:4065  spaceExists[space.id] */\n      swap5\n      dup6\n      mstore\n        /* \"AndroidStudioProjects/roomflow/contracts/Roomflow.sol\":4044:4055  spaceExists */\n      0x09\n        /* \"AndroidStudioProjects/roomflow/contracts/Roomflow.sol\":4044:4065  spaceExists[space.id] */\n      dup5\n      mstore\n      dup2\n      dup6\n      keccak256\n        /* \"AndroidStudioProjects/roomflow/contracts/Roomflow.sol\":4044:4072  spaceExists[space.id] = true */\n      dup1\n      sload\n      not(0xff)\n      and\n      dup3\n      or\n      swap1\n      sstore\n        /* \"AndroidStudioProjects/roomflow/contracts/Roomflow.sol\":4094:4102  space.id */\n      dup6\n      mload\n        /* \"AndroidStudioProjects/roomflow/contracts/Roomflow.sol\":4087:4103  spaces[space.id] */\n      dup6\n      mstore\n        /* \"AndroidStudioProjects/roomflow/contracts/Roomflow.sol\":4087:4093  spaces */\n      0x06\n        /* \"AndroidStudioProjects/roomflow/contracts/Roomflow.sol\":4087:4103  spaces[space.id] */\n      swap1\n      swap4\n      mstore\n      swap1\n      swap3\n      keccak256\n        /* \"AndroidStudioProjects/roomflow/contracts/Roomflow.sol\":4087:4111  spaces[space.id] = space */\n      dup4\n      mload\n      dup2\n      sstore\n      swap2\n      mload\n        /* \"AndroidStudioProjects/roomflow/contracts/Roomflow.sol\":3643:3648  space */\n      dup4\n      swap3\n        /* \"AndroidStudioProjects/roomflow/contracts/Roomflow.sol\":4087:4103  spaces[space.id] */\n      swap2\n        /* \"AndroidStudioProjects/roomflow/contracts/Roomflow.sol\":4087:4111  spaces[space.id] = space */\n      dup3\n      add\n      swap1\n      tag_312\n      swap1\n      dup3\n      tag_313\n      jump\t// in\n    tag_312:\n      pop\n      0x40\n      dup3\n      add\n      mload\n      0x02\n      dup3\n      add\n      swap1\n      tag_314\n      swap1\n      dup3\n      tag_313\n      jump\t// in\n    tag_314:\n      pop\n      0x60\n      dup3\n      add\n      mload\n      0x03\n      dup3\n      add\n      swap1\n      tag_315\n      swap1\n      dup3\n      tag_313\n      jump\t// in\n    tag_315:\n      pop\n      0x80\n      dup3\n      add\n      mload\n      0x04\n      dup3\n      add\n      swap1\n      tag_316\n      swap1\n      dup3\n      tag_313\n      jump\t// in\n    tag_316:\n      pop\n      0xa0\n      dup3\n      add\n      mload\n      0x05\n      dup3\n      add\n      sstore\n      0xc0\n      dup3\n      add\n      mload\n      0x06\n      dup3\n      add\n      sstore\n      0xe0\n      dup3\n      add\n      mload\n      0x07\n      dup3\n      add\n      dup1\n      sload\n      0x0100\n      dup6\n      add\n      mload\n      0x0120\n      dup7\n      add\n      mload\n      0x0140\n      dup8\n      add\n      mload\n      iszero\n      iszero\n      shl(0xb0, 0x01)\n      mul\n      not(shl(0xb0, 0xff))\n      swap2\n      iszero\n      iszero\n      shl(0xa8, 0x01)\n      mul\n      swap2\n      swap1\n      swap2\n      and\n      not(shl(0xa8, 0xffff))\n      swap3\n      iszero\n      iszero\n      shl(0xa0, 0x01)\n      mul\n      not(sub(shl(0xa8, 0x01), 0x01))\n      swap1\n      swap5\n      and\n      sub(shl(0xa0, 0x01), 0x01)\n      swap1\n      swap7\n      and\n      swap6\n      swap1\n      swap6\n      or\n      swap3\n      swap1\n      swap3\n      or\n      and\n      swap3\n      swap1\n      swap3\n      or\n      swap2\n      swap1\n      swap2\n      or\n      swap1\n      sstore\n      0x0160\n      swap1\n      swap2\n      add\n      mload\n      0x08\n      swap1\n      swap2\n      add\n      sstore\n        /* \"AndroidStudioProjects/roomflow/contracts/Roomflow.sol\":4143:4151  space.id */\n      dup1\n      mload\n        /* \"AndroidStudioProjects/roomflow/contracts/Roomflow.sol\":4131:4164  SpaceListed(space.id, msg.sender) */\n      mload(0x40)\n        /* \"AndroidStudioProjects/roomflow/contracts/Roomflow.sol\":4153:4163  msg.sender */\n      caller\n      swap2\n        /* \"AndroidStudioProjects/roomflow/contracts/Roomflow.sol\":4143:4151  space.id */\n      swap1\n        /* \"AndroidStudioProjects/roomflow/contracts/Roomflow.sol\":4131:4164  SpaceListed(space.id, msg.sender) */\n      0x868b71f2fccb02b35739f9bb13e51ce12a10ca4ceb16ecd8d3da9a416875edb6\n      swap1\n      0x00\n      swap1\n      log3\n        /* \"AndroidStudioProjects/roomflow/contracts/Roomflow.sol\":3124:4176  {... */\n      pop\n        /* \"AndroidStudioProjects/roomflow/contracts/Roomflow.sol\":2889:4176  function createSpace(... */\n      pop\n      pop\n      pop\n      pop\n      pop\n      pop\n      jump\t// out\n        /* \"AndroidStudioProjects/roomflow/contracts/Roomflow.sol\":11235:11413  function getBooking(... */\n    tag_67:\n        /* \"AndroidStudioProjects/roomflow/contracts/Roomflow.sol\":11338:11352  Booking memory */\n      tag_317\n      tag_318\n      jump\t// in\n    tag_317:\n        /* \"AndroidStudioProjects/roomflow/contracts/Roomflow.sol\":11376:11390  bookingsOf[id] */\n      0x00\n      dup4\n      dup2\n      mstore\n        /* \"AndroidStudioProjects/roomflow/contracts/Roomflow.sol\":11376:11386  bookingsOf */\n      0x07\n        /* \"AndroidStudioProjects/roomflow/contracts/Roomflow.sol\":11376:11390  bookingsOf[id] */\n      0x20\n      mstore\n      0x40\n      swap1\n      keccak256\n        /* \"AndroidStudioProjects/roomflow/contracts/Roomflow.sol\":11376:11401  bookingsOf[id][bookingId] */\n      dup1\n      sload\n        /* \"AndroidStudioProjects/roomflow/contracts/Roomflow.sol\":11391:11400  bookingId */\n      dup4\n      swap1\n        /* \"AndroidStudioProjects/roomflow/contracts/Roomflow.sol\":11376:11401  bookingsOf[id][bookingId] */\n      dup2\n      lt\n      tag_321\n      jumpi\n      tag_321\n      tag_197\n      jump\t// in\n    tag_321:\n      0x00\n      swap2\n      dup3\n      mstore\n      0x20\n      swap2\n      dup3\n      swap1\n      keccak256\n        /* \"AndroidStudioProjects/roomflow/contracts/Roomflow.sol\":11369:11401  return bookingsOf[id][bookingId] */\n      0x40\n      dup1\n      mload\n      0xe0\n      dup2\n      add\n      dup3\n      mstore\n        /* \"AndroidStudioProjects/roomflow/contracts/Roomflow.sol\":11376:11401  bookingsOf[id][bookingId] */\n      0x06\n      swap1\n      swap4\n      mul\n      swap1\n      swap2\n      add\n        /* \"AndroidStudioProjects/roomflow/contracts/Roomflow.sol\":11369:11401  return bookingsOf[id][bookingId] */\n      dup1\n      sload\n      dup4\n      mstore\n      0x01\n      dup2\n      add\n      sload\n      sub(shl(0xa0, 0x01), 0x01)\n      and\n      swap4\n      dup4\n      add\n      swap4\n      swap1\n      swap4\n      mstore\n      0x02\n      dup4\n      add\n      sload\n      swap1\n      dup3\n      add\n      mstore\n      0x03\n      dup3\n      add\n      sload\n      0x60\n      dup3\n      add\n      mstore\n      0x04\n      dup3\n      add\n      sload\n      0x80\n      dup3\n      add\n      mstore\n      0x05\n      swap1\n      swap2\n      add\n      sload\n      0xff\n      dup1\n      dup3\n      and\n      iszero\n      iszero\n      0xa0\n      dup5\n      add\n      mstore\n      0x0100\n      swap1\n      swap2\n      div\n      and\n      iszero\n      iszero\n      0xc0\n      dup3\n      add\n      mstore\n      swap1\n      pop\n        /* \"AndroidStudioProjects/roomflow/contracts/Roomflow.sol\":11235:11413  function getBooking(... */\n    tag_319:\n      swap3\n      swap2\n      pop\n      pop\n      jump\t// out\n        /* \"AndroidStudioProjects/roomflow/contracts/Roomflow.sol\":2384:2428  mapping(uint => Booking[]) public bookingsOf */\n    tag_73:\n      mstore(0x20, 0x07)\n      dup2\n      0x00\n      mstore\n      keccak256(0x00, 0x40)\n      dup2\n      dup2\n      sload\n      dup2\n      lt\n      tag_323\n      jumpi\n      0x00\n      dup1\n      revert\n    tag_323:\n      0x00\n      swap2\n      dup3\n      mstore\n      0x20\n      swap1\n      swap2\n      keccak256\n      0x06\n      swap1\n      swap2\n      mul\n      add\n      dup1\n      sload\n      0x01\n      dup3\n      add\n      sload\n      0x02\n      dup4\n      add\n      sload\n      0x03\n      dup5\n      add\n      sload\n      0x04\n      dup6\n      add\n      sload\n      0x05\n      swap1\n      swap6\n      add\n      sload\n      swap4\n      swap7\n      pop\n      sub(shl(0xa0, 0x01), 0x01)\n      swap1\n      swap3\n      and\n      swap5\n      pop\n      swap3\n      swap1\n      swap2\n      0xff\n      dup1\n      dup3\n      and\n      swap2\n      0x0100\n      swap1\n      div\n      and\n      dup8\n      jump\t// out\n        /* \"AndroidStudioProjects/roomflow/contracts/Roomflow.sol\":11779:12492  function addReview(uint spaceId, string memory reviewText) public {... */\n    tag_80:\n        /* \"AndroidStudioProjects/roomflow/contracts/Roomflow.sol\":11868:11888  spaceExists[spaceId] */\n      0x00\n      dup3\n      dup2\n      mstore\n        /* \"AndroidStudioProjects/roomflow/contracts/Roomflow.sol\":11868:11879  spaceExists */\n      0x09\n        /* \"AndroidStudioProjects/roomflow/contracts/Roomflow.sol\":11868:11888  spaceExists[spaceId] */\n      0x20\n      mstore\n      0x40\n      swap1\n      keccak256\n      sload\n      0xff\n      and\n        /* \"AndroidStudioProjects/roomflow/contracts/Roomflow.sol\":11860:11912  require(spaceExists[spaceId], \"Space not available\") */\n      tag_326\n      jumpi\n      mload(0x40)\n      shl(0xe5, 0x461bcd)\n      dup2\n      mstore\n      0x04\n      add\n      tag_193\n      swap1\n      tag_328\n      jump\t// in\n    tag_326:\n        /* \"AndroidStudioProjects/roomflow/contracts/Roomflow.sol\":11945:11955  msg.sender */\n      caller\n        /* \"AndroidStudioProjects/roomflow/contracts/Roomflow.sol\":11935:11956  hasBooked[msg.sender] */\n      0x00\n      swap1\n      dup2\n      mstore\n        /* \"AndroidStudioProjects/roomflow/contracts/Roomflow.sol\":11935:11944  hasBooked */\n      0x0c\n        /* \"AndroidStudioProjects/roomflow/contracts/Roomflow.sol\":11935:11956  hasBooked[msg.sender] */\n      0x20\n      swap1\n      dup2\n      mstore\n      0x40\n      dup1\n      dup4\n      keccak256\n        /* \"AndroidStudioProjects/roomflow/contracts/Roomflow.sol\":11935:11965  hasBooked[msg.sender][spaceId] */\n      dup6\n      dup5\n      mstore\n      swap1\n      swap2\n      mstore\n      swap1\n      keccak256\n      sload\n      0xff\n      and\n        /* \"AndroidStudioProjects/roomflow/contracts/Roomflow.sol\":11927:11994  require(hasBooked[msg.sender][spaceId], \"Book first before review\") */\n      tag_329\n      jumpi\n      mload(0x40)\n      shl(0xe5, 0x461bcd)\n      dup2\n      mstore\n        /* \"#utility.yul\":21649:21651   */\n      0x20\n        /* \"AndroidStudioProjects/roomflow/contracts/Roomflow.sol\":11927:11994  require(hasBooked[msg.sender][spaceId], \"Book first before review\") */\n      0x04\n      dup3\n      add\n        /* \"#utility.yul\":21631:21652   */\n      mstore\n        /* \"#utility.yul\":21688:21690   */\n      0x18\n        /* \"#utility.yul\":21668:21686   */\n      0x24\n      dup3\n      add\n        /* \"#utility.yul\":21661:21691   */\n      mstore\n        /* \"#utility.yul\":21727:21753   */\n      0x426f6f6b206669727374206265666f7265207265766965770000000000000000\n        /* \"#utility.yul\":21707:21725   */\n      0x44\n      dup3\n      add\n        /* \"#utility.yul\":21700:21754   */\n      mstore\n        /* \"#utility.yul\":21771:21789   */\n      0x64\n      add\n        /* \"AndroidStudioProjects/roomflow/contracts/Roomflow.sol\":11927:11994  require(hasBooked[msg.sender][spaceId], \"Book first before review\") */\n      tag_193\n        /* \"#utility.yul\":21447:21795   */\n      jump\n        /* \"AndroidStudioProjects/roomflow/contracts/Roomflow.sol\":11927:11994  require(hasBooked[msg.sender][spaceId], \"Book first before review\") */\n    tag_329:\n        /* \"AndroidStudioProjects/roomflow/contracts/Roomflow.sol\":12044:12045  0 */\n      0x00\n        /* \"AndroidStudioProjects/roomflow/contracts/Roomflow.sol\":12023:12033  reviewText */\n      dup2\n        /* \"AndroidStudioProjects/roomflow/contracts/Roomflow.sol\":12017:12041  bytes(reviewText).length */\n      mload\n        /* \"AndroidStudioProjects/roomflow/contracts/Roomflow.sol\":12017:12045  bytes(reviewText).length > 0 */\n      gt\n        /* \"AndroidStudioProjects/roomflow/contracts/Roomflow.sol\":12009:12077  require(bytes(reviewText).length > 0, \"Review text cannot be empty\") */\n      tag_332\n      jumpi\n      mload(0x40)\n      shl(0xe5, 0x461bcd)\n      dup2\n      mstore\n        /* \"#utility.yul\":22002:22004   */\n      0x20\n        /* \"AndroidStudioProjects/roomflow/contracts/Roomflow.sol\":12009:12077  require(bytes(reviewText).length > 0, \"Review text cannot be empty\") */\n      0x04\n      dup3\n      add\n        /* \"#utility.yul\":21984:22005   */\n      mstore\n        /* \"#utility.yul\":22041:22043   */\n      0x1b\n        /* \"#utility.yul\":22021:22039   */\n      0x24\n      dup3\n      add\n        /* \"#utility.yul\":22014:22044   */\n      mstore\n        /* \"#utility.yul\":22080:22109   */\n      0x52657669657720746578742063616e6e6f7420626520656d7074790000000000\n        /* \"#utility.yul\":22060:22078   */\n      0x44\n      dup3\n      add\n        /* \"#utility.yul\":22053:22110   */\n      mstore\n        /* \"#utility.yul\":22127:22145   */\n      0x64\n      add\n        /* \"AndroidStudioProjects/roomflow/contracts/Roomflow.sol\":12009:12077  require(bytes(reviewText).length > 0, \"Review text cannot be empty\") */\n      tag_193\n        /* \"#utility.yul\":21800:22151   */\n      jump\n        /* \"AndroidStudioProjects/roomflow/contracts/Roomflow.sol\":12009:12077  require(bytes(reviewText).length > 0, \"Review text cannot be empty\") */\n    tag_332:\n        /* \"AndroidStudioProjects/roomflow/contracts/Roomflow.sol\":12094:12119  _totalReviews.increment() */\n      tag_335\n        /* \"AndroidStudioProjects/roomflow/contracts/Roomflow.sol\":12094:12107  _totalReviews */\n      0x03\n        /* \"@openzeppelin/contracts/utils/Counters.sol\":1032:1051  counter._value += 1 */\n      dup1\n      sload\n        /* \"@openzeppelin/contracts/utils/Counters.sol\":1050:1051  1 */\n      0x01\n        /* \"@openzeppelin/contracts/utils/Counters.sol\":1032:1051  counter._value += 1 */\n      add\n      swap1\n      sstore\n        /* \"@openzeppelin/contracts/utils/Counters.sol\":945:1068  function increment(Counter storage counter) internal {... */\n      jump\n        /* \"AndroidStudioProjects/roomflow/contracts/Roomflow.sol\":12094:12119  _totalReviews.increment() */\n    tag_335:\n        /* \"AndroidStudioProjects/roomflow/contracts/Roomflow.sol\":12134:12154  Review memory review */\n      tag_336\n      mload(0x40)\n      dup1\n      0xa0\n      add\n      0x40\n      mstore\n      dup1\n      0x00\n      dup2\n      mstore\n      0x20\n      add\n      0x00\n      dup2\n      mstore\n      0x20\n      add\n      0x60\n      dup2\n      mstore\n      0x20\n      add\n      0x00\n      dup2\n      mstore\n      0x20\n      add\n      and(sub(shl(0xa0, 0x01), 0x01), 0x00)\n      dup2\n      mstore\n      pop\n      swap1\n      jump\n    tag_336:\n        /* \"AndroidStudioProjects/roomflow/contracts/Roomflow.sol\":12181:12194  _totalReviews */\n      0x03\n        /* \"@openzeppelin/contracts/utils/Counters.sol\":918:932  counter._value */\n      sload\n        /* \"AndroidStudioProjects/roomflow/contracts/Roomflow.sol\":12169:12204  review.id = _totalReviews.current() */\n      dup2\n      mstore\n        /* \"AndroidStudioProjects/roomflow/contracts/Roomflow.sol\":12219:12233  review.spaceId */\n      0x20\n      dup1\n      dup3\n      add\n        /* \"AndroidStudioProjects/roomflow/contracts/Roomflow.sol\":12219:12243  review.spaceId = spaceId */\n      dup5\n      dup2\n      mstore\n        /* \"AndroidStudioProjects/roomflow/contracts/Roomflow.sol\":12258:12275  review.reviewText */\n      0x40\n      dup1\n      dup5\n      add\n        /* \"AndroidStudioProjects/roomflow/contracts/Roomflow.sol\":12258:12288  review.reviewText = reviewText */\n      dup6\n      dup2\n      mstore\n        /* \"AndroidStudioProjects/roomflow/contracts/Roomflow.sol\":12322:12337  block.timestamp */\n      timestamp\n        /* \"AndroidStudioProjects/roomflow/contracts/Roomflow.sol\":12303:12319  review.timestamp */\n      0x60\n      dup7\n      add\n        /* \"AndroidStudioProjects/roomflow/contracts/Roomflow.sol\":12303:12337  review.timestamp = block.timestamp */\n      mstore\n        /* \"AndroidStudioProjects/roomflow/contracts/Roomflow.sol\":12370:12380  msg.sender */\n      caller\n        /* \"AndroidStudioProjects/roomflow/contracts/Roomflow.sol\":12352:12367  review.reviewer */\n      0x80\n      dup7\n      add\n        /* \"AndroidStudioProjects/roomflow/contracts/Roomflow.sol\":12352:12380  review.reviewer = msg.sender */\n      mstore\n        /* \"AndroidStudioProjects/roomflow/contracts/Roomflow.sol\":12169:12178  review.id */\n      0x00\n        /* \"AndroidStudioProjects/roomflow/contracts/Roomflow.sol\":12397:12415  reviewsOf[spaceId] */\n      dup8\n      dup2\n      mstore\n        /* \"AndroidStudioProjects/roomflow/contracts/Roomflow.sol\":12397:12406  reviewsOf */\n      0x08\n        /* \"AndroidStudioProjects/roomflow/contracts/Roomflow.sol\":12397:12415  reviewsOf[spaceId] */\n      dup6\n      mstore\n      swap2\n      dup3\n      keccak256\n        /* \"AndroidStudioProjects/roomflow/contracts/Roomflow.sol\":12397:12428  reviewsOf[spaceId].push(review) */\n      dup1\n      sload\n      0x01\n      dup2\n      dup2\n      add\n      dup4\n      sstore\n      swap2\n      dup5\n      mstore\n      swap5\n      swap1\n      swap3\n      keccak256\n      dup6\n      mload\n      0x05\n      swap1\n      swap6\n      mul\n      add\n      swap4\n      dup5\n      sstore\n      swap2\n      mload\n      swap1\n      dup4\n      add\n      sstore\n      mload\n        /* \"AndroidStudioProjects/roomflow/contracts/Roomflow.sol\":12169:12175  review */\n      dup3\n      swap2\n        /* \"AndroidStudioProjects/roomflow/contracts/Roomflow.sol\":12397:12428  reviewsOf[spaceId].push(review) */\n      swap1\n      0x02\n      dup3\n      add\n      swap1\n      tag_340\n      swap1\n      dup3\n      tag_313\n      jump\t// in\n    tag_340:\n      pop\n      0x60\n      dup3\n      add\n      mload\n      0x03\n      dup3\n      add\n      sstore\n      0x80\n      swap1\n      swap2\n      add\n      mload\n      0x04\n      swap1\n      swap2\n      add\n      dup1\n      sload\n      not(sub(shl(0xa0, 0x01), 0x01))\n      and\n      sub(shl(0xa0, 0x01), 0x01)\n      swap1\n      swap3\n      and\n      swap2\n      swap1\n      swap2\n      or\n      swap1\n      sstore\n        /* \"AndroidStudioProjects/roomflow/contracts/Roomflow.sol\":12448:12480  ReviewAdded(spaceId, msg.sender) */\n      mload(0x40)\n        /* \"AndroidStudioProjects/roomflow/contracts/Roomflow.sol\":12469:12479  msg.sender */\n      caller\n      swap1\n        /* \"AndroidStudioProjects/roomflow/contracts/Roomflow.sol\":12460:12467  spaceId */\n      dup5\n      swap1\n        /* \"AndroidStudioProjects/roomflow/contracts/Roomflow.sol\":12448:12480  ReviewAdded(spaceId, msg.sender) */\n      0x147d2c343f054e85e3a52f84240e7454f6361913e64b66f8abc756ffc455683d\n      swap1\n      0x00\n      swap1\n      log3\n        /* \"AndroidStudioProjects/roomflow/contracts/Roomflow.sol\":11845:12492  {... */\n      pop\n        /* \"AndroidStudioProjects/roomflow/contracts/Roomflow.sol\":11779:12492  function addReview(uint spaceId, string memory reviewText) public {... */\n      pop\n      pop\n      jump\t// out\n        /* \"AndroidStudioProjects/roomflow/contracts/Roomflow.sol\":11425:11639  function updateSecurityFee(uint newFee) public onlyOwner {... */\n    tag_85:\n        /* \"@openzeppelin/contracts/access/Ownable.sol\":1094:1107  _checkOwner() */\n      tag_342\n        /* \"@openzeppelin/contracts/access/Ownable.sol\":1094:1105  _checkOwner */\n      tag_343\n        /* \"@openzeppelin/contracts/access/Ownable.sol\":1094:1107  _checkOwner() */\n      jump\t// in\n    tag_342:\n        /* \"AndroidStudioProjects/roomflow/contracts/Roomflow.sol\":11514:11515  0 */\n      0x00\n        /* \"AndroidStudioProjects/roomflow/contracts/Roomflow.sol\":11505:11511  newFee */\n      dup2\n        /* \"AndroidStudioProjects/roomflow/contracts/Roomflow.sol\":11505:11515  newFee > 0 */\n      gt\n        /* \"AndroidStudioProjects/roomflow/contracts/Roomflow.sol\":11497:11546  require(newFee > 0, \"Fee must be greater than 0\") */\n      tag_345\n      jumpi\n      mload(0x40)\n      shl(0xe5, 0x461bcd)\n      dup2\n      mstore\n        /* \"#utility.yul\":22358:22360   */\n      0x20\n        /* \"AndroidStudioProjects/roomflow/contracts/Roomflow.sol\":11497:11546  require(newFee > 0, \"Fee must be greater than 0\") */\n      0x04\n      dup3\n      add\n        /* \"#utility.yul\":22340:22361   */\n      mstore\n        /* \"#utility.yul\":22397:22399   */\n      0x1a\n        /* \"#utility.yul\":22377:22395   */\n      0x24\n      dup3\n      add\n        /* \"#utility.yul\":22370:22400   */\n      mstore\n        /* \"#utility.yul\":22436:22464   */\n      0x466565206d7573742062652067726561746572207468616e2030000000000000\n        /* \"#utility.yul\":22416:22434   */\n      0x44\n      dup3\n      add\n        /* \"#utility.yul\":22409:22465   */\n      mstore\n        /* \"#utility.yul\":22482:22500   */\n      0x64\n      add\n        /* \"AndroidStudioProjects/roomflow/contracts/Roomflow.sol\":11497:11546  require(newFee > 0, \"Fee must be greater than 0\") */\n      tag_193\n        /* \"#utility.yul\":22156:22506   */\n      jump\n        /* \"AndroidStudioProjects/roomflow/contracts/Roomflow.sol\":11497:11546  require(newFee > 0, \"Fee must be greater than 0\") */\n    tag_345:\n        /* \"AndroidStudioProjects/roomflow/contracts/Roomflow.sol\":11561:11572  securityFee */\n      0x04\n        /* \"AndroidStudioProjects/roomflow/contracts/Roomflow.sol\":11561:11581  securityFee = newFee */\n      dup2\n      swap1\n      sstore\n        /* \"AndroidStudioProjects/roomflow/contracts/Roomflow.sol\":11601:11627  SecurityFeeUpdated(newFee) */\n      mload(0x40)\n        /* \"#utility.yul\":8952:8977   */\n      dup2\n      dup2\n      mstore\n        /* \"AndroidStudioProjects/roomflow/contracts/Roomflow.sol\":11601:11627  SecurityFeeUpdated(newFee) */\n      0x3790aeee57809af98fad1b89b9266c7934e03ed46702b541f2fef6f1e89d6827\n      swap1\n        /* \"#utility.yul\":8940:8942   */\n      0x20\n        /* \"#utility.yul\":8925:8943   */\n      add\n        /* \"AndroidStudioProjects/roomflow/contracts/Roomflow.sol\":11601:11627  SecurityFeeUpdated(newFee) */\n      mload(0x40)\n      dup1\n      swap2\n      sub\n      swap1\n      log1\n        /* \"AndroidStudioProjects/roomflow/contracts/Roomflow.sol\":11425:11639  function updateSecurityFee(uint newFee) public onlyOwner {... */\n      pop\n      jump\t// out\n        /* \"AndroidStudioProjects/roomflow/contracts/Roomflow.sol\":4188:5445  function updateSpace(... */\n    tag_90:\n        /* \"AndroidStudioProjects/roomflow/contracts/Roomflow.sol\":4468:4483  spaceExists[id] */\n      0x00\n      dup8\n      dup2\n      mstore\n        /* \"AndroidStudioProjects/roomflow/contracts/Roomflow.sol\":4468:4479  spaceExists */\n      0x09\n        /* \"AndroidStudioProjects/roomflow/contracts/Roomflow.sol\":4468:4483  spaceExists[id] */\n      0x20\n      mstore\n      0x40\n      swap1\n      keccak256\n      sload\n      0xff\n      and\n        /* \"AndroidStudioProjects/roomflow/contracts/Roomflow.sol\":4460:4507  require(spaceExists[id], \"Space not available\") */\n      tag_350\n      jumpi\n      mload(0x40)\n      shl(0xe5, 0x461bcd)\n      dup2\n      mstore\n      0x04\n      add\n      tag_193\n      swap1\n      tag_328\n      jump\t// in\n    tag_350:\n        /* \"AndroidStudioProjects/roomflow/contracts/Roomflow.sol\":4562:4572  spaces[id] */\n      0x00\n      dup8\n      dup2\n      mstore\n        /* \"AndroidStudioProjects/roomflow/contracts/Roomflow.sol\":4562:4568  spaces */\n      0x06\n        /* \"AndroidStudioProjects/roomflow/contracts/Roomflow.sol\":4562:4572  spaces[id] */\n      0x20\n      mstore\n      0x40\n      swap1\n      keccak256\n        /* \"AndroidStudioProjects/roomflow/contracts/Roomflow.sol\":4562:4578  spaces[id].owner */\n      0x07\n      add\n      sload\n      sub(shl(0xa0, 0x01), 0x01)\n      and\n        /* \"AndroidStudioProjects/roomflow/contracts/Roomflow.sol\":4548:4558  msg.sender */\n      caller\n        /* \"AndroidStudioProjects/roomflow/contracts/Roomflow.sol\":4548:4578  msg.sender == spaces[id].owner */\n      eq\n        /* \"AndroidStudioProjects/roomflow/contracts/Roomflow.sol\":4522:4648  require(... */\n      tag_352\n      jumpi\n      mload(0x40)\n      shl(0xe5, 0x461bcd)\n      dup2\n      mstore\n        /* \"#utility.yul\":22713:22715   */\n      0x20\n        /* \"AndroidStudioProjects/roomflow/contracts/Roomflow.sol\":4522:4648  require(... */\n      0x04\n      dup3\n      add\n        /* \"#utility.yul\":22695:22716   */\n      mstore\n        /* \"#utility.yul\":22752:22754   */\n      0x22\n        /* \"#utility.yul\":22732:22750   */\n      0x24\n      dup3\n      add\n        /* \"#utility.yul\":22725:22755   */\n      mstore\n        /* \"#utility.yul\":22791:22825   */\n      0x556e617574686f72697a656420706572736f6e6e656c2c206f776e6572206f6e\n        /* \"#utility.yul\":22771:22789   */\n      0x44\n      dup3\n      add\n        /* \"#utility.yul\":22764:22826   */\n      mstore\n      shl(0xf0, 0x6c79)\n        /* \"#utility.yul\":22842:22860   */\n      0x64\n      dup3\n      add\n        /* \"#utility.yul\":22835:22867   */\n      mstore\n        /* \"#utility.yul\":22884:22903   */\n      0x84\n      add\n        /* \"AndroidStudioProjects/roomflow/contracts/Roomflow.sol\":4522:4648  require(... */\n      tag_193\n        /* \"#utility.yul\":22511:22909   */\n      jump\n        /* \"AndroidStudioProjects/roomflow/contracts/Roomflow.sol\":4522:4648  require(... */\n    tag_352:\n        /* \"AndroidStudioProjects/roomflow/contracts/Roomflow.sol\":4693:4694  0 */\n      0x00\n        /* \"AndroidStudioProjects/roomflow/contracts/Roomflow.sol\":4677:4682  title */\n      dup7\n        /* \"AndroidStudioProjects/roomflow/contracts/Roomflow.sol\":4671:4690  bytes(title).length */\n      mload\n        /* \"AndroidStudioProjects/roomflow/contracts/Roomflow.sol\":4671:4694  bytes(title).length > 0 */\n      gt\n        /* \"AndroidStudioProjects/roomflow/contracts/Roomflow.sol\":4663:4720  require(bytes(title).length > 0, \"title cannot be empty\") */\n      tag_355\n      jumpi\n      mload(0x40)\n      shl(0xe5, 0x461bcd)\n      dup2\n      mstore\n      0x04\n      add\n      tag_193\n      swap1\n      tag_293\n      jump\t// in\n    tag_355:\n        /* \"AndroidStudioProjects/roomflow/contracts/Roomflow.sol\":4768:4769  0 */\n      0x00\n        /* \"AndroidStudioProjects/roomflow/contracts/Roomflow.sol\":4749:4757  subtitle */\n      dup6\n        /* \"AndroidStudioProjects/roomflow/contracts/Roomflow.sol\":4743:4765  bytes(subtitle).length */\n      mload\n        /* \"AndroidStudioProjects/roomflow/contracts/Roomflow.sol\":4743:4769  bytes(subtitle).length > 0 */\n      gt\n        /* \"AndroidStudioProjects/roomflow/contracts/Roomflow.sol\":4735:4795  require(bytes(subtitle).length > 0, \"title cannot be empty\") */\n      tag_357\n      jumpi\n      mload(0x40)\n      shl(0xe5, 0x461bcd)\n      dup2\n      mstore\n      0x04\n      add\n      tag_193\n      swap1\n      tag_293\n      jump\t// in\n    tag_357:\n        /* \"AndroidStudioProjects/roomflow/contracts/Roomflow.sol\":4846:4847  0 */\n      0x00\n        /* \"AndroidStudioProjects/roomflow/contracts/Roomflow.sol\":4824:4835  description */\n      dup5\n        /* \"AndroidStudioProjects/roomflow/contracts/Roomflow.sol\":4818:4843  bytes(description).length */\n      mload\n        /* \"AndroidStudioProjects/roomflow/contracts/Roomflow.sol\":4818:4847  bytes(description).length > 0 */\n      gt\n        /* \"AndroidStudioProjects/roomflow/contracts/Roomflow.sol\":4810:4879  require(bytes(description).length > 0, \"Description cannot be empty\") */\n      tag_359\n      jumpi\n      mload(0x40)\n      shl(0xe5, 0x461bcd)\n      dup2\n      mstore\n        /* \"#utility.yul\":17692:17694   */\n      0x20\n        /* \"AndroidStudioProjects/roomflow/contracts/Roomflow.sol\":4810:4879  require(bytes(description).length > 0, \"Description cannot be empty\") */\n      0x04\n      dup3\n      add\n        /* \"#utility.yul\":17674:17695   */\n      mstore\n        /* \"#utility.yul\":17731:17733   */\n      0x1b\n        /* \"#utility.yul\":17711:17729   */\n      0x24\n      dup3\n      add\n        /* \"#utility.yul\":17704:17734   */\n      mstore\n        /* \"#utility.yul\":17770:17799   */\n      0x4465736372697074696f6e2063616e6e6f7420626520656d7074790000000000\n        /* \"#utility.yul\":17750:17768   */\n      0x44\n      dup3\n      add\n        /* \"#utility.yul\":17743:17800   */\n      mstore\n        /* \"#utility.yul\":17817:17835   */\n      0x64\n      add\n        /* \"AndroidStudioProjects/roomflow/contracts/Roomflow.sol\":4810:4879  require(bytes(description).length > 0, \"Description cannot be empty\") */\n      tag_193\n        /* \"#utility.yul\":17490:17841   */\n      jump\n        /* \"AndroidStudioProjects/roomflow/contracts/Roomflow.sol\":4810:4879  require(bytes(description).length > 0, \"Description cannot be empty\") */\n    tag_359:\n        /* \"AndroidStudioProjects/roomflow/contracts/Roomflow.sol\":4925:4926  0 */\n      0x00\n        /* \"AndroidStudioProjects/roomflow/contracts/Roomflow.sol\":4908:4914  images */\n      dup4\n        /* \"AndroidStudioProjects/roomflow/contracts/Roomflow.sol\":4902:4922  bytes(images).length */\n      mload\n        /* \"AndroidStudioProjects/roomflow/contracts/Roomflow.sol\":4902:4926  bytes(images).length > 0 */\n      gt\n        /* \"AndroidStudioProjects/roomflow/contracts/Roomflow.sol\":4894:4953  require(bytes(images).length > 0, \"Images cannot be empty\") */\n      tag_361\n      jumpi\n      mload(0x40)\n      shl(0xe5, 0x461bcd)\n      dup2\n      mstore\n        /* \"#utility.yul\":18048:18050   */\n      0x20\n        /* \"AndroidStudioProjects/roomflow/contracts/Roomflow.sol\":4894:4953  require(bytes(images).length > 0, \"Images cannot be empty\") */\n      0x04\n      dup3\n      add\n        /* \"#utility.yul\":18030:18051   */\n      mstore\n        /* \"#utility.yul\":18087:18089   */\n      0x16\n        /* \"#utility.yul\":18067:18085   */\n      0x24\n      dup3\n      add\n        /* \"#utility.yul\":18060:18090   */\n      mstore\n      shl(0x50, 0x496d616765732063616e6e6f7420626520656d707479)\n        /* \"#utility.yul\":18106:18124   */\n      0x44\n      dup3\n      add\n        /* \"#utility.yul\":18099:18151   */\n      mstore\n        /* \"#utility.yul\":18168:18186   */\n      0x64\n      add\n        /* \"AndroidStudioProjects/roomflow/contracts/Roomflow.sol\":4894:4953  require(bytes(images).length > 0, \"Images cannot be empty\") */\n      tag_193\n        /* \"#utility.yul\":17846:18192   */\n      jump\n        /* \"AndroidStudioProjects/roomflow/contracts/Roomflow.sol\":4894:4953  require(bytes(images).length > 0, \"Images cannot be empty\") */\n    tag_361:\n        /* \"AndroidStudioProjects/roomflow/contracts/Roomflow.sol\":4984:4985  0 */\n      0x00\n        /* \"AndroidStudioProjects/roomflow/contracts/Roomflow.sol\":4976:4981  rooms */\n      dup3\n        /* \"AndroidStudioProjects/roomflow/contracts/Roomflow.sol\":4976:4985  rooms > 0 */\n      gt\n        /* \"AndroidStudioProjects/roomflow/contracts/Roomflow.sol\":4968:5010  require(rooms > 0, \"Rooms cannot be zero\") */\n      tag_363\n      jumpi\n      mload(0x40)\n      shl(0xe5, 0x461bcd)\n      dup2\n      mstore\n        /* \"#utility.yul\":18399:18401   */\n      0x20\n        /* \"AndroidStudioProjects/roomflow/contracts/Roomflow.sol\":4968:5010  require(rooms > 0, \"Rooms cannot be zero\") */\n      0x04\n      dup3\n      add\n        /* \"#utility.yul\":18381:18402   */\n      mstore\n        /* \"#utility.yul\":18438:18440   */\n      0x14\n        /* \"#utility.yul\":18418:18436   */\n      0x24\n      dup3\n      add\n        /* \"#utility.yul\":18411:18441   */\n      mstore\n      shl(0x60, 0x526f6f6d732063616e6e6f74206265207a65726f)\n        /* \"#utility.yul\":18457:18475   */\n      0x44\n      dup3\n      add\n        /* \"#utility.yul\":18450:18500   */\n      mstore\n        /* \"#utility.yul\":18517:18535   */\n      0x64\n      add\n        /* \"AndroidStudioProjects/roomflow/contracts/Roomflow.sol\":4968:5010  require(rooms > 0, \"Rooms cannot be zero\") */\n      tag_193\n        /* \"#utility.yul\":18197:18541   */\n      jump\n        /* \"AndroidStudioProjects/roomflow/contracts/Roomflow.sol\":4968:5010  require(rooms > 0, \"Rooms cannot be zero\") */\n    tag_363:\n        /* \"AndroidStudioProjects/roomflow/contracts/Roomflow.sol\":5041:5046  0 wei */\n      0x00\n        /* \"AndroidStudioProjects/roomflow/contracts/Roomflow.sol\":5033:5038  price */\n      dup2\n        /* \"AndroidStudioProjects/roomflow/contracts/Roomflow.sol\":5033:5046  price > 0 wei */\n      gt\n        /* \"AndroidStudioProjects/roomflow/contracts/Roomflow.sol\":5025:5071  require(price > 0 wei, \"Price cannot be zero\") */\n      tag_365\n      jumpi\n      mload(0x40)\n      shl(0xe5, 0x461bcd)\n      dup2\n      mstore\n        /* \"#utility.yul\":18748:18750   */\n      0x20\n        /* \"AndroidStudioProjects/roomflow/contracts/Roomflow.sol\":5025:5071  require(price > 0 wei, \"Price cannot be zero\") */\n      0x04\n      dup3\n      add\n        /* \"#utility.yul\":18730:18751   */\n      mstore\n        /* \"#utility.yul\":18787:18789   */\n      0x14\n        /* \"#utility.yul\":18767:18785   */\n      0x24\n      dup3\n      add\n        /* \"#utility.yul\":18760:18790   */\n      mstore\n      shl(0x60, 0x50726963652063616e6e6f74206265207a65726f)\n        /* \"#utility.yul\":18806:18824   */\n      0x44\n      dup3\n      add\n        /* \"#utility.yul\":18799:18849   */\n      mstore\n        /* \"#utility.yul\":18866:18884   */\n      0x64\n      add\n        /* \"AndroidStudioProjects/roomflow/contracts/Roomflow.sol\":5025:5071  require(price > 0 wei, \"Price cannot be zero\") */\n      tag_193\n        /* \"#utility.yul\":18546:18890   */\n      jump\n        /* \"AndroidStudioProjects/roomflow/contracts/Roomflow.sol\":5025:5071  require(price > 0 wei, \"Price cannot be zero\") */\n    tag_365:\n        /* \"AndroidStudioProjects/roomflow/contracts/Roomflow.sol\":5088:5113  SpaceListing memory space */\n      0x00\n        /* \"AndroidStudioProjects/roomflow/contracts/Roomflow.sol\":5116:5122  spaces */\n      0x06\n        /* \"AndroidStudioProjects/roomflow/contracts/Roomflow.sol\":5116:5126  spaces[id] */\n      0x00\n        /* \"AndroidStudioProjects/roomflow/contracts/Roomflow.sol\":5123:5125  id */\n      dup10\n        /* \"AndroidStudioProjects/roomflow/contracts/Roomflow.sol\":5116:5126  spaces[id] */\n      dup2\n      mstore\n      0x20\n      add\n      swap1\n      dup2\n      mstore\n      0x20\n      add\n      0x00\n      keccak256\n        /* \"AndroidStudioProjects/roomflow/contracts/Roomflow.sol\":5088:5126  SpaceListing memory space = spaces[id] */\n      mload(0x40)\n      dup1\n      0x0180\n      add\n      0x40\n      mstore\n      swap1\n      dup2\n      0x00\n      dup3\n      add\n      sload\n      dup2\n      mstore\n      0x20\n      add\n      0x01\n      dup3\n      add\n      dup1\n      sload\n      tag_367\n      swap1\n      tag_266\n      jump\t// in\n    tag_367:\n      dup1\n      0x1f\n      add\n      0x20\n      dup1\n      swap2\n      div\n      mul\n      0x20\n      add\n      mload(0x40)\n      swap1\n      dup2\n      add\n      0x40\n      mstore\n      dup1\n      swap3\n      swap2\n      swap1\n      dup2\n      dup2\n      mstore\n      0x20\n      add\n      dup3\n      dup1\n      sload\n      tag_368\n      swap1\n      tag_266\n      jump\t// in\n    tag_368:\n      dup1\n      iszero\n      tag_369\n      jumpi\n      dup1\n      0x1f\n      lt\n      tag_370\n      jumpi\n      0x0100\n      dup1\n      dup4\n      sload\n      div\n      mul\n      dup4\n      mstore\n      swap2\n      0x20\n      add\n      swap2\n      jump(tag_369)\n    tag_370:\n      dup3\n      add\n      swap2\n      swap1\n      0x00\n      mstore\n      keccak256(0x00, 0x20)\n      swap1\n    tag_371:\n      dup2\n      sload\n      dup2\n      mstore\n      swap1\n      0x01\n      add\n      swap1\n      0x20\n      add\n      dup1\n      dup4\n      gt\n      tag_371\n      jumpi\n      dup3\n      swap1\n      sub\n      0x1f\n      and\n      dup3\n      add\n      swap2\n    tag_369:\n      pop\n      pop\n      pop\n      pop\n      pop\n      dup2\n      mstore\n      0x20\n      add\n      0x02\n      dup3\n      add\n      dup1\n      sload\n      tag_372\n      swap1\n      tag_266\n      jump\t// in\n    tag_372:\n      dup1\n      0x1f\n      add\n      0x20\n      dup1\n      swap2\n      div\n      mul\n      0x20\n      add\n      mload(0x40)\n      swap1\n      dup2\n      add\n      0x40\n      mstore\n      dup1\n      swap3\n      swap2\n      swap1\n      dup2\n      dup2\n      mstore\n      0x20\n      add\n      dup3\n      dup1\n      sload\n      tag_373\n      swap1\n      tag_266\n      jump\t// in\n    tag_373:\n      dup1\n      iszero\n      tag_374\n      jumpi\n      dup1\n      0x1f\n      lt\n      tag_375\n      jumpi\n      0x0100\n      dup1\n      dup4\n      sload\n      div\n      mul\n      dup4\n      mstore\n      swap2\n      0x20\n      add\n      swap2\n      jump(tag_374)\n    tag_375:\n      dup3\n      add\n      swap2\n      swap1\n      0x00\n      mstore\n      keccak256(0x00, 0x20)\n      swap1\n    tag_376:\n      dup2\n      sload\n      dup2\n      mstore\n      swap1\n      0x01\n      add\n      swap1\n      0x20\n      add\n      dup1\n      dup4\n      gt\n      tag_376\n      jumpi\n      dup3\n      swap1\n      sub\n      0x1f\n      and\n      dup3\n      add\n      swap2\n    tag_374:\n      pop\n      pop\n      pop\n      pop\n      pop\n      dup2\n      mstore\n      0x20\n      add\n      0x03\n      dup3\n      add\n      dup1\n      sload\n      tag_377\n      swap1\n      tag_266\n      jump\t// in\n    tag_377:\n      dup1\n      0x1f\n      add\n      0x20\n      dup1\n      swap2\n      div\n      mul\n      0x20\n      add\n      mload(0x40)\n      swap1\n      dup2\n      add\n      0x40\n      mstore\n      dup1\n      swap3\n      swap2\n      swap1\n      dup2\n      dup2\n      mstore\n      0x20\n      add\n      dup3\n      dup1\n      sload\n      tag_378\n      swap1\n      tag_266\n      jump\t// in\n    tag_378:\n      dup1\n      iszero\n      tag_379\n      jumpi\n      dup1\n      0x1f\n      lt\n      tag_380\n      jumpi\n      0x0100\n      dup1\n      dup4\n      sload\n      div\n      mul\n      dup4\n      mstore\n      swap2\n      0x20\n      add\n      swap2\n      jump(tag_379)\n    tag_380:\n      dup3\n      add\n      swap2\n      swap1\n      0x00\n      mstore\n      keccak256(0x00, 0x20)\n      swap1\n    tag_381:\n      dup2\n      sload\n      dup2\n      mstore\n      swap1\n      0x01\n      add\n      swap1\n      0x20\n      add\n      dup1\n      dup4\n      gt\n      tag_381\n      jumpi\n      dup3\n      swap1\n      sub\n      0x1f\n      and\n      dup3\n      add\n      swap2\n    tag_379:\n      pop\n      pop\n      pop\n      pop\n      pop\n      dup2\n      mstore\n      0x20\n      add\n      0x04\n      dup3\n      add\n      dup1\n      sload\n      tag_382\n      swap1\n      tag_266\n      jump\t// in\n    tag_382:\n      dup1\n      0x1f\n      add\n      0x20\n      dup1\n      swap2\n      div\n      mul\n      0x20\n      add\n      mload(0x40)\n      swap1\n      dup2\n      add\n      0x40\n      mstore\n      dup1\n      swap3\n      swap2\n      swap1\n      dup2\n      dup2\n      mstore\n      0x20\n      add\n      dup3\n      dup1\n      sload\n      tag_383\n      swap1\n      tag_266\n      jump\t// in\n    tag_383:\n      dup1\n      iszero\n      tag_384\n      jumpi\n      dup1\n      0x1f\n      lt\n      tag_385\n      jumpi\n      0x0100\n      dup1\n      dup4\n      sload\n      div\n      mul\n      dup4\n      mstore\n      swap2\n      0x20\n      add\n      swap2\n      jump(tag_384)\n    tag_385:\n      dup3\n      add\n      swap2\n      swap1\n      0x00\n      mstore\n      keccak256(0x00, 0x20)\n      swap1\n    tag_386:\n      dup2\n      sload\n      dup2\n      mstore\n      swap1\n      0x01\n      add\n      swap1\n      0x20\n      add\n      dup1\n      dup4\n      gt\n      tag_386\n      jumpi\n      dup3\n      swap1\n      sub\n      0x1f\n      and\n      dup3\n      add\n      swap2\n    tag_384:\n      pop\n      pop\n      pop\n      swap2\n      dup4\n      mstore\n      pop\n      pop\n      0x05\n      dup3\n      add\n      sload\n      0x20\n      dup1\n      dup4\n      add\n      swap2\n      swap1\n      swap2\n      mstore\n      0x06\n      dup1\n      dup5\n      add\n      sload\n      0x40\n      dup1\n      dup6\n      add\n      swap2\n      swap1\n      swap2\n      mstore\n      0x07\n      dup6\n      add\n      sload\n      sub(shl(0xa0, 0x01), 0x01)\n      dup2\n      and\n      0x60\n      dup1\n      dup8\n      add\n      swap2\n      swap1\n      swap2\n      mstore\n      0xff\n      shl(0xa0, 0x01)\n      dup4\n      div\n      dup2\n      and\n      iszero\n      iszero\n      0x80\n      dup1\n      dup10\n      add\n      swap2\n      swap1\n      swap2\n      mstore\n      shl(0xa8, 0x01)\n      dup5\n      div\n      dup3\n      and\n      iszero\n      iszero\n      0xa0\n      dup1\n      dup11\n      add\n      swap2\n      swap1\n      swap2\n      mstore\n      shl(0xb0, 0x01)\n      swap1\n      swap5\n      div\n      swap1\n      swap2\n      and\n      iszero\n      iszero\n      0xc0\n      dup1\n      dup10\n      add\n      swap2\n      swap1\n      swap2\n      mstore\n      0x08\n      swap1\n      swap9\n      add\n      sload\n      0xe0\n      swap1\n      swap8\n      add\n      swap7\n      swap1\n      swap7\n      mstore\n        /* \"AndroidStudioProjects/roomflow/contracts/Roomflow.sol\":5141:5152  space.title */\n      dup8\n      dup6\n      add\n        /* \"AndroidStudioProjects/roomflow/contracts/Roomflow.sol\":5141:5160  space.title = title */\n      dup16\n      dup2\n      mstore\n        /* \"AndroidStudioProjects/roomflow/contracts/Roomflow.sol\":5175:5189  space.subtitle */\n      dup9\n      dup5\n      add\n        /* \"AndroidStudioProjects/roomflow/contracts/Roomflow.sol\":5175:5200  space.subtitle = subtitle */\n      dup16\n      swap1\n      mstore\n        /* \"AndroidStudioProjects/roomflow/contracts/Roomflow.sol\":5215:5232  space.description */\n      swap1\n      dup9\n      add\n        /* \"AndroidStudioProjects/roomflow/contracts/Roomflow.sol\":5215:5246  space.description = description */\n      dup14\n      swap1\n      mstore\n        /* \"AndroidStudioProjects/roomflow/contracts/Roomflow.sol\":5261:5273  space.images */\n      swap5\n      dup8\n      add\n        /* \"AndroidStudioProjects/roomflow/contracts/Roomflow.sol\":5261:5282  space.images = images */\n      dup12\n      swap1\n      mstore\n        /* \"AndroidStudioProjects/roomflow/contracts/Roomflow.sol\":5297:5308  space.rooms */\n      dup7\n      add\n        /* \"AndroidStudioProjects/roomflow/contracts/Roomflow.sol\":5297:5316  space.rooms = rooms */\n      dup10\n      swap1\n      mstore\n        /* \"AndroidStudioProjects/roomflow/contracts/Roomflow.sol\":5331:5342  space.price */\n      swap4\n      dup6\n      add\n        /* \"AndroidStudioProjects/roomflow/contracts/Roomflow.sol\":5331:5350  space.price = price */\n      dup8\n      swap1\n      mstore\n      0x00\n        /* \"AndroidStudioProjects/roomflow/contracts/Roomflow.sol\":5367:5377  spaces[id] */\n      dup14\n      dup2\n      mstore\n      swap2\n      mstore\n      swap2\n      swap1\n      swap2\n      keccak256\n        /* \"AndroidStudioProjects/roomflow/contracts/Roomflow.sol\":5367:5385  spaces[id] = space */\n      dup3\n      mload\n      dup2\n      sstore\n      swap1\n      mload\n        /* \"AndroidStudioProjects/roomflow/contracts/Roomflow.sol\":5088:5126  SpaceListing memory space = spaces[id] */\n      swap2\n      swap3\n      pop\n      dup3\n      swap2\n      0x01\n        /* \"AndroidStudioProjects/roomflow/contracts/Roomflow.sol\":5367:5385  spaces[id] = space */\n      dup3\n      add\n      swap1\n      tag_387\n      swap1\n      dup3\n      tag_313\n      jump\t// in\n    tag_387:\n      pop\n      0x40\n      dup3\n      add\n      mload\n      0x02\n      dup3\n      add\n      swap1\n      tag_388\n      swap1\n      dup3\n      tag_313\n      jump\t// in\n    tag_388:\n      pop\n      0x60\n      dup3\n      add\n      mload\n      0x03\n      dup3\n      add\n      swap1\n      tag_389\n      swap1\n      dup3\n      tag_313\n      jump\t// in\n    tag_389:\n      pop\n      0x80\n      dup3\n      add\n      mload\n      0x04\n      dup3\n      add\n      swap1\n      tag_390\n      swap1\n      dup3\n      tag_313\n      jump\t// in\n    tag_390:\n      pop\n      0xa0\n      dup3\n      add\n      mload\n      0x05\n      dup3\n      add\n      sstore\n      0xc0\n      dup3\n      add\n      mload\n      0x06\n      dup3\n      add\n      sstore\n      0xe0\n      dup3\n      add\n      mload\n      0x07\n      dup3\n      add\n      dup1\n      sload\n      0x0100\n      dup6\n      add\n      mload\n      0x0120\n      dup7\n      add\n      mload\n      0x0140\n      dup8\n      add\n      mload\n      iszero\n      iszero\n      shl(0xb0, 0x01)\n      mul\n      not(shl(0xb0, 0xff))\n      swap2\n      iszero\n      iszero\n      shl(0xa8, 0x01)\n      mul\n      swap2\n      swap1\n      swap2\n      and\n      not(shl(0xa8, 0xffff))\n      swap3\n      iszero\n      iszero\n      shl(0xa0, 0x01)\n      mul\n      not(sub(shl(0xa8, 0x01), 0x01))\n      swap1\n      swap5\n      and\n      sub(shl(0xa0, 0x01), 0x01)\n      swap1\n      swap7\n      and\n      swap6\n      swap1\n      swap6\n      or\n      swap3\n      swap1\n      swap3\n      or\n      and\n      swap3\n      swap1\n      swap3\n      or\n      swap2\n      swap1\n      swap2\n      or\n      swap1\n      sstore\n      0x0160\n      swap1\n      swap2\n      add\n      mload\n      0x08\n      swap1\n      swap2\n      add\n      sstore\n        /* \"AndroidStudioProjects/roomflow/contracts/Roomflow.sol\":5405:5433  SpaceUpdated(id, msg.sender) */\n      mload(0x40)\n        /* \"AndroidStudioProjects/roomflow/contracts/Roomflow.sol\":5422:5432  msg.sender */\n      caller\n      swap1\n        /* \"AndroidStudioProjects/roomflow/contracts/Roomflow.sol\":5418:5420  id */\n      dup10\n      swap1\n        /* \"AndroidStudioProjects/roomflow/contracts/Roomflow.sol\":5405:5433  SpaceUpdated(id, msg.sender) */\n      0x8c1f88cc5fde6e96b35b272bc40125010157a55a39ae25a74f80275ba7d2ba6e\n      swap1\n      0x00\n      swap1\n      log3\n        /* \"AndroidStudioProjects/roomflow/contracts/Roomflow.sol\":4445:5445  {... */\n      pop\n        /* \"AndroidStudioProjects/roomflow/contracts/Roomflow.sol\":4188:5445  function updateSpace(... */\n      pop\n      pop\n      pop\n      pop\n      pop\n      pop\n      pop\n      jump\t// out\n        /* \"AndroidStudioProjects/roomflow/contracts/Roomflow.sol\":6415:6528  function getSpace(uint id) public view returns (SpaceListing memory) {... */\n    tag_94:\n        /* \"AndroidStudioProjects/roomflow/contracts/Roomflow.sol\":6463:6482  SpaceListing memory */\n      tag_391\n      tag_259\n      jump\t// in\n    tag_391:\n        /* \"AndroidStudioProjects/roomflow/contracts/Roomflow.sol\":6506:6512  spaces */\n      0x06\n        /* \"AndroidStudioProjects/roomflow/contracts/Roomflow.sol\":6506:6516  spaces[id] */\n      0x00\n        /* \"AndroidStudioProjects/roomflow/contracts/Roomflow.sol\":6513:6515  id */\n      dup4\n        /* \"AndroidStudioProjects/roomflow/contracts/Roomflow.sol\":6506:6516  spaces[id] */\n      dup2\n      mstore\n      0x20\n      add\n      swap1\n      dup2\n      mstore\n      0x20\n      add\n      0x00\n      keccak256\n        /* \"AndroidStudioProjects/roomflow/contracts/Roomflow.sol\":6499:6516  return spaces[id] */\n      mload(0x40)\n      dup1\n      0x0180\n      add\n      0x40\n      mstore\n      swap1\n      dup2\n      0x00\n      dup3\n      add\n      sload\n      dup2\n      mstore\n      0x20\n      add\n      0x01\n      dup3\n      add\n      dup1\n      sload\n      tag_393\n      swap1\n      tag_266\n      jump\t// in\n    tag_393:\n      dup1\n      0x1f\n      add\n      0x20\n      dup1\n      swap2\n      div\n      mul\n      0x20\n      add\n      mload(0x40)\n      swap1\n      dup2\n      add\n      0x40\n      mstore\n      dup1\n      swap3\n      swap2\n      swap1\n      dup2\n      dup2\n      mstore\n      0x20\n      add\n      dup3\n      dup1\n      sload\n      tag_394\n      swap1\n      tag_266\n      jump\t// in\n    tag_394:\n      dup1\n      iszero\n      tag_395\n      jumpi\n      dup1\n      0x1f\n      lt\n      tag_396\n      jumpi\n      0x0100\n      dup1\n      dup4\n      sload\n      div\n      mul\n      dup4\n      mstore\n      swap2\n      0x20\n      add\n      swap2\n      jump(tag_395)\n    tag_396:\n      dup3\n      add\n      swap2\n      swap1\n      0x00\n      mstore\n      keccak256(0x00, 0x20)\n      swap1\n    tag_397:\n      dup2\n      sload\n      dup2\n      mstore\n      swap1\n      0x01\n      add\n      swap1\n      0x20\n      add\n      dup1\n      dup4\n      gt\n      tag_397\n      jumpi\n      dup3\n      swap1\n      sub\n      0x1f\n      and\n      dup3\n      add\n      swap2\n    tag_395:\n      pop\n      pop\n      pop\n      pop\n      pop\n      dup2\n      mstore\n      0x20\n      add\n      0x02\n      dup3\n      add\n      dup1\n      sload\n      tag_398\n      swap1\n      tag_266\n      jump\t// in\n    tag_398:\n      dup1\n      0x1f\n      add\n      0x20\n      dup1\n      swap2\n      div\n      mul\n      0x20\n      add\n      mload(0x40)\n      swap1\n      dup2\n      add\n      0x40\n      mstore\n      dup1\n      swap3\n      swap2\n      swap1\n      dup2\n      dup2\n      mstore\n      0x20\n      add\n      dup3\n      dup1\n      sload\n      tag_399\n      swap1\n      tag_266\n      jump\t// in\n    tag_399:\n      dup1\n      iszero\n      tag_400\n      jumpi\n      dup1\n      0x1f\n      lt\n      tag_401\n      jumpi\n      0x0100\n      dup1\n      dup4\n      sload\n      div\n      mul\n      dup4\n      mstore\n      swap2\n      0x20\n      add\n      swap2\n      jump(tag_400)\n    tag_401:\n      dup3\n      add\n      swap2\n      swap1\n      0x00\n      mstore\n      keccak256(0x00, 0x20)\n      swap1\n    tag_402:\n      dup2\n      sload\n      dup2\n      mstore\n      swap1\n      0x01\n      add\n      swap1\n      0x20\n      add\n      dup1\n      dup4\n      gt\n      tag_402\n      jumpi\n      dup3\n      swap1\n      sub\n      0x1f\n      and\n      dup3\n      add\n      swap2\n    tag_400:\n      pop\n      pop\n      pop\n      pop\n      pop\n      dup2\n      mstore\n      0x20\n      add\n      0x03\n      dup3\n      add\n      dup1\n      sload\n      tag_403\n      swap1\n      tag_266\n      jump\t// in\n    tag_403:\n      dup1\n      0x1f\n      add\n      0x20\n      dup1\n      swap2\n      div\n      mul\n      0x20\n      add\n      mload(0x40)\n      swap1\n      dup2\n      add\n      0x40\n      mstore\n      dup1\n      swap3\n      swap2\n      swap1\n      dup2\n      dup2\n      mstore\n      0x20\n      add\n      dup3\n      dup1\n      sload\n      tag_404\n      swap1\n      tag_266\n      jump\t// in\n    tag_404:\n      dup1\n      iszero\n      tag_405\n      jumpi\n      dup1\n      0x1f\n      lt\n      tag_406\n      jumpi\n      0x0100\n      dup1\n      dup4\n      sload\n      div\n      mul\n      dup4\n      mstore\n      swap2\n      0x20\n      add\n      swap2\n      jump(tag_405)\n    tag_406:\n      dup3\n      add\n      swap2\n      swap1\n      0x00\n      mstore\n      keccak256(0x00, 0x20)\n      swap1\n    tag_407:\n      dup2\n      sload\n      dup2\n      mstore\n      swap1\n      0x01\n      add\n      swap1\n      0x20\n      add\n      dup1\n      dup4\n      gt\n      tag_407\n      jumpi\n      dup3\n      swap1\n      sub\n      0x1f\n      and\n      dup3\n      add\n      swap2\n    tag_405:\n      pop\n      pop\n      pop\n      pop\n      pop\n      dup2\n      mstore\n      0x20\n      add\n      0x04\n      dup3\n      add\n      dup1\n      sload\n      tag_408\n      swap1\n      tag_266\n      jump\t// in\n    tag_408:\n      dup1\n      0x1f\n      add\n      0x20\n      dup1\n      swap2\n      div\n      mul\n      0x20\n      add\n      mload(0x40)\n      swap1\n      dup2\n      add\n      0x40\n      mstore\n      dup1\n      swap3\n      swap2\n      swap1\n      dup2\n      dup2\n      mstore\n      0x20\n      add\n      dup3\n      dup1\n      sload\n      tag_409\n      swap1\n      tag_266\n      jump\t// in\n    tag_409:\n      dup1\n      iszero\n      tag_410\n      jumpi\n      dup1\n      0x1f\n      lt\n      tag_411\n      jumpi\n      0x0100\n      dup1\n      dup4\n      sload\n      div\n      mul\n      dup4\n      mstore\n      swap2\n      0x20\n      add\n      swap2\n      jump(tag_410)\n    tag_411:\n      dup3\n      add\n      swap2\n      swap1\n      0x00\n      mstore\n      keccak256(0x00, 0x20)\n      swap1\n    tag_412:\n      dup2\n      sload\n      dup2\n      mstore\n      swap1\n      0x01\n      add\n      swap1\n      0x20\n      add\n      dup1\n      dup4\n      gt\n      tag_412\n      jumpi\n      dup3\n      swap1\n      sub\n      0x1f\n      and\n      dup3\n      add\n      swap2\n    tag_410:\n      pop\n      pop\n      pop\n      swap2\n      dup4\n      mstore\n      pop\n      pop\n      0x05\n      dup3\n      add\n      sload\n      0x20\n      dup3\n      add\n      mstore\n      0x06\n      dup3\n      add\n      sload\n      0x40\n      dup3\n      add\n      mstore\n      0x07\n      dup3\n      add\n      sload\n      sub(shl(0xa0, 0x01), 0x01)\n      dup2\n      and\n      0x60\n      dup4\n      add\n      mstore\n      0xff\n      shl(0xa0, 0x01)\n      dup3\n      div\n      dup2\n      and\n      iszero\n      iszero\n      0x80\n      dup5\n      add\n      mstore\n      shl(0xa8, 0x01)\n      dup3\n      div\n      dup2\n      and\n      iszero\n      iszero\n      0xa0\n      dup5\n      add\n      mstore\n      shl(0xb0, 0x01)\n      swap1\n      swap2\n      div\n      and\n      iszero\n      iszero\n      0xc0\n      dup3\n      add\n      mstore\n      0x08\n      swap1\n      swap2\n      add\n      sload\n      0xe0\n      swap1\n      swap2\n      add\n      mstore\n      swap3\n        /* \"AndroidStudioProjects/roomflow/contracts/Roomflow.sol\":6415:6528  function getSpace(uint id) public view returns (SpaceListing memory) {... */\n      swap2\n      pop\n      pop\n      jump\t// out\n        /* \"@openzeppelin/contracts/access/Ownable.sol\":1824:1925  function renounceOwnership() public virtual onlyOwner {... */\n    tag_99:\n        /* \"@openzeppelin/contracts/access/Ownable.sol\":1094:1107  _checkOwner() */\n      tag_414\n        /* \"@openzeppelin/contracts/access/Ownable.sol\":1094:1105  _checkOwner */\n      tag_343\n        /* \"@openzeppelin/contracts/access/Ownable.sol\":1094:1107  _checkOwner() */\n      jump\t// in\n    tag_414:\n        /* \"@openzeppelin/contracts/access/Ownable.sol\":1888:1918  _transferOwnership(address(0)) */\n      tag_416\n        /* \"@openzeppelin/contracts/access/Ownable.sol\":1915:1916  0 */\n      0x00\n        /* \"@openzeppelin/contracts/access/Ownable.sol\":1888:1906  _transferOwnership */\n      tag_417\n        /* \"@openzeppelin/contracts/access/Ownable.sol\":1888:1918  _transferOwnership(address(0)) */\n      jump\t// in\n    tag_416:\n        /* \"@openzeppelin/contracts/access/Ownable.sol\":1824:1925  function renounceOwnership() public virtual onlyOwner {... */\n      jump\t// out\n        /* \"AndroidStudioProjects/roomflow/contracts/Roomflow.sol\":2330:2373  mapping(uint => SpaceListing) public spaces */\n    tag_108:\n      mstore(0x20, 0x06)\n      0x00\n      swap1\n      dup2\n      mstore\n      0x40\n      swap1\n      keccak256\n      dup1\n      sload\n      0x01\n      dup3\n      add\n      dup1\n      sload\n      swap2\n      swap3\n      swap2\n      tag_418\n      swap1\n      tag_266\n      jump\t// in\n    tag_418:\n      dup1\n      0x1f\n      add\n      0x20\n      dup1\n      swap2\n      div\n      mul\n      0x20\n      add\n      mload(0x40)\n      swap1\n      dup2\n      add\n      0x40\n      mstore\n      dup1\n      swap3\n      swap2\n      swap1\n      dup2\n      dup2\n      mstore\n      0x20\n      add\n      dup3\n      dup1\n      sload\n      tag_419\n      swap1\n      tag_266\n      jump\t// in\n    tag_419:\n      dup1\n      iszero\n      tag_420\n      jumpi\n      dup1\n      0x1f\n      lt\n      tag_421\n      jumpi\n      0x0100\n      dup1\n      dup4\n      sload\n      div\n      mul\n      dup4\n      mstore\n      swap2\n      0x20\n      add\n      swap2\n      jump(tag_420)\n    tag_421:\n      dup3\n      add\n      swap2\n      swap1\n      0x00\n      mstore\n      keccak256(0x00, 0x20)\n      swap1\n    tag_422:\n      dup2\n      sload\n      dup2\n      mstore\n      swap1\n      0x01\n      add\n      swap1\n      0x20\n      add\n      dup1\n      dup4\n      gt\n      tag_422\n      jumpi\n      dup3\n      swap1\n      sub\n      0x1f\n      and\n      dup3\n      add\n      swap2\n    tag_420:\n      pop\n      pop\n      pop\n      pop\n      pop\n      swap1\n      dup1\n      0x02\n      add\n      dup1\n      sload\n      tag_423\n      swap1\n      tag_266\n      jump\t// in\n    tag_423:\n      dup1\n      0x1f\n      add\n      0x20\n      dup1\n      swap2\n      div\n      mul\n      0x20\n      add\n      mload(0x40)\n      swap1\n      dup2\n      add\n      0x40\n      mstore\n      dup1\n      swap3\n      swap2\n      swap1\n      dup2\n      dup2\n      mstore\n      0x20\n      add\n      dup3\n      dup1\n      sload\n      tag_424\n      swap1\n      tag_266\n      jump\t// in\n    tag_424:\n      dup1\n      iszero\n      tag_425\n      jumpi\n      dup1\n      0x1f\n      lt\n      tag_426\n      jumpi\n      0x0100\n      dup1\n      dup4\n      sload\n      div\n      mul\n      dup4\n      mstore\n      swap2\n      0x20\n      add\n      swap2\n      jump(tag_425)\n    tag_426:\n      dup3\n      add\n      swap2\n      swap1\n      0x00\n      mstore\n      keccak256(0x00, 0x20)\n      swap1\n    tag_427:\n      dup2\n      sload\n      dup2\n      mstore\n      swap1\n      0x01\n      add\n      swap1\n      0x20\n      add\n      dup1\n      dup4\n      gt\n      tag_427\n      jumpi\n      dup3\n      swap1\n      sub\n      0x1f\n      and\n      dup3\n      add\n      swap2\n    tag_425:\n      pop\n      pop\n      pop\n      pop\n      pop\n      swap1\n      dup1\n      0x03\n      add\n      dup1\n      sload\n      tag_428\n      swap1\n      tag_266\n      jump\t// in\n    tag_428:\n      dup1\n      0x1f\n      add\n      0x20\n      dup1\n      swap2\n      div\n      mul\n      0x20\n      add\n      mload(0x40)\n      swap1\n      dup2\n      add\n      0x40\n      mstore\n      dup1\n      swap3\n      swap2\n      swap1\n      dup2\n      dup2\n      mstore\n      0x20\n      add\n      dup3\n      dup1\n      sload\n      tag_429\n      swap1\n      tag_266\n      jump\t// in\n    tag_429:\n      dup1\n      iszero\n      tag_430\n      jumpi\n      dup1\n      0x1f\n      lt\n      tag_431\n      jumpi\n      0x0100\n      dup1\n      dup4\n      sload\n      div\n      mul\n      dup4\n      mstore\n      swap2\n      0x20\n      add\n      swap2\n      jump(tag_430)\n    tag_431:\n      dup3\n      add\n      swap2\n      swap1\n      0x00\n      mstore\n      keccak256(0x00, 0x20)\n      swap1\n    tag_432:\n      dup2\n      sload\n      dup2\n      mstore\n      swap1\n      0x01\n      add\n      swap1\n      0x20\n      add\n      dup1\n      dup4\n      gt\n      tag_432\n      jumpi\n      dup3\n      swap1\n      sub\n      0x1f\n      and\n      dup3\n      add\n      swap2\n    tag_430:\n      pop\n      pop\n      pop\n      pop\n      pop\n      swap1\n      dup1\n      0x04\n      add\n      dup1\n      sload\n      tag_433\n      swap1\n      tag_266\n      jump\t// in\n    tag_433:\n      dup1\n      0x1f\n      add\n      0x20\n      dup1\n      swap2\n      div\n      mul\n      0x20\n      add\n      mload(0x40)\n      swap1\n      dup2\n      add\n      0x40\n      mstore\n      dup1\n      swap3\n      swap2\n      swap1\n      dup2\n      dup2\n      mstore\n      0x20\n      add\n      dup3\n      dup1\n      sload\n      tag_434\n      swap1\n      tag_266\n      jump\t// in\n    tag_434:\n      dup1\n      iszero\n      tag_435\n      jumpi\n      dup1\n      0x1f\n      lt\n      tag_436\n      jumpi\n      0x0100\n      dup1\n      dup4\n      sload\n      div\n      mul\n      dup4\n      mstore\n      swap2\n      0x20\n      add\n      swap2\n      jump(tag_435)\n    tag_436:\n      dup3\n      add\n      swap2\n      swap1\n      0x00\n      mstore\n      keccak256(0x00, 0x20)\n      swap1\n    tag_437:\n      dup2\n      sload\n      dup2\n      mstore\n      swap1\n      0x01\n      add\n      swap1\n      0x20\n      add\n      dup1\n      dup4\n      gt\n      tag_437\n      jumpi\n      dup3\n      swap1\n      sub\n      0x1f\n      and\n      dup3\n      add\n      swap2\n    tag_435:\n      pop\n      pop\n      pop\n      0x05\n      dup5\n      add\n      sload\n      0x06\n      dup6\n      add\n      sload\n      0x07\n      dup7\n      add\n      sload\n      0x08\n      swap1\n      swap7\n      add\n      sload\n      swap5\n      swap6\n      swap2\n      swap5\n      swap1\n      swap4\n      pop\n      sub(shl(0xa0, 0x01), 0x01)\n      dup3\n      and\n      swap3\n      pop\n      0xff\n      shl(0xa0, 0x01)\n      dup4\n      div\n      dup2\n      and\n      swap3\n      shl(0xa8, 0x01)\n      dup2\n      div\n      dup3\n      and\n      swap3\n      shl(0xb0, 0x01)\n      swap1\n      swap2\n      div\n      swap1\n      swap2\n      and\n      swap1\n      dup13\n      jump\t// out\n        /* \"AndroidStudioProjects/roomflow/contracts/Roomflow.sol\":2439:2481  mapping(uint => Review[]) public reviewsOf */\n    tag_125:\n      mstore(0x20, 0x08)\n      dup2\n      0x00\n      mstore\n      keccak256(0x00, 0x40)\n      dup2\n      dup2\n      sload\n      dup2\n      lt\n      tag_439\n      jumpi\n      0x00\n      dup1\n      revert\n    tag_439:\n      swap1\n      0x00\n      mstore\n      keccak256(0x00, 0x20)\n      swap1\n      0x05\n      mul\n      add\n      0x00\n      swap2\n      pop\n      swap2\n      pop\n      pop\n      dup1\n      0x00\n      add\n      sload\n      swap1\n      dup1\n      0x01\n      add\n      sload\n      swap1\n      dup1\n      0x02\n      add\n      dup1\n      sload\n      tag_441\n      swap1\n      tag_266\n      jump\t// in\n    tag_441:\n      dup1\n      0x1f\n      add\n      0x20\n      dup1\n      swap2\n      div\n      mul\n      0x20\n      add\n      mload(0x40)\n      swap1\n      dup2\n      add\n      0x40\n      mstore\n      dup1\n      swap3\n      swap2\n      swap1\n      dup2\n      dup2\n      mstore\n      0x20\n      add\n      dup3\n      dup1\n      sload\n      tag_442\n      swap1\n      tag_266\n      jump\t// in\n    tag_442:\n      dup1\n      iszero\n      tag_443\n      jumpi\n      dup1\n      0x1f\n      lt\n      tag_444\n      jumpi\n      0x0100\n      dup1\n      dup4\n      sload\n      div\n      mul\n      dup4\n      mstore\n      swap2\n      0x20\n      add\n      swap2\n      jump(tag_443)\n    tag_444:\n      dup3\n      add\n      swap2\n      swap1\n      0x00\n      mstore\n      keccak256(0x00, 0x20)\n      swap1\n    tag_445:\n      dup2\n      sload\n      dup2\n      mstore\n      swap1\n      0x01\n      add\n      swap1\n      0x20\n      add\n      dup1\n      dup4\n      gt\n      tag_445\n      jumpi\n      dup3\n      swap1\n      sub\n      0x1f\n      and\n      dup3\n      add\n      swap2\n    tag_443:\n      pop\n      pop\n      pop\n      pop\n      0x03\n      dup4\n      add\n      sload\n      0x04\n      swap1\n      swap4\n      add\n      sload\n      swap2\n      swap3\n      swap2\n      sub(shl(0xa0, 0x01), 0x01)\n      and\n      swap1\n      pop\n      dup6\n      jump\t// out\n        /* \"AndroidStudioProjects/roomflow/contracts/Roomflow.sol\":12504:12628  function getReviews(uint spaceId) public view returns (Review[] memory) {... */\n    tag_131:\n        /* \"AndroidStudioProjects/roomflow/contracts/Roomflow.sol\":12559:12574  Review[] memory */\n      0x60\n        /* \"AndroidStudioProjects/roomflow/contracts/Roomflow.sol\":12598:12607  reviewsOf */\n      0x08\n        /* \"AndroidStudioProjects/roomflow/contracts/Roomflow.sol\":12598:12616  reviewsOf[spaceId] */\n      0x00\n        /* \"AndroidStudioProjects/roomflow/contracts/Roomflow.sol\":12608:12615  spaceId */\n      dup4\n        /* \"AndroidStudioProjects/roomflow/contracts/Roomflow.sol\":12598:12616  reviewsOf[spaceId] */\n      dup2\n      mstore\n      0x20\n      add\n      swap1\n      dup2\n      mstore\n      0x20\n      add\n      0x00\n      keccak256\n        /* \"AndroidStudioProjects/roomflow/contracts/Roomflow.sol\":12591:12616  return reviewsOf[spaceId] */\n      dup1\n      sload\n      dup1\n      0x20\n      mul\n      0x20\n      add\n      mload(0x40)\n      swap1\n      dup2\n      add\n      0x40\n      mstore\n      dup1\n      swap3\n      swap2\n      swap1\n      dup2\n      dup2\n      mstore\n      0x20\n      add\n      0x00\n      swap1\n    tag_447:\n      dup3\n      dup3\n      lt\n      iszero\n      tag_448\n      jumpi\n      dup4\n      dup3\n      swap1\n      0x00\n      mstore\n      keccak256(0x00, 0x20)\n      swap1\n      0x05\n      mul\n      add\n      mload(0x40)\n      dup1\n      0xa0\n      add\n      0x40\n      mstore\n      swap1\n      dup2\n      0x00\n      dup3\n      add\n      sload\n      dup2\n      mstore\n      0x20\n      add\n      0x01\n      dup3\n      add\n      sload\n      dup2\n      mstore\n      0x20\n      add\n      0x02\n      dup3\n      add\n      dup1\n      sload\n      tag_450\n      swap1\n      tag_266\n      jump\t// in\n    tag_450:\n      dup1\n      0x1f\n      add\n      0x20\n      dup1\n      swap2\n      div\n      mul\n      0x20\n      add\n      mload(0x40)\n      swap1\n      dup2\n      add\n      0x40\n      mstore\n      dup1\n      swap3\n      swap2\n      swap1\n      dup2\n      dup2\n      mstore\n      0x20\n      add\n      dup3\n      dup1\n      sload\n      tag_451\n      swap1\n      tag_266\n      jump\t// in\n    tag_451:\n      dup1\n      iszero\n      tag_452\n      jumpi\n      dup1\n      0x1f\n      lt\n      tag_453\n      jumpi\n      0x0100\n      dup1\n      dup4\n      sload\n      div\n      mul\n      dup4\n      mstore\n      swap2\n      0x20\n      add\n      swap2\n      jump(tag_452)\n    tag_453:\n      dup3\n      add\n      swap2\n      swap1\n      0x00\n      mstore\n      keccak256(0x00, 0x20)\n      swap1\n    tag_454:\n      dup2\n      sload\n      dup2\n      mstore\n      swap1\n      0x01\n      add\n      swap1\n      0x20\n      add\n      dup1\n      dup4\n      gt\n      tag_454\n      jumpi\n      dup3\n      swap1\n      sub\n      0x1f\n      and\n      dup3\n      add\n      swap2\n    tag_452:\n      pop\n      pop\n      pop\n      swap2\n      dup4\n      mstore\n      pop\n      pop\n      0x03\n      dup3\n      add\n      sload\n      0x20\n      dup1\n      dup4\n      add\n      swap2\n      swap1\n      swap2\n      mstore\n      0x04\n      swap1\n      swap3\n      add\n      sload\n      sub(shl(0xa0, 0x01), 0x01)\n      and\n      0x40\n      swap1\n      swap2\n      add\n      mstore\n      swap1\n      dup3\n      mstore\n      0x01\n      swap3\n      swap1\n      swap3\n      add\n      swap2\n      add\n      jump(tag_447)\n    tag_448:\n      pop\n      pop\n      pop\n      pop\n      swap1\n      pop\n        /* \"AndroidStudioProjects/roomflow/contracts/Roomflow.sol\":12504:12628  function getReviews(uint spaceId) public view returns (Review[] memory) {... */\n      swap2\n      swap1\n      pop\n      jump\t// out\n        /* \"AndroidStudioProjects/roomflow/contracts/Roomflow.sol\":2543:2585  mapping(uint => uint[]) public bookedDates */\n    tag_147:\n      mstore(0x20, 0x0a)\n      dup2\n      0x00\n      mstore\n      keccak256(0x00, 0x40)\n      dup2\n      dup2\n      sload\n      dup2\n      lt\n      tag_456\n      jumpi\n      0x00\n      dup1\n      revert\n    tag_456:\n      swap1\n      0x00\n      mstore\n      keccak256(0x00, 0x20)\n      add\n      0x00\n      swap2\n      pop\n      swap2\n      pop\n      pop\n      sload\n      dup2\n      jump\t// out\n        /* \"AndroidStudioProjects/roomflow/contracts/Roomflow.sol\":5457:5773  function deleteSpace(uint id) public {... */\n    tag_152:\n        /* \"AndroidStudioProjects/roomflow/contracts/Roomflow.sol\":5517:5532  spaceExists[id] */\n      0x00\n      dup2\n      dup2\n      mstore\n        /* \"AndroidStudioProjects/roomflow/contracts/Roomflow.sol\":5517:5528  spaceExists */\n      0x09\n        /* \"AndroidStudioProjects/roomflow/contracts/Roomflow.sol\":5517:5532  spaceExists[id] */\n      0x20\n      mstore\n      0x40\n      swap1\n      keccak256\n      sload\n      0xff\n      and\n        /* \"AndroidStudioProjects/roomflow/contracts/Roomflow.sol\":5509:5556  require(spaceExists[id], \"Space not available\") */\n      tag_459\n      jumpi\n      mload(0x40)\n      shl(0xe5, 0x461bcd)\n      dup2\n      mstore\n      0x04\n      add\n      tag_193\n      swap1\n      tag_328\n      jump\t// in\n    tag_459:\n        /* \"AndroidStudioProjects/roomflow/contracts/Roomflow.sol\":5579:5589  spaces[id] */\n      0x00\n      dup2\n      dup2\n      mstore\n        /* \"AndroidStudioProjects/roomflow/contracts/Roomflow.sol\":5579:5585  spaces */\n      0x06\n        /* \"AndroidStudioProjects/roomflow/contracts/Roomflow.sol\":5579:5589  spaces[id] */\n      0x20\n      mstore\n      0x40\n      swap1\n      keccak256\n        /* \"AndroidStudioProjects/roomflow/contracts/Roomflow.sol\":5579:5595  spaces[id].owner */\n      0x07\n      add\n      sload\n      sub(shl(0xa0, 0x01), 0x01)\n      and\n        /* \"AndroidStudioProjects/roomflow/contracts/Roomflow.sol\":5599:5609  msg.sender */\n      caller\n        /* \"AndroidStudioProjects/roomflow/contracts/Roomflow.sol\":5579:5609  spaces[id].owner == msg.sender */\n      eq\n        /* \"AndroidStudioProjects/roomflow/contracts/Roomflow.sol\":5571:5633  require(spaces[id].owner == msg.sender, \"Unauthorized entity\") */\n      tag_461\n      jumpi\n      mload(0x40)\n      shl(0xe5, 0x461bcd)\n      dup2\n      mstore\n        /* \"#utility.yul\":14922:14924   */\n      0x20\n        /* \"AndroidStudioProjects/roomflow/contracts/Roomflow.sol\":5571:5633  require(spaces[id].owner == msg.sender, \"Unauthorized entity\") */\n      0x04\n      dup3\n      add\n        /* \"#utility.yul\":14904:14925   */\n      mstore\n        /* \"#utility.yul\":14961:14963   */\n      0x13\n        /* \"#utility.yul\":14941:14959   */\n      0x24\n      dup3\n      add\n        /* \"#utility.yul\":14934:14964   */\n      mstore\n      shl(0x68, 0x556e617574686f72697a656420656e74697479)\n        /* \"#utility.yul\":14980:14998   */\n      0x44\n      dup3\n      add\n        /* \"#utility.yul\":14973:15022   */\n      mstore\n        /* \"#utility.yul\":15039:15057   */\n      0x64\n      add\n        /* \"AndroidStudioProjects/roomflow/contracts/Roomflow.sol\":5571:5633  require(spaces[id].owner == msg.sender, \"Unauthorized entity\") */\n      tag_193\n        /* \"#utility.yul\":14720:15063   */\n      jump\n        /* \"AndroidStudioProjects/roomflow/contracts/Roomflow.sol\":5571:5633  require(spaces[id].owner == msg.sender, \"Unauthorized entity\") */\n    tag_461:\n        /* \"AndroidStudioProjects/roomflow/contracts/Roomflow.sol\":5668:5673  false */\n      0x00\n        /* \"AndroidStudioProjects/roomflow/contracts/Roomflow.sol\":5650:5665  spaceExists[id] */\n      dup2\n      dup2\n      mstore\n        /* \"AndroidStudioProjects/roomflow/contracts/Roomflow.sol\":5650:5661  spaceExists */\n      0x09\n        /* \"AndroidStudioProjects/roomflow/contracts/Roomflow.sol\":5650:5665  spaceExists[id] */\n      0x20\n      swap1\n      dup2\n      mstore\n      0x40\n      dup1\n      dup4\n      keccak256\n        /* \"AndroidStudioProjects/roomflow/contracts/Roomflow.sol\":5650:5673  spaceExists[id] = false */\n      dup1\n      sload\n      not(0xff)\n      and\n      swap1\n      sstore\n        /* \"AndroidStudioProjects/roomflow/contracts/Roomflow.sol\":5688:5694  spaces */\n      0x06\n        /* \"AndroidStudioProjects/roomflow/contracts/Roomflow.sol\":5688:5698  spaces[id] */\n      swap1\n      swap2\n      mstore\n      dup1\n      dup3\n      keccak256\n        /* \"AndroidStudioProjects/roomflow/contracts/Roomflow.sol\":5688:5706  spaces[id].deleted */\n      0x07\n      add\n        /* \"AndroidStudioProjects/roomflow/contracts/Roomflow.sol\":5688:5713  spaces[id].deleted = true */\n      dup1\n      sload\n      not(shl(0xa8, 0xff))\n      and\n      shl(0xa8, 0x01)\n      or\n      swap1\n      sstore\n        /* \"AndroidStudioProjects/roomflow/contracts/Roomflow.sol\":5733:5761  SpaceDeleted(id, msg.sender) */\n      mload\n        /* \"AndroidStudioProjects/roomflow/contracts/Roomflow.sol\":5750:5760  msg.sender */\n      caller\n      swap2\n        /* \"AndroidStudioProjects/roomflow/contracts/Roomflow.sol\":5662:5664  id */\n      dup4\n      swap2\n        /* \"AndroidStudioProjects/roomflow/contracts/Roomflow.sol\":5733:5761  SpaceDeleted(id, msg.sender) */\n      0xd473bfc963d89546be6b7891f87adc6e3a54f911cce733a781c0f4111f34af74\n      swap2\n        /* \"AndroidStudioProjects/roomflow/contracts/Roomflow.sol\":5668:5673  false */\n      swap1\n        /* \"AndroidStudioProjects/roomflow/contracts/Roomflow.sol\":5733:5761  SpaceDeleted(id, msg.sender) */\n      log3\n        /* \"AndroidStudioProjects/roomflow/contracts/Roomflow.sol\":5457:5773  function deleteSpace(uint id) public {... */\n      pop\n      jump\t// out\n        /* \"AndroidStudioProjects/roomflow/contracts/Roomflow.sol\":10971:11094  function getUnavailableDates(uint id) public view returns (uint[] memory) {... */\n    tag_160:\n        /* \"AndroidStudioProjects/roomflow/contracts/Roomflow.sol\":11067:11082  bookedDates[id] */\n      0x00\n      dup2\n      dup2\n      mstore\n        /* \"AndroidStudioProjects/roomflow/contracts/Roomflow.sol\":11067:11078  bookedDates */\n      0x0a\n        /* \"AndroidStudioProjects/roomflow/contracts/Roomflow.sol\":11067:11082  bookedDates[id] */\n      0x20\n      swap1\n      dup2\n      mstore\n      0x40\n      swap2\n      dup3\n      swap1\n      keccak256\n        /* \"AndroidStudioProjects/roomflow/contracts/Roomflow.sol\":11060:11082  return bookedDates[id] */\n      dup1\n      sload\n      dup4\n      mload\n      dup2\n      dup5\n      mul\n      dup2\n      add\n      dup5\n      add\n      swap1\n      swap5\n      mstore\n      dup1\n      dup5\n      mstore\n        /* \"AndroidStudioProjects/roomflow/contracts/Roomflow.sol\":11030:11043  uint[] memory */\n      0x60\n      swap4\n        /* \"AndroidStudioProjects/roomflow/contracts/Roomflow.sol\":11060:11082  return bookedDates[id] */\n      swap3\n      dup4\n      add\n        /* \"AndroidStudioProjects/roomflow/contracts/Roomflow.sol\":11067:11082  bookedDates[id] */\n      dup3\n        /* \"AndroidStudioProjects/roomflow/contracts/Roomflow.sol\":11060:11082  return bookedDates[id] */\n      dup3\n      dup1\n      iszero\n      tag_464\n      jumpi\n      0x20\n      mul\n      dup3\n      add\n      swap2\n      swap1\n      0x00\n      mstore\n      keccak256(0x00, 0x20)\n      swap1\n    tag_465:\n      dup2\n      sload\n      dup2\n      mstore\n      0x20\n      add\n      swap1\n      0x01\n      add\n      swap1\n      dup1\n      dup4\n      gt\n      tag_465\n      jumpi\n    tag_464:\n      pop\n      pop\n      pop\n      pop\n      pop\n      swap1\n      pop\n        /* \"AndroidStudioProjects/roomflow/contracts/Roomflow.sol\":10971:11094  function getUnavailableDates(uint id) public view returns (uint[] memory) {... */\n      swap2\n      swap1\n      pop\n      jump\t// out\n        /* \"AndroidStudioProjects/roomflow/contracts/Roomflow.sol\":9409:10741  function refundBooking(... */\n    tag_167:\n        /* \"@openzeppelin/contracts/security/ReentrancyGuard.sol\":2261:2282  _nonReentrantBefore() */\n      tag_467\n        /* \"@openzeppelin/contracts/security/ReentrancyGuard.sol\":2261:2280  _nonReentrantBefore */\n      tag_468\n        /* \"@openzeppelin/contracts/security/ReentrancyGuard.sol\":2261:2282  _nonReentrantBefore() */\n      jump\t// in\n    tag_467:\n        /* \"AndroidStudioProjects/roomflow/contracts/Roomflow.sol\":9580:9594  bookingsOf[id] */\n      0x00\n      dup4\n      dup2\n      mstore\n        /* \"AndroidStudioProjects/roomflow/contracts/Roomflow.sol\":9580:9590  bookingsOf */\n      0x07\n        /* \"AndroidStudioProjects/roomflow/contracts/Roomflow.sol\":9580:9594  bookingsOf[id] */\n      0x20\n      mstore\n      0x40\n      swap1\n      keccak256\n        /* \"AndroidStudioProjects/roomflow/contracts/Roomflow.sol\":9580:9605  bookingsOf[id][bookingId] */\n      dup1\n      sload\n        /* \"AndroidStudioProjects/roomflow/contracts/Roomflow.sol\":9595:9604  bookingId */\n      dup4\n      swap1\n        /* \"AndroidStudioProjects/roomflow/contracts/Roomflow.sol\":9580:9605  bookingsOf[id][bookingId] */\n      dup2\n      lt\n      tag_471\n      jumpi\n      tag_471\n      tag_197\n      jump\t// in\n    tag_471:\n      0x00\n      swap2\n      dup3\n      mstore\n      0x20\n      swap1\n      swap2\n      keccak256\n        /* \"AndroidStudioProjects/roomflow/contracts/Roomflow.sol\":9580:9613  bookingsOf[id][bookingId].checked */\n      0x05\n        /* \"AndroidStudioProjects/roomflow/contracts/Roomflow.sol\":9580:9605  bookingsOf[id][bookingId] */\n      0x06\n      swap1\n      swap3\n      mul\n      add\n        /* \"AndroidStudioProjects/roomflow/contracts/Roomflow.sol\":9580:9613  bookingsOf[id][bookingId].checked */\n      add\n      sload\n      0xff\n      and\n        /* \"AndroidStudioProjects/roomflow/contracts/Roomflow.sol\":9579:9613  !bookingsOf[id][bookingId].checked */\n      iszero\n        /* \"AndroidStudioProjects/roomflow/contracts/Roomflow.sol\":9553:9687  require(... */\n      tag_473\n      jumpi\n      mload(0x40)\n      shl(0xe5, 0x461bcd)\n      dup2\n      mstore\n      0x04\n      add\n      tag_193\n      swap1\n      tag_201\n      jump\t// in\n    tag_473:\n        /* \"@openzeppelin/contracts/access/Ownable.sol\":1247:1254  address */\n      0x00\n        /* \"@openzeppelin/contracts/access/Ownable.sol\":1273:1279  _owner */\n      sload\n      sub(shl(0xa0, 0x01), 0x01)\n      and\n        /* \"AndroidStudioProjects/roomflow/contracts/Roomflow.sol\":9708:9718  msg.sender */\n      caller\n        /* \"AndroidStudioProjects/roomflow/contracts/Roomflow.sol\":9708:9729  msg.sender != owner() */\n      eq\n        /* \"AndroidStudioProjects/roomflow/contracts/Roomflow.sol\":9704:10093  if (msg.sender != owner()) {... */\n      tag_485\n      jumpi\n        /* \"AndroidStudioProjects/roomflow/contracts/Roomflow.sol\":9794:9808  bookingsOf[id] */\n      0x00\n      dup4\n      dup2\n      mstore\n        /* \"AndroidStudioProjects/roomflow/contracts/Roomflow.sol\":9794:9804  bookingsOf */\n      0x07\n        /* \"AndroidStudioProjects/roomflow/contracts/Roomflow.sol\":9794:9808  bookingsOf[id] */\n      0x20\n      mstore\n      0x40\n      swap1\n      keccak256\n        /* \"AndroidStudioProjects/roomflow/contracts/Roomflow.sol\":9794:9819  bookingsOf[id][bookingId] */\n      dup1\n      sload\n        /* \"AndroidStudioProjects/roomflow/contracts/Roomflow.sol\":9809:9818  bookingId */\n      dup4\n      swap1\n        /* \"AndroidStudioProjects/roomflow/contracts/Roomflow.sol\":9794:9819  bookingsOf[id][bookingId] */\n      dup2\n      lt\n      tag_478\n      jumpi\n      tag_478\n      tag_197\n      jump\t// in\n    tag_478:\n      0x00\n      swap2\n      dup3\n      mstore\n      0x20\n      swap1\n      swap2\n      keccak256\n      0x06\n      swap1\n      swap2\n      mul\n      add\n        /* \"AndroidStudioProjects/roomflow/contracts/Roomflow.sol\":9794:9826  bookingsOf[id][bookingId].tenant */\n      0x01\n      add\n      sload\n      sub(shl(0xa0, 0x01), 0x01)\n      and\n        /* \"AndroidStudioProjects/roomflow/contracts/Roomflow.sol\":9780:9790  msg.sender */\n      caller\n        /* \"AndroidStudioProjects/roomflow/contracts/Roomflow.sol\":9780:9826  msg.sender == bookingsOf[id][bookingId].tenant */\n      eq\n        /* \"AndroidStudioProjects/roomflow/contracts/Roomflow.sol\":9750:9889  require(... */\n      tag_480\n      jumpi\n      mload(0x40)\n      shl(0xe5, 0x461bcd)\n      dup2\n      mstore\n        /* \"#utility.yul\":16469:16471   */\n      0x20\n        /* \"AndroidStudioProjects/roomflow/contracts/Roomflow.sol\":9750:9889  require(... */\n      0x04\n      dup3\n      add\n        /* \"#utility.yul\":16451:16472   */\n      mstore\n        /* \"#utility.yul\":16508:16510   */\n      0x13\n        /* \"#utility.yul\":16488:16506   */\n      0x24\n      dup3\n      add\n        /* \"#utility.yul\":16481:16511   */\n      mstore\n      shl(0x6a, 0x155b985d5d1a1bdc9a5e9959081d195b985b9d)\n        /* \"#utility.yul\":16527:16545   */\n      0x44\n      dup3\n      add\n        /* \"#utility.yul\":16520:16569   */\n      mstore\n        /* \"#utility.yul\":16586:16604   */\n      0x64\n      add\n        /* \"AndroidStudioProjects/roomflow/contracts/Roomflow.sol\":9750:9889  require(... */\n      tag_193\n        /* \"#utility.yul\":16267:16610   */\n      jump\n        /* \"AndroidStudioProjects/roomflow/contracts/Roomflow.sol\":9750:9889  require(... */\n    tag_480:\n        /* \"AndroidStudioProjects/roomflow/contracts/Roomflow.sol\":9938:9952  bookingsOf[id] */\n      0x00\n      dup4\n      dup2\n      mstore\n        /* \"AndroidStudioProjects/roomflow/contracts/Roomflow.sol\":9938:9948  bookingsOf */\n      0x07\n        /* \"AndroidStudioProjects/roomflow/contracts/Roomflow.sol\":9938:9952  bookingsOf[id] */\n      0x20\n      mstore\n      0x40\n      swap1\n      keccak256\n        /* \"AndroidStudioProjects/roomflow/contracts/Roomflow.sol\":9938:9963  bookingsOf[id][bookingId] */\n      dup1\n      sload\n        /* \"AndroidStudioProjects/roomflow/contracts/Roomflow.sol\":9976:9991  block.timestamp */\n      timestamp\n      swap2\n        /* \"AndroidStudioProjects/roomflow/contracts/Roomflow.sol\":9938:9952  bookingsOf[id] */\n      swap1\n        /* \"AndroidStudioProjects/roomflow/contracts/Roomflow.sol\":9953:9962  bookingId */\n      dup5\n      swap1\n        /* \"AndroidStudioProjects/roomflow/contracts/Roomflow.sol\":9938:9963  bookingsOf[id][bookingId] */\n      dup2\n      lt\n      tag_483\n      jumpi\n      tag_483\n      tag_197\n      jump\t// in\n    tag_483:\n      swap1\n      0x00\n      mstore\n      keccak256(0x00, 0x20)\n      swap1\n      0x06\n      mul\n      add\n        /* \"AndroidStudioProjects/roomflow/contracts/Roomflow.sol\":9938:9973  bookingsOf[id][bookingId].startDate */\n      0x02\n      add\n      sload\n        /* \"AndroidStudioProjects/roomflow/contracts/Roomflow.sol\":9938:9991  bookingsOf[id][bookingId].startDate > block.timestamp */\n      gt\n        /* \"AndroidStudioProjects/roomflow/contracts/Roomflow.sol\":9908:10077  require(... */\n      tag_485\n      jumpi\n      mload(0x40)\n      shl(0xe5, 0x461bcd)\n      dup2\n      mstore\n        /* \"#utility.yul\":23116:23118   */\n      0x20\n        /* \"AndroidStudioProjects/roomflow/contracts/Roomflow.sol\":9908:10077  require(... */\n      0x04\n      dup3\n      add\n        /* \"#utility.yul\":23098:23119   */\n      mstore\n        /* \"#utility.yul\":23155:23157   */\n      0x2a\n        /* \"#utility.yul\":23135:23153   */\n      0x24\n      dup3\n      add\n        /* \"#utility.yul\":23128:23158   */\n      mstore\n        /* \"#utility.yul\":23194:23228   */\n      0x43616e206e6f206c6f6e67657220726566756e642c20626f6f6b696e67206461\n        /* \"#utility.yul\":23174:23192   */\n      0x44\n      dup3\n      add\n        /* \"#utility.yul\":23167:23229   */\n      mstore\n      shl(0xb2, 0x1d19481cdd185c9d1959)\n        /* \"#utility.yul\":23245:23263   */\n      0x64\n      dup3\n      add\n        /* \"#utility.yul\":23238:23278   */\n      mstore\n        /* \"#utility.yul\":23295:23314   */\n      0x84\n      add\n        /* \"AndroidStudioProjects/roomflow/contracts/Roomflow.sol\":9908:10077  require(... */\n      tag_193\n        /* \"#utility.yul\":22914:23320   */\n      jump\n        /* \"AndroidStudioProjects/roomflow/contracts/Roomflow.sol\":9908:10077  require(... */\n    tag_485:\n        /* \"AndroidStudioProjects/roomflow/contracts/Roomflow.sol\":10109:10123  bookingsOf[id] */\n      0x00\n      dup4\n      dup2\n      mstore\n        /* \"AndroidStudioProjects/roomflow/contracts/Roomflow.sol\":10109:10119  bookingsOf */\n      0x07\n        /* \"AndroidStudioProjects/roomflow/contracts/Roomflow.sol\":10109:10123  bookingsOf[id] */\n      0x20\n      mstore\n      0x40\n      swap1\n      keccak256\n        /* \"AndroidStudioProjects/roomflow/contracts/Roomflow.sol\":10109:10134  bookingsOf[id][bookingId] */\n      dup1\n      sload\n        /* \"AndroidStudioProjects/roomflow/contracts/Roomflow.sol\":10147:10151  true */\n      0x01\n      swap2\n        /* \"AndroidStudioProjects/roomflow/contracts/Roomflow.sol\":10109:10123  bookingsOf[id] */\n      swap1\n        /* \"AndroidStudioProjects/roomflow/contracts/Roomflow.sol\":10124:10133  bookingId */\n      dup5\n      swap1\n        /* \"AndroidStudioProjects/roomflow/contracts/Roomflow.sol\":10109:10134  bookingsOf[id][bookingId] */\n      dup2\n      lt\n      tag_489\n      jumpi\n      tag_489\n      tag_197\n      jump\t// in\n    tag_489:\n      0x00\n      swap2\n      dup3\n      mstore\n      0x20\n      dup1\n      dup4\n      keccak256\n        /* \"AndroidStudioProjects/roomflow/contracts/Roomflow.sol\":10109:10144  bookingsOf[id][bookingId].cancelled */\n      0x05\n        /* \"AndroidStudioProjects/roomflow/contracts/Roomflow.sol\":10109:10134  bookingsOf[id][bookingId] */\n      0x06\n      swap1\n      swap4\n      mul\n      add\n        /* \"AndroidStudioProjects/roomflow/contracts/Roomflow.sol\":10109:10144  bookingsOf[id][bookingId].cancelled */\n      swap2\n      swap1\n      swap2\n      add\n        /* \"AndroidStudioProjects/roomflow/contracts/Roomflow.sol\":10109:10151  bookingsOf[id][bookingId].cancelled = true */\n      dup1\n      sload\n      swap4\n      iszero\n      iszero\n      0x0100\n      mul\n      not(0xff00)\n      swap1\n      swap5\n      and\n      swap4\n      swap1\n      swap4\n      or\n      swap1\n      swap3\n      sstore\n        /* \"AndroidStudioProjects/roomflow/contracts/Roomflow.sol\":10166:10182  isDateBooked[id] */\n      dup5\n      dup2\n      mstore\n        /* \"AndroidStudioProjects/roomflow/contracts/Roomflow.sol\":10166:10178  isDateBooked */\n      0x0b\n        /* \"AndroidStudioProjects/roomflow/contracts/Roomflow.sol\":10166:10182  isDateBooked[id] */\n      dup3\n      mstore\n      0x40\n      dup1\n      dup3\n      keccak256\n        /* \"AndroidStudioProjects/roomflow/contracts/Roomflow.sol\":10166:10188  isDateBooked[id][date] */\n      dup5\n      dup4\n      mstore\n      dup4\n      mstore\n      dup1\n      dup3\n      keccak256\n        /* \"AndroidStudioProjects/roomflow/contracts/Roomflow.sol\":10166:10196  isDateBooked[id][date] = false */\n      dup1\n      sload\n      not(0xff)\n      and\n      swap1\n      sstore\n        /* \"AndroidStudioProjects/roomflow/contracts/Roomflow.sol\":10230:10245  bookedDates[id] */\n      dup6\n      dup3\n      mstore\n        /* \"AndroidStudioProjects/roomflow/contracts/Roomflow.sol\":10230:10241  bookedDates */\n      0x0a\n        /* \"AndroidStudioProjects/roomflow/contracts/Roomflow.sol\":10230:10245  bookedDates[id] */\n      swap1\n      swap3\n      mstore\n      swap1\n      dup2\n      keccak256\n        /* \"AndroidStudioProjects/roomflow/contracts/Roomflow.sol\":10230:10252  bookedDates[id].length */\n      sload\n        /* \"AndroidStudioProjects/roomflow/contracts/Roomflow.sol\":10230:10256  bookedDates[id].length - 1 */\n      tag_491\n      swap1\n        /* \"AndroidStudioProjects/roomflow/contracts/Roomflow.sol\":10109:10144  bookingsOf[id][bookingId].cancelled */\n      0x01\n      swap1\n        /* \"AndroidStudioProjects/roomflow/contracts/Roomflow.sol\":10230:10256  bookedDates[id].length - 1 */\n      tag_211\n      jump\t// in\n    tag_491:\n        /* \"AndroidStudioProjects/roomflow/contracts/Roomflow.sol\":10271:10289  uint lastBookingId */\n      0x00\n        /* \"AndroidStudioProjects/roomflow/contracts/Roomflow.sol\":10292:10307  bookedDates[id] */\n      dup6\n      dup2\n      mstore\n        /* \"AndroidStudioProjects/roomflow/contracts/Roomflow.sol\":10292:10303  bookedDates */\n      0x0a\n        /* \"AndroidStudioProjects/roomflow/contracts/Roomflow.sol\":10292:10307  bookedDates[id] */\n      0x20\n      mstore\n      0x40\n      dup2\n      keccak256\n        /* \"AndroidStudioProjects/roomflow/contracts/Roomflow.sol\":10292:10318  bookedDates[id][lastIndex] */\n      dup1\n      sload\n        /* \"AndroidStudioProjects/roomflow/contracts/Roomflow.sol\":10213:10256  uint lastIndex = bookedDates[id].length - 1 */\n      swap3\n      swap4\n      pop\n        /* \"AndroidStudioProjects/roomflow/contracts/Roomflow.sol\":10271:10289  uint lastBookingId */\n      swap1\n      swap2\n        /* \"AndroidStudioProjects/roomflow/contracts/Roomflow.sol\":10213:10256  uint lastIndex = bookedDates[id].length - 1 */\n      dup4\n      swap1\n        /* \"AndroidStudioProjects/roomflow/contracts/Roomflow.sol\":10292:10318  bookedDates[id][lastIndex] */\n      dup2\n      lt\n      tag_493\n      jumpi\n      tag_493\n      tag_197\n      jump\t// in\n    tag_493:\n      swap1\n      0x00\n      mstore\n      keccak256(0x00, 0x20)\n      add\n      sload\n        /* \"AndroidStudioProjects/roomflow/contracts/Roomflow.sol\":10271:10318  uint lastBookingId = bookedDates[id][lastIndex] */\n      swap1\n      pop\n        /* \"AndroidStudioProjects/roomflow/contracts/Roomflow.sol\":10362:10375  lastBookingId */\n      dup1\n        /* \"AndroidStudioProjects/roomflow/contracts/Roomflow.sol\":10333:10344  bookedDates */\n      0x0a\n        /* \"AndroidStudioProjects/roomflow/contracts/Roomflow.sol\":10333:10348  bookedDates[id] */\n      0x00\n        /* \"AndroidStudioProjects/roomflow/contracts/Roomflow.sol\":10345:10347  id */\n      dup8\n        /* \"AndroidStudioProjects/roomflow/contracts/Roomflow.sol\":10333:10348  bookedDates[id] */\n      dup2\n      mstore\n      0x20\n      add\n      swap1\n      dup2\n      mstore\n      0x20\n      add\n      0x00\n      keccak256\n        /* \"AndroidStudioProjects/roomflow/contracts/Roomflow.sol\":10349:10358  bookingId */\n      dup6\n        /* \"AndroidStudioProjects/roomflow/contracts/Roomflow.sol\":10333:10359  bookedDates[id][bookingId] */\n      dup2\n      sload\n      dup2\n      lt\n      tag_496\n      jumpi\n      tag_496\n      tag_197\n      jump\t// in\n    tag_496:\n      swap1\n      0x00\n      mstore\n      keccak256(0x00, 0x20)\n      add\n        /* \"AndroidStudioProjects/roomflow/contracts/Roomflow.sol\":10333:10375  bookedDates[id][bookingId] = lastBookingId */\n      dup2\n      swap1\n      sstore\n      pop\n        /* \"AndroidStudioProjects/roomflow/contracts/Roomflow.sol\":10390:10401  bookedDates */\n      0x0a\n        /* \"AndroidStudioProjects/roomflow/contracts/Roomflow.sol\":10390:10405  bookedDates[id] */\n      0x00\n        /* \"AndroidStudioProjects/roomflow/contracts/Roomflow.sol\":10402:10404  id */\n      dup7\n        /* \"AndroidStudioProjects/roomflow/contracts/Roomflow.sol\":10390:10405  bookedDates[id] */\n      dup2\n      mstore\n      0x20\n      add\n      swap1\n      dup2\n      mstore\n      0x20\n      add\n      0x00\n      keccak256\n        /* \"AndroidStudioProjects/roomflow/contracts/Roomflow.sol\":10390:10411  bookedDates[id].pop() */\n      dup1\n      sload\n      dup1\n      tag_499\n      jumpi\n      tag_499\n      tag_500\n      jump\t// in\n    tag_499:\n      0x01\n      swap1\n      sub\n      dup2\n      dup2\n      swap1\n      0x00\n      mstore\n      keccak256(0x00, 0x20)\n      add\n      0x00\n      swap1\n      sstore\n      swap1\n      sstore\n        /* \"AndroidStudioProjects/roomflow/contracts/Roomflow.sol\":10428:10438  uint price */\n      0x00\n        /* \"AndroidStudioProjects/roomflow/contracts/Roomflow.sol\":10441:10451  bookingsOf */\n      0x07\n        /* \"AndroidStudioProjects/roomflow/contracts/Roomflow.sol\":10441:10455  bookingsOf[id] */\n      0x00\n        /* \"AndroidStudioProjects/roomflow/contracts/Roomflow.sol\":10452:10454  id */\n      dup8\n        /* \"AndroidStudioProjects/roomflow/contracts/Roomflow.sol\":10441:10455  bookingsOf[id] */\n      dup2\n      mstore\n      0x20\n      add\n      swap1\n      dup2\n      mstore\n      0x20\n      add\n      0x00\n      keccak256\n        /* \"AndroidStudioProjects/roomflow/contracts/Roomflow.sol\":10456:10465  bookingId */\n      dup6\n        /* \"AndroidStudioProjects/roomflow/contracts/Roomflow.sol\":10441:10466  bookingsOf[id][bookingId] */\n      dup2\n      sload\n      dup2\n      lt\n      tag_503\n      jumpi\n      tag_503\n      tag_197\n      jump\t// in\n    tag_503:\n      swap1\n      0x00\n      mstore\n      keccak256(0x00, 0x20)\n      swap1\n      0x06\n      mul\n      add\n        /* \"AndroidStudioProjects/roomflow/contracts/Roomflow.sol\":10441:10477  bookingsOf[id][bookingId].totalPrice */\n      0x04\n      add\n      sload\n        /* \"AndroidStudioProjects/roomflow/contracts/Roomflow.sol\":10428:10477  uint price = bookingsOf[id][bookingId].totalPrice */\n      swap1\n      pop\n        /* \"AndroidStudioProjects/roomflow/contracts/Roomflow.sol\":10492:10500  uint fee */\n      0x00\n        /* \"AndroidStudioProjects/roomflow/contracts/Roomflow.sol\":10532:10535  100 */\n      0x64\n        /* \"AndroidStudioProjects/roomflow/contracts/Roomflow.sol\":10518:10528  taxPercent */\n      sload(0x05)\n        /* \"AndroidStudioProjects/roomflow/contracts/Roomflow.sol\":10504:10515  securityFee */\n      sload(0x04)\n        /* \"AndroidStudioProjects/roomflow/contracts/Roomflow.sol\":10504:10528  securityFee * taxPercent */\n      tag_505\n      swap2\n      swap1\n      tag_206\n      jump\t// in\n    tag_505:\n        /* \"AndroidStudioProjects/roomflow/contracts/Roomflow.sol\":10503:10535  (securityFee * taxPercent) / 100 */\n      tag_506\n      swap2\n      swap1\n      tag_208\n      jump\t// in\n    tag_506:\n        /* \"AndroidStudioProjects/roomflow/contracts/Roomflow.sol\":10558:10568  spaces[id] */\n      0x00\n      dup9\n      dup2\n      mstore\n        /* \"AndroidStudioProjects/roomflow/contracts/Roomflow.sol\":10558:10564  spaces */\n      0x06\n        /* \"AndroidStudioProjects/roomflow/contracts/Roomflow.sol\":10558:10568  spaces[id] */\n      0x20\n      mstore\n      0x40\n      swap1\n      keccak256\n        /* \"AndroidStudioProjects/roomflow/contracts/Roomflow.sol\":10558:10574  spaces[id].owner */\n      0x07\n      add\n      sload\n        /* \"AndroidStudioProjects/roomflow/contracts/Roomflow.sol\":10577:10588  securityFee */\n      sload(0x04)\n        /* \"AndroidStudioProjects/roomflow/contracts/Roomflow.sol\":10492:10535  uint fee = (securityFee * taxPercent) / 100 */\n      swap2\n      swap3\n      pop\n        /* \"AndroidStudioProjects/roomflow/contracts/Roomflow.sol\":10552:10596  payTo(spaces[id].owner, (securityFee - fee)) */\n      tag_507\n      swap2\n      sub(shl(0xa0, 0x01), 0x01)\n        /* \"AndroidStudioProjects/roomflow/contracts/Roomflow.sol\":10558:10574  spaces[id].owner */\n      swap1\n      swap2\n      and\n      swap1\n        /* \"AndroidStudioProjects/roomflow/contracts/Roomflow.sol\":10577:10594  securityFee - fee */\n      tag_210\n      swap1\n        /* \"AndroidStudioProjects/roomflow/contracts/Roomflow.sol\":10492:10535  uint fee = (securityFee * taxPercent) / 100 */\n      dup5\n      swap1\n        /* \"AndroidStudioProjects/roomflow/contracts/Roomflow.sol\":10577:10594  securityFee - fee */\n      tag_211\n      jump\t// in\n        /* \"AndroidStudioProjects/roomflow/contracts/Roomflow.sol\":10552:10596  payTo(spaces[id].owner, (securityFee - fee)) */\n    tag_507:\n        /* \"AndroidStudioProjects/roomflow/contracts/Roomflow.sol\":10611:10630  payTo(owner(), fee) */\n      tag_509\n        /* \"AndroidStudioProjects/roomflow/contracts/Roomflow.sol\":10617:10624  owner() */\n      tag_214\n        /* \"@openzeppelin/contracts/access/Ownable.sol\":1247:1254  address */\n      0x00\n        /* \"@openzeppelin/contracts/access/Ownable.sol\":1273:1279  _owner */\n      sload\n      sub(shl(0xa0, 0x01), 0x01)\n      and\n      swap1\n        /* \"@openzeppelin/contracts/access/Ownable.sol\":1201:1286  function owner() public view virtual returns (address) {... */\n      jump\n        /* \"AndroidStudioProjects/roomflow/contracts/Roomflow.sol\":10611:10630  payTo(owner(), fee) */\n    tag_509:\n        /* \"AndroidStudioProjects/roomflow/contracts/Roomflow.sol\":10645:10669  payTo(msg.sender, price) */\n      tag_511\n        /* \"AndroidStudioProjects/roomflow/contracts/Roomflow.sol\":10651:10661  msg.sender */\n      caller\n        /* \"AndroidStudioProjects/roomflow/contracts/Roomflow.sol\":10663:10668  price */\n      dup4\n        /* \"AndroidStudioProjects/roomflow/contracts/Roomflow.sol\":10645:10650  payTo */\n      tag_212\n        /* \"AndroidStudioProjects/roomflow/contracts/Roomflow.sol\":10645:10669  payTo(msg.sender, price) */\n      jump\t// in\n    tag_511:\n        /* \"AndroidStudioProjects/roomflow/contracts/Roomflow.sol\":10689:10729  SpaceRefunded(id, msg.sender, bookingId) */\n      mload(0x40)\n        /* \"#utility.yul\":8952:8977   */\n      dup7\n      dup2\n      mstore\n        /* \"AndroidStudioProjects/roomflow/contracts/Roomflow.sol\":10707:10717  msg.sender */\n      caller\n      swap1\n        /* \"AndroidStudioProjects/roomflow/contracts/Roomflow.sol\":10703:10705  id */\n      dup9\n      swap1\n        /* \"AndroidStudioProjects/roomflow/contracts/Roomflow.sol\":10689:10729  SpaceRefunded(id, msg.sender, bookingId) */\n      0xee23823014af21a0665780b9dd21b7f1e277276946bacfb1475ed82f18b30c85\n      swap1\n        /* \"#utility.yul\":8940:8942   */\n      0x20\n        /* \"#utility.yul\":8925:8943   */\n      add\n        /* \"AndroidStudioProjects/roomflow/contracts/Roomflow.sol\":10689:10729  SpaceRefunded(id, msg.sender, bookingId) */\n      mload(0x40)\n      dup1\n      swap2\n      sub\n      swap1\n      log3\n        /* \"AndroidStudioProjects/roomflow/contracts/Roomflow.sol\":9538:10741  {... */\n      pop\n      pop\n      pop\n      pop\n        /* \"@openzeppelin/contracts/security/ReentrancyGuard.sol\":2303:2323  _nonReentrantAfter() */\n      tag_513\n        /* \"@openzeppelin/contracts/security/ReentrancyGuard.sol\":1716:1717  1 */\n      0x01\n        /* \"@openzeppelin/contracts/security/ReentrancyGuard.sol\":2809:2831  _status = _NOT_ENTERED */\n      dup1\n      sstore\n        /* \"@openzeppelin/contracts/security/ReentrancyGuard.sol\":2629:2838  function _nonReentrantAfter() private {... */\n      jump\n        /* \"@openzeppelin/contracts/security/ReentrancyGuard.sol\":2303:2323  _nonReentrantAfter() */\n    tag_513:\n        /* \"AndroidStudioProjects/roomflow/contracts/Roomflow.sol\":9409:10741  function refundBooking(... */\n      pop\n      pop\n      pop\n      jump\t// out\n        /* \"AndroidStudioProjects/roomflow/contracts/Roomflow.sol\":6540:7672  function bookSpace(... */\n    tag_170:\n        /* \"@openzeppelin/contracts/security/ReentrancyGuard.sol\":2261:2282  _nonReentrantBefore() */\n      tag_516\n        /* \"@openzeppelin/contracts/security/ReentrancyGuard.sol\":2261:2280  _nonReentrantBefore */\n      tag_468\n        /* \"@openzeppelin/contracts/security/ReentrancyGuard.sol\":2261:2282  _nonReentrantBefore() */\n      jump\t// in\n    tag_516:\n        /* \"AndroidStudioProjects/roomflow/contracts/Roomflow.sol\":6699:6714  spaceExists[id] */\n      0x00\n      dup4\n      dup2\n      mstore\n        /* \"AndroidStudioProjects/roomflow/contracts/Roomflow.sol\":6699:6710  spaceExists */\n      0x09\n        /* \"AndroidStudioProjects/roomflow/contracts/Roomflow.sol\":6699:6714  spaceExists[id] */\n      0x20\n      mstore\n      0x40\n      swap1\n      keccak256\n      sload\n      0xff\n      and\n        /* \"AndroidStudioProjects/roomflow/contracts/Roomflow.sol\":6691:6738  require(spaceExists[id], \"Space not available\") */\n      tag_518\n      jumpi\n      mload(0x40)\n      shl(0xe5, 0x461bcd)\n      dup2\n      mstore\n      0x04\n      add\n      tag_193\n      swap1\n      tag_328\n      jump\t// in\n    tag_518:\n        /* \"AndroidStudioProjects/roomflow/contracts/Roomflow.sol\":6860:6871  securityFee */\n      sload(0x04)\n        /* \"AndroidStudioProjects/roomflow/contracts/Roomflow.sol\":6833:6852  endDate - startDate */\n      tag_520\n        /* \"AndroidStudioProjects/roomflow/contracts/Roomflow.sol\":6843:6852  startDate */\n      dup4\n        /* \"AndroidStudioProjects/roomflow/contracts/Roomflow.sol\":6833:6840  endDate */\n      dup4\n        /* \"AndroidStudioProjects/roomflow/contracts/Roomflow.sol\":6833:6852  endDate - startDate */\n      tag_211\n      jump\t// in\n    tag_520:\n        /* \"AndroidStudioProjects/roomflow/contracts/Roomflow.sol\":6833:6856  endDate - startDate + 1 */\n      tag_521\n      swap1\n        /* \"AndroidStudioProjects/roomflow/contracts/Roomflow.sol\":6855:6856  1 */\n      0x01\n        /* \"AndroidStudioProjects/roomflow/contracts/Roomflow.sol\":6833:6856  endDate - startDate + 1 */\n      tag_522\n      jump\t// in\n    tag_521:\n        /* \"AndroidStudioProjects/roomflow/contracts/Roomflow.sol\":6813:6823  spaces[id] */\n      0x00\n      dup6\n      dup2\n      mstore\n        /* \"AndroidStudioProjects/roomflow/contracts/Roomflow.sol\":6813:6819  spaces */\n      0x06\n        /* \"AndroidStudioProjects/roomflow/contracts/Roomflow.sol\":6813:6823  spaces[id] */\n      0x20\n      dup2\n      swap1\n      mstore\n      0x40\n      swap1\n      swap2\n      keccak256\n        /* \"AndroidStudioProjects/roomflow/contracts/Roomflow.sol\":6813:6829  spaces[id].price */\n      add\n      sload\n        /* \"AndroidStudioProjects/roomflow/contracts/Roomflow.sol\":6813:6857  spaces[id].price * (endDate - startDate + 1) */\n      tag_523\n      swap2\n      swap1\n      tag_206\n      jump\t// in\n    tag_523:\n        /* \"AndroidStudioProjects/roomflow/contracts/Roomflow.sol\":6813:6871  spaces[id].price * (endDate - startDate + 1) + securityFee */\n      tag_524\n      swap2\n      swap1\n      tag_522\n      jump\t// in\n    tag_524:\n        /* \"AndroidStudioProjects/roomflow/contracts/Roomflow.sol\":6779:6788  msg.value */\n      callvalue\n        /* \"AndroidStudioProjects/roomflow/contracts/Roomflow.sol\":6779:6871  msg.value >=... */\n      lt\n      iszero\n        /* \"AndroidStudioProjects/roomflow/contracts/Roomflow.sol\":6753:6924  require(... */\n      tag_525\n      jumpi\n      mload(0x40)\n      shl(0xe5, 0x461bcd)\n      dup2\n      mstore\n        /* \"#utility.yul\":23789:23791   */\n      0x20\n        /* \"AndroidStudioProjects/roomflow/contracts/Roomflow.sol\":6753:6924  require(... */\n      0x04\n      dup3\n      add\n        /* \"#utility.yul\":23771:23792   */\n      mstore\n        /* \"#utility.yul\":23828:23830   */\n      0x11\n        /* \"#utility.yul\":23808:23826   */\n      0x24\n      dup3\n      add\n        /* \"#utility.yul\":23801:23831   */\n      mstore\n      shl(0x7a, 0x125b9cdd59999a58da595b9d08199d5b99)\n        /* \"#utility.yul\":23847:23865   */\n      0x44\n      dup3\n      add\n        /* \"#utility.yul\":23840:23887   */\n      mstore\n        /* \"#utility.yul\":23904:23922   */\n      0x64\n      add\n        /* \"AndroidStudioProjects/roomflow/contracts/Roomflow.sol\":6753:6924  require(... */\n      tag_193\n        /* \"#utility.yul\":23587:23928   */\n      jump\n        /* \"AndroidStudioProjects/roomflow/contracts/Roomflow.sol\":6753:6924  require(... */\n    tag_525:\n        /* \"AndroidStudioProjects/roomflow/contracts/Roomflow.sol\":6965:7002  isDateCleared(id, startDate, endDate) */\n      tag_528\n        /* \"AndroidStudioProjects/roomflow/contracts/Roomflow.sol\":6979:6981  id */\n      dup4\n        /* \"AndroidStudioProjects/roomflow/contracts/Roomflow.sol\":6983:6992  startDate */\n      dup4\n        /* \"AndroidStudioProjects/roomflow/contracts/Roomflow.sol\":6994:7001  endDate */\n      dup4\n        /* \"AndroidStudioProjects/roomflow/contracts/Roomflow.sol\":6965:6978  isDateCleared */\n      tag_529\n        /* \"AndroidStudioProjects/roomflow/contracts/Roomflow.sol\":6965:7002  isDateCleared(id, startDate, endDate) */\n      jump\t// in\n    tag_528:\n        /* \"AndroidStudioProjects/roomflow/contracts/Roomflow.sol\":6939:7067  require(... */\n      tag_530\n      jumpi\n      mload(0x40)\n      shl(0xe5, 0x461bcd)\n      dup2\n      mstore\n        /* \"#utility.yul\":24135:24137   */\n      0x20\n        /* \"AndroidStudioProjects/roomflow/contracts/Roomflow.sol\":6939:7067  require(... */\n      0x04\n      dup3\n      add\n        /* \"#utility.yul\":24117:24138   */\n      mstore\n        /* \"#utility.yul\":24174:24176   */\n      0x1d\n        /* \"#utility.yul\":24154:24172   */\n      0x24\n      dup3\n      add\n        /* \"#utility.yul\":24147:24177   */\n      mstore\n        /* \"#utility.yul\":24213:24244   */\n      0x426f6f6b6564206461746520666f756e6420616d6f6e67206461746573000000\n        /* \"#utility.yul\":24193:24211   */\n      0x44\n      dup3\n      add\n        /* \"#utility.yul\":24186:24245   */\n      mstore\n        /* \"#utility.yul\":24262:24280   */\n      0x64\n      add\n        /* \"AndroidStudioProjects/roomflow/contracts/Roomflow.sol\":6939:7067  require(... */\n      tag_193\n        /* \"#utility.yul\":23933:24286   */\n      jump\n        /* \"AndroidStudioProjects/roomflow/contracts/Roomflow.sol\":6939:7067  require(... */\n    tag_530:\n        /* \"AndroidStudioProjects/roomflow/contracts/Roomflow.sol\":7098:7107  startDate */\n      dup2\n        /* \"AndroidStudioProjects/roomflow/contracts/Roomflow.sol\":7084:7594  for (uint i = startDate; i <= endDate; i++) {... */\n    tag_533:\n        /* \"AndroidStudioProjects/roomflow/contracts/Roomflow.sol\":7114:7121  endDate */\n      dup2\n        /* \"AndroidStudioProjects/roomflow/contracts/Roomflow.sol\":7109:7110  i */\n      dup2\n        /* \"AndroidStudioProjects/roomflow/contracts/Roomflow.sol\":7109:7121  i <= endDate */\n      gt\n        /* \"AndroidStudioProjects/roomflow/contracts/Roomflow.sol\":7084:7594  for (uint i = startDate; i <= endDate; i++) {... */\n      tag_534\n      jumpi\n        /* \"AndroidStudioProjects/roomflow/contracts/Roomflow.sol\":7147:7169  Booking memory booking */\n      tag_536\n      tag_318\n      jump\t// in\n    tag_536:\n        /* \"AndroidStudioProjects/roomflow/contracts/Roomflow.sol\":7201:7215  bookingsOf[id] */\n      0x00\n      dup6\n      dup2\n      mstore\n        /* \"AndroidStudioProjects/roomflow/contracts/Roomflow.sol\":7201:7211  bookingsOf */\n      0x07\n        /* \"AndroidStudioProjects/roomflow/contracts/Roomflow.sol\":7201:7215  bookingsOf[id] */\n      0x20\n      swap1\n      dup2\n      mstore\n      0x40\n      swap2\n      dup3\n      swap1\n      keccak256\n        /* \"AndroidStudioProjects/roomflow/contracts/Roomflow.sol\":7201:7222  bookingsOf[id].length */\n      sload\n        /* \"AndroidStudioProjects/roomflow/contracts/Roomflow.sol\":7188:7222  booking.id = bookingsOf[id].length */\n      dup4\n      mstore\n        /* \"AndroidStudioProjects/roomflow/contracts/Roomflow.sol\":7258:7268  msg.sender */\n      caller\n        /* \"AndroidStudioProjects/roomflow/contracts/Roomflow.sol\":7241:7255  booking.tenant */\n      swap1\n      dup4\n      add\n        /* \"AndroidStudioProjects/roomflow/contracts/Roomflow.sol\":7241:7268  booking.tenant = msg.sender */\n      mstore\n        /* \"AndroidStudioProjects/roomflow/contracts/Roomflow.sol\":7287:7304  booking.startDate */\n      dup2\n      add\n        /* \"AndroidStudioProjects/roomflow/contracts/Roomflow.sol\":7287:7316  booking.startDate = startDate */\n      dup5\n      swap1\n      mstore\n        /* \"AndroidStudioProjects/roomflow/contracts/Roomflow.sol\":7335:7350  booking.endDate */\n      0x60\n      dup2\n      add\n        /* \"AndroidStudioProjects/roomflow/contracts/Roomflow.sol\":7335:7360  booking.endDate = endDate */\n      dup4\n      swap1\n      mstore\n        /* \"AndroidStudioProjects/roomflow/contracts/Roomflow.sol\":7420:7439  endDate - startDate */\n      tag_537\n        /* \"AndroidStudioProjects/roomflow/contracts/Roomflow.sol\":7307:7316  startDate */\n      dup5\n        /* \"AndroidStudioProjects/roomflow/contracts/Roomflow.sol\":7353:7360  endDate */\n      dup5\n        /* \"AndroidStudioProjects/roomflow/contracts/Roomflow.sol\":7420:7439  endDate - startDate */\n      tag_211\n      jump\t// in\n    tag_537:\n        /* \"AndroidStudioProjects/roomflow/contracts/Roomflow.sol\":7420:7443  endDate - startDate + 1 */\n      tag_538\n      swap1\n        /* \"AndroidStudioProjects/roomflow/contracts/Roomflow.sol\":7442:7443  1 */\n      0x01\n        /* \"AndroidStudioProjects/roomflow/contracts/Roomflow.sol\":7420:7443  endDate - startDate + 1 */\n      tag_522\n      jump\t// in\n    tag_538:\n        /* \"AndroidStudioProjects/roomflow/contracts/Roomflow.sol\":7400:7410  spaces[id] */\n      0x00\n      dup7\n      dup2\n      mstore\n        /* \"AndroidStudioProjects/roomflow/contracts/Roomflow.sol\":7400:7406  spaces */\n      0x06\n        /* \"AndroidStudioProjects/roomflow/contracts/Roomflow.sol\":7400:7410  spaces[id] */\n      0x20\n      dup2\n      swap1\n      mstore\n      0x40\n      swap1\n      swap2\n      keccak256\n        /* \"AndroidStudioProjects/roomflow/contracts/Roomflow.sol\":7400:7416  spaces[id].price */\n      add\n      sload\n        /* \"AndroidStudioProjects/roomflow/contracts/Roomflow.sol\":7400:7444  spaces[id].price * (endDate - startDate + 1) */\n      tag_539\n      swap2\n      swap1\n      tag_206\n      jump\t// in\n    tag_539:\n        /* \"AndroidStudioProjects/roomflow/contracts/Roomflow.sol\":7379:7397  booking.totalPrice */\n      0x80\n      dup3\n      add\n        /* \"AndroidStudioProjects/roomflow/contracts/Roomflow.sol\":7379:7444  booking.totalPrice = spaces[id].price * (endDate - startDate + 1) */\n      swap1\n      dup2\n      mstore\n        /* \"AndroidStudioProjects/roomflow/contracts/Roomflow.sol\":7463:7477  bookingsOf[id] */\n      0x00\n      dup7\n      dup2\n      mstore\n        /* \"AndroidStudioProjects/roomflow/contracts/Roomflow.sol\":7463:7473  bookingsOf */\n      0x07\n        /* \"AndroidStudioProjects/roomflow/contracts/Roomflow.sol\":7463:7477  bookingsOf[id] */\n      0x20\n      swap1\n      dup2\n      mstore\n      0x40\n      dup1\n      dup4\n      keccak256\n        /* \"AndroidStudioProjects/roomflow/contracts/Roomflow.sol\":7463:7491  bookingsOf[id].push(booking) */\n      dup1\n      sload\n      0x01\n      dup1\n      dup3\n      add\n      dup4\n      sstore\n      swap2\n      dup6\n      mstore\n      dup4\n      dup6\n      keccak256\n      dup8\n      mload\n      0x06\n      swap1\n      swap3\n      mul\n      add\n      swap1\n      dup2\n      sstore\n      dup4\n      dup8\n      add\n      mload\n      dup2\n      dup4\n      add\n      dup1\n      sload\n      not(sub(shl(0xa0, 0x01), 0x01))\n      and\n      sub(shl(0xa0, 0x01), 0x01)\n      swap1\n      swap3\n      and\n      swap2\n      swap1\n      swap2\n      or\n      swap1\n      sstore\n      dup3\n      dup8\n      add\n      mload\n      0x02\n      dup3\n      add\n      sstore\n      0x60\n      dup8\n      add\n      mload\n      0x03\n      dup3\n      add\n      sstore\n      swap5\n      mload\n      0x04\n      dup7\n      add\n      sstore\n      0xa0\n      dup7\n      add\n      mload\n      0x05\n      swap1\n      swap6\n      add\n      dup1\n      sload\n      0xc0\n      swap1\n      swap8\n      add\n      mload\n      not(0xffff)\n      swap1\n      swap8\n      and\n      swap6\n      iszero\n      iszero\n      not(0xff00)\n      and\n      swap6\n      swap1\n      swap6\n      or\n      0x0100\n      swap7\n      iszero\n      iszero\n      swap7\n      swap1\n      swap7\n      mul\n      swap6\n      swap1\n      swap6\n      or\n      swap1\n      swap4\n      sstore\n        /* \"AndroidStudioProjects/roomflow/contracts/Roomflow.sol\":7510:7526  isDateBooked[id] */\n      dup8\n      dup3\n      mstore\n        /* \"AndroidStudioProjects/roomflow/contracts/Roomflow.sol\":7510:7522  isDateBooked */\n      0x0b\n        /* \"AndroidStudioProjects/roomflow/contracts/Roomflow.sol\":7510:7526  isDateBooked[id] */\n      dup2\n      mstore\n      dup3\n      dup3\n      keccak256\n        /* \"AndroidStudioProjects/roomflow/contracts/Roomflow.sol\":7510:7529  isDateBooked[id][i] */\n      dup6\n      dup4\n      mstore\n      dup2\n      mstore\n      dup3\n      dup3\n      keccak256\n        /* \"AndroidStudioProjects/roomflow/contracts/Roomflow.sol\":7510:7536  isDateBooked[id][i] = true */\n      dup1\n      sload\n      not(0xff)\n      and\n      dup6\n      or\n      swap1\n      sstore\n        /* \"AndroidStudioProjects/roomflow/contracts/Roomflow.sol\":7555:7570  bookedDates[id] */\n      dup8\n      dup3\n      mstore\n        /* \"AndroidStudioProjects/roomflow/contracts/Roomflow.sol\":7555:7566  bookedDates */\n      0x0a\n        /* \"AndroidStudioProjects/roomflow/contracts/Roomflow.sol\":7555:7570  bookedDates[id] */\n      dup2\n      mstore\n      swap2\n      dup2\n      keccak256\n        /* \"AndroidStudioProjects/roomflow/contracts/Roomflow.sol\":7555:7578  bookedDates[id].push(i) */\n      dup1\n      sload\n      swap4\n      dup5\n      add\n      dup2\n      sstore\n      dup2\n      mstore\n      keccak256\n      add\n      dup2\n      swap1\n      sstore\n        /* \"AndroidStudioProjects/roomflow/contracts/Roomflow.sol\":7510:7529  isDateBooked[id][i] */\n      dup1\n        /* \"AndroidStudioProjects/roomflow/contracts/Roomflow.sol\":7123:7126  i++ */\n      tag_542\n        /* \"AndroidStudioProjects/roomflow/contracts/Roomflow.sol\":7510:7529  isDateBooked[id][i] */\n      dup2\n        /* \"AndroidStudioProjects/roomflow/contracts/Roomflow.sol\":7123:7126  i++ */\n      tag_251\n      jump\t// in\n    tag_542:\n      swap2\n      pop\n      pop\n        /* \"AndroidStudioProjects/roomflow/contracts/Roomflow.sol\":7084:7594  for (uint i = startDate; i <= endDate; i++) {... */\n      jump(tag_533)\n    tag_534:\n      pop\n        /* \"AndroidStudioProjects/roomflow/contracts/Roomflow.sol\":7613:7660  SpaceBooked(id, msg.sender, startDate, endDate) */\n      0x40\n      dup1\n      mload\n        /* \"#utility.yul\":24465:24490   */\n      dup4\n      dup2\n      mstore\n        /* \"#utility.yul\":24521:24523   */\n      0x20\n        /* \"#utility.yul\":24506:24524   */\n      dup2\n      add\n        /* \"#utility.yul\":24499:24533   */\n      dup4\n      swap1\n      mstore\n        /* \"AndroidStudioProjects/roomflow/contracts/Roomflow.sol\":7629:7639  msg.sender */\n      caller\n      swap2\n        /* \"AndroidStudioProjects/roomflow/contracts/Roomflow.sol\":7625:7627  id */\n      dup6\n      swap2\n        /* \"AndroidStudioProjects/roomflow/contracts/Roomflow.sol\":7613:7660  SpaceBooked(id, msg.sender, startDate, endDate) */\n      0xfd1c7562d632ad1f2eb1d3d73d9d9b803ce2a893c16fdc9d21c3da272e6a8c85\n      swap2\n        /* \"#utility.yul\":24438:24456   */\n      add\n        /* \"AndroidStudioProjects/roomflow/contracts/Roomflow.sol\":7613:7660  SpaceBooked(id, msg.sender, startDate, endDate) */\n      mload(0x40)\n      dup1\n      swap2\n      sub\n      swap1\n      log3\n        /* \"@openzeppelin/contracts/security/ReentrancyGuard.sol\":2303:2323  _nonReentrantAfter() */\n      tag_513\n        /* \"@openzeppelin/contracts/security/ReentrancyGuard.sol\":1716:1717  1 */\n      0x01\n        /* \"@openzeppelin/contracts/security/ReentrancyGuard.sol\":2809:2831  _status = _NOT_ENTERED */\n      dup1\n      sstore\n        /* \"@openzeppelin/contracts/security/ReentrancyGuard.sol\":2629:2838  function _nonReentrantAfter() private {... */\n      jump\n        /* \"AndroidStudioProjects/roomflow/contracts/Roomflow.sol\":11651:11767  function updateTaxPercent(uint newTaxPercent) public onlyOwner {... */\n    tag_174:\n        /* \"@openzeppelin/contracts/access/Ownable.sol\":1094:1107  _checkOwner() */\n      tag_547\n        /* \"@openzeppelin/contracts/access/Ownable.sol\":1094:1105  _checkOwner */\n      tag_343\n        /* \"@openzeppelin/contracts/access/Ownable.sol\":1094:1107  _checkOwner() */\n      jump\t// in\n    tag_547:\n        /* \"AndroidStudioProjects/roomflow/contracts/Roomflow.sol\":11729:11739  taxPercent */\n      0x05\n        /* \"AndroidStudioProjects/roomflow/contracts/Roomflow.sol\":11729:11755  taxPercent = newTaxPercent */\n      sstore\n        /* \"AndroidStudioProjects/roomflow/contracts/Roomflow.sol\":11651:11767  function updateTaxPercent(uint newTaxPercent) public onlyOwner {... */\n      jump\t// out\n        /* \"@openzeppelin/contracts/access/Ownable.sol\":2074:2272  function transferOwnership(address newOwner) public virtual onlyOwner {... */\n    tag_179:\n        /* \"@openzeppelin/contracts/access/Ownable.sol\":1094:1107  _checkOwner() */\n      tag_550\n        /* \"@openzeppelin/contracts/access/Ownable.sol\":1094:1105  _checkOwner */\n      tag_343\n        /* \"@openzeppelin/contracts/access/Ownable.sol\":1094:1107  _checkOwner() */\n      jump\t// in\n    tag_550:\n      sub(shl(0xa0, 0x01), 0x01)\n        /* \"@openzeppelin/contracts/access/Ownable.sol\":2162:2184  newOwner != address(0) */\n      dup2\n      and\n        /* \"@openzeppelin/contracts/access/Ownable.sol\":2154:2227  require(newOwner != address(0), \"Ownable: new owner is the zero address\") */\n      tag_552\n      jumpi\n      mload(0x40)\n      shl(0xe5, 0x461bcd)\n      dup2\n      mstore\n        /* \"#utility.yul\":24746:24748   */\n      0x20\n        /* \"@openzeppelin/contracts/access/Ownable.sol\":2154:2227  require(newOwner != address(0), \"Ownable: new owner is the zero address\") */\n      0x04\n      dup3\n      add\n        /* \"#utility.yul\":24728:24749   */\n      mstore\n        /* \"#utility.yul\":24785:24787   */\n      0x26\n        /* \"#utility.yul\":24765:24783   */\n      0x24\n      dup3\n      add\n        /* \"#utility.yul\":24758:24788   */\n      mstore\n        /* \"#utility.yul\":24824:24858   */\n      0x4f776e61626c653a206e6577206f776e657220697320746865207a65726f2061\n        /* \"#utility.yul\":24804:24822   */\n      0x44\n      dup3\n      add\n        /* \"#utility.yul\":24797:24859   */\n      mstore\n      shl(0xd0, 0x646472657373)\n        /* \"#utility.yul\":24875:24893   */\n      0x64\n      dup3\n      add\n        /* \"#utility.yul\":24868:24904   */\n      mstore\n        /* \"#utility.yul\":24921:24940   */\n      0x84\n      add\n        /* \"@openzeppelin/contracts/access/Ownable.sol\":2154:2227  require(newOwner != address(0), \"Ownable: new owner is the zero address\") */\n      tag_193\n        /* \"#utility.yul\":24544:24946   */\n      jump\n        /* \"@openzeppelin/contracts/access/Ownable.sol\":2154:2227  require(newOwner != address(0), \"Ownable: new owner is the zero address\") */\n    tag_552:\n        /* \"@openzeppelin/contracts/access/Ownable.sol\":2237:2265  _transferOwnership(newOwner) */\n      tag_555\n        /* \"@openzeppelin/contracts/access/Ownable.sol\":2256:2264  newOwner */\n      dup2\n        /* \"@openzeppelin/contracts/access/Ownable.sol\":2237:2255  _transferOwnership */\n      tag_417\n        /* \"@openzeppelin/contracts/access/Ownable.sol\":2237:2265  _transferOwnership(newOwner) */\n      jump\t// in\n    tag_555:\n        /* \"@openzeppelin/contracts/access/Ownable.sol\":2074:2272  function transferOwnership(address newOwner) public virtual onlyOwner {... */\n      pop\n      jump\t// out\n        /* \"AndroidStudioProjects/roomflow/contracts/Roomflow.sol\":11106:11223  function getBookings(uint id) public view returns (Booking[] memory) {... */\n    tag_183:\n        /* \"AndroidStudioProjects/roomflow/contracts/Roomflow.sol\":11157:11173  Booking[] memory */\n      0x60\n        /* \"AndroidStudioProjects/roomflow/contracts/Roomflow.sol\":11197:11207  bookingsOf */\n      0x07\n        /* \"AndroidStudioProjects/roomflow/contracts/Roomflow.sol\":11197:11211  bookingsOf[id] */\n      0x00\n        /* \"AndroidStudioProjects/roomflow/contracts/Roomflow.sol\":11208:11210  id */\n      dup4\n        /* \"AndroidStudioProjects/roomflow/contracts/Roomflow.sol\":11197:11211  bookingsOf[id] */\n      dup2\n      mstore\n      0x20\n      add\n      swap1\n      dup2\n      mstore\n      0x20\n      add\n      0x00\n      keccak256\n        /* \"AndroidStudioProjects/roomflow/contracts/Roomflow.sol\":11190:11211  return bookingsOf[id] */\n      dup1\n      sload\n      dup1\n      0x20\n      mul\n      0x20\n      add\n      mload(0x40)\n      swap1\n      dup2\n      add\n      0x40\n      mstore\n      dup1\n      swap3\n      swap2\n      swap1\n      dup2\n      dup2\n      mstore\n      0x20\n      add\n      0x00\n      swap1\n    tag_557:\n      dup3\n      dup3\n      lt\n      iszero\n      tag_448\n      jumpi\n      0x00\n      dup5\n      dup2\n      mstore\n      0x20\n      swap1\n      dup2\n      swap1\n      keccak256\n      0x40\n      dup1\n      mload\n      0xe0\n      dup2\n      add\n      dup3\n      mstore\n      0x06\n      dup7\n      mul\n      swap1\n      swap3\n      add\n      dup1\n      sload\n      dup4\n      mstore\n      0x01\n      dup1\n      dup3\n      add\n      sload\n      sub(shl(0xa0, 0x01), 0x01)\n      and\n      dup5\n      dup7\n      add\n      mstore\n      0x02\n      dup3\n      add\n      sload\n      swap3\n      dup5\n      add\n      swap3\n      swap1\n      swap3\n      mstore\n      0x03\n      dup2\n      add\n      sload\n      0x60\n      dup5\n      add\n      mstore\n      0x04\n      dup2\n      add\n      sload\n      0x80\n      dup5\n      add\n      mstore\n      0x05\n      add\n      sload\n      0xff\n      dup1\n      dup3\n      and\n      iszero\n      iszero\n      0xa0\n      dup6\n      add\n      mstore\n      0x0100\n      swap1\n      swap2\n      div\n      and\n      iszero\n      iszero\n      0xc0\n      dup4\n      add\n      mstore\n      swap1\n      dup4\n      mstore\n      swap1\n      swap3\n      add\n      swap2\n      add\n      jump(tag_557)\n        /* \"AndroidStudioProjects/roomflow/contracts/Roomflow.sol\":10753:10959  function hasBookedDateReached(... */\n    tag_189:\n        /* \"AndroidStudioProjects/roomflow/contracts/Roomflow.sol\":10866:10870  bool */\n      0x00\n        /* \"AndroidStudioProjects/roomflow/contracts/Roomflow.sol\":10894:10908  bookingsOf[id] */\n      dup3\n      dup2\n      mstore\n        /* \"AndroidStudioProjects/roomflow/contracts/Roomflow.sol\":10894:10904  bookingsOf */\n      0x07\n        /* \"AndroidStudioProjects/roomflow/contracts/Roomflow.sol\":10894:10908  bookingsOf[id] */\n      0x20\n      mstore\n      0x40\n      dup2\n      keccak256\n        /* \"AndroidStudioProjects/roomflow/contracts/Roomflow.sol\":10894:10919  bookingsOf[id][bookingId] */\n      dup1\n      sload\n        /* \"AndroidStudioProjects/roomflow/contracts/Roomflow.sol\":10932:10947  block.timestamp */\n      timestamp\n      swap2\n        /* \"AndroidStudioProjects/roomflow/contracts/Roomflow.sol\":10894:10908  bookingsOf[id] */\n      swap1\n        /* \"AndroidStudioProjects/roomflow/contracts/Roomflow.sol\":10909:10918  bookingId */\n      dup5\n      swap1\n        /* \"AndroidStudioProjects/roomflow/contracts/Roomflow.sol\":10894:10919  bookingsOf[id][bookingId] */\n      dup2\n      lt\n      tag_562\n      jumpi\n      tag_562\n      tag_197\n      jump\t// in\n    tag_562:\n      swap1\n      0x00\n      mstore\n      keccak256(0x00, 0x20)\n      swap1\n      0x06\n      mul\n      add\n        /* \"AndroidStudioProjects/roomflow/contracts/Roomflow.sol\":10894:10929  bookingsOf[id][bookingId].startDate */\n      0x02\n      add\n      sload\n        /* \"AndroidStudioProjects/roomflow/contracts/Roomflow.sol\":10894:10947  bookingsOf[id][bookingId].startDate < block.timestamp */\n      lt\n        /* \"AndroidStudioProjects/roomflow/contracts/Roomflow.sol\":10887:10947  return bookingsOf[id][bookingId].startDate < block.timestamp */\n      swap1\n      pop\n        /* \"AndroidStudioProjects/roomflow/contracts/Roomflow.sol\":10753:10959  function hasBookedDateReached(... */\n      swap3\n      swap2\n      pop\n      pop\n      jump\t// out\n        /* \"AndroidStudioProjects/roomflow/contracts/Roomflow.sol\":12949:13131  function payTo(address to, uint256 amount) internal {... */\n    tag_212:\n        /* \"AndroidStudioProjects/roomflow/contracts/Roomflow.sol\":13017:13029  bool success */\n      0x00\n        /* \"AndroidStudioProjects/roomflow/contracts/Roomflow.sol\":13043:13045  to */\n      dup3\n      sub(shl(0xa0, 0x01), 0x01)\n        /* \"AndroidStudioProjects/roomflow/contracts/Roomflow.sol\":13035:13051  payable(to).call */\n      and\n        /* \"AndroidStudioProjects/roomflow/contracts/Roomflow.sol\":13059:13065  amount */\n      dup3\n        /* \"AndroidStudioProjects/roomflow/contracts/Roomflow.sol\":13035:13070  payable(to).call{value: amount}(\"\") */\n      mload(0x40)\n      0x00\n      mload(0x40)\n      dup1\n      dup4\n      sub\n      dup2\n      dup6\n      dup8\n      gas\n      call\n      swap3\n      pop\n      pop\n      pop\n      returndatasize\n      dup1\n      0x00\n      dup2\n      eq\n      tag_569\n      jumpi\n      mload(0x40)\n      swap2\n      pop\n      and(add(returndatasize, 0x3f), not(0x1f))\n      dup3\n      add\n      0x40\n      mstore\n      returndatasize\n      dup3\n      mstore\n      returndatasize\n      0x00\n      0x20\n      dup5\n      add\n      returndatacopy\n      jump(tag_568)\n    tag_569:\n      0x60\n      swap2\n      pop\n    tag_568:\n      pop\n        /* \"AndroidStudioProjects/roomflow/contracts/Roomflow.sol\":13016:13070  (bool success, ) = payable(to).call{value: amount}(\"\") */\n      pop\n      swap1\n      pop\n        /* \"AndroidStudioProjects/roomflow/contracts/Roomflow.sol\":13093:13100  success */\n      dup1\n        /* \"AndroidStudioProjects/roomflow/contracts/Roomflow.sol\":13085:13119  require(success, \"Payment failed\") */\n      tag_513\n      jumpi\n      mload(0x40)\n      shl(0xe5, 0x461bcd)\n      dup2\n      mstore\n        /* \"#utility.yul\":25363:25365   */\n      0x20\n        /* \"AndroidStudioProjects/roomflow/contracts/Roomflow.sol\":13085:13119  require(success, \"Payment failed\") */\n      0x04\n      dup3\n      add\n        /* \"#utility.yul\":25345:25366   */\n      mstore\n        /* \"#utility.yul\":25402:25404   */\n      0x0e\n        /* \"#utility.yul\":25382:25400   */\n      0x24\n      dup3\n      add\n        /* \"#utility.yul\":25375:25405   */\n      mstore\n      shl(0x92, 0x14185e5b595b9d0819985a5b1959)\n        /* \"#utility.yul\":25421:25439   */\n      0x44\n      dup3\n      add\n        /* \"#utility.yul\":25414:25458   */\n      mstore\n        /* \"#utility.yul\":25475:25493   */\n      0x64\n      add\n        /* \"AndroidStudioProjects/roomflow/contracts/Roomflow.sol\":13085:13119  require(success, \"Payment failed\") */\n      tag_193\n        /* \"#utility.yul\":25161:25499   */\n      jump\n        /* \"@openzeppelin/contracts/access/Ownable.sol\":1359:1489  function _checkOwner() internal view virtual {... */\n    tag_343:\n        /* \"@openzeppelin/contracts/access/Ownable.sol\":1247:1254  address */\n      0x00\n        /* \"@openzeppelin/contracts/access/Ownable.sol\":1273:1279  _owner */\n      sload\n      sub(shl(0xa0, 0x01), 0x01)\n      and\n        /* \"@openzeppelin/contracts/utils/Context.sol\":719:729  msg.sender */\n      caller\n        /* \"@openzeppelin/contracts/access/Ownable.sol\":1422:1445  owner() == _msgSender() */\n      eq\n        /* \"@openzeppelin/contracts/access/Ownable.sol\":1414:1482  require(owner() == _msgSender(), \"Ownable: caller is not the owner\") */\n      tag_416\n      jumpi\n      mload(0x40)\n      shl(0xe5, 0x461bcd)\n      dup2\n      mstore\n        /* \"#utility.yul\":25706:25708   */\n      0x20\n        /* \"@openzeppelin/contracts/access/Ownable.sol\":1414:1482  require(owner() == _msgSender(), \"Ownable: caller is not the owner\") */\n      0x04\n      dup3\n      add\n        /* \"#utility.yul\":25688:25709   */\n      dup2\n      swap1\n      mstore\n        /* \"#utility.yul\":25725:25743   */\n      0x24\n      dup3\n      add\n        /* \"#utility.yul\":25718:25748   */\n      mstore\n        /* \"#utility.yul\":25784:25818   */\n      0x4f776e61626c653a2063616c6c6572206973206e6f7420746865206f776e6572\n        /* \"#utility.yul\":25764:25782   */\n      0x44\n      dup3\n      add\n        /* \"#utility.yul\":25757:25819   */\n      mstore\n        /* \"#utility.yul\":25836:25854   */\n      0x64\n      add\n        /* \"@openzeppelin/contracts/access/Ownable.sol\":1414:1482  require(owner() == _msgSender(), \"Ownable: caller is not the owner\") */\n      tag_193\n        /* \"#utility.yul\":25504:25860   */\n      jump\n        /* \"@openzeppelin/contracts/access/Ownable.sol\":2426:2613  function _transferOwnership(address newOwner) internal virtual {... */\n    tag_417:\n        /* \"@openzeppelin/contracts/access/Ownable.sol\":2499:2515  address oldOwner */\n      0x00\n        /* \"@openzeppelin/contracts/access/Ownable.sol\":2518:2524  _owner */\n      dup1\n      sload\n      sub(shl(0xa0, 0x01), 0x01)\n        /* \"@openzeppelin/contracts/access/Ownable.sol\":2534:2551  _owner = newOwner */\n      dup4\n      dup2\n      and\n      not(sub(shl(0xa0, 0x01), 0x01))\n      dup4\n      and\n      dup2\n      or\n      dup5\n      sstore\n        /* \"@openzeppelin/contracts/access/Ownable.sol\":2566:2606  OwnershipTransferred(oldOwner, newOwner) */\n      mload(0x40)\n        /* \"@openzeppelin/contracts/access/Ownable.sol\":2518:2524  _owner */\n      swap2\n      swap1\n      swap3\n      and\n      swap3\n      dup4\n      swap2\n        /* \"@openzeppelin/contracts/access/Ownable.sol\":2566:2606  OwnershipTransferred(oldOwner, newOwner) */\n      0x8be0079c531659141344cd1fd0a4f28419497f9722a3daafe3b4186f6b6457e0\n      swap2\n        /* \"@openzeppelin/contracts/access/Ownable.sol\":2499:2515  address oldOwner */\n      swap1\n        /* \"@openzeppelin/contracts/access/Ownable.sol\":2566:2606  OwnershipTransferred(oldOwner, newOwner) */\n      log3\n        /* \"@openzeppelin/contracts/access/Ownable.sol\":2489:2613  {... */\n      pop\n        /* \"@openzeppelin/contracts/access/Ownable.sol\":2426:2613  function _transferOwnership(address newOwner) internal virtual {... */\n      pop\n      jump\t// out\n        /* \"@openzeppelin/contracts/security/ReentrancyGuard.sol\":2336:2623  function _nonReentrantBefore() private {... */\n    tag_468:\n        /* \"@openzeppelin/contracts/security/ReentrancyGuard.sol\":1759:1760  2 */\n      0x02\n        /* \"@openzeppelin/contracts/security/ReentrancyGuard.sol\":2468:2475  _status */\n      sload(0x01)\n        /* \"@openzeppelin/contracts/security/ReentrancyGuard.sol\":2468:2487  _status != _ENTERED */\n      sub\n        /* \"@openzeppelin/contracts/security/ReentrancyGuard.sol\":2460:2523  require(_status != _ENTERED, \"ReentrancyGuard: reentrant call\") */\n      tag_584\n      jumpi\n      mload(0x40)\n      shl(0xe5, 0x461bcd)\n      dup2\n      mstore\n        /* \"#utility.yul\":26067:26069   */\n      0x20\n        /* \"@openzeppelin/contracts/security/ReentrancyGuard.sol\":2460:2523  require(_status != _ENTERED, \"ReentrancyGuard: reentrant call\") */\n      0x04\n      dup3\n      add\n        /* \"#utility.yul\":26049:26070   */\n      mstore\n        /* \"#utility.yul\":26106:26108   */\n      0x1f\n        /* \"#utility.yul\":26086:26104   */\n      0x24\n      dup3\n      add\n        /* \"#utility.yul\":26079:26109   */\n      mstore\n        /* \"#utility.yul\":26145:26178   */\n      0x5265656e7472616e637947756172643a207265656e7472616e742063616c6c00\n        /* \"#utility.yul\":26125:26143   */\n      0x44\n      dup3\n      add\n        /* \"#utility.yul\":26118:26179   */\n      mstore\n        /* \"#utility.yul\":26196:26214   */\n      0x64\n      add\n        /* \"@openzeppelin/contracts/security/ReentrancyGuard.sol\":2460:2523  require(_status != _ENTERED, \"ReentrancyGuard: reentrant call\") */\n      tag_193\n        /* \"#utility.yul\":25865:26220   */\n      jump\n        /* \"@openzeppelin/contracts/security/ReentrancyGuard.sol\":2460:2523  require(_status != _ENTERED, \"ReentrancyGuard: reentrant call\") */\n    tag_584:\n        /* \"@openzeppelin/contracts/security/ReentrancyGuard.sol\":1759:1760  2 */\n      0x02\n        /* \"@openzeppelin/contracts/security/ReentrancyGuard.sol\":2598:2605  _status */\n      0x01\n        /* \"@openzeppelin/contracts/security/ReentrancyGuard.sol\":2598:2616  _status = _ENTERED */\n      sstore\n        /* \"@openzeppelin/contracts/security/ReentrancyGuard.sol\":2336:2623  function _nonReentrantBefore() private {... */\n      jump\t// out\n        /* \"AndroidStudioProjects/roomflow/contracts/Roomflow.sol\":7684:7993  function isDateCleared(... */\n    tag_529:\n        /* \"AndroidStudioProjects/roomflow/contracts/Roomflow.sol\":7819:7823  bool */\n      0x00\n        /* \"AndroidStudioProjects/roomflow/contracts/Roomflow.sol\":7854:7863  startDate */\n      dup3\n        /* \"AndroidStudioProjects/roomflow/contracts/Roomflow.sol\":7840:7956  for (uint i = startDate; i <= endDate; i++) {... */\n    tag_589:\n        /* \"AndroidStudioProjects/roomflow/contracts/Roomflow.sol\":7870:7877  endDate */\n      dup3\n        /* \"AndroidStudioProjects/roomflow/contracts/Roomflow.sol\":7865:7866  i */\n      dup2\n        /* \"AndroidStudioProjects/roomflow/contracts/Roomflow.sol\":7865:7877  i <= endDate */\n      gt\n        /* \"AndroidStudioProjects/roomflow/contracts/Roomflow.sol\":7840:7956  for (uint i = startDate; i <= endDate; i++) {... */\n      tag_590\n      jumpi\n        /* \"AndroidStudioProjects/roomflow/contracts/Roomflow.sol\":7907:7923  isDateBooked[id] */\n      0x00\n      dup6\n      dup2\n      mstore\n        /* \"AndroidStudioProjects/roomflow/contracts/Roomflow.sol\":7907:7919  isDateBooked */\n      0x0b\n        /* \"AndroidStudioProjects/roomflow/contracts/Roomflow.sol\":7907:7923  isDateBooked[id] */\n      0x20\n      swap1\n      dup2\n      mstore\n      0x40\n      dup1\n      dup4\n      keccak256\n        /* \"AndroidStudioProjects/roomflow/contracts/Roomflow.sol\":7907:7926  isDateBooked[id][i] */\n      dup5\n      dup5\n      mstore\n      swap1\n      swap2\n      mstore\n      swap1\n      keccak256\n      sload\n      0xff\n      and\n        /* \"AndroidStudioProjects/roomflow/contracts/Roomflow.sol\":7903:7940  if (isDateBooked[id][i]) return false */\n      iszero\n      tag_592\n      jumpi\n        /* \"AndroidStudioProjects/roomflow/contracts/Roomflow.sol\":7935:7940  false */\n      0x00\n        /* \"AndroidStudioProjects/roomflow/contracts/Roomflow.sol\":7928:7940  return false */\n      swap2\n      pop\n      pop\n      jump(tag_588)\n        /* \"AndroidStudioProjects/roomflow/contracts/Roomflow.sol\":7903:7940  if (isDateBooked[id][i]) return false */\n    tag_592:\n        /* \"AndroidStudioProjects/roomflow/contracts/Roomflow.sol\":7879:7882  i++ */\n      dup1\n      tag_593\n      dup2\n      tag_251\n      jump\t// in\n    tag_593:\n      swap2\n      pop\n      pop\n        /* \"AndroidStudioProjects/roomflow/contracts/Roomflow.sol\":7840:7956  for (uint i = startDate; i <= endDate; i++) {... */\n      jump(tag_589)\n    tag_590:\n      pop\n        /* \"AndroidStudioProjects/roomflow/contracts/Roomflow.sol\":7977:7981  true */\n      0x01\n        /* \"AndroidStudioProjects/roomflow/contracts/Roomflow.sol\":7970:7981  return true */\n      swap1\n      pop\n        /* \"AndroidStudioProjects/roomflow/contracts/Roomflow.sol\":7684:7993  function isDateCleared(... */\n    tag_588:\n      swap4\n      swap3\n      pop\n      pop\n      pop\n      jump\t// out\n    tag_259:\n      mload(0x40)\n      dup1\n      0x0180\n      add\n      0x40\n      mstore\n      dup1\n      0x00\n      dup2\n      mstore\n      0x20\n      add\n      0x60\n      dup2\n      mstore\n      0x20\n      add\n      0x60\n      dup2\n      mstore\n      0x20\n      add\n      0x60\n      dup2\n      mstore\n      0x20\n      add\n      0x60\n      dup2\n      mstore\n      0x20\n      add\n      0x00\n      dup2\n      mstore\n      0x20\n      add\n      0x00\n      dup2\n      mstore\n      0x20\n      add\n      and(sub(shl(0xa0, 0x01), 0x01), 0x00)\n      dup2\n      mstore\n      0x20\n      add\n      iszero(iszero(0x00))\n      dup2\n      mstore\n      0x20\n      add\n      iszero(iszero(0x00))\n      dup2\n      mstore\n      0x20\n      add\n      iszero(iszero(0x00))\n      dup2\n      mstore\n      0x20\n      add\n      0x00\n      dup2\n      mstore\n      pop\n      swap1\n      jump\t// out\n    tag_318:\n      mload(0x40)\n      dup1\n      0xe0\n      add\n      0x40\n      mstore\n      dup1\n      0x00\n      dup2\n      mstore\n      0x20\n      add\n      and(sub(shl(0xa0, 0x01), 0x01), 0x00)\n      dup2\n      mstore\n      0x20\n      add\n      0x00\n      dup2\n      mstore\n      0x20\n      add\n      0x00\n      dup2\n      mstore\n      0x20\n      add\n      0x00\n      dup2\n      mstore\n      0x20\n      add\n      iszero(iszero(0x00))\n      dup2\n      mstore\n      0x20\n      add\n      iszero(iszero(0x00))\n      dup2\n      mstore\n      pop\n      swap1\n      jump\t// out\n        /* \"#utility.yul\":14:262   */\n    tag_42:\n        /* \"#utility.yul\":82:88   */\n      0x00\n        /* \"#utility.yul\":90:96   */\n      dup1\n        /* \"#utility.yul\":143:145   */\n      0x40\n        /* \"#utility.yul\":131:140   */\n      dup4\n        /* \"#utility.yul\":122:129   */\n      dup6\n        /* \"#utility.yul\":118:141   */\n      sub\n        /* \"#utility.yul\":114:146   */\n      slt\n        /* \"#utility.yul\":111:163   */\n      iszero\n      tag_608\n      jumpi\n        /* \"#utility.yul\":159:160   */\n      0x00\n        /* \"#utility.yul\":156:157   */\n      dup1\n        /* \"#utility.yul\":149:161   */\n      revert\n        /* \"#utility.yul\":111:163   */\n    tag_608:\n      pop\n      pop\n        /* \"#utility.yul\":182:205   */\n      dup1\n      calldataload\n      swap3\n        /* \"#utility.yul\":252:254   */\n      0x20\n        /* \"#utility.yul\":237:255   */\n      swap1\n      swap2\n      add\n        /* \"#utility.yul\":224:256   */\n      calldataload\n      swap2\n      pop\n        /* \"#utility.yul\":14:262   */\n      jump\t// out\n        /* \"#utility.yul\":267:690   */\n    tag_595:\n        /* \"#utility.yul\":309:312   */\n      0x00\n        /* \"#utility.yul\":347:352   */\n      dup2\n        /* \"#utility.yul\":341:353   */\n      mload\n        /* \"#utility.yul\":374:380   */\n      dup1\n        /* \"#utility.yul\":369:372   */\n      dup5\n        /* \"#utility.yul\":362:381   */\n      mstore\n        /* \"#utility.yul\":399:400   */\n      0x00\n        /* \"#utility.yul\":409:571   */\n    tag_610:\n        /* \"#utility.yul\":423:429   */\n      dup2\n        /* \"#utility.yul\":420:421   */\n      dup2\n        /* \"#utility.yul\":417:430   */\n      lt\n        /* \"#utility.yul\":409:571   */\n      iszero\n      tag_612\n      jumpi\n        /* \"#utility.yul\":485:489   */\n      0x20\n        /* \"#utility.yul\":541:554   */\n      dup2\n      dup6\n      add\n        /* \"#utility.yul\":537:559   */\n      dup2\n      add\n        /* \"#utility.yul\":531:560   */\n      mload\n        /* \"#utility.yul\":513:524   */\n      dup7\n      dup4\n      add\n        /* \"#utility.yul\":509:529   */\n      dup3\n      add\n        /* \"#utility.yul\":502:561   */\n      mstore\n        /* \"#utility.yul\":438:450   */\n      add\n        /* \"#utility.yul\":409:571   */\n      jump(tag_610)\n    tag_612:\n        /* \"#utility.yul\":413:416   */\n      pop\n        /* \"#utility.yul\":616:617   */\n      0x00\n        /* \"#utility.yul\":609:613   */\n      0x20\n        /* \"#utility.yul\":600:606   */\n      dup3\n        /* \"#utility.yul\":595:598   */\n      dup7\n        /* \"#utility.yul\":591:607   */\n      add\n        /* \"#utility.yul\":587:614   */\n      add\n        /* \"#utility.yul\":580:618   */\n      mstore\n        /* \"#utility.yul\":679:683   */\n      0x20\n        /* \"#utility.yul\":672:674   */\n      0x1f\n        /* \"#utility.yul\":668:675   */\n      not\n        /* \"#utility.yul\":663:665   */\n      0x1f\n        /* \"#utility.yul\":655:661   */\n      dup4\n        /* \"#utility.yul\":651:666   */\n      add\n        /* \"#utility.yul\":647:676   */\n      and\n        /* \"#utility.yul\":642:645   */\n      dup6\n        /* \"#utility.yul\":638:677   */\n      add\n        /* \"#utility.yul\":634:684   */\n      add\n        /* \"#utility.yul\":627:684   */\n      swap2\n      pop\n      pop\n        /* \"#utility.yul\":267:690   */\n      swap3\n      swap2\n      pop\n      pop\n      jump\t// out\n        /* \"#utility.yul\":900:2396   */\n    tag_598:\n        /* \"#utility.yul\":955:958   */\n      0x00\n        /* \"#utility.yul\":983:989   */\n      0x0180\n        /* \"#utility.yul\":1016:1021   */\n      dup3\n        /* \"#utility.yul\":1010:1022   */\n      mload\n        /* \"#utility.yul\":1005:1008   */\n      dup5\n        /* \"#utility.yul\":998:1023   */\n      mstore\n        /* \"#utility.yul\":1069:1073   */\n      0x20\n        /* \"#utility.yul\":1062:1067   */\n      dup4\n        /* \"#utility.yul\":1058:1074   */\n      add\n        /* \"#utility.yul\":1052:1075   */\n      mload\n        /* \"#utility.yul\":1107:1109   */\n      dup2\n        /* \"#utility.yul\":1100:1104   */\n      0x20\n        /* \"#utility.yul\":1095:1098   */\n      dup7\n        /* \"#utility.yul\":1091:1105   */\n      add\n        /* \"#utility.yul\":1084:1110   */\n      mstore\n        /* \"#utility.yul\":1131:1176   */\n      tag_616\n        /* \"#utility.yul\":1172:1174   */\n      dup3\n        /* \"#utility.yul\":1167:1170   */\n      dup7\n        /* \"#utility.yul\":1163:1175   */\n      add\n        /* \"#utility.yul\":1149:1161   */\n      dup3\n        /* \"#utility.yul\":1131:1176   */\n      tag_595\n      jump\t// in\n    tag_616:\n        /* \"#utility.yul\":1119:1176   */\n      swap2\n      pop\n      pop\n        /* \"#utility.yul\":1224:1228   */\n      0x40\n        /* \"#utility.yul\":1217:1222   */\n      dup4\n        /* \"#utility.yul\":1213:1229   */\n      add\n        /* \"#utility.yul\":1207:1230   */\n      mload\n        /* \"#utility.yul\":1272:1275   */\n      dup5\n        /* \"#utility.yul\":1266:1270   */\n      dup3\n        /* \"#utility.yul\":1262:1276   */\n      sub\n        /* \"#utility.yul\":1255:1259   */\n      0x40\n        /* \"#utility.yul\":1250:1253   */\n      dup7\n        /* \"#utility.yul\":1246:1260   */\n      add\n        /* \"#utility.yul\":1239:1277   */\n      mstore\n        /* \"#utility.yul\":1300:1339   */\n      tag_617\n        /* \"#utility.yul\":1334:1338   */\n      dup3\n        /* \"#utility.yul\":1318:1332   */\n      dup3\n        /* \"#utility.yul\":1300:1339   */\n      tag_595\n      jump\t// in\n    tag_617:\n        /* \"#utility.yul\":1286:1339   */\n      swap2\n      pop\n      pop\n        /* \"#utility.yul\":1387:1391   */\n      0x60\n        /* \"#utility.yul\":1380:1385   */\n      dup4\n        /* \"#utility.yul\":1376:1392   */\n      add\n        /* \"#utility.yul\":1370:1393   */\n      mload\n        /* \"#utility.yul\":1437:1440   */\n      dup5\n        /* \"#utility.yul\":1429:1435   */\n      dup3\n        /* \"#utility.yul\":1425:1441   */\n      sub\n        /* \"#utility.yul\":1418:1422   */\n      0x60\n        /* \"#utility.yul\":1413:1416   */\n      dup7\n        /* \"#utility.yul\":1409:1423   */\n      add\n        /* \"#utility.yul\":1402:1442   */\n      mstore\n        /* \"#utility.yul\":1465:1506   */\n      tag_618\n        /* \"#utility.yul\":1499:1505   */\n      dup3\n        /* \"#utility.yul\":1483:1497   */\n      dup3\n        /* \"#utility.yul\":1465:1506   */\n      tag_595\n      jump\t// in\n    tag_618:\n        /* \"#utility.yul\":1451:1506   */\n      swap2\n      pop\n      pop\n        /* \"#utility.yul\":1554:1558   */\n      0x80\n        /* \"#utility.yul\":1547:1552   */\n      dup4\n        /* \"#utility.yul\":1543:1559   */\n      add\n        /* \"#utility.yul\":1537:1560   */\n      mload\n        /* \"#utility.yul\":1604:1607   */\n      dup5\n        /* \"#utility.yul\":1596:1602   */\n      dup3\n        /* \"#utility.yul\":1592:1608   */\n      sub\n        /* \"#utility.yul\":1585:1589   */\n      0x80\n        /* \"#utility.yul\":1580:1583   */\n      dup7\n        /* \"#utility.yul\":1576:1590   */\n      add\n        /* \"#utility.yul\":1569:1609   */\n      mstore\n        /* \"#utility.yul\":1632:1673   */\n      tag_619\n        /* \"#utility.yul\":1666:1672   */\n      dup3\n        /* \"#utility.yul\":1650:1664   */\n      dup3\n        /* \"#utility.yul\":1632:1673   */\n      tag_595\n      jump\t// in\n    tag_619:\n        /* \"#utility.yul\":1618:1673   */\n      swap2\n      pop\n      pop\n        /* \"#utility.yul\":1722:1726   */\n      0xa0\n        /* \"#utility.yul\":1715:1720   */\n      dup4\n        /* \"#utility.yul\":1711:1727   */\n      add\n        /* \"#utility.yul\":1705:1728   */\n      mload\n        /* \"#utility.yul\":1698:1702   */\n      0xa0\n        /* \"#utility.yul\":1693:1696   */\n      dup6\n        /* \"#utility.yul\":1689:1703   */\n      add\n        /* \"#utility.yul\":1682:1729   */\n      mstore\n        /* \"#utility.yul\":1778:1782   */\n      0xc0\n        /* \"#utility.yul\":1771:1776   */\n      dup4\n        /* \"#utility.yul\":1767:1783   */\n      add\n        /* \"#utility.yul\":1761:1784   */\n      mload\n        /* \"#utility.yul\":1754:1758   */\n      0xc0\n        /* \"#utility.yul\":1749:1752   */\n      dup6\n        /* \"#utility.yul\":1745:1759   */\n      add\n        /* \"#utility.yul\":1738:1785   */\n      mstore\n        /* \"#utility.yul\":1833:1837   */\n      0xe0\n        /* \"#utility.yul\":1826:1831   */\n      dup4\n        /* \"#utility.yul\":1822:1838   */\n      add\n        /* \"#utility.yul\":1816:1839   */\n      mload\n        /* \"#utility.yul\":1848:1898   */\n      tag_620\n        /* \"#utility.yul\":1892:1896   */\n      0xe0\n        /* \"#utility.yul\":1887:1890   */\n      dup7\n        /* \"#utility.yul\":1883:1897   */\n      add\n        /* \"#utility.yul\":1867:1881   */\n      dup3\n      sub(shl(0xa0, 0x01), 0x01)\n        /* \"#utility.yul\":761:792   */\n      and\n        /* \"#utility.yul\":749:793   */\n      swap1\n      mstore\n        /* \"#utility.yul\":695:799   */\n      jump\n        /* \"#utility.yul\":1848:1898   */\n    tag_620:\n      pop\n        /* \"#utility.yul\":1917:1923   */\n      0x0100\n        /* \"#utility.yul\":1960:1974   */\n      dup4\n      dup2\n      add\n        /* \"#utility.yul\":1954:1975   */\n      mload\n        /* \"#utility.yul\":874:887   */\n      iszero\n        /* \"#utility.yul\":867:888   */\n      iszero\n        /* \"#utility.yul\":2016:2028   */\n      swap1\n      dup6\n      add\n        /* \"#utility.yul\":855:889   */\n      mstore\n        /* \"#utility.yul\":2048:2054   */\n      0x0120\n        /* \"#utility.yul\":2091:2105   */\n      dup1\n      dup5\n      add\n        /* \"#utility.yul\":2085:2106   */\n      mload\n        /* \"#utility.yul\":874:887   */\n      iszero\n        /* \"#utility.yul\":867:888   */\n      iszero\n        /* \"#utility.yul\":2147:2159   */\n      swap1\n      dup6\n      add\n        /* \"#utility.yul\":855:889   */\n      mstore\n        /* \"#utility.yul\":2179:2185   */\n      0x0140\n        /* \"#utility.yul\":2222:2236   */\n      dup1\n      dup5\n      add\n        /* \"#utility.yul\":2216:2237   */\n      mload\n        /* \"#utility.yul\":874:887   */\n      iszero\n        /* \"#utility.yul\":867:888   */\n      iszero\n        /* \"#utility.yul\":2278:2290   */\n      swap1\n      dup6\n      add\n        /* \"#utility.yul\":855:889   */\n      mstore\n        /* \"#utility.yul\":2310:2316   */\n      0x0160\n        /* \"#utility.yul\":2352:2366   */\n      swap3\n      dup4\n      add\n        /* \"#utility.yul\":2346:2367   */\n      mload\n        /* \"#utility.yul\":2332:2344   */\n      swap3\n      swap1\n      swap4\n      add\n        /* \"#utility.yul\":2325:2368   */\n      swap2\n      swap1\n      swap2\n      mstore\n      pop\n        /* \"#utility.yul\":2332:2344   */\n      swap1\n        /* \"#utility.yul\":900:2396   */\n      jump\t// out\n        /* \"#utility.yul\":2401:3255   */\n    tag_52:\n        /* \"#utility.yul\":2601:2605   */\n      0x00\n        /* \"#utility.yul\":2630:2632   */\n      0x20\n        /* \"#utility.yul\":2670:2672   */\n      dup1\n        /* \"#utility.yul\":2659:2668   */\n      dup4\n        /* \"#utility.yul\":2655:2673   */\n      add\n        /* \"#utility.yul\":2700:2702   */\n      dup2\n        /* \"#utility.yul\":2689:2698   */\n      dup5\n        /* \"#utility.yul\":2682:2703   */\n      mstore\n        /* \"#utility.yul\":2723:2729   */\n      dup1\n        /* \"#utility.yul\":2758:2764   */\n      dup6\n        /* \"#utility.yul\":2752:2765   */\n      mload\n        /* \"#utility.yul\":2789:2795   */\n      dup1\n        /* \"#utility.yul\":2781:2787   */\n      dup4\n        /* \"#utility.yul\":2774:2796   */\n      mstore\n        /* \"#utility.yul\":2827:2829   */\n      0x40\n        /* \"#utility.yul\":2816:2825   */\n      dup7\n        /* \"#utility.yul\":2812:2830   */\n      add\n        /* \"#utility.yul\":2805:2830   */\n      swap2\n      pop\n        /* \"#utility.yul\":2889:2891   */\n      0x40\n        /* \"#utility.yul\":2879:2885   */\n      dup2\n        /* \"#utility.yul\":2876:2877   */\n      0x05\n        /* \"#utility.yul\":2872:2886   */\n      shl\n        /* \"#utility.yul\":2861:2870   */\n      dup8\n        /* \"#utility.yul\":2857:2887   */\n      add\n        /* \"#utility.yul\":2853:2892   */\n      add\n        /* \"#utility.yul\":2839:2892   */\n      swap3\n      pop\n        /* \"#utility.yul\":2927:2929   */\n      dup4\n        /* \"#utility.yul\":2919:2925   */\n      dup8\n        /* \"#utility.yul\":2915:2930   */\n      add\n        /* \"#utility.yul\":2948:2949   */\n      0x00\n        /* \"#utility.yul\":2958:3226   */\n    tag_625:\n        /* \"#utility.yul\":2972:2978   */\n      dup3\n        /* \"#utility.yul\":2969:2970   */\n      dup2\n        /* \"#utility.yul\":2966:2979   */\n      lt\n        /* \"#utility.yul\":2958:3226   */\n      iszero\n      tag_627\n      jumpi\n        /* \"#utility.yul\":3065:3067   */\n      0x3f\n        /* \"#utility.yul\":3061:3068   */\n      not\n        /* \"#utility.yul\":3049:3058   */\n      dup9\n        /* \"#utility.yul\":3041:3047   */\n      dup7\n        /* \"#utility.yul\":3037:3059   */\n      sub\n        /* \"#utility.yul\":3033:3069   */\n      add\n        /* \"#utility.yul\":3028:3031   */\n      dup5\n        /* \"#utility.yul\":3021:3070   */\n      mstore\n        /* \"#utility.yul\":3093:3146   */\n      tag_628\n        /* \"#utility.yul\":3139:3145   */\n      dup6\n        /* \"#utility.yul\":3130:3136   */\n      dup4\n        /* \"#utility.yul\":3124:3137   */\n      mload\n        /* \"#utility.yul\":3093:3146   */\n      tag_598\n      jump\t// in\n    tag_628:\n        /* \"#utility.yul\":3083:3146   */\n      swap5\n      pop\n        /* \"#utility.yul\":3204:3216   */\n      swap3\n      dup6\n      add\n      swap3\n        /* \"#utility.yul\":3169:3184   */\n      swap1\n      dup6\n      add\n      swap1\n        /* \"#utility.yul\":2994:2995   */\n      0x01\n        /* \"#utility.yul\":2987:2996   */\n      add\n        /* \"#utility.yul\":2958:3226   */\n      jump(tag_625)\n    tag_627:\n      pop\n        /* \"#utility.yul\":3243:3249   */\n      swap3\n      swap8\n        /* \"#utility.yul\":2401:3255   */\n      swap7\n      pop\n      pop\n      pop\n      pop\n      pop\n      pop\n      pop\n      jump\t// out\n        /* \"#utility.yul\":3452:3579   */\n    tag_255:\n        /* \"#utility.yul\":3513:3523   */\n      0x4e487b71\n        /* \"#utility.yul\":3508:3511   */\n      0xe0\n        /* \"#utility.yul\":3504:3524   */\n      shl\n        /* \"#utility.yul\":3501:3502   */\n      0x00\n        /* \"#utility.yul\":3494:3525   */\n      mstore\n        /* \"#utility.yul\":3544:3548   */\n      0x41\n        /* \"#utility.yul\":3541:3542   */\n      0x04\n        /* \"#utility.yul\":3534:3549   */\n      mstore\n        /* \"#utility.yul\":3568:3572   */\n      0x24\n        /* \"#utility.yul\":3565:3566   */\n      0x00\n        /* \"#utility.yul\":3558:3573   */\n      revert\n        /* \"#utility.yul\":3584:4303   */\n    tag_599:\n        /* \"#utility.yul\":3627:3632   */\n      0x00\n        /* \"#utility.yul\":3680:3683   */\n      dup3\n        /* \"#utility.yul\":3673:3677   */\n      0x1f\n        /* \"#utility.yul\":3665:3671   */\n      dup4\n        /* \"#utility.yul\":3661:3678   */\n      add\n        /* \"#utility.yul\":3657:3684   */\n      slt\n        /* \"#utility.yul\":3647:3702   */\n      tag_632\n      jumpi\n        /* \"#utility.yul\":3698:3699   */\n      0x00\n        /* \"#utility.yul\":3695:3696   */\n      dup1\n        /* \"#utility.yul\":3688:3700   */\n      revert\n        /* \"#utility.yul\":3647:3702   */\n    tag_632:\n        /* \"#utility.yul\":3734:3740   */\n      dup2\n        /* \"#utility.yul\":3721:3741   */\n      calldataload\n        /* \"#utility.yul\":3760:3778   */\n      0xffffffffffffffff\n        /* \"#utility.yul\":3797:3799   */\n      dup1\n        /* \"#utility.yul\":3793:3795   */\n      dup3\n        /* \"#utility.yul\":3790:3800   */\n      gt\n        /* \"#utility.yul\":3787:3823   */\n      iszero\n      tag_634\n      jumpi\n        /* \"#utility.yul\":3803:3821   */\n      tag_634\n      tag_255\n      jump\t// in\n    tag_634:\n        /* \"#utility.yul\":3878:3880   */\n      0x40\n        /* \"#utility.yul\":3872:3881   */\n      mload\n        /* \"#utility.yul\":3846:3848   */\n      0x1f\n        /* \"#utility.yul\":3932:3945   */\n      dup4\n      add\n      not(0x1f)\n        /* \"#utility.yul\":3928:3950   */\n      swap1\n      dup2\n      and\n        /* \"#utility.yul\":3952:3954   */\n      0x3f\n        /* \"#utility.yul\":3924:3955   */\n      add\n        /* \"#utility.yul\":3920:3960   */\n      and\n        /* \"#utility.yul\":3908:3961   */\n      dup2\n      add\n      swap1\n        /* \"#utility.yul\":3976:3994   */\n      dup3\n      dup3\n      gt\n        /* \"#utility.yul\":3996:4018   */\n      dup2\n      dup4\n      lt\n        /* \"#utility.yul\":3973:4019   */\n      or\n        /* \"#utility.yul\":3970:4042   */\n      iszero\n      tag_636\n      jumpi\n        /* \"#utility.yul\":4022:4040   */\n      tag_636\n      tag_255\n      jump\t// in\n    tag_636:\n        /* \"#utility.yul\":4062:4072   */\n      dup2\n        /* \"#utility.yul\":4058:4060   */\n      0x40\n        /* \"#utility.yul\":4051:4073   */\n      mstore\n        /* \"#utility.yul\":4097:4099   */\n      dup4\n        /* \"#utility.yul\":4089:4095   */\n      dup2\n        /* \"#utility.yul\":4082:4100   */\n      mstore\n        /* \"#utility.yul\":4143:4146   */\n      dup7\n        /* \"#utility.yul\":4136:4140   */\n      0x20\n        /* \"#utility.yul\":4131:4133   */\n      dup6\n        /* \"#utility.yul\":4123:4129   */\n      dup9\n        /* \"#utility.yul\":4119:4134   */\n      add\n        /* \"#utility.yul\":4115:4141   */\n      add\n        /* \"#utility.yul\":4112:4147   */\n      gt\n        /* \"#utility.yul\":4109:4164   */\n      iszero\n      tag_637\n      jumpi\n        /* \"#utility.yul\":4160:4161   */\n      0x00\n        /* \"#utility.yul\":4157:4158   */\n      dup1\n        /* \"#utility.yul\":4150:4162   */\n      revert\n        /* \"#utility.yul\":4109:4164   */\n    tag_637:\n        /* \"#utility.yul\":4224:4226   */\n      dup4\n        /* \"#utility.yul\":4217:4221   */\n      0x20\n        /* \"#utility.yul\":4209:4215   */\n      dup8\n        /* \"#utility.yul\":4205:4222   */\n      add\n        /* \"#utility.yul\":4198:4202   */\n      0x20\n        /* \"#utility.yul\":4190:4196   */\n      dup4\n        /* \"#utility.yul\":4186:4203   */\n      add\n        /* \"#utility.yul\":4173:4227   */\n      calldatacopy\n        /* \"#utility.yul\":4271:4272   */\n      0x00\n        /* \"#utility.yul\":4264:4268   */\n      0x20\n        /* \"#utility.yul\":4259:4261   */\n      dup6\n        /* \"#utility.yul\":4251:4257   */\n      dup4\n        /* \"#utility.yul\":4247:4262   */\n      add\n        /* \"#utility.yul\":4243:4269   */\n      add\n        /* \"#utility.yul\":4236:4273   */\n      mstore\n        /* \"#utility.yul\":4291:4297   */\n      dup1\n        /* \"#utility.yul\":4282:4297   */\n      swap5\n      pop\n      pop\n      pop\n      pop\n      pop\n        /* \"#utility.yul\":3584:4303   */\n      swap3\n      swap2\n      pop\n      pop\n      jump\t// out\n        /* \"#utility.yul\":4308:5390   */\n    tag_62:\n        /* \"#utility.yul\":4452:4458   */\n      0x00\n        /* \"#utility.yul\":4460:4466   */\n      dup1\n        /* \"#utility.yul\":4468:4474   */\n      0x00\n        /* \"#utility.yul\":4476:4482   */\n      dup1\n        /* \"#utility.yul\":4484:4490   */\n      0x00\n        /* \"#utility.yul\":4492:4498   */\n      dup1\n        /* \"#utility.yul\":4545:4548   */\n      0xc0\n        /* \"#utility.yul\":4533:4542   */\n      dup8\n        /* \"#utility.yul\":4524:4531   */\n      dup10\n        /* \"#utility.yul\":4520:4543   */\n      sub\n        /* \"#utility.yul\":4516:4549   */\n      slt\n        /* \"#utility.yul\":4513:4566   */\n      iszero\n      tag_639\n      jumpi\n        /* \"#utility.yul\":4562:4563   */\n      0x00\n        /* \"#utility.yul\":4559:4560   */\n      dup1\n        /* \"#utility.yul\":4552:4564   */\n      revert\n        /* \"#utility.yul\":4513:4566   */\n    tag_639:\n        /* \"#utility.yul\":4602:4611   */\n      dup7\n        /* \"#utility.yul\":4589:4612   */\n      calldataload\n        /* \"#utility.yul\":4631:4649   */\n      0xffffffffffffffff\n        /* \"#utility.yul\":4672:4674   */\n      dup1\n        /* \"#utility.yul\":4664:4670   */\n      dup3\n        /* \"#utility.yul\":4661:4675   */\n      gt\n        /* \"#utility.yul\":4658:4692   */\n      iszero\n      tag_640\n      jumpi\n        /* \"#utility.yul\":4688:4689   */\n      0x00\n        /* \"#utility.yul\":4685:4686   */\n      dup1\n        /* \"#utility.yul\":4678:4690   */\n      revert\n        /* \"#utility.yul\":4658:4692   */\n    tag_640:\n        /* \"#utility.yul\":4711:4761   */\n      tag_641\n        /* \"#utility.yul\":4753:4760   */\n      dup11\n        /* \"#utility.yul\":4744:4750   */\n      dup4\n        /* \"#utility.yul\":4733:4742   */\n      dup12\n        /* \"#utility.yul\":4729:4751   */\n      add\n        /* \"#utility.yul\":4711:4761   */\n      tag_599\n      jump\t// in\n    tag_641:\n        /* \"#utility.yul\":4701:4761   */\n      swap8\n      pop\n        /* \"#utility.yul\":4814:4816   */\n      0x20\n        /* \"#utility.yul\":4803:4812   */\n      dup10\n        /* \"#utility.yul\":4799:4817   */\n      add\n        /* \"#utility.yul\":4786:4818   */\n      calldataload\n        /* \"#utility.yul\":4770:4818   */\n      swap2\n      pop\n        /* \"#utility.yul\":4843:4845   */\n      dup1\n        /* \"#utility.yul\":4833:4841   */\n      dup3\n        /* \"#utility.yul\":4830:4846   */\n      gt\n        /* \"#utility.yul\":4827:4863   */\n      iszero\n      tag_642\n      jumpi\n        /* \"#utility.yul\":4859:4860   */\n      0x00\n        /* \"#utility.yul\":4856:4857   */\n      dup1\n        /* \"#utility.yul\":4849:4861   */\n      revert\n        /* \"#utility.yul\":4827:4863   */\n    tag_642:\n        /* \"#utility.yul\":4882:4934   */\n      tag_643\n        /* \"#utility.yul\":4926:4933   */\n      dup11\n        /* \"#utility.yul\":4915:4923   */\n      dup4\n        /* \"#utility.yul\":4904:4913   */\n      dup12\n        /* \"#utility.yul\":4900:4924   */\n      add\n        /* \"#utility.yul\":4882:4934   */\n      tag_599\n      jump\t// in\n    tag_643:\n        /* \"#utility.yul\":4872:4934   */\n      swap7\n      pop\n        /* \"#utility.yul\":4987:4989   */\n      0x40\n        /* \"#utility.yul\":4976:4985   */\n      dup10\n        /* \"#utility.yul\":4972:4990   */\n      add\n        /* \"#utility.yul\":4959:4991   */\n      calldataload\n        /* \"#utility.yul\":4943:4991   */\n      swap2\n      pop\n        /* \"#utility.yul\":5016:5018   */\n      dup1\n        /* \"#utility.yul\":5006:5014   */\n      dup3\n        /* \"#utility.yul\":5003:5019   */\n      gt\n        /* \"#utility.yul\":5000:5036   */\n      iszero\n      tag_644\n      jumpi\n        /* \"#utility.yul\":5032:5033   */\n      0x00\n        /* \"#utility.yul\":5029:5030   */\n      dup1\n        /* \"#utility.yul\":5022:5034   */\n      revert\n        /* \"#utility.yul\":5000:5036   */\n    tag_644:\n        /* \"#utility.yul\":5055:5107   */\n      tag_645\n        /* \"#utility.yul\":5099:5106   */\n      dup11\n        /* \"#utility.yul\":5088:5096   */\n      dup4\n        /* \"#utility.yul\":5077:5086   */\n      dup12\n        /* \"#utility.yul\":5073:5097   */\n      add\n        /* \"#utility.yul\":5055:5107   */\n      tag_599\n      jump\t// in\n    tag_645:\n        /* \"#utility.yul\":5045:5107   */\n      swap6\n      pop\n        /* \"#utility.yul\":5160:5162   */\n      0x60\n        /* \"#utility.yul\":5149:5158   */\n      dup10\n        /* \"#utility.yul\":5145:5163   */\n      add\n        /* \"#utility.yul\":5132:5164   */\n      calldataload\n        /* \"#utility.yul\":5116:5164   */\n      swap2\n      pop\n        /* \"#utility.yul\":5189:5191   */\n      dup1\n        /* \"#utility.yul\":5179:5187   */\n      dup3\n        /* \"#utility.yul\":5176:5192   */\n      gt\n        /* \"#utility.yul\":5173:5209   */\n      iszero\n      tag_646\n      jumpi\n        /* \"#utility.yul\":5205:5206   */\n      0x00\n        /* \"#utility.yul\":5202:5203   */\n      dup1\n        /* \"#utility.yul\":5195:5207   */\n      revert\n        /* \"#utility.yul\":5173:5209   */\n    tag_646:\n      pop\n        /* \"#utility.yul\":5228:5280   */\n      tag_647\n        /* \"#utility.yul\":5272:5279   */\n      dup10\n        /* \"#utility.yul\":5261:5269   */\n      dup3\n        /* \"#utility.yul\":5250:5259   */\n      dup11\n        /* \"#utility.yul\":5246:5270   */\n      add\n        /* \"#utility.yul\":5228:5280   */\n      tag_599\n      jump\t// in\n    tag_647:\n        /* \"#utility.yul\":5218:5280   */\n      swap4\n      pop\n      pop\n        /* \"#utility.yul\":5327:5330   */\n      0x80\n        /* \"#utility.yul\":5316:5325   */\n      dup8\n        /* \"#utility.yul\":5312:5331   */\n      add\n        /* \"#utility.yul\":5299:5332   */\n      calldataload\n        /* \"#utility.yul\":5289:5332   */\n      swap2\n      pop\n        /* \"#utility.yul\":5379:5382   */\n      0xa0\n        /* \"#utility.yul\":5368:5377   */\n      dup8\n        /* \"#utility.yul\":5364:5383   */\n      add\n        /* \"#utility.yul\":5351:5384   */\n      calldataload\n        /* \"#utility.yul\":5341:5384   */\n      swap1\n      pop\n        /* \"#utility.yul\":4308:5390   */\n      swap3\n      swap6\n      pop\n      swap3\n      swap6\n      pop\n      swap3\n      swap6\n      jump\t// out\n        /* \"#utility.yul\":5395:5881   */\n    tag_600:\n        /* \"#utility.yul\":5468:5480   */\n      dup1\n      mload\n        /* \"#utility.yul\":5456:5481   */\n      dup3\n      mstore\n        /* \"#utility.yul\":5534:5538   */\n      0x20\n        /* \"#utility.yul\":5523:5539   */\n      dup1\n      dup3\n      add\n        /* \"#utility.yul\":5517:5540   */\n      mload\n      sub(shl(0xa0, 0x01), 0x01)\n        /* \"#utility.yul\":5513:5562   */\n      and\n        /* \"#utility.yul\":5497:5511   */\n      swap1\n      dup4\n      add\n        /* \"#utility.yul\":5490:5563   */\n      mstore\n        /* \"#utility.yul\":5612:5616   */\n      0x40\n        /* \"#utility.yul\":5601:5617   */\n      dup1\n      dup3\n      add\n        /* \"#utility.yul\":5595:5618   */\n      mload\n        /* \"#utility.yul\":5579:5593   */\n      swap1\n      dup4\n      add\n        /* \"#utility.yul\":5572:5619   */\n      mstore\n        /* \"#utility.yul\":5668:5672   */\n      0x60\n        /* \"#utility.yul\":5657:5673   */\n      dup1\n      dup3\n      add\n        /* \"#utility.yul\":5651:5674   */\n      mload\n        /* \"#utility.yul\":5635:5649   */\n      swap1\n      dup4\n      add\n        /* \"#utility.yul\":5628:5675   */\n      mstore\n        /* \"#utility.yul\":5724:5728   */\n      0x80\n        /* \"#utility.yul\":5713:5729   */\n      dup1\n      dup3\n      add\n        /* \"#utility.yul\":5707:5730   */\n      mload\n        /* \"#utility.yul\":5691:5705   */\n      swap1\n      dup4\n      add\n        /* \"#utility.yul\":5684:5731   */\n      mstore\n        /* \"#utility.yul\":5550:5553   */\n      0xa0\n        /* \"#utility.yul\":5783:5799   */\n      dup1\n      dup3\n      add\n        /* \"#utility.yul\":5777:5800   */\n      mload\n        /* \"#utility.yul\":5770:5801   */\n      iszero\n        /* \"#utility.yul\":5763:5802   */\n      iszero\n        /* \"#utility.yul\":5747:5761   */\n      swap1\n      dup4\n      add\n        /* \"#utility.yul\":5740:5803   */\n      mstore\n        /* \"#utility.yul\":5866:5870   */\n      0xc0\n        /* \"#utility.yul\":5855:5871   */\n      swap1\n      dup2\n      add\n        /* \"#utility.yul\":5849:5872   */\n      mload\n        /* \"#utility.yul\":5842:5873   */\n      iszero\n        /* \"#utility.yul\":5835:5874   */\n      iszero\n        /* \"#utility.yul\":5819:5833   */\n      swap2\n      add\n        /* \"#utility.yul\":5812:5875   */\n      mstore\n        /* \"#utility.yul\":5395:5881   */\n      jump\t// out\n        /* \"#utility.yul\":5886:6131   */\n    tag_69:\n        /* \"#utility.yul\":6068:6071   */\n      0xe0\n        /* \"#utility.yul\":6053:6072   */\n      dup2\n      add\n        /* \"#utility.yul\":6081:6125   */\n      tag_319\n        /* \"#utility.yul\":6057:6066   */\n      dup3\n        /* \"#utility.yul\":6107:6113   */\n      dup5\n        /* \"#utility.yul\":6081:6125   */\n      tag_600\n      jump\t// in\n        /* \"#utility.yul\":6794:7184   */\n    tag_79:\n        /* \"#utility.yul\":6872:6878   */\n      0x00\n        /* \"#utility.yul\":6880:6886   */\n      dup1\n        /* \"#utility.yul\":6933:6935   */\n      0x40\n        /* \"#utility.yul\":6921:6930   */\n      dup4\n        /* \"#utility.yul\":6912:6919   */\n      dup6\n        /* \"#utility.yul\":6908:6931   */\n      sub\n        /* \"#utility.yul\":6904:6936   */\n      slt\n        /* \"#utility.yul\":6901:6953   */\n      iszero\n      tag_653\n      jumpi\n        /* \"#utility.yul\":6949:6950   */\n      0x00\n        /* \"#utility.yul\":6946:6947   */\n      dup1\n        /* \"#utility.yul\":6939:6951   */\n      revert\n        /* \"#utility.yul\":6901:6953   */\n    tag_653:\n        /* \"#utility.yul\":6985:6994   */\n      dup3\n        /* \"#utility.yul\":6972:6995   */\n      calldataload\n        /* \"#utility.yul\":6962:6995   */\n      swap2\n      pop\n        /* \"#utility.yul\":7046:7048   */\n      0x20\n        /* \"#utility.yul\":7035:7044   */\n      dup4\n        /* \"#utility.yul\":7031:7049   */\n      add\n        /* \"#utility.yul\":7018:7050   */\n      calldataload\n        /* \"#utility.yul\":7073:7091   */\n      0xffffffffffffffff\n        /* \"#utility.yul\":7065:7071   */\n      dup2\n        /* \"#utility.yul\":7062:7092   */\n      gt\n        /* \"#utility.yul\":7059:7109   */\n      iszero\n      tag_654\n      jumpi\n        /* \"#utility.yul\":7105:7106   */\n      0x00\n        /* \"#utility.yul\":7102:7103   */\n      dup1\n        /* \"#utility.yul\":7095:7107   */\n      revert\n        /* \"#utility.yul\":7059:7109   */\n    tag_654:\n        /* \"#utility.yul\":7128:7178   */\n      tag_655\n        /* \"#utility.yul\":7170:7177   */\n      dup6\n        /* \"#utility.yul\":7161:7167   */\n      dup3\n        /* \"#utility.yul\":7150:7159   */\n      dup7\n        /* \"#utility.yul\":7146:7168   */\n      add\n        /* \"#utility.yul\":7128:7178   */\n      tag_599\n      jump\t// in\n    tag_655:\n        /* \"#utility.yul\":7118:7178   */\n      swap2\n      pop\n      pop\n        /* \"#utility.yul\":6794:7184   */\n      swap3\n      pop\n      swap3\n      swap1\n      pop\n      jump\t// out\n        /* \"#utility.yul\":7189:7369   */\n    tag_84:\n        /* \"#utility.yul\":7248:7254   */\n      0x00\n        /* \"#utility.yul\":7301:7303   */\n      0x20\n        /* \"#utility.yul\":7289:7298   */\n      dup3\n        /* \"#utility.yul\":7280:7287   */\n      dup5\n        /* \"#utility.yul\":7276:7299   */\n      sub\n        /* \"#utility.yul\":7272:7304   */\n      slt\n        /* \"#utility.yul\":7269:7321   */\n      iszero\n      tag_657\n      jumpi\n        /* \"#utility.yul\":7317:7318   */\n      0x00\n        /* \"#utility.yul\":7314:7315   */\n      dup1\n        /* \"#utility.yul\":7307:7319   */\n      revert\n        /* \"#utility.yul\":7269:7321   */\n    tag_657:\n      pop\n        /* \"#utility.yul\":7340:7363   */\n      calldataload\n      swap2\n        /* \"#utility.yul\":7189:7369   */\n      swap1\n      pop\n      jump\t// out\n        /* \"#utility.yul\":7374:8525   */\n    tag_89:\n        /* \"#utility.yul\":7527:7533   */\n      0x00\n        /* \"#utility.yul\":7535:7541   */\n      dup1\n        /* \"#utility.yul\":7543:7549   */\n      0x00\n        /* \"#utility.yul\":7551:7557   */\n      dup1\n        /* \"#utility.yul\":7559:7565   */\n      0x00\n        /* \"#utility.yul\":7567:7573   */\n      dup1\n        /* \"#utility.yul\":7575:7581   */\n      0x00\n        /* \"#utility.yul\":7628:7631   */\n      0xe0\n        /* \"#utility.yul\":7616:7625   */\n      dup9\n        /* \"#utility.yul\":7607:7614   */\n      dup11\n        /* \"#utility.yul\":7603:7626   */\n      sub\n        /* \"#utility.yul\":7599:7632   */\n      slt\n        /* \"#utility.yul\":7596:7649   */\n      iszero\n      tag_659\n      jumpi\n        /* \"#utility.yul\":7645:7646   */\n      0x00\n        /* \"#utility.yul\":7642:7643   */\n      dup1\n        /* \"#utility.yul\":7635:7647   */\n      revert\n        /* \"#utility.yul\":7596:7649   */\n    tag_659:\n        /* \"#utility.yul\":7681:7690   */\n      dup8\n        /* \"#utility.yul\":7668:7691   */\n      calldataload\n        /* \"#utility.yul\":7658:7691   */\n      swap7\n      pop\n        /* \"#utility.yul\":7742:7744   */\n      0x20\n        /* \"#utility.yul\":7731:7740   */\n      dup9\n        /* \"#utility.yul\":7727:7745   */\n      add\n        /* \"#utility.yul\":7714:7746   */\n      calldataload\n        /* \"#utility.yul\":7765:7783   */\n      0xffffffffffffffff\n        /* \"#utility.yul\":7806:7808   */\n      dup1\n        /* \"#utility.yul\":7798:7804   */\n      dup3\n        /* \"#utility.yul\":7795:7809   */\n      gt\n        /* \"#utility.yul\":7792:7826   */\n      iszero\n      tag_660\n      jumpi\n        /* \"#utility.yul\":7822:7823   */\n      0x00\n        /* \"#utility.yul\":7819:7820   */\n      dup1\n        /* \"#utility.yul\":7812:7824   */\n      revert\n        /* \"#utility.yul\":7792:7826   */\n    tag_660:\n        /* \"#utility.yul\":7845:7895   */\n      tag_661\n        /* \"#utility.yul\":7887:7894   */\n      dup12\n        /* \"#utility.yul\":7878:7884   */\n      dup4\n        /* \"#utility.yul\":7867:7876   */\n      dup13\n        /* \"#utility.yul\":7863:7885   */\n      add\n        /* \"#utility.yul\":7845:7895   */\n      tag_599\n      jump\t// in\n    tag_661:\n        /* \"#utility.yul\":7835:7895   */\n      swap8\n      pop\n        /* \"#utility.yul\":7948:7950   */\n      0x40\n        /* \"#utility.yul\":7937:7946   */\n      dup11\n        /* \"#utility.yul\":7933:7951   */\n      add\n        /* \"#utility.yul\":7920:7952   */\n      calldataload\n        /* \"#utility.yul\":7904:7952   */\n      swap2\n      pop\n        /* \"#utility.yul\":7977:7979   */\n      dup1\n        /* \"#utility.yul\":7967:7975   */\n      dup3\n        /* \"#utility.yul\":7964:7980   */\n      gt\n        /* \"#utility.yul\":7961:7997   */\n      iszero\n      tag_662\n      jumpi\n        /* \"#utility.yul\":7993:7994   */\n      0x00\n        /* \"#utility.yul\":7990:7991   */\n      dup1\n        /* \"#utility.yul\":7983:7995   */\n      revert\n        /* \"#utility.yul\":7961:7997   */\n    tag_662:\n        /* \"#utility.yul\":8016:8068   */\n      tag_663\n        /* \"#utility.yul\":8060:8067   */\n      dup12\n        /* \"#utility.yul\":8049:8057   */\n      dup4\n        /* \"#utility.yul\":8038:8047   */\n      dup13\n        /* \"#utility.yul\":8034:8058   */\n      add\n        /* \"#utility.yul\":8016:8068   */\n      tag_599\n      jump\t// in\n    tag_663:\n        /* \"#utility.yul\":8006:8068   */\n      swap7\n      pop\n        /* \"#utility.yul\":8121:8123   */\n      0x60\n        /* \"#utility.yul\":8110:8119   */\n      dup11\n        /* \"#utility.yul\":8106:8124   */\n      add\n        /* \"#utility.yul\":8093:8125   */\n      calldataload\n        /* \"#utility.yul\":8077:8125   */\n      swap2\n      pop\n        /* \"#utility.yul\":8150:8152   */\n      dup1\n        /* \"#utility.yul\":8140:8148   */\n      dup3\n        /* \"#utility.yul\":8137:8153   */\n      gt\n        /* \"#utility.yul\":8134:8170   */\n      iszero\n      tag_664\n      jumpi\n        /* \"#utility.yul\":8166:8167   */\n      0x00\n        /* \"#utility.yul\":8163:8164   */\n      dup1\n        /* \"#utility.yul\":8156:8168   */\n      revert\n        /* \"#utility.yul\":8134:8170   */\n    tag_664:\n        /* \"#utility.yul\":8189:8241   */\n      tag_665\n        /* \"#utility.yul\":8233:8240   */\n      dup12\n        /* \"#utility.yul\":8222:8230   */\n      dup4\n        /* \"#utility.yul\":8211:8220   */\n      dup13\n        /* \"#utility.yul\":8207:8231   */\n      add\n        /* \"#utility.yul\":8189:8241   */\n      tag_599\n      jump\t// in\n    tag_665:\n        /* \"#utility.yul\":8179:8241   */\n      swap6\n      pop\n        /* \"#utility.yul\":8294:8297   */\n      0x80\n        /* \"#utility.yul\":8283:8292   */\n      dup11\n        /* \"#utility.yul\":8279:8298   */\n      add\n        /* \"#utility.yul\":8266:8299   */\n      calldataload\n        /* \"#utility.yul\":8250:8299   */\n      swap2\n      pop\n        /* \"#utility.yul\":8324:8326   */\n      dup1\n        /* \"#utility.yul\":8314:8322   */\n      dup3\n        /* \"#utility.yul\":8311:8327   */\n      gt\n        /* \"#utility.yul\":8308:8344   */\n      iszero\n      tag_666\n      jumpi\n        /* \"#utility.yul\":8340:8341   */\n      0x00\n        /* \"#utility.yul\":8337:8338   */\n      dup1\n        /* \"#utility.yul\":8330:8342   */\n      revert\n        /* \"#utility.yul\":8308:8344   */\n    tag_666:\n      pop\n        /* \"#utility.yul\":8363:8415   */\n      tag_667\n        /* \"#utility.yul\":8407:8414   */\n      dup11\n        /* \"#utility.yul\":8396:8404   */\n      dup3\n        /* \"#utility.yul\":8385:8394   */\n      dup12\n        /* \"#utility.yul\":8381:8405   */\n      add\n        /* \"#utility.yul\":8363:8415   */\n      tag_599\n      jump\t// in\n    tag_667:\n        /* \"#utility.yul\":8353:8415   */\n      swap4\n      pop\n      pop\n        /* \"#utility.yul\":8462:8465   */\n      0xa0\n        /* \"#utility.yul\":8451:8460   */\n      dup9\n        /* \"#utility.yul\":8447:8466   */\n      add\n        /* \"#utility.yul\":8434:8467   */\n      calldataload\n        /* \"#utility.yul\":8424:8467   */\n      swap2\n      pop\n        /* \"#utility.yul\":8514:8517   */\n      0xc0\n        /* \"#utility.yul\":8503:8512   */\n      dup9\n        /* \"#utility.yul\":8499:8518   */\n      add\n        /* \"#utility.yul\":8486:8519   */\n      calldataload\n        /* \"#utility.yul\":8476:8519   */\n      swap1\n      pop\n        /* \"#utility.yul\":7374:8525   */\n      swap3\n      swap6\n      swap9\n      swap2\n      swap5\n      swap8\n      pop\n      swap3\n      swap6\n      pop\n      jump\t// out\n        /* \"#utility.yul\":8530:8801   */\n    tag_96:\n        /* \"#utility.yul\":8717:8719   */\n      0x20\n        /* \"#utility.yul\":8706:8715   */\n      dup2\n        /* \"#utility.yul\":8699:8720   */\n      mstore\n        /* \"#utility.yul\":8680:8684   */\n      0x00\n        /* \"#utility.yul\":8737:8795   */\n      tag_588\n        /* \"#utility.yul\":8791:8793   */\n      0x20\n        /* \"#utility.yul\":8780:8789   */\n      dup4\n        /* \"#utility.yul\":8776:8794   */\n      add\n        /* \"#utility.yul\":8768:8774   */\n      dup5\n        /* \"#utility.yul\":8737:8795   */\n      tag_598\n      jump\t// in\n        /* \"#utility.yul\":8988:10341   */\n    tag_110:\n        /* \"#utility.yul\":9452:9456   */\n      0x00\n        /* \"#utility.yul\":9481:9484   */\n      0x0180\n        /* \"#utility.yul\":9511:9517   */\n      dup15\n        /* \"#utility.yul\":9500:9509   */\n      dup4\n        /* \"#utility.yul\":9493:9518   */\n      mstore\n        /* \"#utility.yul\":9554:9556   */\n      dup1\n        /* \"#utility.yul\":9549:9551   */\n      0x20\n        /* \"#utility.yul\":9538:9547   */\n      dup5\n        /* \"#utility.yul\":9534:9552   */\n      add\n        /* \"#utility.yul\":9527:9557   */\n      mstore\n        /* \"#utility.yul\":9580:9625   */\n      tag_672\n        /* \"#utility.yul\":9621:9623   */\n      dup2\n        /* \"#utility.yul\":9610:9619   */\n      dup5\n        /* \"#utility.yul\":9606:9624   */\n      add\n        /* \"#utility.yul\":9598:9604   */\n      dup16\n        /* \"#utility.yul\":9580:9625   */\n      tag_595\n      jump\t// in\n    tag_672:\n        /* \"#utility.yul\":9566:9625   */\n      swap1\n      pop\n        /* \"#utility.yul\":9673:9682   */\n      dup3\n        /* \"#utility.yul\":9665:9671   */\n      dup2\n        /* \"#utility.yul\":9661:9683   */\n      sub\n        /* \"#utility.yul\":9656:9658   */\n      0x40\n        /* \"#utility.yul\":9645:9654   */\n      dup5\n        /* \"#utility.yul\":9641:9659   */\n      add\n        /* \"#utility.yul\":9634:9684   */\n      mstore\n        /* \"#utility.yul\":9707:9740   */\n      tag_673\n        /* \"#utility.yul\":9733:9739   */\n      dup2\n        /* \"#utility.yul\":9725:9731   */\n      dup15\n        /* \"#utility.yul\":9707:9740   */\n      tag_595\n      jump\t// in\n    tag_673:\n        /* \"#utility.yul\":9693:9740   */\n      swap1\n      pop\n        /* \"#utility.yul\":9788:9797   */\n      dup3\n        /* \"#utility.yul\":9780:9786   */\n      dup2\n        /* \"#utility.yul\":9776:9798   */\n      sub\n        /* \"#utility.yul\":9771:9773   */\n      0x60\n        /* \"#utility.yul\":9760:9769   */\n      dup5\n        /* \"#utility.yul\":9756:9774   */\n      add\n        /* \"#utility.yul\":9749:9799   */\n      mstore\n        /* \"#utility.yul\":9822:9855   */\n      tag_674\n        /* \"#utility.yul\":9848:9854   */\n      dup2\n        /* \"#utility.yul\":9840:9846   */\n      dup14\n        /* \"#utility.yul\":9822:9855   */\n      tag_595\n      jump\t// in\n    tag_674:\n        /* \"#utility.yul\":9808:9855   */\n      swap1\n      pop\n        /* \"#utility.yul\":9904:9913   */\n      dup3\n        /* \"#utility.yul\":9896:9902   */\n      dup2\n        /* \"#utility.yul\":9892:9914   */\n      sub\n        /* \"#utility.yul\":9886:9889   */\n      0x80\n        /* \"#utility.yul\":9875:9884   */\n      dup5\n        /* \"#utility.yul\":9871:9890   */\n      add\n        /* \"#utility.yul\":9864:9915   */\n      mstore\n        /* \"#utility.yul\":9932:9965   */\n      tag_675\n        /* \"#utility.yul\":9958:9964   */\n      dup2\n        /* \"#utility.yul\":9950:9956   */\n      dup13\n        /* \"#utility.yul\":9932:9965   */\n      tag_595\n      jump\t// in\n    tag_675:\n        /* \"#utility.yul\":9996:9999   */\n      0xa0\n        /* \"#utility.yul\":9981:10000   */\n      dup5\n      add\n        /* \"#utility.yul\":9974:10009   */\n      dup12\n      swap1\n      mstore\n        /* \"#utility.yul\":10040:10043   */\n      0xc0\n        /* \"#utility.yul\":10025:10044   */\n      dup5\n      add\n        /* \"#utility.yul\":10018:10053   */\n      dup11\n      swap1\n      mstore\n      sub(shl(0xa0, 0x01), 0x01)\n        /* \"#utility.yul\":10090:10122   */\n      dup10\n      and\n        /* \"#utility.yul\":10084:10087   */\n      0xe0\n        /* \"#utility.yul\":10069:10088   */\n      dup6\n      add\n        /* \"#utility.yul\":10062:10123   */\n      mstore\n        /* \"#utility.yul\":10167:10181   */\n      dup8\n      iszero\n        /* \"#utility.yul\":10160:10182   */\n      iszero\n        /* \"#utility.yul\":10154:10157   */\n      0x0100\n        /* \"#utility.yul\":10139:10158   */\n      dup6\n      add\n        /* \"#utility.yul\":10132:10183   */\n      mstore\n        /* \"#utility.yul\":874:887   */\n      dup7\n      iszero\n        /* \"#utility.yul\":867:888   */\n      iszero\n        /* \"#utility.yul\":10231:10234   */\n      0x0120\n        /* \"#utility.yul\":10216:10235   */\n      dup6\n      add\n        /* \"#utility.yul\":855:889   */\n      mstore\n        /* \"#utility.yul\":9924:9965   */\n      swap2\n      pop\n        /* \"#utility.yul\":10192:10236   */\n      tag_676\n      swap1\n      pop\n        /* \"#utility.yul\":804:895   */\n      jump\n        /* \"#utility.yul\":10192:10236   */\n    tag_676:\n        /* \"#utility.yul\":874:887   */\n      swap3\n      iszero\n        /* \"#utility.yul\":867:888   */\n      iszero\n        /* \"#utility.yul\":10285:10288   */\n      0x0140\n        /* \"#utility.yul\":10270:10289   */\n      dup3\n      add\n        /* \"#utility.yul\":855:889   */\n      mstore\n        /* \"#utility.yul\":10321:10324   */\n      0x0160\n        /* \"#utility.yul\":10306:10325   */\n      add\n        /* \"#utility.yul\":10299:10335   */\n      mstore\n        /* \"#utility.yul\":8988:10341   */\n      swap11\n      swap10\n      pop\n      pop\n      pop\n      pop\n      pop\n      pop\n      pop\n      pop\n      pop\n      pop\n      jump\t// out\n        /* \"#utility.yul\":10346:10519   */\n    tag_601:\n        /* \"#utility.yul\":10414:10434   */\n      dup1\n      calldataload\n      sub(shl(0xa0, 0x01), 0x01)\n        /* \"#utility.yul\":10463:10494   */\n      dup2\n      and\n        /* \"#utility.yul\":10453:10495   */\n      dup2\n      eq\n        /* \"#utility.yul\":10443:10513   */\n      tag_679\n      jumpi\n        /* \"#utility.yul\":10509:10510   */\n      0x00\n        /* \"#utility.yul\":10506:10507   */\n      dup1\n        /* \"#utility.yul\":10499:10511   */\n      revert\n        /* \"#utility.yul\":10443:10513   */\n    tag_679:\n        /* \"#utility.yul\":10346:10519   */\n      swap2\n      swap1\n      pop\n      jump\t// out\n        /* \"#utility.yul\":10524:10778   */\n    tag_114:\n        /* \"#utility.yul\":10592:10598   */\n      0x00\n        /* \"#utility.yul\":10600:10606   */\n      dup1\n        /* \"#utility.yul\":10653:10655   */\n      0x40\n        /* \"#utility.yul\":10641:10650   */\n      dup4\n        /* \"#utility.yul\":10632:10639   */\n      dup6\n        /* \"#utility.yul\":10628:10651   */\n      sub\n        /* \"#utility.yul\":10624:10656   */\n      slt\n        /* \"#utility.yul\":10621:10673   */\n      iszero\n      tag_681\n      jumpi\n        /* \"#utility.yul\":10669:10670   */\n      0x00\n        /* \"#utility.yul\":10666:10667   */\n      dup1\n        /* \"#utility.yul\":10659:10671   */\n      revert\n        /* \"#utility.yul\":10621:10673   */\n    tag_681:\n        /* \"#utility.yul\":10692:10721   */\n      tag_682\n        /* \"#utility.yul\":10711:10720   */\n      dup4\n        /* \"#utility.yul\":10692:10721   */\n      tag_601\n      jump\t// in\n    tag_682:\n        /* \"#utility.yul\":10682:10721   */\n      swap5\n        /* \"#utility.yul\":10768:10770   */\n      0x20\n        /* \"#utility.yul\":10753:10771   */\n      swap4\n      swap1\n      swap4\n      add\n        /* \"#utility.yul\":10740:10772   */\n      calldataload\n      swap4\n      pop\n      pop\n      pop\n        /* \"#utility.yul\":10524:10778   */\n      jump\t// out\n        /* \"#utility.yul\":10991:11524   */\n    tag_127:\n        /* \"#utility.yul\":11252:11258   */\n      dup6\n        /* \"#utility.yul\":11241:11250   */\n      dup2\n        /* \"#utility.yul\":11234:11259   */\n      mstore\n        /* \"#utility.yul\":11295:11301   */\n      dup5\n        /* \"#utility.yul\":11290:11292   */\n      0x20\n        /* \"#utility.yul\":11279:11288   */\n      dup3\n        /* \"#utility.yul\":11275:11293   */\n      add\n        /* \"#utility.yul\":11268:11302   */\n      mstore\n        /* \"#utility.yul\":11338:11341   */\n      0xa0\n        /* \"#utility.yul\":11333:11335   */\n      0x40\n        /* \"#utility.yul\":11322:11331   */\n      dup3\n        /* \"#utility.yul\":11318:11336   */\n      add\n        /* \"#utility.yul\":11311:11342   */\n      mstore\n        /* \"#utility.yul\":11215:11219   */\n      0x00\n        /* \"#utility.yul\":11359:11405   */\n      tag_685\n        /* \"#utility.yul\":11400:11403   */\n      0xa0\n        /* \"#utility.yul\":11389:11398   */\n      dup4\n        /* \"#utility.yul\":11385:11404   */\n      add\n        /* \"#utility.yul\":11377:11383   */\n      dup7\n        /* \"#utility.yul\":11359:11405   */\n      tag_595\n      jump\t// in\n    tag_685:\n        /* \"#utility.yul\":11436:11438   */\n      0x60\n        /* \"#utility.yul\":11421:11439   */\n      dup4\n      add\n        /* \"#utility.yul\":11414:11448   */\n      swap5\n      swap1\n      swap5\n      mstore\n      pop\n      sub(shl(0xa0, 0x01), 0x01)\n        /* \"#utility.yul\":11485:11517   */\n      swap2\n      swap1\n      swap2\n      and\n        /* \"#utility.yul\":11479:11482   */\n      0x80\n        /* \"#utility.yul\":11464:11483   */\n      swap1\n      swap2\n      add\n        /* \"#utility.yul\":11457:11518   */\n      mstore\n        /* \"#utility.yul\":11351:11405   */\n      swap4\n        /* \"#utility.yul\":10991:11524   */\n      swap3\n      pop\n      pop\n      pop\n      jump\t// out\n        /* \"#utility.yul\":11529:12860   */\n    tag_133:\n        /* \"#utility.yul\":11717:11721   */\n      0x00\n        /* \"#utility.yul\":11746:11748   */\n      0x20\n        /* \"#utility.yul\":11786:11788   */\n      dup1\n        /* \"#utility.yul\":11775:11784   */\n      dup4\n        /* \"#utility.yul\":11771:11789   */\n      add\n        /* \"#utility.yul\":11816:11818   */\n      dup2\n        /* \"#utility.yul\":11805:11814   */\n      dup5\n        /* \"#utility.yul\":11798:11819   */\n      mstore\n        /* \"#utility.yul\":11839:11845   */\n      dup1\n        /* \"#utility.yul\":11874:11880   */\n      dup6\n        /* \"#utility.yul\":11868:11881   */\n      mload\n        /* \"#utility.yul\":11905:11911   */\n      dup1\n        /* \"#utility.yul\":11897:11903   */\n      dup4\n        /* \"#utility.yul\":11890:11912   */\n      mstore\n        /* \"#utility.yul\":11931:11933   */\n      0x40\n        /* \"#utility.yul\":11921:11933   */\n      swap3\n      pop\n        /* \"#utility.yul\":11964:11966   */\n      dup3\n        /* \"#utility.yul\":11953:11962   */\n      dup7\n        /* \"#utility.yul\":11949:11967   */\n      add\n        /* \"#utility.yul\":11942:11967   */\n      swap2\n      pop\n        /* \"#utility.yul\":12026:12028   */\n      dup3\n        /* \"#utility.yul\":12016:12022   */\n      dup2\n        /* \"#utility.yul\":12013:12014   */\n      0x05\n        /* \"#utility.yul\":12009:12023   */\n      shl\n        /* \"#utility.yul\":11998:12007   */\n      dup8\n        /* \"#utility.yul\":11994:12024   */\n      add\n        /* \"#utility.yul\":11990:12029   */\n      add\n        /* \"#utility.yul\":12064:12066   */\n      dup5\n        /* \"#utility.yul\":12056:12062   */\n      dup9\n        /* \"#utility.yul\":12052:12067   */\n      add\n        /* \"#utility.yul\":12085:12086   */\n      0x00\n        /* \"#utility.yul\":12095:12831   */\n    tag_687:\n        /* \"#utility.yul\":12109:12115   */\n      dup4\n        /* \"#utility.yul\":12106:12107   */\n      dup2\n        /* \"#utility.yul\":12103:12116   */\n      lt\n        /* \"#utility.yul\":12095:12831   */\n      iszero\n      tag_689\n      jumpi\n        /* \"#utility.yul\":12202:12204   */\n      0x3f\n        /* \"#utility.yul\":12198:12205   */\n      not\n        /* \"#utility.yul\":12186:12195   */\n      dup10\n        /* \"#utility.yul\":12178:12184   */\n      dup5\n        /* \"#utility.yul\":12174:12196   */\n      sub\n        /* \"#utility.yul\":12170:12206   */\n      add\n        /* \"#utility.yul\":12165:12168   */\n      dup6\n        /* \"#utility.yul\":12158:12207   */\n      mstore\n        /* \"#utility.yul\":12236:12242   */\n      dup2\n        /* \"#utility.yul\":12230:12243   */\n      mload\n        /* \"#utility.yul\":12266:12270   */\n      0xa0\n        /* \"#utility.yul\":12304:12306   */\n      dup2\n        /* \"#utility.yul\":12298:12307   */\n      mload\n        /* \"#utility.yul\":12290:12296   */\n      dup6\n        /* \"#utility.yul\":12283:12308   */\n      mstore\n        /* \"#utility.yul\":12359:12361   */\n      dup9\n        /* \"#utility.yul\":12355:12357   */\n      dup3\n        /* \"#utility.yul\":12351:12362   */\n      add\n        /* \"#utility.yul\":12345:12363   */\n      mload\n        /* \"#utility.yul\":12340:12342   */\n      dup10\n        /* \"#utility.yul\":12332:12338   */\n      dup7\n        /* \"#utility.yul\":12328:12343   */\n      add\n        /* \"#utility.yul\":12321:12364   */\n      mstore\n        /* \"#utility.yul\":12411:12413   */\n      dup8\n        /* \"#utility.yul\":12407:12409   */\n      dup3\n        /* \"#utility.yul\":12403:12414   */\n      add\n        /* \"#utility.yul\":12397:12415   */\n      mload\n        /* \"#utility.yul\":12452:12454   */\n      dup2\n        /* \"#utility.yul\":12447:12449   */\n      dup10\n        /* \"#utility.yul\":12439:12445   */\n      dup8\n        /* \"#utility.yul\":12435:12450   */\n      add\n        /* \"#utility.yul\":12428:12455   */\n      mstore\n        /* \"#utility.yul\":12482:12530   */\n      tag_690\n        /* \"#utility.yul\":12526:12528   */\n      dup3\n        /* \"#utility.yul\":12518:12524   */\n      dup8\n        /* \"#utility.yul\":12514:12529   */\n      add\n        /* \"#utility.yul\":12500:12512   */\n      dup3\n        /* \"#utility.yul\":12482:12530   */\n      tag_595\n      jump\t// in\n    tag_690:\n        /* \"#utility.yul\":12553:12557   */\n      0x60\n        /* \"#utility.yul\":12600:12611   */\n      dup5\n      dup2\n      add\n        /* \"#utility.yul\":12594:12612   */\n      mload\n        /* \"#utility.yul\":12577:12592   */\n      swap1\n      dup9\n      add\n        /* \"#utility.yul\":12570:12613   */\n      mstore\n        /* \"#utility.yul\":12636:12640   */\n      0x80\n        /* \"#utility.yul\":12687:12698   */\n      swap4\n      dup5\n      add\n        /* \"#utility.yul\":12681:12699   */\n      mload\n      sub(shl(0xa0, 0x01), 0x01)\n        /* \"#utility.yul\":12677:12721   */\n      and\n        /* \"#utility.yul\":12660:12675   */\n      swap4\n      swap1\n      swap7\n      add\n        /* \"#utility.yul\":12653:12722   */\n      swap3\n      swap1\n      swap3\n      mstore\n      pop\n      pop\n        /* \"#utility.yul\":12809:12821   */\n      swap4\n      dup7\n      add\n      swap4\n        /* \"#utility.yul\":12774:12789   */\n      swap1\n      dup7\n      add\n      swap1\n        /* \"#utility.yul\":12718:12719   */\n      0x01\n        /* \"#utility.yul\":12124:12133   */\n      add\n        /* \"#utility.yul\":12095:12831   */\n      jump(tag_687)\n    tag_689:\n      pop\n        /* \"#utility.yul\":12848:12854   */\n      swap1\n      swap9\n        /* \"#utility.yul\":11529:12860   */\n      swap8\n      pop\n      pop\n      pop\n      pop\n      pop\n      pop\n      pop\n      pop\n      jump\t// out\n        /* \"#utility.yul\":12865:13497   */\n    tag_162:\n        /* \"#utility.yul\":13036:13038   */\n      0x20\n        /* \"#utility.yul\":13088:13109   */\n      dup1\n      dup3\n      mstore\n        /* \"#utility.yul\":13158:13171   */\n      dup3\n      mload\n        /* \"#utility.yul\":13061:13079   */\n      dup3\n      dup3\n      add\n        /* \"#utility.yul\":13180:13202   */\n      dup2\n      swap1\n      mstore\n        /* \"#utility.yul\":13007:13011   */\n      0x00\n      swap2\n        /* \"#utility.yul\":13036:13038   */\n      swap1\n        /* \"#utility.yul\":13259:13274   */\n      dup5\n      dup3\n      add\n      swap1\n        /* \"#utility.yul\":13233:13235   */\n      0x40\n        /* \"#utility.yul\":13218:13236   */\n      dup6\n      add\n      swap1\n        /* \"#utility.yul\":13007:13011   */\n      dup5\n        /* \"#utility.yul\":13302:13471   */\n    tag_692:\n        /* \"#utility.yul\":13316:13322   */\n      dup2\n        /* \"#utility.yul\":13313:13314   */\n      dup2\n        /* \"#utility.yul\":13310:13323   */\n      lt\n        /* \"#utility.yul\":13302:13471   */\n      iszero\n      tag_694\n      jumpi\n        /* \"#utility.yul\":13377:13390   */\n      dup4\n      mload\n        /* \"#utility.yul\":13365:13391   */\n      dup4\n      mstore\n        /* \"#utility.yul\":13446:13461   */\n      swap3\n      dup5\n      add\n      swap3\n        /* \"#utility.yul\":13411:13423   */\n      swap2\n      dup5\n      add\n      swap2\n        /* \"#utility.yul\":13338:13339   */\n      0x01\n        /* \"#utility.yul\":13331:13340   */\n      add\n        /* \"#utility.yul\":13302:13471   */\n      jump(tag_692)\n    tag_694:\n      pop\n        /* \"#utility.yul\":13488:13491   */\n      swap1\n      swap7\n        /* \"#utility.yul\":12865:13497   */\n      swap6\n      pop\n      pop\n      pop\n      pop\n      pop\n      pop\n      jump\t// out\n        /* \"#utility.yul\":13502:13818   */\n    tag_166:\n        /* \"#utility.yul\":13579:13585   */\n      0x00\n        /* \"#utility.yul\":13587:13593   */\n      dup1\n        /* \"#utility.yul\":13595:13601   */\n      0x00\n        /* \"#utility.yul\":13648:13650   */\n      0x60\n        /* \"#utility.yul\":13636:13645   */\n      dup5\n        /* \"#utility.yul\":13627:13634   */\n      dup7\n        /* \"#utility.yul\":13623:13646   */\n      sub\n        /* \"#utility.yul\":13619:13651   */\n      slt\n        /* \"#utility.yul\":13616:13668   */\n      iszero\n      tag_696\n      jumpi\n        /* \"#utility.yul\":13664:13665   */\n      0x00\n        /* \"#utility.yul\":13661:13662   */\n      dup1\n        /* \"#utility.yul\":13654:13666   */\n      revert\n        /* \"#utility.yul\":13616:13668   */\n    tag_696:\n      pop\n      pop\n        /* \"#utility.yul\":13687:13710   */\n      dup2\n      calldataload\n      swap4\n        /* \"#utility.yul\":13757:13759   */\n      0x20\n        /* \"#utility.yul\":13742:13760   */\n      dup4\n      add\n        /* \"#utility.yul\":13729:13761   */\n      calldataload\n      swap4\n      pop\n        /* \"#utility.yul\":13808:13810   */\n      0x40\n        /* \"#utility.yul\":13793:13811   */\n      swap1\n      swap3\n      add\n        /* \"#utility.yul\":13780:13812   */\n      calldataload\n      swap2\n        /* \"#utility.yul\":13502:13818   */\n      swap1\n      pop\n      jump\t// out\n        /* \"#utility.yul\":13823:14009   */\n    tag_178:\n        /* \"#utility.yul\":13882:13888   */\n      0x00\n        /* \"#utility.yul\":13935:13937   */\n      0x20\n        /* \"#utility.yul\":13923:13932   */\n      dup3\n        /* \"#utility.yul\":13914:13921   */\n      dup5\n        /* \"#utility.yul\":13910:13933   */\n      sub\n        /* \"#utility.yul\":13906:13938   */\n      slt\n        /* \"#utility.yul\":13903:13955   */\n      iszero\n      tag_698\n      jumpi\n        /* \"#utility.yul\":13951:13952   */\n      0x00\n        /* \"#utility.yul\":13948:13949   */\n      dup1\n        /* \"#utility.yul\":13941:13953   */\n      revert\n        /* \"#utility.yul\":13903:13955   */\n    tag_698:\n        /* \"#utility.yul\":13974:14003   */\n      tag_588\n        /* \"#utility.yul\":13993:14002   */\n      dup3\n        /* \"#utility.yul\":13974:14003   */\n      tag_601\n      jump\t// in\n        /* \"#utility.yul\":14014:14715   */\n    tag_185:\n        /* \"#utility.yul\":14233:14235   */\n      0x20\n        /* \"#utility.yul\":14285:14306   */\n      dup1\n      dup3\n      mstore\n        /* \"#utility.yul\":14355:14368   */\n      dup3\n      mload\n        /* \"#utility.yul\":14258:14276   */\n      dup3\n      dup3\n      add\n        /* \"#utility.yul\":14377:14399   */\n      dup2\n      swap1\n      mstore\n        /* \"#utility.yul\":14204:14208   */\n      0x00\n      swap2\n        /* \"#utility.yul\":14233:14235   */\n      swap1\n        /* \"#utility.yul\":14456:14471   */\n      dup5\n      dup3\n      add\n      swap1\n        /* \"#utility.yul\":14430:14432   */\n      0x40\n        /* \"#utility.yul\":14415:14433   */\n      dup6\n      add\n      swap1\n        /* \"#utility.yul\":14204:14208   */\n      dup5\n        /* \"#utility.yul\":14499:14689   */\n    tag_701:\n        /* \"#utility.yul\":14513:14519   */\n      dup2\n        /* \"#utility.yul\":14510:14511   */\n      dup2\n        /* \"#utility.yul\":14507:14520   */\n      lt\n        /* \"#utility.yul\":14499:14689   */\n      iszero\n      tag_694\n      jumpi\n        /* \"#utility.yul\":14562:14607   */\n      tag_704\n        /* \"#utility.yul\":14603:14606   */\n      dup4\n        /* \"#utility.yul\":14594:14600   */\n      dup6\n        /* \"#utility.yul\":14588:14601   */\n      mload\n        /* \"#utility.yul\":14562:14607   */\n      tag_600\n      jump\t// in\n    tag_704:\n        /* \"#utility.yul\":14664:14679   */\n      swap3\n      dup5\n      add\n      swap3\n        /* \"#utility.yul\":14636:14640   */\n      0xe0\n        /* \"#utility.yul\":14627:14641   */\n      swap3\n      swap1\n      swap3\n      add\n      swap2\n        /* \"#utility.yul\":14535:14536   */\n      0x01\n        /* \"#utility.yul\":14528:14537   */\n      add\n        /* \"#utility.yul\":14499:14689   */\n      jump(tag_701)\n        /* \"#utility.yul\":15068:15195   */\n    tag_197:\n        /* \"#utility.yul\":15129:15139   */\n      0x4e487b71\n        /* \"#utility.yul\":15124:15127   */\n      0xe0\n        /* \"#utility.yul\":15120:15140   */\n      shl\n        /* \"#utility.yul\":15117:15118   */\n      0x00\n        /* \"#utility.yul\":15110:15141   */\n      mstore\n        /* \"#utility.yul\":15160:15164   */\n      0x32\n        /* \"#utility.yul\":15157:15158   */\n      0x04\n        /* \"#utility.yul\":15150:15165   */\n      mstore\n        /* \"#utility.yul\":15184:15188   */\n      0x24\n        /* \"#utility.yul\":15181:15182   */\n      0x00\n        /* \"#utility.yul\":15174:15189   */\n      revert\n        /* \"#utility.yul\":15200:15602   */\n    tag_201:\n        /* \"#utility.yul\":15402:15404   */\n      0x20\n        /* \"#utility.yul\":15384:15405   */\n      dup1\n      dup3\n      mstore\n        /* \"#utility.yul\":15441:15443   */\n      0x26\n        /* \"#utility.yul\":15421:15439   */\n      swap1\n      dup3\n      add\n        /* \"#utility.yul\":15414:15444   */\n      mstore\n        /* \"#utility.yul\":15480:15514   */\n      0x41706172746d656e7420616c726561647920636865636b6564206f6e20746869\n        /* \"#utility.yul\":15475:15477   */\n      0x40\n        /* \"#utility.yul\":15460:15478   */\n      dup3\n      add\n        /* \"#utility.yul\":15453:15515   */\n      mstore\n      shl(0xd0, 0x732064617465)\n        /* \"#utility.yul\":15546:15548   */\n      0x60\n        /* \"#utility.yul\":15531:15549   */\n      dup3\n      add\n        /* \"#utility.yul\":15524:15560   */\n      mstore\n        /* \"#utility.yul\":15592:15595   */\n      0x80\n        /* \"#utility.yul\":15577:15596   */\n      add\n      swap1\n        /* \"#utility.yul\":15200:15602   */\n      jump\t// out\n        /* \"#utility.yul\":15607:15734   */\n    tag_602:\n        /* \"#utility.yul\":15668:15678   */\n      0x4e487b71\n        /* \"#utility.yul\":15663:15666   */\n      0xe0\n        /* \"#utility.yul\":15659:15679   */\n      shl\n        /* \"#utility.yul\":15656:15657   */\n      0x00\n        /* \"#utility.yul\":15649:15680   */\n      mstore\n        /* \"#utility.yul\":15699:15703   */\n      0x11\n        /* \"#utility.yul\":15696:15697   */\n      0x04\n        /* \"#utility.yul\":15689:15704   */\n      mstore\n        /* \"#utility.yul\":15723:15727   */\n      0x24\n        /* \"#utility.yul\":15720:15721   */\n      0x00\n        /* \"#utility.yul\":15713:15728   */\n      revert\n        /* \"#utility.yul\":15739:15907   */\n    tag_206:\n        /* \"#utility.yul\":15812:15821   */\n      dup1\n      dup3\n      mul\n        /* \"#utility.yul\":15843:15852   */\n      dup2\n      iszero\n        /* \"#utility.yul\":15860:15875   */\n      dup3\n      dup3\n      div\n        /* \"#utility.yul\":15854:15876   */\n      dup5\n      eq\n        /* \"#utility.yul\":15840:15877   */\n      or\n        /* \"#utility.yul\":15830:15901   */\n      tag_319\n      jumpi\n        /* \"#utility.yul\":15881:15899   */\n      tag_319\n      tag_602\n      jump\t// in\n        /* \"#utility.yul\":15912:16129   */\n    tag_208:\n        /* \"#utility.yul\":15952:15953   */\n      0x00\n        /* \"#utility.yul\":15978:15979   */\n      dup3\n        /* \"#utility.yul\":15968:16100   */\n      tag_713\n      jumpi\n        /* \"#utility.yul\":16022:16032   */\n      0x4e487b71\n        /* \"#utility.yul\":16017:16020   */\n      0xe0\n        /* \"#utility.yul\":16013:16033   */\n      shl\n        /* \"#utility.yul\":16010:16011   */\n      0x00\n        /* \"#utility.yul\":16003:16034   */\n      mstore\n        /* \"#utility.yul\":16057:16061   */\n      0x12\n        /* \"#utility.yul\":16054:16055   */\n      0x04\n        /* \"#utility.yul\":16047:16062   */\n      mstore\n        /* \"#utility.yul\":16085:16089   */\n      0x24\n        /* \"#utility.yul\":16082:16083   */\n      0x00\n        /* \"#utility.yul\":16075:16090   */\n      revert\n        /* \"#utility.yul\":15968:16100   */\n    tag_713:\n      pop\n        /* \"#utility.yul\":16114:16123   */\n      div\n      swap1\n        /* \"#utility.yul\":15912:16129   */\n      jump\t// out\n        /* \"#utility.yul\":16134:16262   */\n    tag_211:\n        /* \"#utility.yul\":16201:16210   */\n      dup2\n      dup2\n      sub\n        /* \"#utility.yul\":16222:16233   */\n      dup2\n      dup2\n      gt\n        /* \"#utility.yul\":16219:16256   */\n      iszero\n      tag_319\n      jumpi\n        /* \"#utility.yul\":16236:16254   */\n      tag_319\n      tag_602\n      jump\t// in\n        /* \"#utility.yul\":16615:16750   */\n    tag_251:\n        /* \"#utility.yul\":16654:16657   */\n      0x00\n        /* \"#utility.yul\":16675:16692   */\n      0x01\n      dup3\n      add\n        /* \"#utility.yul\":16672:16715   */\n      tag_720\n      jumpi\n        /* \"#utility.yul\":16695:16713   */\n      tag_720\n      tag_602\n      jump\t// in\n    tag_720:\n      pop\n        /* \"#utility.yul\":16742:16743   */\n      0x01\n        /* \"#utility.yul\":16731:16744   */\n      add\n      swap1\n        /* \"#utility.yul\":16615:16750   */\n      jump\t// out\n        /* \"#utility.yul\":16755:17135   */\n    tag_266:\n        /* \"#utility.yul\":16834:16835   */\n      0x01\n        /* \"#utility.yul\":16830:16842   */\n      dup2\n      dup2\n      shr\n      swap1\n        /* \"#utility.yul\":16877:16889   */\n      dup3\n      and\n      dup1\n        /* \"#utility.yul\":16898:16959   */\n      tag_722\n      jumpi\n        /* \"#utility.yul\":16952:16956   */\n      0x7f\n        /* \"#utility.yul\":16944:16950   */\n      dup3\n        /* \"#utility.yul\":16940:16957   */\n      and\n        /* \"#utility.yul\":16930:16957   */\n      swap2\n      pop\n        /* \"#utility.yul\":16898:16959   */\n    tag_722:\n        /* \"#utility.yul\":17005:17007   */\n      0x20\n        /* \"#utility.yul\":16997:17003   */\n      dup3\n        /* \"#utility.yul\":16994:17008   */\n      lt\n        /* \"#utility.yul\":16974:16992   */\n      dup2\n        /* \"#utility.yul\":16971:17009   */\n      sub\n        /* \"#utility.yul\":16968:17129   */\n      tag_723\n      jumpi\n        /* \"#utility.yul\":17051:17061   */\n      0x4e487b71\n        /* \"#utility.yul\":17046:17049   */\n      0xe0\n        /* \"#utility.yul\":17042:17062   */\n      shl\n        /* \"#utility.yul\":17039:17040   */\n      0x00\n        /* \"#utility.yul\":17032:17063   */\n      mstore\n        /* \"#utility.yul\":17086:17090   */\n      0x22\n        /* \"#utility.yul\":17083:17084   */\n      0x04\n        /* \"#utility.yul\":17076:17091   */\n      mstore\n        /* \"#utility.yul\":17114:17118   */\n      0x24\n        /* \"#utility.yul\":17111:17112   */\n      0x00\n        /* \"#utility.yul\":17104:17119   */\n      revert\n        /* \"#utility.yul\":16968:17129   */\n    tag_723:\n      pop\n        /* \"#utility.yul\":16755:17135   */\n      swap2\n      swap1\n      pop\n      jump\t// out\n        /* \"#utility.yul\":17140:17485   */\n    tag_293:\n        /* \"#utility.yul\":17342:17344   */\n      0x20\n        /* \"#utility.yul\":17324:17345   */\n      dup1\n      dup3\n      mstore\n        /* \"#utility.yul\":17381:17383   */\n      0x15\n        /* \"#utility.yul\":17361:17379   */\n      swap1\n      dup3\n      add\n        /* \"#utility.yul\":17354:17384   */\n      mstore\n      shl(0x58, 0x7469746c652063616e6e6f7420626520656d707479)\n        /* \"#utility.yul\":17415:17417   */\n      0x40\n        /* \"#utility.yul\":17400:17418   */\n      dup3\n      add\n        /* \"#utility.yul\":17393:17444   */\n      mstore\n        /* \"#utility.yul\":17476:17478   */\n      0x60\n        /* \"#utility.yul\":17461:17479   */\n      add\n      swap1\n        /* \"#utility.yul\":17140:17485   */\n      jump\t// out\n        /* \"#utility.yul\":19021:19566   */\n    tag_604:\n        /* \"#utility.yul\":19123:19125   */\n      0x1f\n        /* \"#utility.yul\":19118:19121   */\n      dup3\n        /* \"#utility.yul\":19115:19126   */\n      gt\n        /* \"#utility.yul\":19112:19560   */\n      iszero\n      tag_513\n      jumpi\n        /* \"#utility.yul\":19159:19160   */\n      0x00\n        /* \"#utility.yul\":19184:19189   */\n      dup2\n        /* \"#utility.yul\":19180:19182   */\n      dup2\n        /* \"#utility.yul\":19173:19190   */\n      mstore\n        /* \"#utility.yul\":19229:19233   */\n      0x20\n        /* \"#utility.yul\":19225:19227   */\n      dup2\n        /* \"#utility.yul\":19215:19234   */\n      keccak256\n        /* \"#utility.yul\":19299:19301   */\n      0x1f\n        /* \"#utility.yul\":19287:19297   */\n      dup6\n        /* \"#utility.yul\":19283:19302   */\n      add\n        /* \"#utility.yul\":19280:19281   */\n      0x05\n        /* \"#utility.yul\":19276:19303   */\n      shr\n        /* \"#utility.yul\":19270:19274   */\n      dup2\n        /* \"#utility.yul\":19266:19304   */\n      add\n        /* \"#utility.yul\":19335:19339   */\n      0x20\n        /* \"#utility.yul\":19323:19333   */\n      dup7\n        /* \"#utility.yul\":19320:19340   */\n      lt\n        /* \"#utility.yul\":19317:19364   */\n      iszero\n      tag_732\n      jumpi\n      pop\n        /* \"#utility.yul\":19358:19362   */\n      dup1\n        /* \"#utility.yul\":19317:19364   */\n    tag_732:\n        /* \"#utility.yul\":19413:19415   */\n      0x1f\n        /* \"#utility.yul\":19408:19411   */\n      dup6\n        /* \"#utility.yul\":19404:19416   */\n      add\n        /* \"#utility.yul\":19401:19402   */\n      0x05\n        /* \"#utility.yul\":19397:19417   */\n      shr\n        /* \"#utility.yul\":19391:19395   */\n      dup3\n        /* \"#utility.yul\":19387:19418   */\n      add\n        /* \"#utility.yul\":19377:19418   */\n      swap2\n      pop\n        /* \"#utility.yul\":19468:19550   */\n    tag_733:\n        /* \"#utility.yul\":19486:19488   */\n      dup2\n        /* \"#utility.yul\":19479:19484   */\n      dup2\n        /* \"#utility.yul\":19476:19489   */\n      lt\n        /* \"#utility.yul\":19468:19550   */\n      iszero\n      tag_735\n      jumpi\n        /* \"#utility.yul\":19531:19548   */\n      dup3\n      dup2\n      sstore\n        /* \"#utility.yul\":19512:19513   */\n      0x01\n        /* \"#utility.yul\":19501:19514   */\n      add\n        /* \"#utility.yul\":19468:19550   */\n      jump(tag_733)\n    tag_735:\n        /* \"#utility.yul\":19472:19475   */\n      pop\n      pop\n      pop\n        /* \"#utility.yul\":19021:19566   */\n      pop\n      pop\n      pop\n      jump\t// out\n        /* \"#utility.yul\":19742:21094   */\n    tag_313:\n        /* \"#utility.yul\":19868:19871   */\n      dup2\n        /* \"#utility.yul\":19862:19872   */\n      mload\n        /* \"#utility.yul\":19895:19913   */\n      0xffffffffffffffff\n        /* \"#utility.yul\":19887:19893   */\n      dup2\n        /* \"#utility.yul\":19884:19914   */\n      gt\n        /* \"#utility.yul\":19881:19937   */\n      iszero\n      tag_739\n      jumpi\n        /* \"#utility.yul\":19917:19935   */\n      tag_739\n      tag_255\n      jump\t// in\n    tag_739:\n        /* \"#utility.yul\":19946:20043   */\n      tag_740\n        /* \"#utility.yul\":20036:20042   */\n      dup2\n        /* \"#utility.yul\":19996:20034   */\n      tag_741\n        /* \"#utility.yul\":20028:20032   */\n      dup5\n        /* \"#utility.yul\":20022:20033   */\n      sload\n        /* \"#utility.yul\":19996:20034   */\n      tag_266\n      jump\t// in\n    tag_741:\n        /* \"#utility.yul\":19990:19994   */\n      dup5\n        /* \"#utility.yul\":19946:20043   */\n      tag_604\n      jump\t// in\n    tag_740:\n        /* \"#utility.yul\":20098:20102   */\n      0x20\n      dup1\n        /* \"#utility.yul\":20162:20164   */\n      0x1f\n        /* \"#utility.yul\":20151:20165   */\n      dup4\n      gt\n        /* \"#utility.yul\":20179:20180   */\n      0x01\n        /* \"#utility.yul\":20174:20837   */\n      dup2\n      eq\n      tag_743\n      jumpi\n        /* \"#utility.yul\":20881:20882   */\n      0x00\n        /* \"#utility.yul\":20898:20904   */\n      dup5\n        /* \"#utility.yul\":20895:20984   */\n      iszero\n      tag_744\n      jumpi\n      pop\n        /* \"#utility.yul\":20950:20969   */\n      dup6\n      dup4\n      add\n        /* \"#utility.yul\":20944:20970   */\n      mload\n        /* \"#utility.yul\":20895:20984   */\n    tag_744:\n      not(0x00)\n        /* \"#utility.yul\":19699:19700   */\n      0x03\n        /* \"#utility.yul\":19695:19706   */\n      dup7\n      swap1\n      shl\n        /* \"#utility.yul\":19691:19715   */\n      shr\n        /* \"#utility.yul\":19687:19716   */\n      not\n        /* \"#utility.yul\":19677:19717   */\n      and\n        /* \"#utility.yul\":19723:19724   */\n      0x01\n        /* \"#utility.yul\":19719:19730   */\n      dup6\n      swap1\n      shl\n        /* \"#utility.yul\":19674:19731   */\n      or\n        /* \"#utility.yul\":20997:21078   */\n      dup6\n      sstore\n        /* \"#utility.yul\":20144:21088   */\n      jump(tag_735)\n        /* \"#utility.yul\":20174:20837   */\n    tag_743:\n        /* \"#utility.yul\":18968:18969   */\n      0x00\n        /* \"#utility.yul\":18961:18975   */\n      dup6\n      dup2\n      mstore\n        /* \"#utility.yul\":19005:19009   */\n      0x20\n        /* \"#utility.yul\":18992:19010   */\n      dup2\n      keccak256\n      not(0x1f)\n        /* \"#utility.yul\":20210:20230   */\n      dup7\n      and\n      swap2\n        /* \"#utility.yul\":20328:20564   */\n    tag_747:\n        /* \"#utility.yul\":20342:20349   */\n      dup3\n        /* \"#utility.yul\":20339:20340   */\n      dup2\n        /* \"#utility.yul\":20336:20350   */\n      lt\n        /* \"#utility.yul\":20328:20564   */\n      iszero\n      tag_749\n      jumpi\n        /* \"#utility.yul\":20431:20450   */\n      dup9\n      dup7\n      add\n        /* \"#utility.yul\":20425:20451   */\n      mload\n        /* \"#utility.yul\":20410:20452   */\n      dup3\n      sstore\n        /* \"#utility.yul\":20523:20550   */\n      swap5\n      dup5\n      add\n      swap5\n        /* \"#utility.yul\":20491:20492   */\n      0x01\n        /* \"#utility.yul\":20479:20493   */\n      swap1\n      swap2\n      add\n      swap1\n        /* \"#utility.yul\":20358:20377   */\n      dup5\n      add\n        /* \"#utility.yul\":20328:20564   */\n      jump(tag_747)\n    tag_749:\n        /* \"#utility.yul\":20332:20335   */\n      pop\n        /* \"#utility.yul\":20592:20598   */\n      dup6\n        /* \"#utility.yul\":20583:20590   */\n      dup3\n        /* \"#utility.yul\":20580:20599   */\n      lt\n        /* \"#utility.yul\":20577:20778   */\n      iszero\n      tag_750\n      jumpi\n        /* \"#utility.yul\":20653:20672   */\n      dup8\n      dup6\n      add\n        /* \"#utility.yul\":20647:20673   */\n      mload\n      not(0x00)\n        /* \"#utility.yul\":20736:20737   */\n      0x03\n        /* \"#utility.yul\":20732:20746   */\n      dup9\n      swap1\n      shl\n        /* \"#utility.yul\":20748:20751   */\n      0xf8\n        /* \"#utility.yul\":20728:20752   */\n      and\n        /* \"#utility.yul\":20724:20761   */\n      shr\n        /* \"#utility.yul\":20720:20762   */\n      not\n        /* \"#utility.yul\":20705:20763   */\n      and\n        /* \"#utility.yul\":20690:20764   */\n      dup2\n      sstore\n        /* \"#utility.yul\":20577:20778   */\n    tag_750:\n      pop\n      pop\n      pop\n      pop\n      pop\n        /* \"#utility.yul\":20824:20825   */\n      0x01\n        /* \"#utility.yul\":20808:20822   */\n      swap1\n      dup2\n      shl\n        /* \"#utility.yul\":20804:20826   */\n      add\n        /* \"#utility.yul\":20791:20827   */\n      swap1\n      sstore\n      pop\n        /* \"#utility.yul\":19742:21094   */\n      jump\t// out\n        /* \"#utility.yul\":21099:21442   */\n    tag_328:\n        /* \"#utility.yul\":21301:21303   */\n      0x20\n        /* \"#utility.yul\":21283:21304   */\n      dup1\n      dup3\n      mstore\n        /* \"#utility.yul\":21340:21342   */\n      0x13\n        /* \"#utility.yul\":21320:21338   */\n      swap1\n      dup3\n      add\n        /* \"#utility.yul\":21313:21343   */\n      mstore\n      shl(0x68, 0x5370616365206e6f7420617661696c61626c65)\n        /* \"#utility.yul\":21374:21376   */\n      0x40\n        /* \"#utility.yul\":21359:21377   */\n      dup3\n      add\n        /* \"#utility.yul\":21352:21401   */\n      mstore\n        /* \"#utility.yul\":21433:21435   */\n      0x60\n        /* \"#utility.yul\":21418:21436   */\n      add\n      swap1\n        /* \"#utility.yul\":21099:21442   */\n      jump\t// out\n        /* \"#utility.yul\":23325:23452   */\n    tag_500:\n        /* \"#utility.yul\":23386:23396   */\n      0x4e487b71\n        /* \"#utility.yul\":23381:23384   */\n      0xe0\n        /* \"#utility.yul\":23377:23397   */\n      shl\n        /* \"#utility.yul\":23374:23375   */\n      0x00\n        /* \"#utility.yul\":23367:23398   */\n      mstore\n        /* \"#utility.yul\":23417:23421   */\n      0x31\n        /* \"#utility.yul\":23414:23415   */\n      0x04\n        /* \"#utility.yul\":23407:23422   */\n      mstore\n        /* \"#utility.yul\":23441:23445   */\n      0x24\n        /* \"#utility.yul\":23438:23439   */\n      0x00\n        /* \"#utility.yul\":23431:23446   */\n      revert\n        /* \"#utility.yul\":23457:23582   */\n    tag_522:\n        /* \"#utility.yul\":23522:23531   */\n      dup1\n      dup3\n      add\n        /* \"#utility.yul\":23543:23553   */\n      dup1\n      dup3\n      gt\n        /* \"#utility.yul\":23540:23576   */\n      iszero\n      tag_319\n      jumpi\n        /* \"#utility.yul\":23556:23574   */\n      tag_319\n      tag_602\n      jump\t// in\n\n    auxdata: 0xa264697066735822122018875e9c52b0b3b7ec80599ce3ba1525d7bf028a1eb49f80f1798b616a5807f064736f6c63430008120033\n}\n",
				"bytecode": {
					"linkReferences": {},
					"object": "60806040523480156200001157600080fd5b50604051620039c2380380620039c28339810160408190526200003491620000a2565b6200003f3362000052565b60018055600591909155600455620000c7565b600080546001600160a01b038381166001600160a01b0319831681178455604051919092169283917f8be0079c531659141344cd1fd0a4f28419497f9722a3daafe3b4186f6b6457e09190a35050565b60008060408385031215620000b657600080fd5b505080516020909101519092909150565b6138eb80620000d76000396000f3fe6080604052600436106101cd5760003560e01c80638da5cb5b116100f7578063d68e130211610095578063eb46144511610064578063eb46144514610618578063f2fde38b14610638578063f401099514610658578063f6ab7e3d1461068557600080fd5b8063d68e1302146105a2578063db2f80b7146105b8578063e16ca8d1146105e5578063e1c696201461060557600080fd5b80639f31a2be116100d15780639f31a2be146104f7578063a74431f414610532578063d3dfc0f614610562578063d684ccda1461058257600080fd5b80638da5cb5b1461047157806390067e31146104995780639d4a2255146104ca57600080fd5b80635bb0c5d61161016f578063715018a61161013e578063715018a6146103c55780637541f41c146103da5780637586353b146103fe5780637f75aed51461043657600080fd5b80635bb0c5d614610338578063615911491461035857806367e42ba71461037857806370e104311461039857600080fd5b80632ce894bc116101ab5780632ce894bc1461023f5780633fa7e1531461028a578063455b3070146102aa578063577bf6ee146102d757600080fd5b8063010b58ee146101d257806301d8a51b146101f457806315478ca914610214575b600080fd5b3480156101de57600080fd5b506101f26101ed366004612ed6565b6106a5565b005b34801561020057600080fd5b506101f261020f366004612ed6565b610843565b34801561022057600080fd5b50610229610a4f565b6040516102369190613018565b60405180910390f35b34801561024b57600080fd5b5061027a61025a366004612ed6565b600b60209081526000928352604080842090915290825290205460ff1681565b6040519015158152602001610236565b34801561029657600080fd5b506101f26102a536600461311d565b610e44565b3480156102b657600080fd5b506102ca6102c5366004612ed6565b611150565b604051610236919061322a565b3480156102e357600080fd5b506102f76102f2366004612ed6565b6111f4565b604080519788526001600160a01b0390961660208801529486019390935260608501919091526080840152151560a0830152151560c082015260e001610236565b34801561034457600080fd5b506101f2610353366004613238565b61125e565b34801561036457600080fd5b506101f261037336600461327f565b611456565b34801561038457600080fd5b506101f2610393366004613298565b6114e9565b3480156103a457600080fd5b506103b86103b336600461327f565b611b3e565b6040516102369190613362565b3480156103d157600080fd5b506101f2611e22565b3480156103e657600080fd5b506103f060055481565b604051908152602001610236565b34801561040a57600080fd5b5061041e61041936600461327f565b611e36565b6040516102369c9b9a99989796959493929190613375565b34801561044257600080fd5b5061027a61045136600461343b565b600c60209081526000928352604080842090915290825290205460ff1681565b34801561047d57600080fd5b506000546040516001600160a01b039091168152602001610236565b3480156104a557600080fd5b506104b96104b4366004612ed6565b6120cb565b604051610236959493929190613465565b3480156104d657600080fd5b506104ea6104e536600461327f565b6121b0565b60405161023691906134a6565b34801561050357600080fd5b5061027a61051236600461327f565b336000908152600c60209081526040808320938352929052205460ff1690565b34801561053e57600080fd5b5061027a61054d36600461327f565b60096020526000908152604090205460ff1681565b34801561056e57600080fd5b506103f061057d366004612ed6565b6122eb565b34801561058e57600080fd5b506101f261059d36600461327f565b61231c565b3480156105ae57600080fd5b506103f060045481565b3480156105c457600080fd5b506105d86105d336600461327f565b61240a565b6040516102369190613544565b3480156105f157600080fd5b506101f2610600366004613588565b61246c565b6101f2610613366004613588565b612805565b34801561062457600080fd5b506101f261063336600461327f565b612ab0565b34801561064457600080fd5b506101f26106533660046135b4565b612abd565b34801561066457600080fd5b5061067861067336600461327f565b612b36565b60405161023691906135cf565b34801561069157600080fd5b5061027a6106a0366004612ed6565b612bf1565b6000828152600660205260409020600701546001600160a01b031633146107095760405162461bcd60e51b8152602060048201526013602482015272556e617574686f72697a656420656e7469747960681b60448201526064015b60405180910390fd5b600082815260076020526040902080548290811061072957610729613611565b600091825260209091206005600690920201015460ff161561075d5760405162461bcd60e51b815260040161070090613627565b600082815260076020526040812080548390811061077d5761077d613611565b906000526020600020906006020160040154905060006064600554836107a39190613683565b6107ad919061369a565b6000858152600660205260409020600701549091506107de906001600160a01b03166107d983856136bc565b612c2f565b6107f96107f36000546001600160a01b031690565b82612c2f565b61080533600454612c2f565b604051838152339085907fd926062942047dc8fc183828f55f4b9f3c32ea18a739f8d1bc73c82b4129113b906020015b60405180910390a350505050565b600082815260076020526040902080548290811061086357610863613611565b60009182526020909120600690910201600101546001600160a01b031633146108c45760405162461bcd60e51b8152602060048201526013602482015272155b985d5d1a1bdc9a5e9959081d195b985b9d606a1b6044820152606401610700565b60008281526007602052604090208054829081106108e4576108e4613611565b600091825260209091206005600690920201015460ff16156109185760405162461bcd60e51b815260040161070090613627565b60008281526007602052604090208054600191908390811061093c5761093c613611565b60009182526020808320600692909202909101600501805460ff19169315159390931790925583815260079091526040812080548390811061098057610980613611565b906000526020600020906006020160040154905060006064600554836109a69190613683565b6109b0919061369a565b336000908152600c602090815260408083208884528252808320805460ff1916600117905560069091529020600701549091506109fa906001600160a01b03166107d983856136bc565b610a0f6107f36000546001600160a01b031690565b610a1b33600454612c2f565b604051838152339085907f30b418308672466269a424268a426a1214029673211e536dfb7565397433cc9190602001610835565b6060600060015b6002548111610a9f57600081815260066020526040902060070154600160a81b900460ff16610a8d5781610a89816136cf565b9250505b80610a97816136cf565b915050610a56565b5060008167ffffffffffffffff811115610abb57610abb61307a565b604051908082528060200260200182016040528015610af457816020015b610ae1612e1c565b815260200190600190039081610ad95790505b509050600060015b6002548111610e3b57600081815260066020526040902060070154600160a81b900460ff16610e2957600660008281526020019081526020016000206040518061018001604052908160008201548152602001600182018054610b5e906136e8565b80601f0160208091040260200160405190810160405280929190818152602001828054610b8a906136e8565b8015610bd75780601f10610bac57610100808354040283529160200191610bd7565b820191906000526020600020905b815481529060010190602001808311610bba57829003601f168201915b50505050508152602001600282018054610bf0906136e8565b80601f0160208091040260200160405190810160405280929190818152602001828054610c1c906136e8565b8015610c695780601f10610c3e57610100808354040283529160200191610c69565b820191906000526020600020905b815481529060010190602001808311610c4c57829003601f168201915b50505050508152602001600382018054610c82906136e8565b80601f0160208091040260200160405190810160405280929190818152602001828054610cae906136e8565b8015610cfb5780601f10610cd057610100808354040283529160200191610cfb565b820191906000526020600020905b815481529060010190602001808311610cde57829003601f168201915b50505050508152602001600482018054610d14906136e8565b80601f0160208091040260200160405190810160405280929190818152602001828054610d40906136e8565b8015610d8d5780601f10610d6257610100808354040283529160200191610d8d565b820191906000526020600020905b815481529060010190602001808311610d7057829003601f168201915b5050509183525050600582015460208201526006820154604082015260078201546001600160a01b038116606083015260ff600160a01b8204811615156080840152600160a81b82048116151560a0840152600160b01b90910416151560c082015260089091015460e0909101528351849084908110610e0f57610e0f613611565b60200260200101819052508180610e25906136cf565b9250505b80610e33816136cf565b915050610afc565b50909392505050565b6000865111610e655760405162461bcd60e51b815260040161070090613722565b6000855111610e865760405162461bcd60e51b815260040161070090613722565b6000845111610ed75760405162461bcd60e51b815260206004820152601b60248201527f4465736372697074696f6e2063616e6e6f7420626520656d70747900000000006044820152606401610700565b6000835111610f215760405162461bcd60e51b8152602060048201526016602482015275496d616765732063616e6e6f7420626520656d70747960501b6044820152606401610700565b60008211610f685760405162461bcd60e51b8152602060048201526014602482015273526f6f6d732063616e6e6f74206265207a65726f60601b6044820152606401610700565b60008111610faf5760405162461bcd60e51b815260206004820152601460248201527350726963652063616e6e6f74206265207a65726f60601b6044820152606401610700565b610fbd600280546001019055565b610fc5612e1c565b600254808252602080830189815260408085018a9052606085018990526080850188905260a0850187905260c085018690523360e08601526001610140860181905242610160870152600094855260098452818520805460ff191682179055855185526006909352909220835181559151839291820190611046908261379f565b506040820151600282019061105b908261379f565b5060608201516003820190611070908261379f565b5060808201516004820190611085908261379f565b5060a0820151600582015560c0820151600682015560e08201516007820180546101008501516101208601516101408701511515600160b01b0260ff60b01b19911515600160a81b029190911661ffff60a81b19921515600160a01b026001600160a81b03199094166001600160a01b03909616959095179290921716929092179190911790556101609091015160089091015580516040513391907f868b71f2fccb02b35739f9bb13e51ce12a10ca4ceb16ecd8d3da9a416875edb690600090a350505050505050565b611158612e8c565b600083815260076020526040902080548390811061117857611178613611565b60009182526020918290206040805160e08101825260069093029091018054835260018101546001600160a01b031693830193909352600283015490820152600382015460608201526004820154608082015260059091015460ff808216151560a084015261010090910416151560c082015290505b92915050565b6007602052816000526040600020818154811061121057600080fd5b60009182526020909120600690910201805460018201546002830154600384015460048501546005909501549396506001600160a01b03909216945092909160ff8082169161010090041687565b60008281526009602052604090205460ff1661128c5760405162461bcd60e51b81526004016107009061385f565b336000908152600c6020908152604080832085845290915290205460ff166112f65760405162461bcd60e51b815260206004820152601860248201527f426f6f6b206669727374206265666f72652072657669657700000000000000006044820152606401610700565b60008151116113475760405162461bcd60e51b815260206004820152601b60248201527f52657669657720746578742063616e6e6f7420626520656d70747900000000006044820152606401610700565b611355600380546001019055565b6113906040518060a001604052806000815260200160008152602001606081526020016000815260200160006001600160a01b031681525090565b6003548152602080820184815260408084018581524260608601523360808601526000878152600885529182208054600181810183559184529490922085516005909502019384559151908301555182919060028201906113f1908261379f565b5060608201516003820155608090910151600490910180546001600160a01b0319166001600160a01b03909216919091179055604051339084907f147d2c343f054e85e3a52f84240e7454f6361913e64b66f8abc756ffc455683d90600090a3505050565b61145e612cc3565b600081116114ae5760405162461bcd60e51b815260206004820152601a60248201527f466565206d7573742062652067726561746572207468616e20300000000000006044820152606401610700565b60048190556040518181527f3790aeee57809af98fad1b89b9266c7934e03ed46702b541f2fef6f1e89d68279060200160405180910390a150565b60008781526009602052604090205460ff166115175760405162461bcd60e51b81526004016107009061385f565b6000878152600660205260409020600701546001600160a01b0316331461158b5760405162461bcd60e51b815260206004820152602260248201527f556e617574686f72697a656420706572736f6e6e656c2c206f776e6572206f6e6044820152616c7960f01b6064820152608401610700565b60008651116115ac5760405162461bcd60e51b815260040161070090613722565b60008551116115cd5760405162461bcd60e51b815260040161070090613722565b600084511161161e5760405162461bcd60e51b815260206004820152601b60248201527f4465736372697074696f6e2063616e6e6f7420626520656d70747900000000006044820152606401610700565b60008351116116685760405162461bcd60e51b8152602060048201526016602482015275496d616765732063616e6e6f7420626520656d70747960501b6044820152606401610700565b600082116116af5760405162461bcd60e51b8152602060048201526014602482015273526f6f6d732063616e6e6f74206265207a65726f60601b6044820152606401610700565b600081116116f65760405162461bcd60e51b815260206004820152601460248201527350726963652063616e6e6f74206265207a65726f60601b6044820152606401610700565b6000600660008981526020019081526020016000206040518061018001604052908160008201548152602001600182018054611731906136e8565b80601f016020809104026020016040519081016040528092919081815260200182805461175d906136e8565b80156117aa5780601f1061177f576101008083540402835291602001916117aa565b820191906000526020600020905b81548152906001019060200180831161178d57829003601f168201915b505050505081526020016002820180546117c3906136e8565b80601f01602080910402602001604051908101604052809291908181526020018280546117ef906136e8565b801561183c5780601f106118115761010080835404028352916020019161183c565b820191906000526020600020905b81548152906001019060200180831161181f57829003601f168201915b50505050508152602001600382018054611855906136e8565b80601f0160208091040260200160405190810160405280929190818152602001828054611881906136e8565b80156118ce5780601f106118a3576101008083540402835291602001916118ce565b820191906000526020600020905b8154815290600101906020018083116118b157829003601f168201915b505050505081526020016004820180546118e7906136e8565b80601f0160208091040260200160405190810160405280929190818152602001828054611913906136e8565b80156119605780601f1061193557610100808354040283529160200191611960565b820191906000526020600020905b81548152906001019060200180831161194357829003601f168201915b5050509183525050600582015460208083019190915260068084015460408085019190915260078501546001600160a01b03811660608087019190915260ff600160a01b830481161515608080890191909152600160a81b84048216151560a0808a0191909152600160b01b909404909116151560c08089019190915260089098015460e0909701969096528785018f81528884018f90529088018d90529487018b9052860189905293850187905260008d815291529190912082518155905191925082916001820190611a34908261379f565b5060408201516002820190611a49908261379f565b5060608201516003820190611a5e908261379f565b5060808201516004820190611a73908261379f565b5060a0820151600582015560c0820151600682015560e08201516007820180546101008501516101208601516101408701511515600160b01b0260ff60b01b19911515600160a81b029190911661ffff60a81b19921515600160a01b026001600160a81b03199094166001600160a01b039096169590951792909217169290921791909117905561016090910151600890910155604051339089907f8c1f88cc5fde6e96b35b272bc40125010157a55a39ae25a74f80275ba7d2ba6e90600090a35050505050505050565b611b46612e1c565b600660008381526020019081526020016000206040518061018001604052908160008201548152602001600182018054611b7f906136e8565b80601f0160208091040260200160405190810160405280929190818152602001828054611bab906136e8565b8015611bf85780601f10611bcd57610100808354040283529160200191611bf8565b820191906000526020600020905b815481529060010190602001808311611bdb57829003601f168201915b50505050508152602001600282018054611c11906136e8565b80601f0160208091040260200160405190810160405280929190818152602001828054611c3d906136e8565b8015611c8a5780601f10611c5f57610100808354040283529160200191611c8a565b820191906000526020600020905b815481529060010190602001808311611c6d57829003601f168201915b50505050508152602001600382018054611ca3906136e8565b80601f0160208091040260200160405190810160405280929190818152602001828054611ccf906136e8565b8015611d1c5780601f10611cf157610100808354040283529160200191611d1c565b820191906000526020600020905b815481529060010190602001808311611cff57829003601f168201915b50505050508152602001600482018054611d35906136e8565b80601f0160208091040260200160405190810160405280929190818152602001828054611d61906136e8565b8015611dae5780601f10611d8357610100808354040283529160200191611dae565b820191906000526020600020905b815481529060010190602001808311611d9157829003601f168201915b5050509183525050600582015460208201526006820154604082015260078201546001600160a01b038116606083015260ff600160a01b8204811615156080840152600160a81b82048116151560a0840152600160b01b90910416151560c082015260089091015460e09091015292915050565b611e2a612cc3565b611e346000612d1d565b565b60066020526000908152604090208054600182018054919291611e58906136e8565b80601f0160208091040260200160405190810160405280929190818152602001828054611e84906136e8565b8015611ed15780601f10611ea657610100808354040283529160200191611ed1565b820191906000526020600020905b815481529060010190602001808311611eb457829003601f168201915b505050505090806002018054611ee6906136e8565b80601f0160208091040260200160405190810160405280929190818152602001828054611f12906136e8565b8015611f5f5780601f10611f3457610100808354040283529160200191611f5f565b820191906000526020600020905b815481529060010190602001808311611f4257829003601f168201915b505050505090806003018054611f74906136e8565b80601f0160208091040260200160405190810160405280929190818152602001828054611fa0906136e8565b8015611fed5780601f10611fc257610100808354040283529160200191611fed565b820191906000526020600020905b815481529060010190602001808311611fd057829003601f168201915b505050505090806004018054612002906136e8565b80601f016020809104026020016040519081016040528092919081815260200182805461202e906136e8565b801561207b5780601f106120505761010080835404028352916020019161207b565b820191906000526020600020905b81548152906001019060200180831161205e57829003601f168201915b505050600584015460068501546007860154600890960154949591949093506001600160a01b038216925060ff600160a01b8304811692600160a81b8104821692600160b01b909104909116908c565b600860205281600052604060002081815481106120e757600080fd5b906000526020600020906005020160009150915050806000015490806001015490806002018054612117906136e8565b80601f0160208091040260200160405190810160405280929190818152602001828054612143906136e8565b80156121905780601f1061216557610100808354040283529160200191612190565b820191906000526020600020905b81548152906001019060200180831161217357829003601f168201915b5050505060038301546004909301549192916001600160a01b0316905085565b606060086000838152602001908152602001600020805480602002602001604051908101604052809291908181526020016000905b828210156122e057838290600052602060002090600502016040518060a0016040529081600082015481526020016001820154815260200160028201805461222c906136e8565b80601f0160208091040260200160405190810160405280929190818152602001828054612258906136e8565b80156122a55780601f1061227a576101008083540402835291602001916122a5565b820191906000526020600020905b81548152906001019060200180831161228857829003601f168201915b505050918352505060038201546020808301919091526004909201546001600160a01b031660409091015290825260019290920191016121e5565b505050509050919050565b600a602052816000526040600020818154811061230757600080fd5b90600052602060002001600091509150505481565b60008181526009602052604090205460ff1661234a5760405162461bcd60e51b81526004016107009061385f565b6000818152600660205260409020600701546001600160a01b031633146123a95760405162461bcd60e51b8152602060048201526013602482015272556e617574686f72697a656420656e7469747960681b6044820152606401610700565b6000818152600960209081526040808320805460ff191690556006909152808220600701805460ff60a81b1916600160a81b17905551339183917fd473bfc963d89546be6b7891f87adc6e3a54f911cce733a781c0f4111f34af749190a350565b6000818152600a602090815260409182902080548351818402810184019094528084526060939283018282801561246057602002820191906000526020600020905b81548152602001906001019080831161244c575b50505050509050919050565b612474612d6d565b600083815260076020526040902080548390811061249457612494613611565b600091825260209091206005600690920201015460ff16156124c85760405162461bcd60e51b815260040161070090613627565b6000546001600160a01b031633146125f05760008381526007602052604090208054839081106124fa576124fa613611565b60009182526020909120600690910201600101546001600160a01b0316331461255b5760405162461bcd60e51b8152602060048201526013602482015272155b985d5d1a1bdc9a5e9959081d195b985b9d606a1b6044820152606401610700565b600083815260076020526040902080544291908490811061257e5761257e613611565b906000526020600020906006020160020154116125f05760405162461bcd60e51b815260206004820152602a60248201527f43616e206e6f206c6f6e67657220726566756e642c20626f6f6b696e672064616044820152691d19481cdd185c9d195960b21b6064820152608401610700565b60008381526007602052604090208054600191908490811061261457612614613611565b6000918252602080832060056006909302019190910180549315156101000261ff001990941693909317909255848152600b825260408082208483528352808220805460ff19169055858252600a90925290812054612675906001906136bc565b6000858152600a60205260408120805492935090918390811061269a5761269a613611565b9060005260206000200154905080600a600087815260200190815260200160002085815481106126cc576126cc613611565b9060005260206000200181905550600a60008681526020019081526020016000208054806126fc576126fc61388c565b60019003818190600052602060002001600090559055600060076000878152602001908152602001600020858154811061273857612738613611565b9060005260206000209060060201600401549050600060646005546004546127609190613683565b61276a919061369a565b60008881526006602052604090206007015460045491925061279d916001600160a01b03909116906107d99084906136bc565b6127b26107f36000546001600160a01b031690565b6127bc3383612c2f565b604051868152339088907fee23823014af21a0665780b9dd21b7f1e277276946bacfb1475ed82f18b30c859060200160405180910390a35050505061280060018055565b505050565b61280d612d6d565b60008381526009602052604090205460ff1661283b5760405162461bcd60e51b81526004016107009061385f565b60045461284883836136bc565b6128539060016138a2565b600085815260066020819052604090912001546128709190613683565b61287a91906138a2565b3410156128bd5760405162461bcd60e51b8152602060048201526011602482015270125b9cdd59999a58da595b9d08199d5b99607a1b6044820152606401610700565b6128c8838383612dc6565b6129145760405162461bcd60e51b815260206004820152601d60248201527f426f6f6b6564206461746520666f756e6420616d6f6e672064617465730000006044820152606401610700565b815b818111612a6957612925612e8c565b600085815260076020908152604091829020548352339083015281018490526060810183905261295584846136bc565b6129609060016138a2565b6000868152600660208190526040909120015461297d9190613683565b60808201908152600086815260076020908152604080832080546001808201835591855283852087516006909202019081558387015181830180546001600160a01b0319166001600160a01b03909216919091179055828701516002820155606087015160038201559451600486015560a08601516005909501805460c09097015161ffff1990971695151561ff001916959095176101009615159690960295909517909355878252600b81528282208583528152828220805460ff191685179055878252600a8152918120805493840181558152200181905580612a61816136cf565b915050612916565b506040805183815260208101839052339185917ffd1c7562d632ad1f2eb1d3d73d9d9b803ce2a893c16fdc9d21c3da272e6a8c85910160405180910390a361280060018055565b612ab8612cc3565b600555565b612ac5612cc3565b6001600160a01b038116612b2a5760405162461bcd60e51b815260206004820152602660248201527f4f776e61626c653a206e6577206f776e657220697320746865207a65726f206160448201526564647265737360d01b6064820152608401610700565b612b3381612d1d565b50565b606060076000838152602001908152602001600020805480602002602001604051908101604052809291908181526020016000905b828210156122e05760008481526020908190206040805160e08101825260068602909201805483526001808201546001600160a01b03168486015260028201549284019290925260038101546060840152600481015460808401526005015460ff808216151560a085015261010090910416151560c08301529083529092019101612b6b565b6000828152600760205260408120805442919084908110612c1457612c14613611565b90600052602060002090600602016002015410905092915050565b6000826001600160a01b03168260405160006040518083038185875af1925050503d8060008114612c7c576040519150601f19603f3d011682016040523d82523d6000602084013e612c81565b606091505b50509050806128005760405162461bcd60e51b815260206004820152600e60248201526d14185e5b595b9d0819985a5b195960921b6044820152606401610700565b6000546001600160a01b03163314611e345760405162461bcd60e51b815260206004820181905260248201527f4f776e61626c653a2063616c6c6572206973206e6f7420746865206f776e65726044820152606401610700565b600080546001600160a01b038381166001600160a01b0319831681178455604051919092169283917f8be0079c531659141344cd1fd0a4f28419497f9722a3daafe3b4186f6b6457e09190a35050565b600260015403612dbf5760405162461bcd60e51b815260206004820152601f60248201527f5265656e7472616e637947756172643a207265656e7472616e742063616c6c006044820152606401610700565b6002600155565b6000825b828111612e0f576000858152600b6020908152604080832084845290915290205460ff1615612dfd576000915050612e15565b80612e07816136cf565b915050612dca565b50600190505b9392505050565b6040518061018001604052806000815260200160608152602001606081526020016060815260200160608152602001600081526020016000815260200160006001600160a01b03168152602001600015158152602001600015158152602001600015158152602001600081525090565b6040518060e001604052806000815260200160006001600160a01b031681526020016000815260200160008152602001600081526020016000151581526020016000151581525090565b60008060408385031215612ee957600080fd5b50508035926020909101359150565b6000815180845260005b81811015612f1e57602081850181015186830182015201612f02565b506000602082860101526020601f19601f83011685010191505092915050565b6000610180825184526020830151816020860152612f5e82860182612ef8565b91505060408301518482036040860152612f788282612ef8565b91505060608301518482036060860152612f928282612ef8565b91505060808301518482036080860152612fac8282612ef8565b91505060a083015160a085015260c083015160c085015260e0830151612fdd60e08601826001600160a01b03169052565b506101008381015115159085015261012080840151151590850152610140808401511515908501526101609283015192909301919091525090565b6000602080830181845280855180835260408601915060408160051b870101925083870160005b8281101561306d57603f1988860301845261305b858351612f3e565b9450928501929085019060010161303f565b5092979650505050505050565b634e487b7160e01b600052604160045260246000fd5b600082601f8301126130a157600080fd5b813567ffffffffffffffff808211156130bc576130bc61307a565b604051601f8301601f19908116603f011681019082821181831017156130e4576130e461307a565b816040528381528660208588010111156130fd57600080fd5b836020870160208301376000602085830101528094505050505092915050565b60008060008060008060c0878903121561313657600080fd5b863567ffffffffffffffff8082111561314e57600080fd5b61315a8a838b01613090565b9750602089013591508082111561317057600080fd5b61317c8a838b01613090565b9650604089013591508082111561319257600080fd5b61319e8a838b01613090565b955060608901359150808211156131b457600080fd5b506131c189828a01613090565b9350506080870135915060a087013590509295509295509295565b805182526020808201516001600160a01b03169083015260408082015190830152606080820151908301526080808201519083015260a08082015115159083015260c0908101511515910152565b60e081016111ee82846131dc565b6000806040838503121561324b57600080fd5b82359150602083013567ffffffffffffffff81111561326957600080fd5b61327585828601613090565b9150509250929050565b60006020828403121561329157600080fd5b5035919050565b600080600080600080600060e0888a0312156132b357600080fd5b87359650602088013567ffffffffffffffff808211156132d257600080fd5b6132de8b838c01613090565b975060408a01359150808211156132f457600080fd5b6133008b838c01613090565b965060608a013591508082111561331657600080fd5b6133228b838c01613090565b955060808a013591508082111561333857600080fd5b506133458a828b01613090565b93505060a0880135915060c0880135905092959891949750929550565b602081526000612e156020830184612f3e565b60006101808e835280602084015261338f8184018f612ef8565b905082810360408401526133a3818e612ef8565b905082810360608401526133b7818d612ef8565b905082810360808401526133cb818c612ef8565b60a084018b905260c084018a90526001600160a01b03891660e085015287151561010085015286151561012085015291506134039050565b92151561014082015261016001529a9950505050505050505050565b80356001600160a01b038116811461343657600080fd5b919050565b6000806040838503121561344e57600080fd5b6134578361341f565b946020939093013593505050565b85815284602082015260a06040820152600061348460a0830186612ef8565b6060830194909452506001600160a01b03919091166080909101529392505050565b60006020808301818452808551808352604092508286019150828160051b87010184880160005b8381101561353657603f19898403018552815160a081518552888201518986015287820151818987015261350382870182612ef8565b606084810151908801526080938401516001600160a01b03169390960192909252505093860193908601906001016134cd565b509098975050505050505050565b6020808252825182820181905260009190848201906040850190845b8181101561357c57835183529284019291840191600101613560565b50909695505050505050565b60008060006060848603121561359d57600080fd5b505081359360208301359350604090920135919050565b6000602082840312156135c657600080fd5b612e158261341f565b6020808252825182820181905260009190848201906040850190845b8181101561357c576135fe8385516131dc565b9284019260e092909201916001016135eb565b634e487b7160e01b600052603260045260246000fd5b60208082526026908201527f41706172746d656e7420616c726561647920636865636b6564206f6e2074686960408201526573206461746560d01b606082015260800190565b634e487b7160e01b600052601160045260246000fd5b80820281158282048414176111ee576111ee61366d565b6000826136b757634e487b7160e01b600052601260045260246000fd5b500490565b818103818111156111ee576111ee61366d565b6000600182016136e1576136e161366d565b5060010190565b600181811c908216806136fc57607f821691505b60208210810361371c57634e487b7160e01b600052602260045260246000fd5b50919050565b6020808252601590820152747469746c652063616e6e6f7420626520656d70747960581b604082015260600190565b601f82111561280057600081815260208120601f850160051c810160208610156137785750805b601f850160051c820191505b8181101561379757828155600101613784565b505050505050565b815167ffffffffffffffff8111156137b9576137b961307a565b6137cd816137c784546136e8565b84613751565b602080601f83116001811461380257600084156137ea5750858301515b600019600386901b1c1916600185901b178555613797565b600085815260208120601f198616915b8281101561383157888601518255948401946001909101908401613812565b508582101561384f5787850151600019600388901b60f8161c191681555b5050505050600190811b01905550565b6020808252601390820152725370616365206e6f7420617661696c61626c6560681b604082015260600190565b634e487b7160e01b600052603160045260246000fd5b808201808211156111ee576111ee61366d56fea264697066735822122018875e9c52b0b3b7ec80599ce3ba1525d7bf028a1eb49f80f1798b616a5807f064736f6c63430008120033",
					"opcodes": "PUSH1 0x80 PUSH1 0x40 MSTORE CALLVALUE DUP1 ISZERO PUSH3 0x11 JUMPI PUSH1 0x0 DUP1 REVERT JUMPDEST POP PUSH1 0x40 MLOAD PUSH3 0x39C2 CODESIZE SUB DUP1 PUSH3 0x39C2 DUP4 CODECOPY DUP2 ADD PUSH1 0x40 DUP2 SWAP1 MSTORE PUSH3 0x34 SWAP2 PUSH3 0xA2 JUMP JUMPDEST PUSH3 0x3F CALLER PUSH3 0x52 JUMP JUMPDEST PUSH1 0x1 DUP1 SSTORE PUSH1 0x5 SWAP2 SWAP1 SWAP2 SSTORE PUSH1 0x4 SSTORE PUSH3 0xC7 JUMP JUMPDEST PUSH1 0x0 DUP1 SLOAD PUSH1 0x1 PUSH1 0x1 PUSH1 0xA0 SHL SUB DUP4 DUP2 AND PUSH1 0x1 PUSH1 0x1 PUSH1 0xA0 SHL SUB NOT DUP4 AND DUP2 OR DUP5 SSTORE PUSH1 0x40 MLOAD SWAP2 SWAP1 SWAP3 AND SWAP3 DUP4 SWAP2 PUSH32 0x8BE0079C531659141344CD1FD0A4F28419497F9722A3DAAFE3B4186F6B6457E0 SWAP2 SWAP1 LOG3 POP POP JUMP JUMPDEST PUSH1 0x0 DUP1 PUSH1 0x40 DUP4 DUP6 SUB SLT ISZERO PUSH3 0xB6 JUMPI PUSH1 0x0 DUP1 REVERT JUMPDEST POP POP DUP1 MLOAD PUSH1 0x20 SWAP1 SWAP2 ADD MLOAD SWAP1 SWAP3 SWAP1 SWAP2 POP JUMP JUMPDEST PUSH2 0x38EB DUP1 PUSH3 0xD7 PUSH1 0x0 CODECOPY PUSH1 0x0 RETURN INVALID PUSH1 0x80 PUSH1 0x40 MSTORE PUSH1 0x4 CALLDATASIZE LT PUSH2 0x1CD JUMPI PUSH1 0x0 CALLDATALOAD PUSH1 0xE0 SHR DUP1 PUSH4 0x8DA5CB5B GT PUSH2 0xF7 JUMPI DUP1 PUSH4 0xD68E1302 GT PUSH2 0x95 JUMPI DUP1 PUSH4 0xEB461445 GT PUSH2 0x64 JUMPI DUP1 PUSH4 0xEB461445 EQ PUSH2 0x618 JUMPI DUP1 PUSH4 0xF2FDE38B EQ PUSH2 0x638 JUMPI DUP1 PUSH4 0xF4010995 EQ PUSH2 0x658 JUMPI DUP1 PUSH4 0xF6AB7E3D EQ PUSH2 0x685 JUMPI PUSH1 0x0 DUP1 REVERT JUMPDEST DUP1 PUSH4 0xD68E1302 EQ PUSH2 0x5A2 JUMPI DUP1 PUSH4 0xDB2F80B7 EQ PUSH2 0x5B8 JUMPI DUP1 PUSH4 0xE16CA8D1 EQ PUSH2 0x5E5 JUMPI DUP1 PUSH4 0xE1C69620 EQ PUSH2 0x605 JUMPI PUSH1 0x0 DUP1 REVERT JUMPDEST DUP1 PUSH4 0x9F31A2BE GT PUSH2 0xD1 JUMPI DUP1 PUSH4 0x9F31A2BE EQ PUSH2 0x4F7 JUMPI DUP1 PUSH4 0xA74431F4 EQ PUSH2 0x532 JUMPI DUP1 PUSH4 0xD3DFC0F6 EQ PUSH2 0x562 JUMPI DUP1 PUSH4 0xD684CCDA EQ PUSH2 0x582 JUMPI PUSH1 0x0 DUP1 REVERT JUMPDEST DUP1 PUSH4 0x8DA5CB5B EQ PUSH2 0x471 JUMPI DUP1 PUSH4 0x90067E31 EQ PUSH2 0x499 JUMPI DUP1 PUSH4 0x9D4A2255 EQ PUSH2 0x4CA JUMPI PUSH1 0x0 DUP1 REVERT JUMPDEST DUP1 PUSH4 0x5BB0C5D6 GT PUSH2 0x16F JUMPI DUP1 PUSH4 0x715018A6 GT PUSH2 0x13E JUMPI DUP1 PUSH4 0x715018A6 EQ PUSH2 0x3C5 JUMPI DUP1 PUSH4 0x7541F41C EQ PUSH2 0x3DA JUMPI DUP1 PUSH4 0x7586353B EQ PUSH2 0x3FE JUMPI DUP1 PUSH4 0x7F75AED5 EQ PUSH2 0x436 JUMPI PUSH1 0x0 DUP1 REVERT JUMPDEST DUP1 PUSH4 0x5BB0C5D6 EQ PUSH2 0x338 JUMPI DUP1 PUSH4 0x61591149 EQ PUSH2 0x358 JUMPI DUP1 PUSH4 0x67E42BA7 EQ PUSH2 0x378 JUMPI DUP1 PUSH4 0x70E10431 EQ PUSH2 0x398 JUMPI PUSH1 0x0 DUP1 REVERT JUMPDEST DUP1 PUSH4 0x2CE894BC GT PUSH2 0x1AB JUMPI DUP1 PUSH4 0x2CE894BC EQ PUSH2 0x23F JUMPI DUP1 PUSH4 0x3FA7E153 EQ PUSH2 0x28A JUMPI DUP1 PUSH4 0x455B3070 EQ PUSH2 0x2AA JUMPI DUP1 PUSH4 0x577BF6EE EQ PUSH2 0x2D7 JUMPI PUSH1 0x0 DUP1 REVERT JUMPDEST DUP1 PUSH4 0x10B58EE EQ PUSH2 0x1D2 JUMPI DUP1 PUSH4 0x1D8A51B EQ PUSH2 0x1F4 JUMPI DUP1 PUSH4 0x15478CA9 EQ PUSH2 0x214 JUMPI JUMPDEST PUSH1 0x0 DUP1 REVERT JUMPDEST CALLVALUE DUP1 ISZERO PUSH2 0x1DE JUMPI PUSH1 0x0 DUP1 REVERT JUMPDEST POP PUSH2 0x1F2 PUSH2 0x1ED CALLDATASIZE PUSH1 0x4 PUSH2 0x2ED6 JUMP JUMPDEST PUSH2 0x6A5 JUMP JUMPDEST STOP JUMPDEST CALLVALUE DUP1 ISZERO PUSH2 0x200 JUMPI PUSH1 0x0 DUP1 REVERT JUMPDEST POP PUSH2 0x1F2 PUSH2 0x20F CALLDATASIZE PUSH1 0x4 PUSH2 0x2ED6 JUMP JUMPDEST PUSH2 0x843 JUMP JUMPDEST CALLVALUE DUP1 ISZERO PUSH2 0x220 JUMPI PUSH1 0x0 DUP1 REVERT JUMPDEST POP PUSH2 0x229 PUSH2 0xA4F JUMP JUMPDEST PUSH1 0x40 MLOAD PUSH2 0x236 SWAP2 SWAP1 PUSH2 0x3018 JUMP JUMPDEST PUSH1 0x40 MLOAD DUP1 SWAP2 SUB SWAP1 RETURN JUMPDEST CALLVALUE DUP1 ISZERO PUSH2 0x24B JUMPI PUSH1 0x0 DUP1 REVERT JUMPDEST POP PUSH2 0x27A PUSH2 0x25A CALLDATASIZE PUSH1 0x4 PUSH2 0x2ED6 JUMP JUMPDEST PUSH1 0xB PUSH1 0x20 SWAP1 DUP2 MSTORE PUSH1 0x0 SWAP3 DUP4 MSTORE PUSH1 0x40 DUP1 DUP5 KECCAK256 SWAP1 SWAP2 MSTORE SWAP1 DUP3 MSTORE SWAP1 KECCAK256 SLOAD PUSH1 0xFF AND DUP2 JUMP JUMPDEST PUSH1 0x40 MLOAD SWAP1 ISZERO ISZERO DUP2 MSTORE PUSH1 0x20 ADD PUSH2 0x236 JUMP JUMPDEST CALLVALUE DUP1 ISZERO PUSH2 0x296 JUMPI PUSH1 0x0 DUP1 REVERT JUMPDEST POP PUSH2 0x1F2 PUSH2 0x2A5 CALLDATASIZE PUSH1 0x4 PUSH2 0x311D JUMP JUMPDEST PUSH2 0xE44 JUMP JUMPDEST CALLVALUE DUP1 ISZERO PUSH2 0x2B6 JUMPI PUSH1 0x0 DUP1 REVERT JUMPDEST POP PUSH2 0x2CA PUSH2 0x2C5 CALLDATASIZE PUSH1 0x4 PUSH2 0x2ED6 JUMP JUMPDEST PUSH2 0x1150 JUMP JUMPDEST PUSH1 0x40 MLOAD PUSH2 0x236 SWAP2 SWAP1 PUSH2 0x322A JUMP JUMPDEST CALLVALUE DUP1 ISZERO PUSH2 0x2E3 JUMPI PUSH1 0x0 DUP1 REVERT JUMPDEST POP PUSH2 0x2F7 PUSH2 0x2F2 CALLDATASIZE PUSH1 0x4 PUSH2 0x2ED6 JUMP JUMPDEST PUSH2 0x11F4 JUMP JUMPDEST PUSH1 0x40 DUP1 MLOAD SWAP8 DUP9 MSTORE PUSH1 0x1 PUSH1 0x1 PUSH1 0xA0 SHL SUB SWAP1 SWAP7 AND PUSH1 0x20 DUP9 ADD MSTORE SWAP5 DUP7 ADD SWAP4 SWAP1 SWAP4 MSTORE PUSH1 0x60 DUP6 ADD SWAP2 SWAP1 SWAP2 MSTORE PUSH1 0x80 DUP5 ADD MSTORE ISZERO ISZERO PUSH1 0xA0 DUP4 ADD MSTORE ISZERO ISZERO PUSH1 0xC0 DUP3 ADD MSTORE PUSH1 0xE0 ADD PUSH2 0x236 JUMP JUMPDEST CALLVALUE DUP1 ISZERO PUSH2 0x344 JUMPI PUSH1 0x0 DUP1 REVERT JUMPDEST POP PUSH2 0x1F2 PUSH2 0x353 CALLDATASIZE PUSH1 0x4 PUSH2 0x3238 JUMP JUMPDEST PUSH2 0x125E JUMP JUMPDEST CALLVALUE DUP1 ISZERO PUSH2 0x364 JUMPI PUSH1 0x0 DUP1 REVERT JUMPDEST POP PUSH2 0x1F2 PUSH2 0x373 CALLDATASIZE PUSH1 0x4 PUSH2 0x327F JUMP JUMPDEST PUSH2 0x1456 JUMP JUMPDEST CALLVALUE DUP1 ISZERO PUSH2 0x384 JUMPI PUSH1 0x0 DUP1 REVERT JUMPDEST POP PUSH2 0x1F2 PUSH2 0x393 CALLDATASIZE PUSH1 0x4 PUSH2 0x3298 JUMP JUMPDEST PUSH2 0x14E9 JUMP JUMPDEST CALLVALUE DUP1 ISZERO PUSH2 0x3A4 JUMPI PUSH1 0x0 DUP1 REVERT JUMPDEST POP PUSH2 0x3B8 PUSH2 0x3B3 CALLDATASIZE PUSH1 0x4 PUSH2 0x327F JUMP JUMPDEST PUSH2 0x1B3E JUMP JUMPDEST PUSH1 0x40 MLOAD PUSH2 0x236 SWAP2 SWAP1 PUSH2 0x3362 JUMP JUMPDEST CALLVALUE DUP1 ISZERO PUSH2 0x3D1 JUMPI PUSH1 0x0 DUP1 REVERT JUMPDEST POP PUSH2 0x1F2 PUSH2 0x1E22 JUMP JUMPDEST CALLVALUE DUP1 ISZERO PUSH2 0x3E6 JUMPI PUSH1 0x0 DUP1 REVERT JUMPDEST POP PUSH2 0x3F0 PUSH1 0x5 SLOAD DUP2 JUMP JUMPDEST PUSH1 0x40 MLOAD SWAP1 DUP2 MSTORE PUSH1 0x20 ADD PUSH2 0x236 JUMP JUMPDEST CALLVALUE DUP1 ISZERO PUSH2 0x40A JUMPI PUSH1 0x0 DUP1 REVERT JUMPDEST POP PUSH2 0x41E PUSH2 0x419 CALLDATASIZE PUSH1 0x4 PUSH2 0x327F JUMP JUMPDEST PUSH2 0x1E36 JUMP JUMPDEST PUSH1 0x40 MLOAD PUSH2 0x236 SWAP13 SWAP12 SWAP11 SWAP10 SWAP9 SWAP8 SWAP7 SWAP6 SWAP5 SWAP4 SWAP3 SWAP2 SWAP1 PUSH2 0x3375 JUMP JUMPDEST CALLVALUE DUP1 ISZERO PUSH2 0x442 JUMPI PUSH1 0x0 DUP1 REVERT JUMPDEST POP PUSH2 0x27A PUSH2 0x451 CALLDATASIZE PUSH1 0x4 PUSH2 0x343B JUMP JUMPDEST PUSH1 0xC PUSH1 0x20 SWAP1 DUP2 MSTORE PUSH1 0x0 SWAP3 DUP4 MSTORE PUSH1 0x40 DUP1 DUP5 KECCAK256 SWAP1 SWAP2 MSTORE SWAP1 DUP3 MSTORE SWAP1 KECCAK256 SLOAD PUSH1 0xFF AND DUP2 JUMP JUMPDEST CALLVALUE DUP1 ISZERO PUSH2 0x47D JUMPI PUSH1 0x0 DUP1 REVERT JUMPDEST POP PUSH1 0x0 SLOAD PUSH1 0x40 MLOAD PUSH1 0x1 PUSH1 0x1 PUSH1 0xA0 SHL SUB SWAP1 SWAP2 AND DUP2 MSTORE PUSH1 0x20 ADD PUSH2 0x236 JUMP JUMPDEST CALLVALUE DUP1 ISZERO PUSH2 0x4A5 JUMPI PUSH1 0x0 DUP1 REVERT JUMPDEST POP PUSH2 0x4B9 PUSH2 0x4B4 CALLDATASIZE PUSH1 0x4 PUSH2 0x2ED6 JUMP JUMPDEST PUSH2 0x20CB JUMP JUMPDEST PUSH1 0x40 MLOAD PUSH2 0x236 SWAP6 SWAP5 SWAP4 SWAP3 SWAP2 SWAP1 PUSH2 0x3465 JUMP JUMPDEST CALLVALUE DUP1 ISZERO PUSH2 0x4D6 JUMPI PUSH1 0x0 DUP1 REVERT JUMPDEST POP PUSH2 0x4EA PUSH2 0x4E5 CALLDATASIZE PUSH1 0x4 PUSH2 0x327F JUMP JUMPDEST PUSH2 0x21B0 JUMP JUMPDEST PUSH1 0x40 MLOAD PUSH2 0x236 SWAP2 SWAP1 PUSH2 0x34A6 JUMP JUMPDEST CALLVALUE DUP1 ISZERO PUSH2 0x503 JUMPI PUSH1 0x0 DUP1 REVERT JUMPDEST POP PUSH2 0x27A PUSH2 0x512 CALLDATASIZE PUSH1 0x4 PUSH2 0x327F JUMP JUMPDEST CALLER PUSH1 0x0 SWAP1 DUP2 MSTORE PUSH1 0xC PUSH1 0x20 SWAP1 DUP2 MSTORE PUSH1 0x40 DUP1 DUP4 KECCAK256 SWAP4 DUP4 MSTORE SWAP3 SWAP1 MSTORE KECCAK256 SLOAD PUSH1 0xFF AND SWAP1 JUMP JUMPDEST CALLVALUE DUP1 ISZERO PUSH2 0x53E JUMPI PUSH1 0x0 DUP1 REVERT JUMPDEST POP PUSH2 0x27A PUSH2 0x54D CALLDATASIZE PUSH1 0x4 PUSH2 0x327F JUMP JUMPDEST PUSH1 0x9 PUSH1 0x20 MSTORE PUSH1 0x0 SWAP1 DUP2 MSTORE PUSH1 0x40 SWAP1 KECCAK256 SLOAD PUSH1 0xFF AND DUP2 JUMP JUMPDEST CALLVALUE DUP1 ISZERO PUSH2 0x56E JUMPI PUSH1 0x0 DUP1 REVERT JUMPDEST POP PUSH2 0x3F0 PUSH2 0x57D CALLDATASIZE PUSH1 0x4 PUSH2 0x2ED6 JUMP JUMPDEST PUSH2 0x22EB JUMP JUMPDEST CALLVALUE DUP1 ISZERO PUSH2 0x58E JUMPI PUSH1 0x0 DUP1 REVERT JUMPDEST POP PUSH2 0x1F2 PUSH2 0x59D CALLDATASIZE PUSH1 0x4 PUSH2 0x327F JUMP JUMPDEST PUSH2 0x231C JUMP JUMPDEST CALLVALUE DUP1 ISZERO PUSH2 0x5AE JUMPI PUSH1 0x0 DUP1 REVERT JUMPDEST POP PUSH2 0x3F0 PUSH1 0x4 SLOAD DUP2 JUMP JUMPDEST CALLVALUE DUP1 ISZERO PUSH2 0x5C4 JUMPI PUSH1 0x0 DUP1 REVERT JUMPDEST POP PUSH2 0x5D8 PUSH2 0x5D3 CALLDATASIZE PUSH1 0x4 PUSH2 0x327F JUMP JUMPDEST PUSH2 0x240A JUMP JUMPDEST PUSH1 0x40 MLOAD PUSH2 0x236 SWAP2 SWAP1 PUSH2 0x3544 JUMP JUMPDEST CALLVALUE DUP1 ISZERO PUSH2 0x5F1 JUMPI PUSH1 0x0 DUP1 REVERT JUMPDEST POP PUSH2 0x1F2 PUSH2 0x600 CALLDATASIZE PUSH1 0x4 PUSH2 0x3588 JUMP JUMPDEST PUSH2 0x246C JUMP JUMPDEST PUSH2 0x1F2 PUSH2 0x613 CALLDATASIZE PUSH1 0x4 PUSH2 0x3588 JUMP JUMPDEST PUSH2 0x2805 JUMP JUMPDEST CALLVALUE DUP1 ISZERO PUSH2 0x624 JUMPI PUSH1 0x0 DUP1 REVERT JUMPDEST POP PUSH2 0x1F2 PUSH2 0x633 CALLDATASIZE PUSH1 0x4 PUSH2 0x327F JUMP JUMPDEST PUSH2 0x2AB0 JUMP JUMPDEST CALLVALUE DUP1 ISZERO PUSH2 0x644 JUMPI PUSH1 0x0 DUP1 REVERT JUMPDEST POP PUSH2 0x1F2 PUSH2 0x653 CALLDATASIZE PUSH1 0x4 PUSH2 0x35B4 JUMP JUMPDEST PUSH2 0x2ABD JUMP JUMPDEST CALLVALUE DUP1 ISZERO PUSH2 0x664 JUMPI PUSH1 0x0 DUP1 REVERT JUMPDEST POP PUSH2 0x678 PUSH2 0x673 CALLDATASIZE PUSH1 0x4 PUSH2 0x327F JUMP JUMPDEST PUSH2 0x2B36 JUMP JUMPDEST PUSH1 0x40 MLOAD PUSH2 0x236 SWAP2 SWAP1 PUSH2 0x35CF JUMP JUMPDEST CALLVALUE DUP1 ISZERO PUSH2 0x691 JUMPI PUSH1 0x0 DUP1 REVERT JUMPDEST POP PUSH2 0x27A PUSH2 0x6A0 CALLDATASIZE PUSH1 0x4 PUSH2 0x2ED6 JUMP JUMPDEST PUSH2 0x2BF1 JUMP JUMPDEST PUSH1 0x0 DUP3 DUP2 MSTORE PUSH1 0x6 PUSH1 0x20 MSTORE PUSH1 0x40 SWAP1 KECCAK256 PUSH1 0x7 ADD SLOAD PUSH1 0x1 PUSH1 0x1 PUSH1 0xA0 SHL SUB AND CALLER EQ PUSH2 0x709 JUMPI PUSH1 0x40 MLOAD PUSH3 0x461BCD PUSH1 0xE5 SHL DUP2 MSTORE PUSH1 0x20 PUSH1 0x4 DUP3 ADD MSTORE PUSH1 0x13 PUSH1 0x24 DUP3 ADD MSTORE PUSH19 0x556E617574686F72697A656420656E74697479 PUSH1 0x68 SHL PUSH1 0x44 DUP3 ADD MSTORE PUSH1 0x64 ADD JUMPDEST PUSH1 0x40 MLOAD DUP1 SWAP2 SUB SWAP1 REVERT JUMPDEST PUSH1 0x0 DUP3 DUP2 MSTORE PUSH1 0x7 PUSH1 0x20 MSTORE PUSH1 0x40 SWAP1 KECCAK256 DUP1 SLOAD DUP3 SWAP1 DUP2 LT PUSH2 0x729 JUMPI PUSH2 0x729 PUSH2 0x3611 JUMP JUMPDEST PUSH1 0x0 SWAP2 DUP3 MSTORE PUSH1 0x20 SWAP1 SWAP2 KECCAK256 PUSH1 0x5 PUSH1 0x6 SWAP1 SWAP3 MUL ADD ADD SLOAD PUSH1 0xFF AND ISZERO PUSH2 0x75D JUMPI PUSH1 0x40 MLOAD PUSH3 0x461BCD PUSH1 0xE5 SHL DUP2 MSTORE PUSH1 0x4 ADD PUSH2 0x700 SWAP1 PUSH2 0x3627 JUMP JUMPDEST PUSH1 0x0 DUP3 DUP2 MSTORE PUSH1 0x7 PUSH1 0x20 MSTORE PUSH1 0x40 DUP2 KECCAK256 DUP1 SLOAD DUP4 SWAP1 DUP2 LT PUSH2 0x77D JUMPI PUSH2 0x77D PUSH2 0x3611 JUMP JUMPDEST SWAP1 PUSH1 0x0 MSTORE PUSH1 0x20 PUSH1 0x0 KECCAK256 SWAP1 PUSH1 0x6 MUL ADD PUSH1 0x4 ADD SLOAD SWAP1 POP PUSH1 0x0 PUSH1 0x64 PUSH1 0x5 SLOAD DUP4 PUSH2 0x7A3 SWAP2 SWAP1 PUSH2 0x3683 JUMP JUMPDEST PUSH2 0x7AD SWAP2 SWAP1 PUSH2 0x369A JUMP JUMPDEST PUSH1 0x0 DUP6 DUP2 MSTORE PUSH1 0x6 PUSH1 0x20 MSTORE PUSH1 0x40 SWAP1 KECCAK256 PUSH1 0x7 ADD SLOAD SWAP1 SWAP2 POP PUSH2 0x7DE SWAP1 PUSH1 0x1 PUSH1 0x1 PUSH1 0xA0 SHL SUB AND PUSH2 0x7D9 DUP4 DUP6 PUSH2 0x36BC JUMP JUMPDEST PUSH2 0x2C2F JUMP JUMPDEST PUSH2 0x7F9 PUSH2 0x7F3 PUSH1 0x0 SLOAD PUSH1 0x1 PUSH1 0x1 PUSH1 0xA0 SHL SUB AND SWAP1 JUMP JUMPDEST DUP3 PUSH2 0x2C2F JUMP JUMPDEST PUSH2 0x805 CALLER PUSH1 0x4 SLOAD PUSH2 0x2C2F JUMP JUMPDEST PUSH1 0x40 MLOAD DUP4 DUP2 MSTORE CALLER SWAP1 DUP6 SWAP1 PUSH32 0xD926062942047DC8FC183828F55F4B9F3C32EA18A739F8D1BC73C82B4129113B SWAP1 PUSH1 0x20 ADD JUMPDEST PUSH1 0x40 MLOAD DUP1 SWAP2 SUB SWAP1 LOG3 POP POP POP POP JUMP JUMPDEST PUSH1 0x0 DUP3 DUP2 MSTORE PUSH1 0x7 PUSH1 0x20 MSTORE PUSH1 0x40 SWAP1 KECCAK256 DUP1 SLOAD DUP3 SWAP1 DUP2 LT PUSH2 0x863 JUMPI PUSH2 0x863 PUSH2 0x3611 JUMP JUMPDEST PUSH1 0x0 SWAP2 DUP3 MSTORE PUSH1 0x20 SWAP1 SWAP2 KECCAK256 PUSH1 0x6 SWAP1 SWAP2 MUL ADD PUSH1 0x1 ADD SLOAD PUSH1 0x1 PUSH1 0x1 PUSH1 0xA0 SHL SUB AND CALLER EQ PUSH2 0x8C4 JUMPI PUSH1 0x40 MLOAD PUSH3 0x461BCD PUSH1 0xE5 SHL DUP2 MSTORE PUSH1 0x20 PUSH1 0x4 DUP3 ADD MSTORE PUSH1 0x13 PUSH1 0x24 DUP3 ADD MSTORE PUSH19 0x155B985D5D1A1BDC9A5E9959081D195B985B9D PUSH1 0x6A SHL PUSH1 0x44 DUP3 ADD MSTORE PUSH1 0x64 ADD PUSH2 0x700 JUMP JUMPDEST PUSH1 0x0 DUP3 DUP2 MSTORE PUSH1 0x7 PUSH1 0x20 MSTORE PUSH1 0x40 SWAP1 KECCAK256 DUP1 SLOAD DUP3 SWAP1 DUP2 LT PUSH2 0x8E4 JUMPI PUSH2 0x8E4 PUSH2 0x3611 JUMP JUMPDEST PUSH1 0x0 SWAP2 DUP3 MSTORE PUSH1 0x20 SWAP1 SWAP2 KECCAK256 PUSH1 0x5 PUSH1 0x6 SWAP1 SWAP3 MUL ADD ADD SLOAD PUSH1 0xFF AND ISZERO PUSH2 0x918 JUMPI PUSH1 0x40 MLOAD PUSH3 0x461BCD PUSH1 0xE5 SHL DUP2 MSTORE PUSH1 0x4 ADD PUSH2 0x700 SWAP1 PUSH2 0x3627 JUMP JUMPDEST PUSH1 0x0 DUP3 DUP2 MSTORE PUSH1 0x7 PUSH1 0x20 MSTORE PUSH1 0x40 SWAP1 KECCAK256 DUP1 SLOAD PUSH1 0x1 SWAP2 SWAP1 DUP4 SWAP1 DUP2 LT PUSH2 0x93C JUMPI PUSH2 0x93C PUSH2 0x3611 JUMP JUMPDEST PUSH1 0x0 SWAP2 DUP3 MSTORE PUSH1 0x20 DUP1 DUP4 KECCAK256 PUSH1 0x6 SWAP3 SWAP1 SWAP3 MUL SWAP1 SWAP2 ADD PUSH1 0x5 ADD DUP1 SLOAD PUSH1 0xFF NOT AND SWAP4 ISZERO ISZERO SWAP4 SWAP1 SWAP4 OR SWAP1 SWAP3 SSTORE DUP4 DUP2 MSTORE PUSH1 0x7 SWAP1 SWAP2 MSTORE PUSH1 0x40 DUP2 KECCAK256 DUP1 SLOAD DUP4 SWAP1 DUP2 LT PUSH2 0x980 JUMPI PUSH2 0x980 PUSH2 0x3611 JUMP JUMPDEST SWAP1 PUSH1 0x0 MSTORE PUSH1 0x20 PUSH1 0x0 KECCAK256 SWAP1 PUSH1 0x6 MUL ADD PUSH1 0x4 ADD SLOAD SWAP1 POP PUSH1 0x0 PUSH1 0x64 PUSH1 0x5 SLOAD DUP4 PUSH2 0x9A6 SWAP2 SWAP1 PUSH2 0x3683 JUMP JUMPDEST PUSH2 0x9B0 SWAP2 SWAP1 PUSH2 0x369A JUMP JUMPDEST CALLER PUSH1 0x0 SWAP1 DUP2 MSTORE PUSH1 0xC PUSH1 0x20 SWAP1 DUP2 MSTORE PUSH1 0x40 DUP1 DUP4 KECCAK256 DUP9 DUP5 MSTORE DUP3 MSTORE DUP1 DUP4 KECCAK256 DUP1 SLOAD PUSH1 0xFF NOT AND PUSH1 0x1 OR SWAP1 SSTORE PUSH1 0x6 SWAP1 SWAP2 MSTORE SWAP1 KECCAK256 PUSH1 0x7 ADD SLOAD SWAP1 SWAP2 POP PUSH2 0x9FA SWAP1 PUSH1 0x1 PUSH1 0x1 PUSH1 0xA0 SHL SUB AND PUSH2 0x7D9 DUP4 DUP6 PUSH2 0x36BC JUMP JUMPDEST PUSH2 0xA0F PUSH2 0x7F3 PUSH1 0x0 SLOAD PUSH1 0x1 PUSH1 0x1 PUSH1 0xA0 SHL SUB AND SWAP1 JUMP JUMPDEST PUSH2 0xA1B CALLER PUSH1 0x4 SLOAD PUSH2 0x2C2F JUMP JUMPDEST PUSH1 0x40 MLOAD DUP4 DUP2 MSTORE CALLER SWAP1 DUP6 SWAP1 PUSH32 0x30B418308672466269A424268A426A1214029673211E536DFB7565397433CC91 SWAP1 PUSH1 0x20 ADD PUSH2 0x835 JUMP JUMPDEST PUSH1 0x60 PUSH1 0x0 PUSH1 0x1 JUMPDEST PUSH1 0x2 SLOAD DUP2 GT PUSH2 0xA9F JUMPI PUSH1 0x0 DUP2 DUP2 MSTORE PUSH1 0x6 PUSH1 0x20 MSTORE PUSH1 0x40 SWAP1 KECCAK256 PUSH1 0x7 ADD SLOAD PUSH1 0x1 PUSH1 0xA8 SHL SWAP1 DIV PUSH1 0xFF AND PUSH2 0xA8D JUMPI DUP2 PUSH2 0xA89 DUP2 PUSH2 0x36CF JUMP JUMPDEST SWAP3 POP POP JUMPDEST DUP1 PUSH2 0xA97 DUP2 PUSH2 0x36CF JUMP JUMPDEST SWAP2 POP POP PUSH2 0xA56 JUMP JUMPDEST POP PUSH1 0x0 DUP2 PUSH8 0xFFFFFFFFFFFFFFFF DUP2 GT ISZERO PUSH2 0xABB JUMPI PUSH2 0xABB PUSH2 0x307A JUMP JUMPDEST PUSH1 0x40 MLOAD SWAP1 DUP1 DUP3 MSTORE DUP1 PUSH1 0x20 MUL PUSH1 0x20 ADD DUP3 ADD PUSH1 0x40 MSTORE DUP1 ISZERO PUSH2 0xAF4 JUMPI DUP2 PUSH1 0x20 ADD JUMPDEST PUSH2 0xAE1 PUSH2 0x2E1C JUMP JUMPDEST DUP2 MSTORE PUSH1 0x20 ADD SWAP1 PUSH1 0x1 SWAP1 SUB SWAP1 DUP2 PUSH2 0xAD9 JUMPI SWAP1 POP JUMPDEST POP SWAP1 POP PUSH1 0x0 PUSH1 0x1 JUMPDEST PUSH1 0x2 SLOAD DUP2 GT PUSH2 0xE3B JUMPI PUSH1 0x0 DUP2 DUP2 MSTORE PUSH1 0x6 PUSH1 0x20 MSTORE PUSH1 0x40 SWAP1 KECCAK256 PUSH1 0x7 ADD SLOAD PUSH1 0x1 PUSH1 0xA8 SHL SWAP1 DIV PUSH1 0xFF AND PUSH2 0xE29 JUMPI PUSH1 0x6 PUSH1 0x0 DUP3 DUP2 MSTORE PUSH1 0x20 ADD SWAP1 DUP2 MSTORE PUSH1 0x20 ADD PUSH1 0x0 KECCAK256 PUSH1 0x40 MLOAD DUP1 PUSH2 0x180 ADD PUSH1 0x40 MSTORE SWAP1 DUP2 PUSH1 0x0 DUP3 ADD SLOAD DUP2 MSTORE PUSH1 0x20 ADD PUSH1 0x1 DUP3 ADD DUP1 SLOAD PUSH2 0xB5E SWAP1 PUSH2 0x36E8 JUMP JUMPDEST DUP1 PUSH1 0x1F ADD PUSH1 0x20 DUP1 SWAP2 DIV MUL PUSH1 0x20 ADD PUSH1 0x40 MLOAD SWAP1 DUP2 ADD PUSH1 0x40 MSTORE DUP1 SWAP3 SWAP2 SWAP1 DUP2 DUP2 MSTORE PUSH1 0x20 ADD DUP3 DUP1 SLOAD PUSH2 0xB8A SWAP1 PUSH2 0x36E8 JUMP JUMPDEST DUP1 ISZERO PUSH2 0xBD7 JUMPI DUP1 PUSH1 0x1F LT PUSH2 0xBAC JUMPI PUSH2 0x100 DUP1 DUP4 SLOAD DIV MUL DUP4 MSTORE SWAP2 PUSH1 0x20 ADD SWAP2 PUSH2 0xBD7 JUMP JUMPDEST DUP3 ADD SWAP2 SWAP1 PUSH1 0x0 MSTORE PUSH1 0x20 PUSH1 0x0 KECCAK256 SWAP1 JUMPDEST DUP2 SLOAD DUP2 MSTORE SWAP1 PUSH1 0x1 ADD SWAP1 PUSH1 0x20 ADD DUP1 DUP4 GT PUSH2 0xBBA JUMPI DUP3 SWAP1 SUB PUSH1 0x1F AND DUP3 ADD SWAP2 JUMPDEST POP POP POP POP POP DUP2 MSTORE PUSH1 0x20 ADD PUSH1 0x2 DUP3 ADD DUP1 SLOAD PUSH2 0xBF0 SWAP1 PUSH2 0x36E8 JUMP JUMPDEST DUP1 PUSH1 0x1F ADD PUSH1 0x20 DUP1 SWAP2 DIV MUL PUSH1 0x20 ADD PUSH1 0x40 MLOAD SWAP1 DUP2 ADD PUSH1 0x40 MSTORE DUP1 SWAP3 SWAP2 SWAP1 DUP2 DUP2 MSTORE PUSH1 0x20 ADD DUP3 DUP1 SLOAD PUSH2 0xC1C SWAP1 PUSH2 0x36E8 JUMP JUMPDEST DUP1 ISZERO PUSH2 0xC69 JUMPI DUP1 PUSH1 0x1F LT PUSH2 0xC3E JUMPI PUSH2 0x100 DUP1 DUP4 SLOAD DIV MUL DUP4 MSTORE SWAP2 PUSH1 0x20 ADD SWAP2 PUSH2 0xC69 JUMP JUMPDEST DUP3 ADD SWAP2 SWAP1 PUSH1 0x0 MSTORE PUSH1 0x20 PUSH1 0x0 KECCAK256 SWAP1 JUMPDEST DUP2 SLOAD DUP2 MSTORE SWAP1 PUSH1 0x1 ADD SWAP1 PUSH1 0x20 ADD DUP1 DUP4 GT PUSH2 0xC4C JUMPI DUP3 SWAP1 SUB PUSH1 0x1F AND DUP3 ADD SWAP2 JUMPDEST POP POP POP POP POP DUP2 MSTORE PUSH1 0x20 ADD PUSH1 0x3 DUP3 ADD DUP1 SLOAD PUSH2 0xC82 SWAP1 PUSH2 0x36E8 JUMP JUMPDEST DUP1 PUSH1 0x1F ADD PUSH1 0x20 DUP1 SWAP2 DIV MUL PUSH1 0x20 ADD PUSH1 0x40 MLOAD SWAP1 DUP2 ADD PUSH1 0x40 MSTORE DUP1 SWAP3 SWAP2 SWAP1 DUP2 DUP2 MSTORE PUSH1 0x20 ADD DUP3 DUP1 SLOAD PUSH2 0xCAE SWAP1 PUSH2 0x36E8 JUMP JUMPDEST DUP1 ISZERO PUSH2 0xCFB JUMPI DUP1 PUSH1 0x1F LT PUSH2 0xCD0 JUMPI PUSH2 0x100 DUP1 DUP4 SLOAD DIV MUL DUP4 MSTORE SWAP2 PUSH1 0x20 ADD SWAP2 PUSH2 0xCFB JUMP JUMPDEST DUP3 ADD SWAP2 SWAP1 PUSH1 0x0 MSTORE PUSH1 0x20 PUSH1 0x0 KECCAK256 SWAP1 JUMPDEST DUP2 SLOAD DUP2 MSTORE SWAP1 PUSH1 0x1 ADD SWAP1 PUSH1 0x20 ADD DUP1 DUP4 GT PUSH2 0xCDE JUMPI DUP3 SWAP1 SUB PUSH1 0x1F AND DUP3 ADD SWAP2 JUMPDEST POP POP POP POP POP DUP2 MSTORE PUSH1 0x20 ADD PUSH1 0x4 DUP3 ADD DUP1 SLOAD PUSH2 0xD14 SWAP1 PUSH2 0x36E8 JUMP JUMPDEST DUP1 PUSH1 0x1F ADD PUSH1 0x20 DUP1 SWAP2 DIV MUL PUSH1 0x20 ADD PUSH1 0x40 MLOAD SWAP1 DUP2 ADD PUSH1 0x40 MSTORE DUP1 SWAP3 SWAP2 SWAP1 DUP2 DUP2 MSTORE PUSH1 0x20 ADD DUP3 DUP1 SLOAD PUSH2 0xD40 SWAP1 PUSH2 0x36E8 JUMP JUMPDEST DUP1 ISZERO PUSH2 0xD8D JUMPI DUP1 PUSH1 0x1F LT PUSH2 0xD62 JUMPI PUSH2 0x100 DUP1 DUP4 SLOAD DIV MUL DUP4 MSTORE SWAP2 PUSH1 0x20 ADD SWAP2 PUSH2 0xD8D JUMP JUMPDEST DUP3 ADD SWAP2 SWAP1 PUSH1 0x0 MSTORE PUSH1 0x20 PUSH1 0x0 KECCAK256 SWAP1 JUMPDEST DUP2 SLOAD DUP2 MSTORE SWAP1 PUSH1 0x1 ADD SWAP1 PUSH1 0x20 ADD DUP1 DUP4 GT PUSH2 0xD70 JUMPI DUP3 SWAP1 SUB PUSH1 0x1F AND DUP3 ADD SWAP2 JUMPDEST POP POP POP SWAP2 DUP4 MSTORE POP POP PUSH1 0x5 DUP3 ADD SLOAD PUSH1 0x20 DUP3 ADD MSTORE PUSH1 0x6 DUP3 ADD SLOAD PUSH1 0x40 DUP3 ADD MSTORE PUSH1 0x7 DUP3 ADD SLOAD PUSH1 0x1 PUSH1 0x1 PUSH1 0xA0 SHL SUB DUP2 AND PUSH1 0x60 DUP4 ADD MSTORE PUSH1 0xFF PUSH1 0x1 PUSH1 0xA0 SHL DUP3 DIV DUP2 AND ISZERO ISZERO PUSH1 0x80 DUP5 ADD MSTORE PUSH1 0x1 PUSH1 0xA8 SHL DUP3 DIV DUP2 AND ISZERO ISZERO PUSH1 0xA0 DUP5 ADD MSTORE PUSH1 0x1 PUSH1 0xB0 SHL SWAP1 SWAP2 DIV AND ISZERO ISZERO PUSH1 0xC0 DUP3 ADD MSTORE PUSH1 0x8 SWAP1 SWAP2 ADD SLOAD PUSH1 0xE0 SWAP1 SWAP2 ADD MSTORE DUP4 MLOAD DUP5 SWAP1 DUP5 SWAP1 DUP2 LT PUSH2 0xE0F JUMPI PUSH2 0xE0F PUSH2 0x3611 JUMP JUMPDEST PUSH1 0x20 MUL PUSH1 0x20 ADD ADD DUP2 SWAP1 MSTORE POP DUP2 DUP1 PUSH2 0xE25 SWAP1 PUSH2 0x36CF JUMP JUMPDEST SWAP3 POP POP JUMPDEST DUP1 PUSH2 0xE33 DUP2 PUSH2 0x36CF JUMP JUMPDEST SWAP2 POP POP PUSH2 0xAFC JUMP JUMPDEST POP SWAP1 SWAP4 SWAP3 POP POP POP JUMP JUMPDEST PUSH1 0x0 DUP7 MLOAD GT PUSH2 0xE65 JUMPI PUSH1 0x40 MLOAD PUSH3 0x461BCD PUSH1 0xE5 SHL DUP2 MSTORE PUSH1 0x4 ADD PUSH2 0x700 SWAP1 PUSH2 0x3722 JUMP JUMPDEST PUSH1 0x0 DUP6 MLOAD GT PUSH2 0xE86 JUMPI PUSH1 0x40 MLOAD PUSH3 0x461BCD PUSH1 0xE5 SHL DUP2 MSTORE PUSH1 0x4 ADD PUSH2 0x700 SWAP1 PUSH2 0x3722 JUMP JUMPDEST PUSH1 0x0 DUP5 MLOAD GT PUSH2 0xED7 JUMPI PUSH1 0x40 MLOAD PUSH3 0x461BCD PUSH1 0xE5 SHL DUP2 MSTORE PUSH1 0x20 PUSH1 0x4 DUP3 ADD MSTORE PUSH1 0x1B PUSH1 0x24 DUP3 ADD MSTORE PUSH32 0x4465736372697074696F6E2063616E6E6F7420626520656D7074790000000000 PUSH1 0x44 DUP3 ADD MSTORE PUSH1 0x64 ADD PUSH2 0x700 JUMP JUMPDEST PUSH1 0x0 DUP4 MLOAD GT PUSH2 0xF21 JUMPI PUSH1 0x40 MLOAD PUSH3 0x461BCD PUSH1 0xE5 SHL DUP2 MSTORE PUSH1 0x20 PUSH1 0x4 DUP3 ADD MSTORE PUSH1 0x16 PUSH1 0x24 DUP3 ADD MSTORE PUSH22 0x496D616765732063616E6E6F7420626520656D707479 PUSH1 0x50 SHL PUSH1 0x44 DUP3 ADD MSTORE PUSH1 0x64 ADD PUSH2 0x700 JUMP JUMPDEST PUSH1 0x0 DUP3 GT PUSH2 0xF68 JUMPI PUSH1 0x40 MLOAD PUSH3 0x461BCD PUSH1 0xE5 SHL DUP2 MSTORE PUSH1 0x20 PUSH1 0x4 DUP3 ADD MSTORE PUSH1 0x14 PUSH1 0x24 DUP3 ADD MSTORE PUSH20 0x526F6F6D732063616E6E6F74206265207A65726F PUSH1 0x60 SHL PUSH1 0x44 DUP3 ADD MSTORE PUSH1 0x64 ADD PUSH2 0x700 JUMP JUMPDEST PUSH1 0x0 DUP2 GT PUSH2 0xFAF JUMPI PUSH1 0x40 MLOAD PUSH3 0x461BCD PUSH1 0xE5 SHL DUP2 MSTORE PUSH1 0x20 PUSH1 0x4 DUP3 ADD MSTORE PUSH1 0x14 PUSH1 0x24 DUP3 ADD MSTORE PUSH20 0x50726963652063616E6E6F74206265207A65726F PUSH1 0x60 SHL PUSH1 0x44 DUP3 ADD MSTORE PUSH1 0x64 ADD PUSH2 0x700 JUMP JUMPDEST PUSH2 0xFBD PUSH1 0x2 DUP1 SLOAD PUSH1 0x1 ADD SWAP1 SSTORE JUMP JUMPDEST PUSH2 0xFC5 PUSH2 0x2E1C JUMP JUMPDEST PUSH1 0x2 SLOAD DUP1 DUP3 MSTORE PUSH1 0x20 DUP1 DUP4 ADD DUP10 DUP2 MSTORE PUSH1 0x40 DUP1 DUP6 ADD DUP11 SWAP1 MSTORE PUSH1 0x60 DUP6 ADD DUP10 SWAP1 MSTORE PUSH1 0x80 DUP6 ADD DUP9 SWAP1 MSTORE PUSH1 0xA0 DUP6 ADD DUP8 SWAP1 MSTORE PUSH1 0xC0 DUP6 ADD DUP7 SWAP1 MSTORE CALLER PUSH1 0xE0 DUP7 ADD MSTORE PUSH1 0x1 PUSH2 0x140 DUP7 ADD DUP2 SWAP1 MSTORE TIMESTAMP PUSH2 0x160 DUP8 ADD MSTORE PUSH1 0x0 SWAP5 DUP6 MSTORE PUSH1 0x9 DUP5 MSTORE DUP2 DUP6 KECCAK256 DUP1 SLOAD PUSH1 0xFF NOT AND DUP3 OR SWAP1 SSTORE DUP6 MLOAD DUP6 MSTORE PUSH1 0x6 SWAP1 SWAP4 MSTORE SWAP1 SWAP3 KECCAK256 DUP4 MLOAD DUP2 SSTORE SWAP2 MLOAD DUP4 SWAP3 SWAP2 DUP3 ADD SWAP1 PUSH2 0x1046 SWAP1 DUP3 PUSH2 0x379F JUMP JUMPDEST POP PUSH1 0x40 DUP3 ADD MLOAD PUSH1 0x2 DUP3 ADD SWAP1 PUSH2 0x105B SWAP1 DUP3 PUSH2 0x379F JUMP JUMPDEST POP PUSH1 0x60 DUP3 ADD MLOAD PUSH1 0x3 DUP3 ADD SWAP1 PUSH2 0x1070 SWAP1 DUP3 PUSH2 0x379F JUMP JUMPDEST POP PUSH1 0x80 DUP3 ADD MLOAD PUSH1 0x4 DUP3 ADD SWAP1 PUSH2 0x1085 SWAP1 DUP3 PUSH2 0x379F JUMP JUMPDEST POP PUSH1 0xA0 DUP3 ADD MLOAD PUSH1 0x5 DUP3 ADD SSTORE PUSH1 0xC0 DUP3 ADD MLOAD PUSH1 0x6 DUP3 ADD SSTORE PUSH1 0xE0 DUP3 ADD MLOAD PUSH1 0x7 DUP3 ADD DUP1 SLOAD PUSH2 0x100 DUP6 ADD MLOAD PUSH2 0x120 DUP7 ADD MLOAD PUSH2 0x140 DUP8 ADD MLOAD ISZERO ISZERO PUSH1 0x1 PUSH1 0xB0 SHL MUL PUSH1 0xFF PUSH1 0xB0 SHL NOT SWAP2 ISZERO ISZERO PUSH1 0x1 PUSH1 0xA8 SHL MUL SWAP2 SWAP1 SWAP2 AND PUSH2 0xFFFF PUSH1 0xA8 SHL NOT SWAP3 ISZERO ISZERO PUSH1 0x1 PUSH1 0xA0 SHL MUL PUSH1 0x1 PUSH1 0x1 PUSH1 0xA8 SHL SUB NOT SWAP1 SWAP5 AND PUSH1 0x1 PUSH1 0x1 PUSH1 0xA0 SHL SUB SWAP1 SWAP7 AND SWAP6 SWAP1 SWAP6 OR SWAP3 SWAP1 SWAP3 OR AND SWAP3 SWAP1 SWAP3 OR SWAP2 SWAP1 SWAP2 OR SWAP1 SSTORE PUSH2 0x160 SWAP1 SWAP2 ADD MLOAD PUSH1 0x8 SWAP1 SWAP2 ADD SSTORE DUP1 MLOAD PUSH1 0x40 MLOAD CALLER SWAP2 SWAP1 PUSH32 0x868B71F2FCCB02B35739F9BB13E51CE12A10CA4CEB16ECD8D3DA9A416875EDB6 SWAP1 PUSH1 0x0 SWAP1 LOG3 POP POP POP POP POP POP POP JUMP JUMPDEST PUSH2 0x1158 PUSH2 0x2E8C JUMP JUMPDEST PUSH1 0x0 DUP4 DUP2 MSTORE PUSH1 0x7 PUSH1 0x20 MSTORE PUSH1 0x40 SWAP1 KECCAK256 DUP1 SLOAD DUP4 SWAP1 DUP2 LT PUSH2 0x1178 JUMPI PUSH2 0x1178 PUSH2 0x3611 JUMP JUMPDEST PUSH1 0x0 SWAP2 DUP3 MSTORE PUSH1 0x20 SWAP2 DUP3 SWAP1 KECCAK256 PUSH1 0x40 DUP1 MLOAD PUSH1 0xE0 DUP2 ADD DUP3 MSTORE PUSH1 0x6 SWAP1 SWAP4 MUL SWAP1 SWAP2 ADD DUP1 SLOAD DUP4 MSTORE PUSH1 0x1 DUP2 ADD SLOAD PUSH1 0x1 PUSH1 0x1 PUSH1 0xA0 SHL SUB AND SWAP4 DUP4 ADD SWAP4 SWAP1 SWAP4 MSTORE PUSH1 0x2 DUP4 ADD SLOAD SWAP1 DUP3 ADD MSTORE PUSH1 0x3 DUP3 ADD SLOAD PUSH1 0x60 DUP3 ADD MSTORE PUSH1 0x4 DUP3 ADD SLOAD PUSH1 0x80 DUP3 ADD MSTORE PUSH1 0x5 SWAP1 SWAP2 ADD SLOAD PUSH1 0xFF DUP1 DUP3 AND ISZERO ISZERO PUSH1 0xA0 DUP5 ADD MSTORE PUSH2 0x100 SWAP1 SWAP2 DIV AND ISZERO ISZERO PUSH1 0xC0 DUP3 ADD MSTORE SWAP1 POP JUMPDEST SWAP3 SWAP2 POP POP JUMP JUMPDEST PUSH1 0x7 PUSH1 0x20 MSTORE DUP2 PUSH1 0x0 MSTORE PUSH1 0x40 PUSH1 0x0 KECCAK256 DUP2 DUP2 SLOAD DUP2 LT PUSH2 0x1210 JUMPI PUSH1 0x0 DUP1 REVERT JUMPDEST PUSH1 0x0 SWAP2 DUP3 MSTORE PUSH1 0x20 SWAP1 SWAP2 KECCAK256 PUSH1 0x6 SWAP1 SWAP2 MUL ADD DUP1 SLOAD PUSH1 0x1 DUP3 ADD SLOAD PUSH1 0x2 DUP4 ADD SLOAD PUSH1 0x3 DUP5 ADD SLOAD PUSH1 0x4 DUP6 ADD SLOAD PUSH1 0x5 SWAP1 SWAP6 ADD SLOAD SWAP4 SWAP7 POP PUSH1 0x1 PUSH1 0x1 PUSH1 0xA0 SHL SUB SWAP1 SWAP3 AND SWAP5 POP SWAP3 SWAP1 SWAP2 PUSH1 0xFF DUP1 DUP3 AND SWAP2 PUSH2 0x100 SWAP1 DIV AND DUP8 JUMP JUMPDEST PUSH1 0x0 DUP3 DUP2 MSTORE PUSH1 0x9 PUSH1 0x20 MSTORE PUSH1 0x40 SWAP1 KECCAK256 SLOAD PUSH1 0xFF AND PUSH2 0x128C JUMPI PUSH1 0x40 MLOAD PUSH3 0x461BCD PUSH1 0xE5 SHL DUP2 MSTORE PUSH1 0x4 ADD PUSH2 0x700 SWAP1 PUSH2 0x385F JUMP JUMPDEST CALLER PUSH1 0x0 SWAP1 DUP2 MSTORE PUSH1 0xC PUSH1 0x20 SWAP1 DUP2 MSTORE PUSH1 0x40 DUP1 DUP4 KECCAK256 DUP6 DUP5 MSTORE SWAP1 SWAP2 MSTORE SWAP1 KECCAK256 SLOAD PUSH1 0xFF AND PUSH2 0x12F6 JUMPI PUSH1 0x40 MLOAD PUSH3 0x461BCD PUSH1 0xE5 SHL DUP2 MSTORE PUSH1 0x20 PUSH1 0x4 DUP3 ADD MSTORE PUSH1 0x18 PUSH1 0x24 DUP3 ADD MSTORE PUSH32 0x426F6F6B206669727374206265666F7265207265766965770000000000000000 PUSH1 0x44 DUP3 ADD MSTORE PUSH1 0x64 ADD PUSH2 0x700 JUMP JUMPDEST PUSH1 0x0 DUP2 MLOAD GT PUSH2 0x1347 JUMPI PUSH1 0x40 MLOAD PUSH3 0x461BCD PUSH1 0xE5 SHL DUP2 MSTORE PUSH1 0x20 PUSH1 0x4 DUP3 ADD MSTORE PUSH1 0x1B PUSH1 0x24 DUP3 ADD MSTORE PUSH32 0x52657669657720746578742063616E6E6F7420626520656D7074790000000000 PUSH1 0x44 DUP3 ADD MSTORE PUSH1 0x64 ADD PUSH2 0x700 JUMP JUMPDEST PUSH2 0x1355 PUSH1 0x3 DUP1 SLOAD PUSH1 0x1 ADD SWAP1 SSTORE JUMP JUMPDEST PUSH2 0x1390 PUSH1 0x40 MLOAD DUP1 PUSH1 0xA0 ADD PUSH1 0x40 MSTORE DUP1 PUSH1 0x0 DUP2 MSTORE PUSH1 0x20 ADD PUSH1 0x0 DUP2 MSTORE PUSH1 0x20 ADD PUSH1 0x60 DUP2 MSTORE PUSH1 0x20 ADD PUSH1 0x0 DUP2 MSTORE PUSH1 0x20 ADD PUSH1 0x0 PUSH1 0x1 PUSH1 0x1 PUSH1 0xA0 SHL SUB AND DUP2 MSTORE POP SWAP1 JUMP JUMPDEST PUSH1 0x3 SLOAD DUP2 MSTORE PUSH1 0x20 DUP1 DUP3 ADD DUP5 DUP2 MSTORE PUSH1 0x40 DUP1 DUP5 ADD DUP6 DUP2 MSTORE TIMESTAMP PUSH1 0x60 DUP7 ADD MSTORE CALLER PUSH1 0x80 DUP7 ADD MSTORE PUSH1 0x0 DUP8 DUP2 MSTORE PUSH1 0x8 DUP6 MSTORE SWAP2 DUP3 KECCAK256 DUP1 SLOAD PUSH1 0x1 DUP2 DUP2 ADD DUP4 SSTORE SWAP2 DUP5 MSTORE SWAP5 SWAP1 SWAP3 KECCAK256 DUP6 MLOAD PUSH1 0x5 SWAP1 SWAP6 MUL ADD SWAP4 DUP5 SSTORE SWAP2 MLOAD SWAP1 DUP4 ADD SSTORE MLOAD DUP3 SWAP2 SWAP1 PUSH1 0x2 DUP3 ADD SWAP1 PUSH2 0x13F1 SWAP1 DUP3 PUSH2 0x379F JUMP JUMPDEST POP PUSH1 0x60 DUP3 ADD MLOAD PUSH1 0x3 DUP3 ADD SSTORE PUSH1 0x80 SWAP1 SWAP2 ADD MLOAD PUSH1 0x4 SWAP1 SWAP2 ADD DUP1 SLOAD PUSH1 0x1 PUSH1 0x1 PUSH1 0xA0 SHL SUB NOT AND PUSH1 0x1 PUSH1 0x1 PUSH1 0xA0 SHL SUB SWAP1 SWAP3 AND SWAP2 SWAP1 SWAP2 OR SWAP1 SSTORE PUSH1 0x40 MLOAD CALLER SWAP1 DUP5 SWAP1 PUSH32 0x147D2C343F054E85E3A52F84240E7454F6361913E64B66F8ABC756FFC455683D SWAP1 PUSH1 0x0 SWAP1 LOG3 POP POP POP JUMP JUMPDEST PUSH2 0x145E PUSH2 0x2CC3 JUMP JUMPDEST PUSH1 0x0 DUP2 GT PUSH2 0x14AE JUMPI PUSH1 0x40 MLOAD PUSH3 0x461BCD PUSH1 0xE5 SHL DUP2 MSTORE PUSH1 0x20 PUSH1 0x4 DUP3 ADD MSTORE PUSH1 0x1A PUSH1 0x24 DUP3 ADD MSTORE PUSH32 0x466565206D7573742062652067726561746572207468616E2030000000000000 PUSH1 0x44 DUP3 ADD MSTORE PUSH1 0x64 ADD PUSH2 0x700 JUMP JUMPDEST PUSH1 0x4 DUP2 SWAP1 SSTORE PUSH1 0x40 MLOAD DUP2 DUP2 MSTORE PUSH32 0x3790AEEE57809AF98FAD1B89B9266C7934E03ED46702B541F2FEF6F1E89D6827 SWAP1 PUSH1 0x20 ADD PUSH1 0x40 MLOAD DUP1 SWAP2 SUB SWAP1 LOG1 POP JUMP JUMPDEST PUSH1 0x0 DUP8 DUP2 MSTORE PUSH1 0x9 PUSH1 0x20 MSTORE PUSH1 0x40 SWAP1 KECCAK256 SLOAD PUSH1 0xFF AND PUSH2 0x1517 JUMPI PUSH1 0x40 MLOAD PUSH3 0x461BCD PUSH1 0xE5 SHL DUP2 MSTORE PUSH1 0x4 ADD PUSH2 0x700 SWAP1 PUSH2 0x385F JUMP JUMPDEST PUSH1 0x0 DUP8 DUP2 MSTORE PUSH1 0x6 PUSH1 0x20 MSTORE PUSH1 0x40 SWAP1 KECCAK256 PUSH1 0x7 ADD SLOAD PUSH1 0x1 PUSH1 0x1 PUSH1 0xA0 SHL SUB AND CALLER EQ PUSH2 0x158B JUMPI PUSH1 0x40 MLOAD PUSH3 0x461BCD PUSH1 0xE5 SHL DUP2 MSTORE PUSH1 0x20 PUSH1 0x4 DUP3 ADD MSTORE PUSH1 0x22 PUSH1 0x24 DUP3 ADD MSTORE PUSH32 0x556E617574686F72697A656420706572736F6E6E656C2C206F776E6572206F6E PUSH1 0x44 DUP3 ADD MSTORE PUSH2 0x6C79 PUSH1 0xF0 SHL PUSH1 0x64 DUP3 ADD MSTORE PUSH1 0x84 ADD PUSH2 0x700 JUMP JUMPDEST PUSH1 0x0 DUP7 MLOAD GT PUSH2 0x15AC JUMPI PUSH1 0x40 MLOAD PUSH3 0x461BCD PUSH1 0xE5 SHL DUP2 MSTORE PUSH1 0x4 ADD PUSH2 0x700 SWAP1 PUSH2 0x3722 JUMP JUMPDEST PUSH1 0x0 DUP6 MLOAD GT PUSH2 0x15CD JUMPI PUSH1 0x40 MLOAD PUSH3 0x461BCD PUSH1 0xE5 SHL DUP2 MSTORE PUSH1 0x4 ADD PUSH2 0x700 SWAP1 PUSH2 0x3722 JUMP JUMPDEST PUSH1 0x0 DUP5 MLOAD GT PUSH2 0x161E JUMPI PUSH1 0x40 MLOAD PUSH3 0x461BCD PUSH1 0xE5 SHL DUP2 MSTORE PUSH1 0x20 PUSH1 0x4 DUP3 ADD MSTORE PUSH1 0x1B PUSH1 0x24 DUP3 ADD MSTORE PUSH32 0x4465736372697074696F6E2063616E6E6F7420626520656D7074790000000000 PUSH1 0x44 DUP3 ADD MSTORE PUSH1 0x64 ADD PUSH2 0x700 JUMP JUMPDEST PUSH1 0x0 DUP4 MLOAD GT PUSH2 0x1668 JUMPI PUSH1 0x40 MLOAD PUSH3 0x461BCD PUSH1 0xE5 SHL DUP2 MSTORE PUSH1 0x20 PUSH1 0x4 DUP3 ADD MSTORE PUSH1 0x16 PUSH1 0x24 DUP3 ADD MSTORE PUSH22 0x496D616765732063616E6E6F7420626520656D707479 PUSH1 0x50 SHL PUSH1 0x44 DUP3 ADD MSTORE PUSH1 0x64 ADD PUSH2 0x700 JUMP JUMPDEST PUSH1 0x0 DUP3 GT PUSH2 0x16AF JUMPI PUSH1 0x40 MLOAD PUSH3 0x461BCD PUSH1 0xE5 SHL DUP2 MSTORE PUSH1 0x20 PUSH1 0x4 DUP3 ADD MSTORE PUSH1 0x14 PUSH1 0x24 DUP3 ADD MSTORE PUSH20 0x526F6F6D732063616E6E6F74206265207A65726F PUSH1 0x60 SHL PUSH1 0x44 DUP3 ADD MSTORE PUSH1 0x64 ADD PUSH2 0x700 JUMP JUMPDEST PUSH1 0x0 DUP2 GT PUSH2 0x16F6 JUMPI PUSH1 0x40 MLOAD PUSH3 0x461BCD PUSH1 0xE5 SHL DUP2 MSTORE PUSH1 0x20 PUSH1 0x4 DUP3 ADD MSTORE PUSH1 0x14 PUSH1 0x24 DUP3 ADD MSTORE PUSH20 0x50726963652063616E6E6F74206265207A65726F PUSH1 0x60 SHL PUSH1 0x44 DUP3 ADD MSTORE PUSH1 0x64 ADD PUSH2 0x700 JUMP JUMPDEST PUSH1 0x0 PUSH1 0x6 PUSH1 0x0 DUP10 DUP2 MSTORE PUSH1 0x20 ADD SWAP1 DUP2 MSTORE PUSH1 0x20 ADD PUSH1 0x0 KECCAK256 PUSH1 0x40 MLOAD DUP1 PUSH2 0x180 ADD PUSH1 0x40 MSTORE SWAP1 DUP2 PUSH1 0x0 DUP3 ADD SLOAD DUP2 MSTORE PUSH1 0x20 ADD PUSH1 0x1 DUP3 ADD DUP1 SLOAD PUSH2 0x1731 SWAP1 PUSH2 0x36E8 JUMP JUMPDEST DUP1 PUSH1 0x1F ADD PUSH1 0x20 DUP1 SWAP2 DIV MUL PUSH1 0x20 ADD PUSH1 0x40 MLOAD SWAP1 DUP2 ADD PUSH1 0x40 MSTORE DUP1 SWAP3 SWAP2 SWAP1 DUP2 DUP2 MSTORE PUSH1 0x20 ADD DUP3 DUP1 SLOAD PUSH2 0x175D SWAP1 PUSH2 0x36E8 JUMP JUMPDEST DUP1 ISZERO PUSH2 0x17AA JUMPI DUP1 PUSH1 0x1F LT PUSH2 0x177F JUMPI PUSH2 0x100 DUP1 DUP4 SLOAD DIV MUL DUP4 MSTORE SWAP2 PUSH1 0x20 ADD SWAP2 PUSH2 0x17AA JUMP JUMPDEST DUP3 ADD SWAP2 SWAP1 PUSH1 0x0 MSTORE PUSH1 0x20 PUSH1 0x0 KECCAK256 SWAP1 JUMPDEST DUP2 SLOAD DUP2 MSTORE SWAP1 PUSH1 0x1 ADD SWAP1 PUSH1 0x20 ADD DUP1 DUP4 GT PUSH2 0x178D JUMPI DUP3 SWAP1 SUB PUSH1 0x1F AND DUP3 ADD SWAP2 JUMPDEST POP POP POP POP POP DUP2 MSTORE PUSH1 0x20 ADD PUSH1 0x2 DUP3 ADD DUP1 SLOAD PUSH2 0x17C3 SWAP1 PUSH2 0x36E8 JUMP JUMPDEST DUP1 PUSH1 0x1F ADD PUSH1 0x20 DUP1 SWAP2 DIV MUL PUSH1 0x20 ADD PUSH1 0x40 MLOAD SWAP1 DUP2 ADD PUSH1 0x40 MSTORE DUP1 SWAP3 SWAP2 SWAP1 DUP2 DUP2 MSTORE PUSH1 0x20 ADD DUP3 DUP1 SLOAD PUSH2 0x17EF SWAP1 PUSH2 0x36E8 JUMP JUMPDEST DUP1 ISZERO PUSH2 0x183C JUMPI DUP1 PUSH1 0x1F LT PUSH2 0x1811 JUMPI PUSH2 0x100 DUP1 DUP4 SLOAD DIV MUL DUP4 MSTORE SWAP2 PUSH1 0x20 ADD SWAP2 PUSH2 0x183C JUMP JUMPDEST DUP3 ADD SWAP2 SWAP1 PUSH1 0x0 MSTORE PUSH1 0x20 PUSH1 0x0 KECCAK256 SWAP1 JUMPDEST DUP2 SLOAD DUP2 MSTORE SWAP1 PUSH1 0x1 ADD SWAP1 PUSH1 0x20 ADD DUP1 DUP4 GT PUSH2 0x181F JUMPI DUP3 SWAP1 SUB PUSH1 0x1F AND DUP3 ADD SWAP2 JUMPDEST POP POP POP POP POP DUP2 MSTORE PUSH1 0x20 ADD PUSH1 0x3 DUP3 ADD DUP1 SLOAD PUSH2 0x1855 SWAP1 PUSH2 0x36E8 JUMP JUMPDEST DUP1 PUSH1 0x1F ADD PUSH1 0x20 DUP1 SWAP2 DIV MUL PUSH1 0x20 ADD PUSH1 0x40 MLOAD SWAP1 DUP2 ADD PUSH1 0x40 MSTORE DUP1 SWAP3 SWAP2 SWAP1 DUP2 DUP2 MSTORE PUSH1 0x20 ADD DUP3 DUP1 SLOAD PUSH2 0x1881 SWAP1 PUSH2 0x36E8 JUMP JUMPDEST DUP1 ISZERO PUSH2 0x18CE JUMPI DUP1 PUSH1 0x1F LT PUSH2 0x18A3 JUMPI PUSH2 0x100 DUP1 DUP4 SLOAD DIV MUL DUP4 MSTORE SWAP2 PUSH1 0x20 ADD SWAP2 PUSH2 0x18CE JUMP JUMPDEST DUP3 ADD SWAP2 SWAP1 PUSH1 0x0 MSTORE PUSH1 0x20 PUSH1 0x0 KECCAK256 SWAP1 JUMPDEST DUP2 SLOAD DUP2 MSTORE SWAP1 PUSH1 0x1 ADD SWAP1 PUSH1 0x20 ADD DUP1 DUP4 GT PUSH2 0x18B1 JUMPI DUP3 SWAP1 SUB PUSH1 0x1F AND DUP3 ADD SWAP2 JUMPDEST POP POP POP POP POP DUP2 MSTORE PUSH1 0x20 ADD PUSH1 0x4 DUP3 ADD DUP1 SLOAD PUSH2 0x18E7 SWAP1 PUSH2 0x36E8 JUMP JUMPDEST DUP1 PUSH1 0x1F ADD PUSH1 0x20 DUP1 SWAP2 DIV MUL PUSH1 0x20 ADD PUSH1 0x40 MLOAD SWAP1 DUP2 ADD PUSH1 0x40 MSTORE DUP1 SWAP3 SWAP2 SWAP1 DUP2 DUP2 MSTORE PUSH1 0x20 ADD DUP3 DUP1 SLOAD PUSH2 0x1913 SWAP1 PUSH2 0x36E8 JUMP JUMPDEST DUP1 ISZERO PUSH2 0x1960 JUMPI DUP1 PUSH1 0x1F LT PUSH2 0x1935 JUMPI PUSH2 0x100 DUP1 DUP4 SLOAD DIV MUL DUP4 MSTORE SWAP2 PUSH1 0x20 ADD SWAP2 PUSH2 0x1960 JUMP JUMPDEST DUP3 ADD SWAP2 SWAP1 PUSH1 0x0 MSTORE PUSH1 0x20 PUSH1 0x0 KECCAK256 SWAP1 JUMPDEST DUP2 SLOAD DUP2 MSTORE SWAP1 PUSH1 0x1 ADD SWAP1 PUSH1 0x20 ADD DUP1 DUP4 GT PUSH2 0x1943 JUMPI DUP3 SWAP1 SUB PUSH1 0x1F AND DUP3 ADD SWAP2 JUMPDEST POP POP POP SWAP2 DUP4 MSTORE POP POP PUSH1 0x5 DUP3 ADD SLOAD PUSH1 0x20 DUP1 DUP4 ADD SWAP2 SWAP1 SWAP2 MSTORE PUSH1 0x6 DUP1 DUP5 ADD SLOAD PUSH1 0x40 DUP1 DUP6 ADD SWAP2 SWAP1 SWAP2 MSTORE PUSH1 0x7 DUP6 ADD SLOAD PUSH1 0x1 PUSH1 0x1 PUSH1 0xA0 SHL SUB DUP2 AND PUSH1 0x60 DUP1 DUP8 ADD SWAP2 SWAP1 SWAP2 MSTORE PUSH1 0xFF PUSH1 0x1 PUSH1 0xA0 SHL DUP4 DIV DUP2 AND ISZERO ISZERO PUSH1 0x80 DUP1 DUP10 ADD SWAP2 SWAP1 SWAP2 MSTORE PUSH1 0x1 PUSH1 0xA8 SHL DUP5 DIV DUP3 AND ISZERO ISZERO PUSH1 0xA0 DUP1 DUP11 ADD SWAP2 SWAP1 SWAP2 MSTORE PUSH1 0x1 PUSH1 0xB0 SHL SWAP1 SWAP5 DIV SWAP1 SWAP2 AND ISZERO ISZERO PUSH1 0xC0 DUP1 DUP10 ADD SWAP2 SWAP1 SWAP2 MSTORE PUSH1 0x8 SWAP1 SWAP9 ADD SLOAD PUSH1 0xE0 SWAP1 SWAP8 ADD SWAP7 SWAP1 SWAP7 MSTORE DUP8 DUP6 ADD DUP16 DUP2 MSTORE DUP9 DUP5 ADD DUP16 SWAP1 MSTORE SWAP1 DUP9 ADD DUP14 SWAP1 MSTORE SWAP5 DUP8 ADD DUP12 SWAP1 MSTORE DUP7 ADD DUP10 SWAP1 MSTORE SWAP4 DUP6 ADD DUP8 SWAP1 MSTORE PUSH1 0x0 DUP14 DUP2 MSTORE SWAP2 MSTORE SWAP2 SWAP1 SWAP2 KECCAK256 DUP3 MLOAD DUP2 SSTORE SWAP1 MLOAD SWAP2 SWAP3 POP DUP3 SWAP2 PUSH1 0x1 DUP3 ADD SWAP1 PUSH2 0x1A34 SWAP1 DUP3 PUSH2 0x379F JUMP JUMPDEST POP PUSH1 0x40 DUP3 ADD MLOAD PUSH1 0x2 DUP3 ADD SWAP1 PUSH2 0x1A49 SWAP1 DUP3 PUSH2 0x379F JUMP JUMPDEST POP PUSH1 0x60 DUP3 ADD MLOAD PUSH1 0x3 DUP3 ADD SWAP1 PUSH2 0x1A5E SWAP1 DUP3 PUSH2 0x379F JUMP JUMPDEST POP PUSH1 0x80 DUP3 ADD MLOAD PUSH1 0x4 DUP3 ADD SWAP1 PUSH2 0x1A73 SWAP1 DUP3 PUSH2 0x379F JUMP JUMPDEST POP PUSH1 0xA0 DUP3 ADD MLOAD PUSH1 0x5 DUP3 ADD SSTORE PUSH1 0xC0 DUP3 ADD MLOAD PUSH1 0x6 DUP3 ADD SSTORE PUSH1 0xE0 DUP3 ADD MLOAD PUSH1 0x7 DUP3 ADD DUP1 SLOAD PUSH2 0x100 DUP6 ADD MLOAD PUSH2 0x120 DUP7 ADD MLOAD PUSH2 0x140 DUP8 ADD MLOAD ISZERO ISZERO PUSH1 0x1 PUSH1 0xB0 SHL MUL PUSH1 0xFF PUSH1 0xB0 SHL NOT SWAP2 ISZERO ISZERO PUSH1 0x1 PUSH1 0xA8 SHL MUL SWAP2 SWAP1 SWAP2 AND PUSH2 0xFFFF PUSH1 0xA8 SHL NOT SWAP3 ISZERO ISZERO PUSH1 0x1 PUSH1 0xA0 SHL MUL PUSH1 0x1 PUSH1 0x1 PUSH1 0xA8 SHL SUB NOT SWAP1 SWAP5 AND PUSH1 0x1 PUSH1 0x1 PUSH1 0xA0 SHL SUB SWAP1 SWAP7 AND SWAP6 SWAP1 SWAP6 OR SWAP3 SWAP1 SWAP3 OR AND SWAP3 SWAP1 SWAP3 OR SWAP2 SWAP1 SWAP2 OR SWAP1 SSTORE PUSH2 0x160 SWAP1 SWAP2 ADD MLOAD PUSH1 0x8 SWAP1 SWAP2 ADD SSTORE PUSH1 0x40 MLOAD CALLER SWAP1 DUP10 SWAP1 PUSH32 0x8C1F88CC5FDE6E96B35B272BC40125010157A55A39AE25A74F80275BA7D2BA6E SWAP1 PUSH1 0x0 SWAP1 LOG3 POP POP POP POP POP POP POP POP JUMP JUMPDEST PUSH2 0x1B46 PUSH2 0x2E1C JUMP JUMPDEST PUSH1 0x6 PUSH1 0x0 DUP4 DUP2 MSTORE PUSH1 0x20 ADD SWAP1 DUP2 MSTORE PUSH1 0x20 ADD PUSH1 0x0 KECCAK256 PUSH1 0x40 MLOAD DUP1 PUSH2 0x180 ADD PUSH1 0x40 MSTORE SWAP1 DUP2 PUSH1 0x0 DUP3 ADD SLOAD DUP2 MSTORE PUSH1 0x20 ADD PUSH1 0x1 DUP3 ADD DUP1 SLOAD PUSH2 0x1B7F SWAP1 PUSH2 0x36E8 JUMP JUMPDEST DUP1 PUSH1 0x1F ADD PUSH1 0x20 DUP1 SWAP2 DIV MUL PUSH1 0x20 ADD PUSH1 0x40 MLOAD SWAP1 DUP2 ADD PUSH1 0x40 MSTORE DUP1 SWAP3 SWAP2 SWAP1 DUP2 DUP2 MSTORE PUSH1 0x20 ADD DUP3 DUP1 SLOAD PUSH2 0x1BAB SWAP1 PUSH2 0x36E8 JUMP JUMPDEST DUP1 ISZERO PUSH2 0x1BF8 JUMPI DUP1 PUSH1 0x1F LT PUSH2 0x1BCD JUMPI PUSH2 0x100 DUP1 DUP4 SLOAD DIV MUL DUP4 MSTORE SWAP2 PUSH1 0x20 ADD SWAP2 PUSH2 0x1BF8 JUMP JUMPDEST DUP3 ADD SWAP2 SWAP1 PUSH1 0x0 MSTORE PUSH1 0x20 PUSH1 0x0 KECCAK256 SWAP1 JUMPDEST DUP2 SLOAD DUP2 MSTORE SWAP1 PUSH1 0x1 ADD SWAP1 PUSH1 0x20 ADD DUP1 DUP4 GT PUSH2 0x1BDB JUMPI DUP3 SWAP1 SUB PUSH1 0x1F AND DUP3 ADD SWAP2 JUMPDEST POP POP POP POP POP DUP2 MSTORE PUSH1 0x20 ADD PUSH1 0x2 DUP3 ADD DUP1 SLOAD PUSH2 0x1C11 SWAP1 PUSH2 0x36E8 JUMP JUMPDEST DUP1 PUSH1 0x1F ADD PUSH1 0x20 DUP1 SWAP2 DIV MUL PUSH1 0x20 ADD PUSH1 0x40 MLOAD SWAP1 DUP2 ADD PUSH1 0x40 MSTORE DUP1 SWAP3 SWAP2 SWAP1 DUP2 DUP2 MSTORE PUSH1 0x20 ADD DUP3 DUP1 SLOAD PUSH2 0x1C3D SWAP1 PUSH2 0x36E8 JUMP JUMPDEST DUP1 ISZERO PUSH2 0x1C8A JUMPI DUP1 PUSH1 0x1F LT PUSH2 0x1C5F JUMPI PUSH2 0x100 DUP1 DUP4 SLOAD DIV MUL DUP4 MSTORE SWAP2 PUSH1 0x20 ADD SWAP2 PUSH2 0x1C8A JUMP JUMPDEST DUP3 ADD SWAP2 SWAP1 PUSH1 0x0 MSTORE PUSH1 0x20 PUSH1 0x0 KECCAK256 SWAP1 JUMPDEST DUP2 SLOAD DUP2 MSTORE SWAP1 PUSH1 0x1 ADD SWAP1 PUSH1 0x20 ADD DUP1 DUP4 GT PUSH2 0x1C6D JUMPI DUP3 SWAP1 SUB PUSH1 0x1F AND DUP3 ADD SWAP2 JUMPDEST POP POP POP POP POP DUP2 MSTORE PUSH1 0x20 ADD PUSH1 0x3 DUP3 ADD DUP1 SLOAD PUSH2 0x1CA3 SWAP1 PUSH2 0x36E8 JUMP JUMPDEST DUP1 PUSH1 0x1F ADD PUSH1 0x20 DUP1 SWAP2 DIV MUL PUSH1 0x20 ADD PUSH1 0x40 MLOAD SWAP1 DUP2 ADD PUSH1 0x40 MSTORE DUP1 SWAP3 SWAP2 SWAP1 DUP2 DUP2 MSTORE PUSH1 0x20 ADD DUP3 DUP1 SLOAD PUSH2 0x1CCF SWAP1 PUSH2 0x36E8 JUMP JUMPDEST DUP1 ISZERO PUSH2 0x1D1C JUMPI DUP1 PUSH1 0x1F LT PUSH2 0x1CF1 JUMPI PUSH2 0x100 DUP1 DUP4 SLOAD DIV MUL DUP4 MSTORE SWAP2 PUSH1 0x20 ADD SWAP2 PUSH2 0x1D1C JUMP JUMPDEST DUP3 ADD SWAP2 SWAP1 PUSH1 0x0 MSTORE PUSH1 0x20 PUSH1 0x0 KECCAK256 SWAP1 JUMPDEST DUP2 SLOAD DUP2 MSTORE SWAP1 PUSH1 0x1 ADD SWAP1 PUSH1 0x20 ADD DUP1 DUP4 GT PUSH2 0x1CFF JUMPI DUP3 SWAP1 SUB PUSH1 0x1F AND DUP3 ADD SWAP2 JUMPDEST POP POP POP POP POP DUP2 MSTORE PUSH1 0x20 ADD PUSH1 0x4 DUP3 ADD DUP1 SLOAD PUSH2 0x1D35 SWAP1 PUSH2 0x36E8 JUMP JUMPDEST DUP1 PUSH1 0x1F ADD PUSH1 0x20 DUP1 SWAP2 DIV MUL PUSH1 0x20 ADD PUSH1 0x40 MLOAD SWAP1 DUP2 ADD PUSH1 0x40 MSTORE DUP1 SWAP3 SWAP2 SWAP1 DUP2 DUP2 MSTORE PUSH1 0x20 ADD DUP3 DUP1 SLOAD PUSH2 0x1D61 SWAP1 PUSH2 0x36E8 JUMP JUMPDEST DUP1 ISZERO PUSH2 0x1DAE JUMPI DUP1 PUSH1 0x1F LT PUSH2 0x1D83 JUMPI PUSH2 0x100 DUP1 DUP4 SLOAD DIV MUL DUP4 MSTORE SWAP2 PUSH1 0x20 ADD SWAP2 PUSH2 0x1DAE JUMP JUMPDEST DUP3 ADD SWAP2 SWAP1 PUSH1 0x0 MSTORE PUSH1 0x20 PUSH1 0x0 KECCAK256 SWAP1 JUMPDEST DUP2 SLOAD DUP2 MSTORE SWAP1 PUSH1 0x1 ADD SWAP1 PUSH1 0x20 ADD DUP1 DUP4 GT PUSH2 0x1D91 JUMPI DUP3 SWAP1 SUB PUSH1 0x1F AND DUP3 ADD SWAP2 JUMPDEST POP POP POP SWAP2 DUP4 MSTORE POP POP PUSH1 0x5 DUP3 ADD SLOAD PUSH1 0x20 DUP3 ADD MSTORE PUSH1 0x6 DUP3 ADD SLOAD PUSH1 0x40 DUP3 ADD MSTORE PUSH1 0x7 DUP3 ADD SLOAD PUSH1 0x1 PUSH1 0x1 PUSH1 0xA0 SHL SUB DUP2 AND PUSH1 0x60 DUP4 ADD MSTORE PUSH1 0xFF PUSH1 0x1 PUSH1 0xA0 SHL DUP3 DIV DUP2 AND ISZERO ISZERO PUSH1 0x80 DUP5 ADD MSTORE PUSH1 0x1 PUSH1 0xA8 SHL DUP3 DIV DUP2 AND ISZERO ISZERO PUSH1 0xA0 DUP5 ADD MSTORE PUSH1 0x1 PUSH1 0xB0 SHL SWAP1 SWAP2 DIV AND ISZERO ISZERO PUSH1 0xC0 DUP3 ADD MSTORE PUSH1 0x8 SWAP1 SWAP2 ADD SLOAD PUSH1 0xE0 SWAP1 SWAP2 ADD MSTORE SWAP3 SWAP2 POP POP JUMP JUMPDEST PUSH2 0x1E2A PUSH2 0x2CC3 JUMP JUMPDEST PUSH2 0x1E34 PUSH1 0x0 PUSH2 0x2D1D JUMP JUMPDEST JUMP JUMPDEST PUSH1 0x6 PUSH1 0x20 MSTORE PUSH1 0x0 SWAP1 DUP2 MSTORE PUSH1 0x40 SWAP1 KECCAK256 DUP1 SLOAD PUSH1 0x1 DUP3 ADD DUP1 SLOAD SWAP2 SWAP3 SWAP2 PUSH2 0x1E58 SWAP1 PUSH2 0x36E8 JUMP JUMPDEST DUP1 PUSH1 0x1F ADD PUSH1 0x20 DUP1 SWAP2 DIV MUL PUSH1 0x20 ADD PUSH1 0x40 MLOAD SWAP1 DUP2 ADD PUSH1 0x40 MSTORE DUP1 SWAP3 SWAP2 SWAP1 DUP2 DUP2 MSTORE PUSH1 0x20 ADD DUP3 DUP1 SLOAD PUSH2 0x1E84 SWAP1 PUSH2 0x36E8 JUMP JUMPDEST DUP1 ISZERO PUSH2 0x1ED1 JUMPI DUP1 PUSH1 0x1F LT PUSH2 0x1EA6 JUMPI PUSH2 0x100 DUP1 DUP4 SLOAD DIV MUL DUP4 MSTORE SWAP2 PUSH1 0x20 ADD SWAP2 PUSH2 0x1ED1 JUMP JUMPDEST DUP3 ADD SWAP2 SWAP1 PUSH1 0x0 MSTORE PUSH1 0x20 PUSH1 0x0 KECCAK256 SWAP1 JUMPDEST DUP2 SLOAD DUP2 MSTORE SWAP1 PUSH1 0x1 ADD SWAP1 PUSH1 0x20 ADD DUP1 DUP4 GT PUSH2 0x1EB4 JUMPI DUP3 SWAP1 SUB PUSH1 0x1F AND DUP3 ADD SWAP2 JUMPDEST POP POP POP POP POP SWAP1 DUP1 PUSH1 0x2 ADD DUP1 SLOAD PUSH2 0x1EE6 SWAP1 PUSH2 0x36E8 JUMP JUMPDEST DUP1 PUSH1 0x1F ADD PUSH1 0x20 DUP1 SWAP2 DIV MUL PUSH1 0x20 ADD PUSH1 0x40 MLOAD SWAP1 DUP2 ADD PUSH1 0x40 MSTORE DUP1 SWAP3 SWAP2 SWAP1 DUP2 DUP2 MSTORE PUSH1 0x20 ADD DUP3 DUP1 SLOAD PUSH2 0x1F12 SWAP1 PUSH2 0x36E8 JUMP JUMPDEST DUP1 ISZERO PUSH2 0x1F5F JUMPI DUP1 PUSH1 0x1F LT PUSH2 0x1F34 JUMPI PUSH2 0x100 DUP1 DUP4 SLOAD DIV MUL DUP4 MSTORE SWAP2 PUSH1 0x20 ADD SWAP2 PUSH2 0x1F5F JUMP JUMPDEST DUP3 ADD SWAP2 SWAP1 PUSH1 0x0 MSTORE PUSH1 0x20 PUSH1 0x0 KECCAK256 SWAP1 JUMPDEST DUP2 SLOAD DUP2 MSTORE SWAP1 PUSH1 0x1 ADD SWAP1 PUSH1 0x20 ADD DUP1 DUP4 GT PUSH2 0x1F42 JUMPI DUP3 SWAP1 SUB PUSH1 0x1F AND DUP3 ADD SWAP2 JUMPDEST POP POP POP POP POP SWAP1 DUP1 PUSH1 0x3 ADD DUP1 SLOAD PUSH2 0x1F74 SWAP1 PUSH2 0x36E8 JUMP JUMPDEST DUP1 PUSH1 0x1F ADD PUSH1 0x20 DUP1 SWAP2 DIV MUL PUSH1 0x20 ADD PUSH1 0x40 MLOAD SWAP1 DUP2 ADD PUSH1 0x40 MSTORE DUP1 SWAP3 SWAP2 SWAP1 DUP2 DUP2 MSTORE PUSH1 0x20 ADD DUP3 DUP1 SLOAD PUSH2 0x1FA0 SWAP1 PUSH2 0x36E8 JUMP JUMPDEST DUP1 ISZERO PUSH2 0x1FED JUMPI DUP1 PUSH1 0x1F LT PUSH2 0x1FC2 JUMPI PUSH2 0x100 DUP1 DUP4 SLOAD DIV MUL DUP4 MSTORE SWAP2 PUSH1 0x20 ADD SWAP2 PUSH2 0x1FED JUMP JUMPDEST DUP3 ADD SWAP2 SWAP1 PUSH1 0x0 MSTORE PUSH1 0x20 PUSH1 0x0 KECCAK256 SWAP1 JUMPDEST DUP2 SLOAD DUP2 MSTORE SWAP1 PUSH1 0x1 ADD SWAP1 PUSH1 0x20 ADD DUP1 DUP4 GT PUSH2 0x1FD0 JUMPI DUP3 SWAP1 SUB PUSH1 0x1F AND DUP3 ADD SWAP2 JUMPDEST POP POP POP POP POP SWAP1 DUP1 PUSH1 0x4 ADD DUP1 SLOAD PUSH2 0x2002 SWAP1 PUSH2 0x36E8 JUMP JUMPDEST DUP1 PUSH1 0x1F ADD PUSH1 0x20 DUP1 SWAP2 DIV MUL PUSH1 0x20 ADD PUSH1 0x40 MLOAD SWAP1 DUP2 ADD PUSH1 0x40 MSTORE DUP1 SWAP3 SWAP2 SWAP1 DUP2 DUP2 MSTORE PUSH1 0x20 ADD DUP3 DUP1 SLOAD PUSH2 0x202E SWAP1 PUSH2 0x36E8 JUMP JUMPDEST DUP1 ISZERO PUSH2 0x207B JUMPI DUP1 PUSH1 0x1F LT PUSH2 0x2050 JUMPI PUSH2 0x100 DUP1 DUP4 SLOAD DIV MUL DUP4 MSTORE SWAP2 PUSH1 0x20 ADD SWAP2 PUSH2 0x207B JUMP JUMPDEST DUP3 ADD SWAP2 SWAP1 PUSH1 0x0 MSTORE PUSH1 0x20 PUSH1 0x0 KECCAK256 SWAP1 JUMPDEST DUP2 SLOAD DUP2 MSTORE SWAP1 PUSH1 0x1 ADD SWAP1 PUSH1 0x20 ADD DUP1 DUP4 GT PUSH2 0x205E JUMPI DUP3 SWAP1 SUB PUSH1 0x1F AND DUP3 ADD SWAP2 JUMPDEST POP POP POP PUSH1 0x5 DUP5 ADD SLOAD PUSH1 0x6 DUP6 ADD SLOAD PUSH1 0x7 DUP7 ADD SLOAD PUSH1 0x8 SWAP1 SWAP7 ADD SLOAD SWAP5 SWAP6 SWAP2 SWAP5 SWAP1 SWAP4 POP PUSH1 0x1 PUSH1 0x1 PUSH1 0xA0 SHL SUB DUP3 AND SWAP3 POP PUSH1 0xFF PUSH1 0x1 PUSH1 0xA0 SHL DUP4 DIV DUP2 AND SWAP3 PUSH1 0x1 PUSH1 0xA8 SHL DUP2 DIV DUP3 AND SWAP3 PUSH1 0x1 PUSH1 0xB0 SHL SWAP1 SWAP2 DIV SWAP1 SWAP2 AND SWAP1 DUP13 JUMP JUMPDEST PUSH1 0x8 PUSH1 0x20 MSTORE DUP2 PUSH1 0x0 MSTORE PUSH1 0x40 PUSH1 0x0 KECCAK256 DUP2 DUP2 SLOAD DUP2 LT PUSH2 0x20E7 JUMPI PUSH1 0x0 DUP1 REVERT JUMPDEST SWAP1 PUSH1 0x0 MSTORE PUSH1 0x20 PUSH1 0x0 KECCAK256 SWAP1 PUSH1 0x5 MUL ADD PUSH1 0x0 SWAP2 POP SWAP2 POP POP DUP1 PUSH1 0x0 ADD SLOAD SWAP1 DUP1 PUSH1 0x1 ADD SLOAD SWAP1 DUP1 PUSH1 0x2 ADD DUP1 SLOAD PUSH2 0x2117 SWAP1 PUSH2 0x36E8 JUMP JUMPDEST DUP1 PUSH1 0x1F ADD PUSH1 0x20 DUP1 SWAP2 DIV MUL PUSH1 0x20 ADD PUSH1 0x40 MLOAD SWAP1 DUP2 ADD PUSH1 0x40 MSTORE DUP1 SWAP3 SWAP2 SWAP1 DUP2 DUP2 MSTORE PUSH1 0x20 ADD DUP3 DUP1 SLOAD PUSH2 0x2143 SWAP1 PUSH2 0x36E8 JUMP JUMPDEST DUP1 ISZERO PUSH2 0x2190 JUMPI DUP1 PUSH1 0x1F LT PUSH2 0x2165 JUMPI PUSH2 0x100 DUP1 DUP4 SLOAD DIV MUL DUP4 MSTORE SWAP2 PUSH1 0x20 ADD SWAP2 PUSH2 0x2190 JUMP JUMPDEST DUP3 ADD SWAP2 SWAP1 PUSH1 0x0 MSTORE PUSH1 0x20 PUSH1 0x0 KECCAK256 SWAP1 JUMPDEST DUP2 SLOAD DUP2 MSTORE SWAP1 PUSH1 0x1 ADD SWAP1 PUSH1 0x20 ADD DUP1 DUP4 GT PUSH2 0x2173 JUMPI DUP3 SWAP1 SUB PUSH1 0x1F AND DUP3 ADD SWAP2 JUMPDEST POP POP POP POP PUSH1 0x3 DUP4 ADD SLOAD PUSH1 0x4 SWAP1 SWAP4 ADD SLOAD SWAP2 SWAP3 SWAP2 PUSH1 0x1 PUSH1 0x1 PUSH1 0xA0 SHL SUB AND SWAP1 POP DUP6 JUMP JUMPDEST PUSH1 0x60 PUSH1 0x8 PUSH1 0x0 DUP4 DUP2 MSTORE PUSH1 0x20 ADD SWAP1 DUP2 MSTORE PUSH1 0x20 ADD PUSH1 0x0 KECCAK256 DUP1 SLOAD DUP1 PUSH1 0x20 MUL PUSH1 0x20 ADD PUSH1 0x40 MLOAD SWAP1 DUP2 ADD PUSH1 0x40 MSTORE DUP1 SWAP3 SWAP2 SWAP1 DUP2 DUP2 MSTORE PUSH1 0x20 ADD PUSH1 0x0 SWAP1 JUMPDEST DUP3 DUP3 LT ISZERO PUSH2 0x22E0 JUMPI DUP4 DUP3 SWAP1 PUSH1 0x0 MSTORE PUSH1 0x20 PUSH1 0x0 KECCAK256 SWAP1 PUSH1 0x5 MUL ADD PUSH1 0x40 MLOAD DUP1 PUSH1 0xA0 ADD PUSH1 0x40 MSTORE SWAP1 DUP2 PUSH1 0x0 DUP3 ADD SLOAD DUP2 MSTORE PUSH1 0x20 ADD PUSH1 0x1 DUP3 ADD SLOAD DUP2 MSTORE PUSH1 0x20 ADD PUSH1 0x2 DUP3 ADD DUP1 SLOAD PUSH2 0x222C SWAP1 PUSH2 0x36E8 JUMP JUMPDEST DUP1 PUSH1 0x1F ADD PUSH1 0x20 DUP1 SWAP2 DIV MUL PUSH1 0x20 ADD PUSH1 0x40 MLOAD SWAP1 DUP2 ADD PUSH1 0x40 MSTORE DUP1 SWAP3 SWAP2 SWAP1 DUP2 DUP2 MSTORE PUSH1 0x20 ADD DUP3 DUP1 SLOAD PUSH2 0x2258 SWAP1 PUSH2 0x36E8 JUMP JUMPDEST DUP1 ISZERO PUSH2 0x22A5 JUMPI DUP1 PUSH1 0x1F LT PUSH2 0x227A JUMPI PUSH2 0x100 DUP1 DUP4 SLOAD DIV MUL DUP4 MSTORE SWAP2 PUSH1 0x20 ADD SWAP2 PUSH2 0x22A5 JUMP JUMPDEST DUP3 ADD SWAP2 SWAP1 PUSH1 0x0 MSTORE PUSH1 0x20 PUSH1 0x0 KECCAK256 SWAP1 JUMPDEST DUP2 SLOAD DUP2 MSTORE SWAP1 PUSH1 0x1 ADD SWAP1 PUSH1 0x20 ADD DUP1 DUP4 GT PUSH2 0x2288 JUMPI DUP3 SWAP1 SUB PUSH1 0x1F AND DUP3 ADD SWAP2 JUMPDEST POP POP POP SWAP2 DUP4 MSTORE POP POP PUSH1 0x3 DUP3 ADD SLOAD PUSH1 0x20 DUP1 DUP4 ADD SWAP2 SWAP1 SWAP2 MSTORE PUSH1 0x4 SWAP1 SWAP3 ADD SLOAD PUSH1 0x1 PUSH1 0x1 PUSH1 0xA0 SHL SUB AND PUSH1 0x40 SWAP1 SWAP2 ADD MSTORE SWAP1 DUP3 MSTORE PUSH1 0x1 SWAP3 SWAP1 SWAP3 ADD SWAP2 ADD PUSH2 0x21E5 JUMP JUMPDEST POP POP POP POP SWAP1 POP SWAP2 SWAP1 POP JUMP JUMPDEST PUSH1 0xA PUSH1 0x20 MSTORE DUP2 PUSH1 0x0 MSTORE PUSH1 0x40 PUSH1 0x0 KECCAK256 DUP2 DUP2 SLOAD DUP2 LT PUSH2 0x2307 JUMPI PUSH1 0x0 DUP1 REVERT JUMPDEST SWAP1 PUSH1 0x0 MSTORE PUSH1 0x20 PUSH1 0x0 KECCAK256 ADD PUSH1 0x0 SWAP2 POP SWAP2 POP POP SLOAD DUP2 JUMP JUMPDEST PUSH1 0x0 DUP2 DUP2 MSTORE PUSH1 0x9 PUSH1 0x20 MSTORE PUSH1 0x40 SWAP1 KECCAK256 SLOAD PUSH1 0xFF AND PUSH2 0x234A JUMPI PUSH1 0x40 MLOAD PUSH3 0x461BCD PUSH1 0xE5 SHL DUP2 MSTORE PUSH1 0x4 ADD PUSH2 0x700 SWAP1 PUSH2 0x385F JUMP JUMPDEST PUSH1 0x0 DUP2 DUP2 MSTORE PUSH1 0x6 PUSH1 0x20 MSTORE PUSH1 0x40 SWAP1 KECCAK256 PUSH1 0x7 ADD SLOAD PUSH1 0x1 PUSH1 0x1 PUSH1 0xA0 SHL SUB AND CALLER EQ PUSH2 0x23A9 JUMPI PUSH1 0x40 MLOAD PUSH3 0x461BCD PUSH1 0xE5 SHL DUP2 MSTORE PUSH1 0x20 PUSH1 0x4 DUP3 ADD MSTORE PUSH1 0x13 PUSH1 0x24 DUP3 ADD MSTORE PUSH19 0x556E617574686F72697A656420656E74697479 PUSH1 0x68 SHL PUSH1 0x44 DUP3 ADD MSTORE PUSH1 0x64 ADD PUSH2 0x700 JUMP JUMPDEST PUSH1 0x0 DUP2 DUP2 MSTORE PUSH1 0x9 PUSH1 0x20 SWAP1 DUP2 MSTORE PUSH1 0x40 DUP1 DUP4 KECCAK256 DUP1 SLOAD PUSH1 0xFF NOT AND SWAP1 SSTORE PUSH1 0x6 SWAP1 SWAP2 MSTORE DUP1 DUP3 KECCAK256 PUSH1 0x7 ADD DUP1 SLOAD PUSH1 0xFF PUSH1 0xA8 SHL NOT AND PUSH1 0x1 PUSH1 0xA8 SHL OR SWAP1 SSTORE MLOAD CALLER SWAP2 DUP4 SWAP2 PUSH32 0xD473BFC963D89546BE6B7891F87ADC6E3A54F911CCE733A781C0F4111F34AF74 SWAP2 SWAP1 LOG3 POP JUMP JUMPDEST PUSH1 0x0 DUP2 DUP2 MSTORE PUSH1 0xA PUSH1 0x20 SWAP1 DUP2 MSTORE PUSH1 0x40 SWAP2 DUP3 SWAP1 KECCAK256 DUP1 SLOAD DUP4 MLOAD DUP2 DUP5 MUL DUP2 ADD DUP5 ADD SWAP1 SWAP5 MSTORE DUP1 DUP5 MSTORE PUSH1 0x60 SWAP4 SWAP3 DUP4 ADD DUP3 DUP3 DUP1 ISZERO PUSH2 0x2460 JUMPI PUSH1 0x20 MUL DUP3 ADD SWAP2 SWAP1 PUSH1 0x0 MSTORE PUSH1 0x20 PUSH1 0x0 KECCAK256 SWAP1 JUMPDEST DUP2 SLOAD DUP2 MSTORE PUSH1 0x20 ADD SWAP1 PUSH1 0x1 ADD SWAP1 DUP1 DUP4 GT PUSH2 0x244C JUMPI JUMPDEST POP POP POP POP POP SWAP1 POP SWAP2 SWAP1 POP JUMP JUMPDEST PUSH2 0x2474 PUSH2 0x2D6D JUMP JUMPDEST PUSH1 0x0 DUP4 DUP2 MSTORE PUSH1 0x7 PUSH1 0x20 MSTORE PUSH1 0x40 SWAP1 KECCAK256 DUP1 SLOAD DUP4 SWAP1 DUP2 LT PUSH2 0x2494 JUMPI PUSH2 0x2494 PUSH2 0x3611 JUMP JUMPDEST PUSH1 0x0 SWAP2 DUP3 MSTORE PUSH1 0x20 SWAP1 SWAP2 KECCAK256 PUSH1 0x5 PUSH1 0x6 SWAP1 SWAP3 MUL ADD ADD SLOAD PUSH1 0xFF AND ISZERO PUSH2 0x24C8 JUMPI PUSH1 0x40 MLOAD PUSH3 0x461BCD PUSH1 0xE5 SHL DUP2 MSTORE PUSH1 0x4 ADD PUSH2 0x700 SWAP1 PUSH2 0x3627 JUMP JUMPDEST PUSH1 0x0 SLOAD PUSH1 0x1 PUSH1 0x1 PUSH1 0xA0 SHL SUB AND CALLER EQ PUSH2 0x25F0 JUMPI PUSH1 0x0 DUP4 DUP2 MSTORE PUSH1 0x7 PUSH1 0x20 MSTORE PUSH1 0x40 SWAP1 KECCAK256 DUP1 SLOAD DUP4 SWAP1 DUP2 LT PUSH2 0x24FA JUMPI PUSH2 0x24FA PUSH2 0x3611 JUMP JUMPDEST PUSH1 0x0 SWAP2 DUP3 MSTORE PUSH1 0x20 SWAP1 SWAP2 KECCAK256 PUSH1 0x6 SWAP1 SWAP2 MUL ADD PUSH1 0x1 ADD SLOAD PUSH1 0x1 PUSH1 0x1 PUSH1 0xA0 SHL SUB AND CALLER EQ PUSH2 0x255B JUMPI PUSH1 0x40 MLOAD PUSH3 0x461BCD PUSH1 0xE5 SHL DUP2 MSTORE PUSH1 0x20 PUSH1 0x4 DUP3 ADD MSTORE PUSH1 0x13 PUSH1 0x24 DUP3 ADD MSTORE PUSH19 0x155B985D5D1A1BDC9A5E9959081D195B985B9D PUSH1 0x6A SHL PUSH1 0x44 DUP3 ADD MSTORE PUSH1 0x64 ADD PUSH2 0x700 JUMP JUMPDEST PUSH1 0x0 DUP4 DUP2 MSTORE PUSH1 0x7 PUSH1 0x20 MSTORE PUSH1 0x40 SWAP1 KECCAK256 DUP1 SLOAD TIMESTAMP SWAP2 SWAP1 DUP5 SWAP1 DUP2 LT PUSH2 0x257E JUMPI PUSH2 0x257E PUSH2 0x3611 JUMP JUMPDEST SWAP1 PUSH1 0x0 MSTORE PUSH1 0x20 PUSH1 0x0 KECCAK256 SWAP1 PUSH1 0x6 MUL ADD PUSH1 0x2 ADD SLOAD GT PUSH2 0x25F0 JUMPI PUSH1 0x40 MLOAD PUSH3 0x461BCD PUSH1 0xE5 SHL DUP2 MSTORE PUSH1 0x20 PUSH1 0x4 DUP3 ADD MSTORE PUSH1 0x2A PUSH1 0x24 DUP3 ADD MSTORE PUSH32 0x43616E206E6F206C6F6E67657220726566756E642C20626F6F6B696E67206461 PUSH1 0x44 DUP3 ADD MSTORE PUSH10 0x1D19481CDD185C9D1959 PUSH1 0xB2 SHL PUSH1 0x64 DUP3 ADD MSTORE PUSH1 0x84 ADD PUSH2 0x700 JUMP JUMPDEST PUSH1 0x0 DUP4 DUP2 MSTORE PUSH1 0x7 PUSH1 0x20 MSTORE PUSH1 0x40 SWAP1 KECCAK256 DUP1 SLOAD PUSH1 0x1 SWAP2 SWAP1 DUP5 SWAP1 DUP2 LT PUSH2 0x2614 JUMPI PUSH2 0x2614 PUSH2 0x3611 JUMP JUMPDEST PUSH1 0x0 SWAP2 DUP3 MSTORE PUSH1 0x20 DUP1 DUP4 KECCAK256 PUSH1 0x5 PUSH1 0x6 SWAP1 SWAP4 MUL ADD SWAP2 SWAP1 SWAP2 ADD DUP1 SLOAD SWAP4 ISZERO ISZERO PUSH2 0x100 MUL PUSH2 0xFF00 NOT SWAP1 SWAP5 AND SWAP4 SWAP1 SWAP4 OR SWAP1 SWAP3 SSTORE DUP5 DUP2 MSTORE PUSH1 0xB DUP3 MSTORE PUSH1 0x40 DUP1 DUP3 KECCAK256 DUP5 DUP4 MSTORE DUP4 MSTORE DUP1 DUP3 KECCAK256 DUP1 SLOAD PUSH1 0xFF NOT AND SWAP1 SSTORE DUP6 DUP3 MSTORE PUSH1 0xA SWAP1 SWAP3 MSTORE SWAP1 DUP2 KECCAK256 SLOAD PUSH2 0x2675 SWAP1 PUSH1 0x1 SWAP1 PUSH2 0x36BC JUMP JUMPDEST PUSH1 0x0 DUP6 DUP2 MSTORE PUSH1 0xA PUSH1 0x20 MSTORE PUSH1 0x40 DUP2 KECCAK256 DUP1 SLOAD SWAP3 SWAP4 POP SWAP1 SWAP2 DUP4 SWAP1 DUP2 LT PUSH2 0x269A JUMPI PUSH2 0x269A PUSH2 0x3611 JUMP JUMPDEST SWAP1 PUSH1 0x0 MSTORE PUSH1 0x20 PUSH1 0x0 KECCAK256 ADD SLOAD SWAP1 POP DUP1 PUSH1 0xA PUSH1 0x0 DUP8 DUP2 MSTORE PUSH1 0x20 ADD SWAP1 DUP2 MSTORE PUSH1 0x20 ADD PUSH1 0x0 KECCAK256 DUP6 DUP2 SLOAD DUP2 LT PUSH2 0x26CC JUMPI PUSH2 0x26CC PUSH2 0x3611 JUMP JUMPDEST SWAP1 PUSH1 0x0 MSTORE PUSH1 0x20 PUSH1 0x0 KECCAK256 ADD DUP2 SWAP1 SSTORE POP PUSH1 0xA PUSH1 0x0 DUP7 DUP2 MSTORE PUSH1 0x20 ADD SWAP1 DUP2 MSTORE PUSH1 0x20 ADD PUSH1 0x0 KECCAK256 DUP1 SLOAD DUP1 PUSH2 0x26FC JUMPI PUSH2 0x26FC PUSH2 0x388C JUMP JUMPDEST PUSH1 0x1 SWAP1 SUB DUP2 DUP2 SWAP1 PUSH1 0x0 MSTORE PUSH1 0x20 PUSH1 0x0 KECCAK256 ADD PUSH1 0x0 SWAP1 SSTORE SWAP1 SSTORE PUSH1 0x0 PUSH1 0x7 PUSH1 0x0 DUP8 DUP2 MSTORE PUSH1 0x20 ADD SWAP1 DUP2 MSTORE PUSH1 0x20 ADD PUSH1 0x0 KECCAK256 DUP6 DUP2 SLOAD DUP2 LT PUSH2 0x2738 JUMPI PUSH2 0x2738 PUSH2 0x3611 JUMP JUMPDEST SWAP1 PUSH1 0x0 MSTORE PUSH1 0x20 PUSH1 0x0 KECCAK256 SWAP1 PUSH1 0x6 MUL ADD PUSH1 0x4 ADD SLOAD SWAP1 POP PUSH1 0x0 PUSH1 0x64 PUSH1 0x5 SLOAD PUSH1 0x4 SLOAD PUSH2 0x2760 SWAP2 SWAP1 PUSH2 0x3683 JUMP JUMPDEST PUSH2 0x276A SWAP2 SWAP1 PUSH2 0x369A JUMP JUMPDEST PUSH1 0x0 DUP9 DUP2 MSTORE PUSH1 0x6 PUSH1 0x20 MSTORE PUSH1 0x40 SWAP1 KECCAK256 PUSH1 0x7 ADD SLOAD PUSH1 0x4 SLOAD SWAP2 SWAP3 POP PUSH2 0x279D SWAP2 PUSH1 0x1 PUSH1 0x1 PUSH1 0xA0 SHL SUB SWAP1 SWAP2 AND SWAP1 PUSH2 0x7D9 SWAP1 DUP5 SWAP1 PUSH2 0x36BC JUMP JUMPDEST PUSH2 0x27B2 PUSH2 0x7F3 PUSH1 0x0 SLOAD PUSH1 0x1 PUSH1 0x1 PUSH1 0xA0 SHL SUB AND SWAP1 JUMP JUMPDEST PUSH2 0x27BC CALLER DUP4 PUSH2 0x2C2F JUMP JUMPDEST PUSH1 0x40 MLOAD DUP7 DUP2 MSTORE CALLER SWAP1 DUP9 SWAP1 PUSH32 0xEE23823014AF21A0665780B9DD21B7F1E277276946BACFB1475ED82F18B30C85 SWAP1 PUSH1 0x20 ADD PUSH1 0x40 MLOAD DUP1 SWAP2 SUB SWAP1 LOG3 POP POP POP POP PUSH2 0x2800 PUSH1 0x1 DUP1 SSTORE JUMP JUMPDEST POP POP POP JUMP JUMPDEST PUSH2 0x280D PUSH2 0x2D6D JUMP JUMPDEST PUSH1 0x0 DUP4 DUP2 MSTORE PUSH1 0x9 PUSH1 0x20 MSTORE PUSH1 0x40 SWAP1 KECCAK256 SLOAD PUSH1 0xFF AND PUSH2 0x283B JUMPI PUSH1 0x40 MLOAD PUSH3 0x461BCD PUSH1 0xE5 SHL DUP2 MSTORE PUSH1 0x4 ADD PUSH2 0x700 SWAP1 PUSH2 0x385F JUMP JUMPDEST PUSH1 0x4 SLOAD PUSH2 0x2848 DUP4 DUP4 PUSH2 0x36BC JUMP JUMPDEST PUSH2 0x2853 SWAP1 PUSH1 0x1 PUSH2 0x38A2 JUMP JUMPDEST PUSH1 0x0 DUP6 DUP2 MSTORE PUSH1 0x6 PUSH1 0x20 DUP2 SWAP1 MSTORE PUSH1 0x40 SWAP1 SWAP2 KECCAK256 ADD SLOAD PUSH2 0x2870 SWAP2 SWAP1 PUSH2 0x3683 JUMP JUMPDEST PUSH2 0x287A SWAP2 SWAP1 PUSH2 0x38A2 JUMP JUMPDEST CALLVALUE LT ISZERO PUSH2 0x28BD JUMPI PUSH1 0x40 MLOAD PUSH3 0x461BCD PUSH1 0xE5 SHL DUP2 MSTORE PUSH1 0x20 PUSH1 0x4 DUP3 ADD MSTORE PUSH1 0x11 PUSH1 0x24 DUP3 ADD MSTORE PUSH17 0x125B9CDD59999A58DA595B9D08199D5B99 PUSH1 0x7A SHL PUSH1 0x44 DUP3 ADD MSTORE PUSH1 0x64 ADD PUSH2 0x700 JUMP JUMPDEST PUSH2 0x28C8 DUP4 DUP4 DUP4 PUSH2 0x2DC6 JUMP JUMPDEST PUSH2 0x2914 JUMPI PUSH1 0x40 MLOAD PUSH3 0x461BCD PUSH1 0xE5 SHL DUP2 MSTORE PUSH1 0x20 PUSH1 0x4 DUP3 ADD MSTORE PUSH1 0x1D PUSH1 0x24 DUP3 ADD MSTORE PUSH32 0x426F6F6B6564206461746520666F756E6420616D6F6E67206461746573000000 PUSH1 0x44 DUP3 ADD MSTORE PUSH1 0x64 ADD PUSH2 0x700 JUMP JUMPDEST DUP2 JUMPDEST DUP2 DUP2 GT PUSH2 0x2A69 JUMPI PUSH2 0x2925 PUSH2 0x2E8C JUMP JUMPDEST PUSH1 0x0 DUP6 DUP2 MSTORE PUSH1 0x7 PUSH1 0x20 SWAP1 DUP2 MSTORE PUSH1 0x40 SWAP2 DUP3 SWAP1 KECCAK256 SLOAD DUP4 MSTORE CALLER SWAP1 DUP4 ADD MSTORE DUP2 ADD DUP5 SWAP1 MSTORE PUSH1 0x60 DUP2 ADD DUP4 SWAP1 MSTORE PUSH2 0x2955 DUP5 DUP5 PUSH2 0x36BC JUMP JUMPDEST PUSH2 0x2960 SWAP1 PUSH1 0x1 PUSH2 0x38A2 JUMP JUMPDEST PUSH1 0x0 DUP7 DUP2 MSTORE PUSH1 0x6 PUSH1 0x20 DUP2 SWAP1 MSTORE PUSH1 0x40 SWAP1 SWAP2 KECCAK256 ADD SLOAD PUSH2 0x297D SWAP2 SWAP1 PUSH2 0x3683 JUMP JUMPDEST PUSH1 0x80 DUP3 ADD SWAP1 DUP2 MSTORE PUSH1 0x0 DUP7 DUP2 MSTORE PUSH1 0x7 PUSH1 0x20 SWAP1 DUP2 MSTORE PUSH1 0x40 DUP1 DUP4 KECCAK256 DUP1 SLOAD PUSH1 0x1 DUP1 DUP3 ADD DUP4 SSTORE SWAP2 DUP6 MSTORE DUP4 DUP6 KECCAK256 DUP8 MLOAD PUSH1 0x6 SWAP1 SWAP3 MUL ADD SWAP1 DUP2 SSTORE DUP4 DUP8 ADD MLOAD DUP2 DUP4 ADD DUP1 SLOAD PUSH1 0x1 PUSH1 0x1 PUSH1 0xA0 SHL SUB NOT AND PUSH1 0x1 PUSH1 0x1 PUSH1 0xA0 SHL SUB SWAP1 SWAP3 AND SWAP2 SWAP1 SWAP2 OR SWAP1 SSTORE DUP3 DUP8 ADD MLOAD PUSH1 0x2 DUP3 ADD SSTORE PUSH1 0x60 DUP8 ADD MLOAD PUSH1 0x3 DUP3 ADD SSTORE SWAP5 MLOAD PUSH1 0x4 DUP7 ADD SSTORE PUSH1 0xA0 DUP7 ADD MLOAD PUSH1 0x5 SWAP1 SWAP6 ADD DUP1 SLOAD PUSH1 0xC0 SWAP1 SWAP8 ADD MLOAD PUSH2 0xFFFF NOT SWAP1 SWAP8 AND SWAP6 ISZERO ISZERO PUSH2 0xFF00 NOT AND SWAP6 SWAP1 SWAP6 OR PUSH2 0x100 SWAP7 ISZERO ISZERO SWAP7 SWAP1 SWAP7 MUL SWAP6 SWAP1 SWAP6 OR SWAP1 SWAP4 SSTORE DUP8 DUP3 MSTORE PUSH1 0xB DUP2 MSTORE DUP3 DUP3 KECCAK256 DUP6 DUP4 MSTORE DUP2 MSTORE DUP3 DUP3 KECCAK256 DUP1 SLOAD PUSH1 0xFF NOT AND DUP6 OR SWAP1 SSTORE DUP8 DUP3 MSTORE PUSH1 0xA DUP2 MSTORE SWAP2 DUP2 KECCAK256 DUP1 SLOAD SWAP4 DUP5 ADD DUP2 SSTORE DUP2 MSTORE KECCAK256 ADD DUP2 SWAP1 SSTORE DUP1 PUSH2 0x2A61 DUP2 PUSH2 0x36CF JUMP JUMPDEST SWAP2 POP POP PUSH2 0x2916 JUMP JUMPDEST POP PUSH1 0x40 DUP1 MLOAD DUP4 DUP2 MSTORE PUSH1 0x20 DUP2 ADD DUP4 SWAP1 MSTORE CALLER SWAP2 DUP6 SWAP2 PUSH32 0xFD1C7562D632AD1F2EB1D3D73D9D9B803CE2A893C16FDC9D21C3DA272E6A8C85 SWAP2 ADD PUSH1 0x40 MLOAD DUP1 SWAP2 SUB SWAP1 LOG3 PUSH2 0x2800 PUSH1 0x1 DUP1 SSTORE JUMP JUMPDEST PUSH2 0x2AB8 PUSH2 0x2CC3 JUMP JUMPDEST PUSH1 0x5 SSTORE JUMP JUMPDEST PUSH2 0x2AC5 PUSH2 0x2CC3 JUMP JUMPDEST PUSH1 0x1 PUSH1 0x1 PUSH1 0xA0 SHL SUB DUP2 AND PUSH2 0x2B2A JUMPI PUSH1 0x40 MLOAD PUSH3 0x461BCD PUSH1 0xE5 SHL DUP2 MSTORE PUSH1 0x20 PUSH1 0x4 DUP3 ADD MSTORE PUSH1 0x26 PUSH1 0x24 DUP3 ADD MSTORE PUSH32 0x4F776E61626C653A206E6577206F776E657220697320746865207A65726F2061 PUSH1 0x44 DUP3 ADD MSTORE PUSH6 0x646472657373 PUSH1 0xD0 SHL PUSH1 0x64 DUP3 ADD MSTORE PUSH1 0x84 ADD PUSH2 0x700 JUMP JUMPDEST PUSH2 0x2B33 DUP2 PUSH2 0x2D1D JUMP JUMPDEST POP JUMP JUMPDEST PUSH1 0x60 PUSH1 0x7 PUSH1 0x0 DUP4 DUP2 MSTORE PUSH1 0x20 ADD SWAP1 DUP2 MSTORE PUSH1 0x20 ADD PUSH1 0x0 KECCAK256 DUP1 SLOAD DUP1 PUSH1 0x20 MUL PUSH1 0x20 ADD PUSH1 0x40 MLOAD SWAP1 DUP2 ADD PUSH1 0x40 MSTORE DUP1 SWAP3 SWAP2 SWAP1 DUP2 DUP2 MSTORE PUSH1 0x20 ADD PUSH1 0x0 SWAP1 JUMPDEST DUP3 DUP3 LT ISZERO PUSH2 0x22E0 JUMPI PUSH1 0x0 DUP5 DUP2 MSTORE PUSH1 0x20 SWAP1 DUP2 SWAP1 KECCAK256 PUSH1 0x40 DUP1 MLOAD PUSH1 0xE0 DUP2 ADD DUP3 MSTORE PUSH1 0x6 DUP7 MUL SWAP1 SWAP3 ADD DUP1 SLOAD DUP4 MSTORE PUSH1 0x1 DUP1 DUP3 ADD SLOAD PUSH1 0x1 PUSH1 0x1 PUSH1 0xA0 SHL SUB AND DUP5 DUP7 ADD MSTORE PUSH1 0x2 DUP3 ADD SLOAD SWAP3 DUP5 ADD SWAP3 SWAP1 SWAP3 MSTORE PUSH1 0x3 DUP2 ADD SLOAD PUSH1 0x60 DUP5 ADD MSTORE PUSH1 0x4 DUP2 ADD SLOAD PUSH1 0x80 DUP5 ADD MSTORE PUSH1 0x5 ADD SLOAD PUSH1 0xFF DUP1 DUP3 AND ISZERO ISZERO PUSH1 0xA0 DUP6 ADD MSTORE PUSH2 0x100 SWAP1 SWAP2 DIV AND ISZERO ISZERO PUSH1 0xC0 DUP4 ADD MSTORE SWAP1 DUP4 MSTORE SWAP1 SWAP3 ADD SWAP2 ADD PUSH2 0x2B6B JUMP JUMPDEST PUSH1 0x0 DUP3 DUP2 MSTORE PUSH1 0x7 PUSH1 0x20 MSTORE PUSH1 0x40 DUP2 KECCAK256 DUP1 SLOAD TIMESTAMP SWAP2 SWAP1 DUP5 SWAP1 DUP2 LT PUSH2 0x2C14 JUMPI PUSH2 0x2C14 PUSH2 0x3611 JUMP JUMPDEST SWAP1 PUSH1 0x0 MSTORE PUSH1 0x20 PUSH1 0x0 KECCAK256 SWAP1 PUSH1 0x6 MUL ADD PUSH1 0x2 ADD SLOAD LT SWAP1 POP SWAP3 SWAP2 POP POP JUMP JUMPDEST PUSH1 0x0 DUP3 PUSH1 0x1 PUSH1 0x1 PUSH1 0xA0 SHL SUB AND DUP3 PUSH1 0x40 MLOAD PUSH1 0x0 PUSH1 0x40 MLOAD DUP1 DUP4 SUB DUP2 DUP6 DUP8 GAS CALL SWAP3 POP POP POP RETURNDATASIZE DUP1 PUSH1 0x0 DUP2 EQ PUSH2 0x2C7C JUMPI PUSH1 0x40 MLOAD SWAP2 POP PUSH1 0x1F NOT PUSH1 0x3F RETURNDATASIZE ADD AND DUP3 ADD PUSH1 0x40 MSTORE RETURNDATASIZE DUP3 MSTORE RETURNDATASIZE PUSH1 0x0 PUSH1 0x20 DUP5 ADD RETURNDATACOPY PUSH2 0x2C81 JUMP JUMPDEST PUSH1 0x60 SWAP2 POP JUMPDEST POP POP SWAP1 POP DUP1 PUSH2 0x2800 JUMPI PUSH1 0x40 MLOAD PUSH3 0x461BCD PUSH1 0xE5 SHL DUP2 MSTORE PUSH1 0x20 PUSH1 0x4 DUP3 ADD MSTORE PUSH1 0xE PUSH1 0x24 DUP3 ADD MSTORE PUSH14 0x14185E5B595B9D0819985A5B1959 PUSH1 0x92 SHL PUSH1 0x44 DUP3 ADD MSTORE PUSH1 0x64 ADD PUSH2 0x700 JUMP JUMPDEST PUSH1 0x0 SLOAD PUSH1 0x1 PUSH1 0x1 PUSH1 0xA0 SHL SUB AND CALLER EQ PUSH2 0x1E34 JUMPI PUSH1 0x40 MLOAD PUSH3 0x461BCD PUSH1 0xE5 SHL DUP2 MSTORE PUSH1 0x20 PUSH1 0x4 DUP3 ADD DUP2 SWAP1 MSTORE PUSH1 0x24 DUP3 ADD MSTORE PUSH32 0x4F776E61626C653A2063616C6C6572206973206E6F7420746865206F776E6572 PUSH1 0x44 DUP3 ADD MSTORE PUSH1 0x64 ADD PUSH2 0x700 JUMP JUMPDEST PUSH1 0x0 DUP1 SLOAD PUSH1 0x1 PUSH1 0x1 PUSH1 0xA0 SHL SUB DUP4 DUP2 AND PUSH1 0x1 PUSH1 0x1 PUSH1 0xA0 SHL SUB NOT DUP4 AND DUP2 OR DUP5 SSTORE PUSH1 0x40 MLOAD SWAP2 SWAP1 SWAP3 AND SWAP3 DUP4 SWAP2 PUSH32 0x8BE0079C531659141344CD1FD0A4F28419497F9722A3DAAFE3B4186F6B6457E0 SWAP2 SWAP1 LOG3 POP POP JUMP JUMPDEST PUSH1 0x2 PUSH1 0x1 SLOAD SUB PUSH2 0x2DBF JUMPI PUSH1 0x40 MLOAD PUSH3 0x461BCD PUSH1 0xE5 SHL DUP2 MSTORE PUSH1 0x20 PUSH1 0x4 DUP3 ADD MSTORE PUSH1 0x1F PUSH1 0x24 DUP3 ADD MSTORE PUSH32 0x5265656E7472616E637947756172643A207265656E7472616E742063616C6C00 PUSH1 0x44 DUP3 ADD MSTORE PUSH1 0x64 ADD PUSH2 0x700 JUMP JUMPDEST PUSH1 0x2 PUSH1 0x1 SSTORE JUMP JUMPDEST PUSH1 0x0 DUP3 JUMPDEST DUP3 DUP2 GT PUSH2 0x2E0F JUMPI PUSH1 0x0 DUP6 DUP2 MSTORE PUSH1 0xB PUSH1 0x20 SWAP1 DUP2 MSTORE PUSH1 0x40 DUP1 DUP4 KECCAK256 DUP5 DUP5 MSTORE SWAP1 SWAP2 MSTORE SWAP1 KECCAK256 SLOAD PUSH1 0xFF AND ISZERO PUSH2 0x2DFD JUMPI PUSH1 0x0 SWAP2 POP POP PUSH2 0x2E15 JUMP JUMPDEST DUP1 PUSH2 0x2E07 DUP2 PUSH2 0x36CF JUMP JUMPDEST SWAP2 POP POP PUSH2 0x2DCA JUMP JUMPDEST POP PUSH1 0x1 SWAP1 POP JUMPDEST SWAP4 SWAP3 POP POP POP JUMP JUMPDEST PUSH1 0x40 MLOAD DUP1 PUSH2 0x180 ADD PUSH1 0x40 MSTORE DUP1 PUSH1 0x0 DUP2 MSTORE PUSH1 0x20 ADD PUSH1 0x60 DUP2 MSTORE PUSH1 0x20 ADD PUSH1 0x60 DUP2 MSTORE PUSH1 0x20 ADD PUSH1 0x60 DUP2 MSTORE PUSH1 0x20 ADD PUSH1 0x60 DUP2 MSTORE PUSH1 0x20 ADD PUSH1 0x0 DUP2 MSTORE PUSH1 0x20 ADD PUSH1 0x0 DUP2 MSTORE PUSH1 0x20 ADD PUSH1 0x0 PUSH1 0x1 PUSH1 0x1 PUSH1 0xA0 SHL SUB AND DUP2 MSTORE PUSH1 0x20 ADD PUSH1 0x0 ISZERO ISZERO DUP2 MSTORE PUSH1 0x20 ADD PUSH1 0x0 ISZERO ISZERO DUP2 MSTORE PUSH1 0x20 ADD PUSH1 0x0 ISZERO ISZERO DUP2 MSTORE PUSH1 0x20 ADD PUSH1 0x0 DUP2 MSTORE POP SWAP1 JUMP JUMPDEST PUSH1 0x40 MLOAD DUP1 PUSH1 0xE0 ADD PUSH1 0x40 MSTORE DUP1 PUSH1 0x0 DUP2 MSTORE PUSH1 0x20 ADD PUSH1 0x0 PUSH1 0x1 PUSH1 0x1 PUSH1 0xA0 SHL SUB AND DUP2 MSTORE PUSH1 0x20 ADD PUSH1 0x0 DUP2 MSTORE PUSH1 0x20 ADD PUSH1 0x0 DUP2 MSTORE PUSH1 0x20 ADD PUSH1 0x0 DUP2 MSTORE PUSH1 0x20 ADD PUSH1 0x0 ISZERO ISZERO DUP2 MSTORE PUSH1 0x20 ADD PUSH1 0x0 ISZERO ISZERO DUP2 MSTORE POP SWAP1 JUMP JUMPDEST PUSH1 0x0 DUP1 PUSH1 0x40 DUP4 DUP6 SUB SLT ISZERO PUSH2 0x2EE9 JUMPI PUSH1 0x0 DUP1 REVERT JUMPDEST POP POP DUP1 CALLDATALOAD SWAP3 PUSH1 0x20 SWAP1 SWAP2 ADD CALLDATALOAD SWAP2 POP JUMP JUMPDEST PUSH1 0x0 DUP2 MLOAD DUP1 DUP5 MSTORE PUSH1 0x0 JUMPDEST DUP2 DUP2 LT ISZERO PUSH2 0x2F1E JUMPI PUSH1 0x20 DUP2 DUP6 ADD DUP2 ADD MLOAD DUP7 DUP4 ADD DUP3 ADD MSTORE ADD PUSH2 0x2F02 JUMP JUMPDEST POP PUSH1 0x0 PUSH1 0x20 DUP3 DUP7 ADD ADD MSTORE PUSH1 0x20 PUSH1 0x1F NOT PUSH1 0x1F DUP4 ADD AND DUP6 ADD ADD SWAP2 POP POP SWAP3 SWAP2 POP POP JUMP JUMPDEST PUSH1 0x0 PUSH2 0x180 DUP3 MLOAD DUP5 MSTORE PUSH1 0x20 DUP4 ADD MLOAD DUP2 PUSH1 0x20 DUP7 ADD MSTORE PUSH2 0x2F5E DUP3 DUP7 ADD DUP3 PUSH2 0x2EF8 JUMP JUMPDEST SWAP2 POP POP PUSH1 0x40 DUP4 ADD MLOAD DUP5 DUP3 SUB PUSH1 0x40 DUP7 ADD MSTORE PUSH2 0x2F78 DUP3 DUP3 PUSH2 0x2EF8 JUMP JUMPDEST SWAP2 POP POP PUSH1 0x60 DUP4 ADD MLOAD DUP5 DUP3 SUB PUSH1 0x60 DUP7 ADD MSTORE PUSH2 0x2F92 DUP3 DUP3 PUSH2 0x2EF8 JUMP JUMPDEST SWAP2 POP POP PUSH1 0x80 DUP4 ADD MLOAD DUP5 DUP3 SUB PUSH1 0x80 DUP7 ADD MSTORE PUSH2 0x2FAC DUP3 DUP3 PUSH2 0x2EF8 JUMP JUMPDEST SWAP2 POP POP PUSH1 0xA0 DUP4 ADD MLOAD PUSH1 0xA0 DUP6 ADD MSTORE PUSH1 0xC0 DUP4 ADD MLOAD PUSH1 0xC0 DUP6 ADD MSTORE PUSH1 0xE0 DUP4 ADD MLOAD PUSH2 0x2FDD PUSH1 0xE0 DUP7 ADD DUP3 PUSH1 0x1 PUSH1 0x1 PUSH1 0xA0 SHL SUB AND SWAP1 MSTORE JUMP JUMPDEST POP PUSH2 0x100 DUP4 DUP2 ADD MLOAD ISZERO ISZERO SWAP1 DUP6 ADD MSTORE PUSH2 0x120 DUP1 DUP5 ADD MLOAD ISZERO ISZERO SWAP1 DUP6 ADD MSTORE PUSH2 0x140 DUP1 DUP5 ADD MLOAD ISZERO ISZERO SWAP1 DUP6 ADD MSTORE PUSH2 0x160 SWAP3 DUP4 ADD MLOAD SWAP3 SWAP1 SWAP4 ADD SWAP2 SWAP1 SWAP2 MSTORE POP SWAP1 JUMP JUMPDEST PUSH1 0x0 PUSH1 0x20 DUP1 DUP4 ADD DUP2 DUP5 MSTORE DUP1 DUP6 MLOAD DUP1 DUP4 MSTORE PUSH1 0x40 DUP7 ADD SWAP2 POP PUSH1 0x40 DUP2 PUSH1 0x5 SHL DUP8 ADD ADD SWAP3 POP DUP4 DUP8 ADD PUSH1 0x0 JUMPDEST DUP3 DUP2 LT ISZERO PUSH2 0x306D JUMPI PUSH1 0x3F NOT DUP9 DUP7 SUB ADD DUP5 MSTORE PUSH2 0x305B DUP6 DUP4 MLOAD PUSH2 0x2F3E JUMP JUMPDEST SWAP5 POP SWAP3 DUP6 ADD SWAP3 SWAP1 DUP6 ADD SWAP1 PUSH1 0x1 ADD PUSH2 0x303F JUMP JUMPDEST POP SWAP3 SWAP8 SWAP7 POP POP POP POP POP POP POP JUMP JUMPDEST PUSH4 0x4E487B71 PUSH1 0xE0 SHL PUSH1 0x0 MSTORE PUSH1 0x41 PUSH1 0x4 MSTORE PUSH1 0x24 PUSH1 0x0 REVERT JUMPDEST PUSH1 0x0 DUP3 PUSH1 0x1F DUP4 ADD SLT PUSH2 0x30A1 JUMPI PUSH1 0x0 DUP1 REVERT JUMPDEST DUP2 CALLDATALOAD PUSH8 0xFFFFFFFFFFFFFFFF DUP1 DUP3 GT ISZERO PUSH2 0x30BC JUMPI PUSH2 0x30BC PUSH2 0x307A JUMP JUMPDEST PUSH1 0x40 MLOAD PUSH1 0x1F DUP4 ADD PUSH1 0x1F NOT SWAP1 DUP2 AND PUSH1 0x3F ADD AND DUP2 ADD SWAP1 DUP3 DUP3 GT DUP2 DUP4 LT OR ISZERO PUSH2 0x30E4 JUMPI PUSH2 0x30E4 PUSH2 0x307A JUMP JUMPDEST DUP2 PUSH1 0x40 MSTORE DUP4 DUP2 MSTORE DUP7 PUSH1 0x20 DUP6 DUP9 ADD ADD GT ISZERO PUSH2 0x30FD JUMPI PUSH1 0x0 DUP1 REVERT JUMPDEST DUP4 PUSH1 0x20 DUP8 ADD PUSH1 0x20 DUP4 ADD CALLDATACOPY PUSH1 0x0 PUSH1 0x20 DUP6 DUP4 ADD ADD MSTORE DUP1 SWAP5 POP POP POP POP POP SWAP3 SWAP2 POP POP JUMP JUMPDEST PUSH1 0x0 DUP1 PUSH1 0x0 DUP1 PUSH1 0x0 DUP1 PUSH1 0xC0 DUP8 DUP10 SUB SLT ISZERO PUSH2 0x3136 JUMPI PUSH1 0x0 DUP1 REVERT JUMPDEST DUP7 CALLDATALOAD PUSH8 0xFFFFFFFFFFFFFFFF DUP1 DUP3 GT ISZERO PUSH2 0x314E JUMPI PUSH1 0x0 DUP1 REVERT JUMPDEST PUSH2 0x315A DUP11 DUP4 DUP12 ADD PUSH2 0x3090 JUMP JUMPDEST SWAP8 POP PUSH1 0x20 DUP10 ADD CALLDATALOAD SWAP2 POP DUP1 DUP3 GT ISZERO PUSH2 0x3170 JUMPI PUSH1 0x0 DUP1 REVERT JUMPDEST PUSH2 0x317C DUP11 DUP4 DUP12 ADD PUSH2 0x3090 JUMP JUMPDEST SWAP7 POP PUSH1 0x40 DUP10 ADD CALLDATALOAD SWAP2 POP DUP1 DUP3 GT ISZERO PUSH2 0x3192 JUMPI PUSH1 0x0 DUP1 REVERT JUMPDEST PUSH2 0x319E DUP11 DUP4 DUP12 ADD PUSH2 0x3090 JUMP JUMPDEST SWAP6 POP PUSH1 0x60 DUP10 ADD CALLDATALOAD SWAP2 POP DUP1 DUP3 GT ISZERO PUSH2 0x31B4 JUMPI PUSH1 0x0 DUP1 REVERT JUMPDEST POP PUSH2 0x31C1 DUP10 DUP3 DUP11 ADD PUSH2 0x3090 JUMP JUMPDEST SWAP4 POP POP PUSH1 0x80 DUP8 ADD CALLDATALOAD SWAP2 POP PUSH1 0xA0 DUP8 ADD CALLDATALOAD SWAP1 POP SWAP3 SWAP6 POP SWAP3 SWAP6 POP SWAP3 SWAP6 JUMP JUMPDEST DUP1 MLOAD DUP3 MSTORE PUSH1 0x20 DUP1 DUP3 ADD MLOAD PUSH1 0x1 PUSH1 0x1 PUSH1 0xA0 SHL SUB AND SWAP1 DUP4 ADD MSTORE PUSH1 0x40 DUP1 DUP3 ADD MLOAD SWAP1 DUP4 ADD MSTORE PUSH1 0x60 DUP1 DUP3 ADD MLOAD SWAP1 DUP4 ADD MSTORE PUSH1 0x80 DUP1 DUP3 ADD MLOAD SWAP1 DUP4 ADD MSTORE PUSH1 0xA0 DUP1 DUP3 ADD MLOAD ISZERO ISZERO SWAP1 DUP4 ADD MSTORE PUSH1 0xC0 SWAP1 DUP2 ADD MLOAD ISZERO ISZERO SWAP2 ADD MSTORE JUMP JUMPDEST PUSH1 0xE0 DUP2 ADD PUSH2 0x11EE DUP3 DUP5 PUSH2 0x31DC JUMP JUMPDEST PUSH1 0x0 DUP1 PUSH1 0x40 DUP4 DUP6 SUB SLT ISZERO PUSH2 0x324B JUMPI PUSH1 0x0 DUP1 REVERT JUMPDEST DUP3 CALLDATALOAD SWAP2 POP PUSH1 0x20 DUP4 ADD CALLDATALOAD PUSH8 0xFFFFFFFFFFFFFFFF DUP2 GT ISZERO PUSH2 0x3269 JUMPI PUSH1 0x0 DUP1 REVERT JUMPDEST PUSH2 0x3275 DUP6 DUP3 DUP7 ADD PUSH2 0x3090 JUMP JUMPDEST SWAP2 POP POP SWAP3 POP SWAP3 SWAP1 POP JUMP JUMPDEST PUSH1 0x0 PUSH1 0x20 DUP3 DUP5 SUB SLT ISZERO PUSH2 0x3291 JUMPI PUSH1 0x0 DUP1 REVERT JUMPDEST POP CALLDATALOAD SWAP2 SWAP1 POP JUMP JUMPDEST PUSH1 0x0 DUP1 PUSH1 0x0 DUP1 PUSH1 0x0 DUP1 PUSH1 0x0 PUSH1 0xE0 DUP9 DUP11 SUB SLT ISZERO PUSH2 0x32B3 JUMPI PUSH1 0x0 DUP1 REVERT JUMPDEST DUP8 CALLDATALOAD SWAP7 POP PUSH1 0x20 DUP9 ADD CALLDATALOAD PUSH8 0xFFFFFFFFFFFFFFFF DUP1 DUP3 GT ISZERO PUSH2 0x32D2 JUMPI PUSH1 0x0 DUP1 REVERT JUMPDEST PUSH2 0x32DE DUP12 DUP4 DUP13 ADD PUSH2 0x3090 JUMP JUMPDEST SWAP8 POP PUSH1 0x40 DUP11 ADD CALLDATALOAD SWAP2 POP DUP1 DUP3 GT ISZERO PUSH2 0x32F4 JUMPI PUSH1 0x0 DUP1 REVERT JUMPDEST PUSH2 0x3300 DUP12 DUP4 DUP13 ADD PUSH2 0x3090 JUMP JUMPDEST SWAP7 POP PUSH1 0x60 DUP11 ADD CALLDATALOAD SWAP2 POP DUP1 DUP3 GT ISZERO PUSH2 0x3316 JUMPI PUSH1 0x0 DUP1 REVERT JUMPDEST PUSH2 0x3322 DUP12 DUP4 DUP13 ADD PUSH2 0x3090 JUMP JUMPDEST SWAP6 POP PUSH1 0x80 DUP11 ADD CALLDATALOAD SWAP2 POP DUP1 DUP3 GT ISZERO PUSH2 0x3338 JUMPI PUSH1 0x0 DUP1 REVERT JUMPDEST POP PUSH2 0x3345 DUP11 DUP3 DUP12 ADD PUSH2 0x3090 JUMP JUMPDEST SWAP4 POP POP PUSH1 0xA0 DUP9 ADD CALLDATALOAD SWAP2 POP PUSH1 0xC0 DUP9 ADD CALLDATALOAD SWAP1 POP SWAP3 SWAP6 SWAP9 SWAP2 SWAP5 SWAP8 POP SWAP3 SWAP6 POP JUMP JUMPDEST PUSH1 0x20 DUP2 MSTORE PUSH1 0x0 PUSH2 0x2E15 PUSH1 0x20 DUP4 ADD DUP5 PUSH2 0x2F3E JUMP JUMPDEST PUSH1 0x0 PUSH2 0x180 DUP15 DUP4 MSTORE DUP1 PUSH1 0x20 DUP5 ADD MSTORE PUSH2 0x338F DUP2 DUP5 ADD DUP16 PUSH2 0x2EF8 JUMP JUMPDEST SWAP1 POP DUP3 DUP2 SUB PUSH1 0x40 DUP5 ADD MSTORE PUSH2 0x33A3 DUP2 DUP15 PUSH2 0x2EF8 JUMP JUMPDEST SWAP1 POP DUP3 DUP2 SUB PUSH1 0x60 DUP5 ADD MSTORE PUSH2 0x33B7 DUP2 DUP14 PUSH2 0x2EF8 JUMP JUMPDEST SWAP1 POP DUP3 DUP2 SUB PUSH1 0x80 DUP5 ADD MSTORE PUSH2 0x33CB DUP2 DUP13 PUSH2 0x2EF8 JUMP JUMPDEST PUSH1 0xA0 DUP5 ADD DUP12 SWAP1 MSTORE PUSH1 0xC0 DUP5 ADD DUP11 SWAP1 MSTORE PUSH1 0x1 PUSH1 0x1 PUSH1 0xA0 SHL SUB DUP10 AND PUSH1 0xE0 DUP6 ADD MSTORE DUP8 ISZERO ISZERO PUSH2 0x100 DUP6 ADD MSTORE DUP7 ISZERO ISZERO PUSH2 0x120 DUP6 ADD MSTORE SWAP2 POP PUSH2 0x3403 SWAP1 POP JUMP JUMPDEST SWAP3 ISZERO ISZERO PUSH2 0x140 DUP3 ADD MSTORE PUSH2 0x160 ADD MSTORE SWAP11 SWAP10 POP POP POP POP POP POP POP POP POP POP JUMP JUMPDEST DUP1 CALLDATALOAD PUSH1 0x1 PUSH1 0x1 PUSH1 0xA0 SHL SUB DUP2 AND DUP2 EQ PUSH2 0x3436 JUMPI PUSH1 0x0 DUP1 REVERT JUMPDEST SWAP2 SWAP1 POP JUMP JUMPDEST PUSH1 0x0 DUP1 PUSH1 0x40 DUP4 DUP6 SUB SLT ISZERO PUSH2 0x344E JUMPI PUSH1 0x0 DUP1 REVERT JUMPDEST PUSH2 0x3457 DUP4 PUSH2 0x341F JUMP JUMPDEST SWAP5 PUSH1 0x20 SWAP4 SWAP1 SWAP4 ADD CALLDATALOAD SWAP4 POP POP POP JUMP JUMPDEST DUP6 DUP2 MSTORE DUP5 PUSH1 0x20 DUP3 ADD MSTORE PUSH1 0xA0 PUSH1 0x40 DUP3 ADD MSTORE PUSH1 0x0 PUSH2 0x3484 PUSH1 0xA0 DUP4 ADD DUP7 PUSH2 0x2EF8 JUMP JUMPDEST PUSH1 0x60 DUP4 ADD SWAP5 SWAP1 SWAP5 MSTORE POP PUSH1 0x1 PUSH1 0x1 PUSH1 0xA0 SHL SUB SWAP2 SWAP1 SWAP2 AND PUSH1 0x80 SWAP1 SWAP2 ADD MSTORE SWAP4 SWAP3 POP POP POP JUMP JUMPDEST PUSH1 0x0 PUSH1 0x20 DUP1 DUP4 ADD DUP2 DUP5 MSTORE DUP1 DUP6 MLOAD DUP1 DUP4 MSTORE PUSH1 0x40 SWAP3 POP DUP3 DUP7 ADD SWAP2 POP DUP3 DUP2 PUSH1 0x5 SHL DUP8 ADD ADD DUP5 DUP9 ADD PUSH1 0x0 JUMPDEST DUP4 DUP2 LT ISZERO PUSH2 0x3536 JUMPI PUSH1 0x3F NOT DUP10 DUP5 SUB ADD DUP6 MSTORE DUP2 MLOAD PUSH1 0xA0 DUP2 MLOAD DUP6 MSTORE DUP9 DUP3 ADD MLOAD DUP10 DUP7 ADD MSTORE DUP8 DUP3 ADD MLOAD DUP2 DUP10 DUP8 ADD MSTORE PUSH2 0x3503 DUP3 DUP8 ADD DUP3 PUSH2 0x2EF8 JUMP JUMPDEST PUSH1 0x60 DUP5 DUP2 ADD MLOAD SWAP1 DUP9 ADD MSTORE PUSH1 0x80 SWAP4 DUP5 ADD MLOAD PUSH1 0x1 PUSH1 0x1 PUSH1 0xA0 SHL SUB AND SWAP4 SWAP1 SWAP7 ADD SWAP3 SWAP1 SWAP3 MSTORE POP POP SWAP4 DUP7 ADD SWAP4 SWAP1 DUP7 ADD SWAP1 PUSH1 0x1 ADD PUSH2 0x34CD JUMP JUMPDEST POP SWAP1 SWAP9 SWAP8 POP POP POP POP POP POP POP POP JUMP JUMPDEST PUSH1 0x20 DUP1 DUP3 MSTORE DUP3 MLOAD DUP3 DUP3 ADD DUP2 SWAP1 MSTORE PUSH1 0x0 SWAP2 SWAP1 DUP5 DUP3 ADD SWAP1 PUSH1 0x40 DUP6 ADD SWAP1 DUP5 JUMPDEST DUP2 DUP2 LT ISZERO PUSH2 0x357C JUMPI DUP4 MLOAD DUP4 MSTORE SWAP3 DUP5 ADD SWAP3 SWAP2 DUP5 ADD SWAP2 PUSH1 0x1 ADD PUSH2 0x3560 JUMP JUMPDEST POP SWAP1 SWAP7 SWAP6 POP POP POP POP POP POP JUMP JUMPDEST PUSH1 0x0 DUP1 PUSH1 0x0 PUSH1 0x60 DUP5 DUP7 SUB SLT ISZERO PUSH2 0x359D JUMPI PUSH1 0x0 DUP1 REVERT JUMPDEST POP POP DUP2 CALLDATALOAD SWAP4 PUSH1 0x20 DUP4 ADD CALLDATALOAD SWAP4 POP PUSH1 0x40 SWAP1 SWAP3 ADD CALLDATALOAD SWAP2 SWAP1 POP JUMP JUMPDEST PUSH1 0x0 PUSH1 0x20 DUP3 DUP5 SUB SLT ISZERO PUSH2 0x35C6 JUMPI PUSH1 0x0 DUP1 REVERT JUMPDEST PUSH2 0x2E15 DUP3 PUSH2 0x341F JUMP JUMPDEST PUSH1 0x20 DUP1 DUP3 MSTORE DUP3 MLOAD DUP3 DUP3 ADD DUP2 SWAP1 MSTORE PUSH1 0x0 SWAP2 SWAP1 DUP5 DUP3 ADD SWAP1 PUSH1 0x40 DUP6 ADD SWAP1 DUP5 JUMPDEST DUP2 DUP2 LT ISZERO PUSH2 0x357C JUMPI PUSH2 0x35FE DUP4 DUP6 MLOAD PUSH2 0x31DC JUMP JUMPDEST SWAP3 DUP5 ADD SWAP3 PUSH1 0xE0 SWAP3 SWAP1 SWAP3 ADD SWAP2 PUSH1 0x1 ADD PUSH2 0x35EB JUMP JUMPDEST PUSH4 0x4E487B71 PUSH1 0xE0 SHL PUSH1 0x0 MSTORE PUSH1 0x32 PUSH1 0x4 MSTORE PUSH1 0x24 PUSH1 0x0 REVERT JUMPDEST PUSH1 0x20 DUP1 DUP3 MSTORE PUSH1 0x26 SWAP1 DUP3 ADD MSTORE PUSH32 0x41706172746D656E7420616C726561647920636865636B6564206F6E20746869 PUSH1 0x40 DUP3 ADD MSTORE PUSH6 0x732064617465 PUSH1 0xD0 SHL PUSH1 0x60 DUP3 ADD MSTORE PUSH1 0x80 ADD SWAP1 JUMP JUMPDEST PUSH4 0x4E487B71 PUSH1 0xE0 SHL PUSH1 0x0 MSTORE PUSH1 0x11 PUSH1 0x4 MSTORE PUSH1 0x24 PUSH1 0x0 REVERT JUMPDEST DUP1 DUP3 MUL DUP2 ISZERO DUP3 DUP3 DIV DUP5 EQ OR PUSH2 0x11EE JUMPI PUSH2 0x11EE PUSH2 0x366D JUMP JUMPDEST PUSH1 0x0 DUP3 PUSH2 0x36B7 JUMPI PUSH4 0x4E487B71 PUSH1 0xE0 SHL PUSH1 0x0 MSTORE PUSH1 0x12 PUSH1 0x4 MSTORE PUSH1 0x24 PUSH1 0x0 REVERT JUMPDEST POP DIV SWAP1 JUMP JUMPDEST DUP2 DUP2 SUB DUP2 DUP2 GT ISZERO PUSH2 0x11EE JUMPI PUSH2 0x11EE PUSH2 0x366D JUMP JUMPDEST PUSH1 0x0 PUSH1 0x1 DUP3 ADD PUSH2 0x36E1 JUMPI PUSH2 0x36E1 PUSH2 0x366D JUMP JUMPDEST POP PUSH1 0x1 ADD SWAP1 JUMP JUMPDEST PUSH1 0x1 DUP2 DUP2 SHR SWAP1 DUP3 AND DUP1 PUSH2 0x36FC JUMPI PUSH1 0x7F DUP3 AND SWAP2 POP JUMPDEST PUSH1 0x20 DUP3 LT DUP2 SUB PUSH2 0x371C JUMPI PUSH4 0x4E487B71 PUSH1 0xE0 SHL PUSH1 0x0 MSTORE PUSH1 0x22 PUSH1 0x4 MSTORE PUSH1 0x24 PUSH1 0x0 REVERT JUMPDEST POP SWAP2 SWAP1 POP JUMP JUMPDEST PUSH1 0x20 DUP1 DUP3 MSTORE PUSH1 0x15 SWAP1 DUP3 ADD MSTORE PUSH21 0x7469746C652063616E6E6F7420626520656D707479 PUSH1 0x58 SHL PUSH1 0x40 DUP3 ADD MSTORE PUSH1 0x60 ADD SWAP1 JUMP JUMPDEST PUSH1 0x1F DUP3 GT ISZERO PUSH2 0x2800 JUMPI PUSH1 0x0 DUP2 DUP2 MSTORE PUSH1 0x20 DUP2 KECCAK256 PUSH1 0x1F DUP6 ADD PUSH1 0x5 SHR DUP2 ADD PUSH1 0x20 DUP7 LT ISZERO PUSH2 0x3778 JUMPI POP DUP1 JUMPDEST PUSH1 0x1F DUP6 ADD PUSH1 0x5 SHR DUP3 ADD SWAP2 POP JUMPDEST DUP2 DUP2 LT ISZERO PUSH2 0x3797 JUMPI DUP3 DUP2 SSTORE PUSH1 0x1 ADD PUSH2 0x3784 JUMP JUMPDEST POP POP POP POP POP POP JUMP JUMPDEST DUP2 MLOAD PUSH8 0xFFFFFFFFFFFFFFFF DUP2 GT ISZERO PUSH2 0x37B9 JUMPI PUSH2 0x37B9 PUSH2 0x307A JUMP JUMPDEST PUSH2 0x37CD DUP2 PUSH2 0x37C7 DUP5 SLOAD PUSH2 0x36E8 JUMP JUMPDEST DUP5 PUSH2 0x3751 JUMP JUMPDEST PUSH1 0x20 DUP1 PUSH1 0x1F DUP4 GT PUSH1 0x1 DUP2 EQ PUSH2 0x3802 JUMPI PUSH1 0x0 DUP5 ISZERO PUSH2 0x37EA JUMPI POP DUP6 DUP4 ADD MLOAD JUMPDEST PUSH1 0x0 NOT PUSH1 0x3 DUP7 SWAP1 SHL SHR NOT AND PUSH1 0x1 DUP6 SWAP1 SHL OR DUP6 SSTORE PUSH2 0x3797 JUMP JUMPDEST PUSH1 0x0 DUP6 DUP2 MSTORE PUSH1 0x20 DUP2 KECCAK256 PUSH1 0x1F NOT DUP7 AND SWAP2 JUMPDEST DUP3 DUP2 LT ISZERO PUSH2 0x3831 JUMPI DUP9 DUP7 ADD MLOAD DUP3 SSTORE SWAP5 DUP5 ADD SWAP5 PUSH1 0x1 SWAP1 SWAP2 ADD SWAP1 DUP5 ADD PUSH2 0x3812 JUMP JUMPDEST POP DUP6 DUP3 LT ISZERO PUSH2 0x384F JUMPI DUP8 DUP6 ADD MLOAD PUSH1 0x0 NOT PUSH1 0x3 DUP9 SWAP1 SHL PUSH1 0xF8 AND SHR NOT AND DUP2 SSTORE JUMPDEST POP POP POP POP POP PUSH1 0x1 SWAP1 DUP2 SHL ADD SWAP1 SSTORE POP JUMP JUMPDEST PUSH1 0x20 DUP1 DUP3 MSTORE PUSH1 0x13 SWAP1 DUP3 ADD MSTORE PUSH19 0x5370616365206E6F7420617661696C61626C65 PUSH1 0x68 SHL PUSH1 0x40 DUP3 ADD MSTORE PUSH1 0x60 ADD SWAP1 JUMP JUMPDEST PUSH4 0x4E487B71 PUSH1 0xE0 SHL PUSH1 0x0 MSTORE PUSH1 0x31 PUSH1 0x4 MSTORE PUSH1 0x24 PUSH1 0x0 REVERT JUMPDEST DUP1 DUP3 ADD DUP1 DUP3 GT ISZERO PUSH2 0x11EE JUMPI PUSH2 0x11EE PUSH2 0x366D JUMP INVALID LOG2 PUSH5 0x6970667358 0x22 SLT KECCAK256 XOR DUP8 0x5E SWAP13 MSTORE 0xB0 0xB3 0xB7 0xEC DUP1 MSIZE SWAP13 0xE3 0xBA ISZERO 0x25 0xD7 0xBF MUL DUP11 0x1E 0xB4 SWAP16 DUP1 CALL PUSH26 0x8B616A5807F064736F6C63430008120033000000000000000000 "
				},
				"gasEstimates": {
					"creation": {
						"codeDepositCost": "2914200",
						"executionCost": "infinite",
						"totalCost": "infinite"
					},
					"external": {
						"addReview(uint256,string)": "infinite",
						"bookSpace(uint256,uint256,uint256)": "infinite",
						"bookedDates(uint256,uint256)": "4754",
						"bookingsOf(uint256,uint256)": "15555",
						"checkInSpace(uint256,uint256)": "infinite",
						"claimFunds(uint256,uint256)": "infinite",
						"createSpace(string,string,string,string,uint256,uint256)": "infinite",
						"deleteSpace(uint256)": "54850",
						"getBooking(uint256,uint256)": "infinite",
						"getBookings(uint256)": "infinite",
						"getReviews(uint256)": "infinite",
						"getSpace(uint256)": "infinite",
						"getSpaces()": "infinite",
						"getUnavailableDates(uint256)": "infinite",
						"hasBooked(address,uint256)": "2735",
						"hasBookedDateReached(uint256,uint256)": "4812",
						"isDateBooked(uint256,uint256)": "2591",
						"owner()": "2347",
						"refundBooking(uint256,uint256,uint256)": "infinite",
						"renounceOwnership()": "infinite",
						"reviewsOf(uint256,uint256)": "infinite",
						"securityFee()": "2340",
						"spaceExists(uint256)": "2517",
						"spaces(uint256)": "infinite",
						"taxPercent()": "2362",
						"tenantBooked(uint256)": "2566",
						"transferOwnership(address)": "28399",
						"updateSecurityFee(uint256)": "25644",
						"updateSpace(uint256,string,string,string,string,uint256,uint256)": "infinite",
						"updateTaxPercent(uint256)": "24532"
					},
					"internal": {
						"currentTime()": "infinite",
						"isDateCleared(uint256,uint256,uint256)": "infinite",
						"payTo(address,uint256)": "infinite"
					}
				},
				"methodIdentifiers": {
					"addReview(uint256,string)": "5bb0c5d6",
					"bookSpace(uint256,uint256,uint256)": "e1c69620",
					"bookedDates(uint256,uint256)": "d3dfc0f6",
					"bookingsOf(uint256,uint256)": "577bf6ee",
					"checkInSpace(uint256,uint256)": "01d8a51b",
					"claimFunds(uint256,uint256)": "010b58ee",
					"createSpace(string,string,string,string,uint256,uint256)": "3fa7e153",
					"deleteSpace(uint256)": "d684ccda",
					"getBooking(uint256,uint256)": "455b3070",
					"getBookings(uint256)": "f4010995",
					"getReviews(uint256)": "9d4a2255",
					"getSpace(uint256)": "70e10431",
					"getSpaces()": "15478ca9",
					"getUnavailableDates(uint256)": "db2f80b7",
					"hasBooked(address,uint256)": "7f75aed5",
					"hasBookedDateReached(uint256,uint256)": "f6ab7e3d",
					"isDateBooked(uint256,uint256)": "2ce894bc",
					"owner()": "8da5cb5b",
					"refundBooking(uint256,uint256,uint256)": "e16ca8d1",
					"renounceOwnership()": "715018a6",
					"reviewsOf(uint256,uint256)": "90067e31",
					"securityFee()": "d68e1302",
					"spaceExists(uint256)": "a74431f4",
					"spaces(uint256)": "7586353b",
					"taxPercent()": "7541f41c",
					"tenantBooked(uint256)": "9f31a2be",
					"transferOwnership(address)": "f2fde38b",
					"updateSecurityFee(uint256)": "61591149",
					"updateSpace(uint256,string,string,string,string,uint256,uint256)": "67e42ba7",
					"updateTaxPercent(uint256)": "eb461445"
				}
			},
			"storageLayout": {
				"storage": [
					{
						"astId": 7,
						"contract": "AndroidStudioProjects/roomflow/contracts/Roomflow.sol:RoomFlow",
						"label": "_owner",
						"offset": 0,
						"slot": "0",
						"type": "t_address"
					},
					{
						"astId": 123,
						"contract": "AndroidStudioProjects/roomflow/contracts/Roomflow.sol:RoomFlow",
						"label": "_status",
						"offset": 0,
						"slot": "1",
						"type": "t_uint256"
					},
					{
						"astId": 289,
						"contract": "AndroidStudioProjects/roomflow/contracts/Roomflow.sol:RoomFlow",
						"label": "_totalSpaces",
						"offset": 0,
						"slot": "2",
						"type": "t_struct(Counter)205_storage"
					},
					{
						"astId": 292,
						"contract": "AndroidStudioProjects/roomflow/contracts/Roomflow.sol:RoomFlow",
						"label": "_totalReviews",
						"offset": 0,
						"slot": "3",
						"type": "t_struct(Counter)205_storage"
					},
					{
						"astId": 411,
						"contract": "AndroidStudioProjects/roomflow/contracts/Roomflow.sol:RoomFlow",
						"label": "securityFee",
						"offset": 0,
						"slot": "4",
						"type": "t_uint256"
					},
					{
						"astId": 413,
						"contract": "AndroidStudioProjects/roomflow/contracts/Roomflow.sol:RoomFlow",
						"label": "taxPercent",
						"offset": 0,
						"slot": "5",
						"type": "t_uint256"
					},
					{
						"astId": 418,
						"contract": "AndroidStudioProjects/roomflow/contracts/Roomflow.sol:RoomFlow",
						"label": "spaces",
						"offset": 0,
						"slot": "6",
						"type": "t_mapping(t_uint256,t_struct(SpaceListing)317_storage)"
					},
					{
						"astId": 424,
						"contract": "AndroidStudioProjects/roomflow/contracts/Roomflow.sol:RoomFlow",
						"label": "bookingsOf",
						"offset": 0,
						"slot": "7",
						"type": "t_mapping(t_uint256,t_array(t_struct(Booking)332_storage)dyn_storage)"
					},
					{
						"astId": 430,
						"contract": "AndroidStudioProjects/roomflow/contracts/Roomflow.sol:RoomFlow",
						"label": "reviewsOf",
						"offset": 0,
						"slot": "8",
						"type": "t_mapping(t_uint256,t_array(t_struct(Review)343_storage)dyn_storage)"
					},
					{
						"astId": 434,
						"contract": "AndroidStudioProjects/roomflow/contracts/Roomflow.sol:RoomFlow",
						"label": "spaceExists",
						"offset": 0,
						"slot": "9",
						"type": "t_mapping(t_uint256,t_bool)"
					},
					{
						"astId": 439,
						"contract": "AndroidStudioProjects/roomflow/contracts/Roomflow.sol:RoomFlow",
						"label": "bookedDates",
						"offset": 0,
						"slot": "10",
						"type": "t_mapping(t_uint256,t_array(t_uint256)dyn_storage)"
					},
					{
						"astId": 445,
						"contract": "AndroidStudioProjects/roomflow/contracts/Roomflow.sol:RoomFlow",
						"label": "isDateBooked",
						"offset": 0,
						"slot": "11",
						"type": "t_mapping(t_uint256,t_mapping(t_uint256,t_bool))"
					},
					{
						"astId": 451,
						"contract": "AndroidStudioProjects/roomflow/contracts/Roomflow.sol:RoomFlow",
						"label": "hasBooked",
						"offset": 0,
						"slot": "12",
						"type": "t_mapping(t_address,t_mapping(t_uint256,t_bool))"
					}
				],
				"types": {
					"t_address": {
						"encoding": "inplace",
						"label": "address",
						"numberOfBytes": "20"
					},
					"t_array(t_struct(Booking)332_storage)dyn_storage": {
						"base": "t_struct(Booking)332_storage",
						"encoding": "dynamic_array",
						"label": "struct RoomFlow.Booking[]",
						"numberOfBytes": "32"
					},
					"t_array(t_struct(Review)343_storage)dyn_storage": {
						"base": "t_struct(Review)343_storage",
						"encoding": "dynamic_array",
						"label": "struct RoomFlow.Review[]",
						"numberOfBytes": "32"
					},
					"t_array(t_uint256)dyn_storage": {
						"base": "t_uint256",
						"encoding": "dynamic_array",
						"label": "uint256[]",
						"numberOfBytes": "32"
					},
					"t_bool": {
						"encoding": "inplace",
						"label": "bool",
						"numberOfBytes": "1"
					},
					"t_mapping(t_address,t_mapping(t_uint256,t_bool))": {
						"encoding": "mapping",
						"key": "t_address",
						"label": "mapping(address => mapping(uint256 => bool))",
						"numberOfBytes": "32",
						"value": "t_mapping(t_uint256,t_bool)"
					},
					"t_mapping(t_uint256,t_array(t_struct(Booking)332_storage)dyn_storage)": {
						"encoding": "mapping",
						"key": "t_uint256",
						"label": "mapping(uint256 => struct RoomFlow.Booking[])",
						"numberOfBytes": "32",
						"value": "t_array(t_struct(Booking)332_storage)dyn_storage"
					},
					"t_mapping(t_uint256,t_array(t_struct(Review)343_storage)dyn_storage)": {
						"encoding": "mapping",
						"key": "t_uint256",
						"label": "mapping(uint256 => struct RoomFlow.Review[])",
						"numberOfBytes": "32",
						"value": "t_array(t_struct(Review)343_storage)dyn_storage"
					},
					"t_mapping(t_uint256,t_array(t_uint256)dyn_storage)": {
						"encoding": "mapping",
						"key": "t_uint256",
						"label": "mapping(uint256 => uint256[])",
						"numberOfBytes": "32",
						"value": "t_array(t_uint256)dyn_storage"
					},
					"t_mapping(t_uint256,t_bool)": {
						"encoding": "mapping",
						"key": "t_uint256",
						"label": "mapping(uint256 => bool)",
						"numberOfBytes": "32",
						"value": "t_bool"
					},
					"t_mapping(t_uint256,t_mapping(t_uint256,t_bool))": {
						"encoding": "mapping",
						"key": "t_uint256",
						"label": "mapping(uint256 => mapping(uint256 => bool))",
						"numberOfBytes": "32",
						"value": "t_mapping(t_uint256,t_bool)"
					},
					"t_mapping(t_uint256,t_struct(SpaceListing)317_storage)": {
						"encoding": "mapping",
						"key": "t_uint256",
						"label": "mapping(uint256 => struct RoomFlow.SpaceListing)",
						"numberOfBytes": "32",
						"value": "t_struct(SpaceListing)317_storage"
					},
					"t_string_storage": {
						"encoding": "bytes",
						"label": "string",
						"numberOfBytes": "32"
					},
					"t_struct(Booking)332_storage": {
						"encoding": "inplace",
						"label": "struct RoomFlow.Booking",
						"members": [
							{
								"astId": 319,
								"contract": "AndroidStudioProjects/roomflow/contracts/Roomflow.sol:RoomFlow",
								"label": "id",
								"offset": 0,
								"slot": "0",
								"type": "t_uint256"
							},
							{
								"astId": 321,
								"contract": "AndroidStudioProjects/roomflow/contracts/Roomflow.sol:RoomFlow",
								"label": "tenant",
								"offset": 0,
								"slot": "1",
								"type": "t_address"
							},
							{
								"astId": 323,
								"contract": "AndroidStudioProjects/roomflow/contracts/Roomflow.sol:RoomFlow",
								"label": "startDate",
								"offset": 0,
								"slot": "2",
								"type": "t_uint256"
							},
							{
								"astId": 325,
								"contract": "AndroidStudioProjects/roomflow/contracts/Roomflow.sol:RoomFlow",
								"label": "endDate",
								"offset": 0,
								"slot": "3",
								"type": "t_uint256"
							},
							{
								"astId": 327,
								"contract": "AndroidStudioProjects/roomflow/contracts/Roomflow.sol:RoomFlow",
								"label": "totalPrice",
								"offset": 0,
								"slot": "4",
								"type": "t_uint256"
							},
							{
								"astId": 329,
								"contract": "AndroidStudioProjects/roomflow/contracts/Roomflow.sol:RoomFlow",
								"label": "checked",
								"offset": 0,
								"slot": "5",
								"type": "t_bool"
							},
							{
								"astId": 331,
								"contract": "AndroidStudioProjects/roomflow/contracts/Roomflow.sol:RoomFlow",
								"label": "cancelled",
								"offset": 1,
								"slot": "5",
								"type": "t_bool"
							}
						],
						"numberOfBytes": "192"
					},
					"t_struct(Counter)205_storage": {
						"encoding": "inplace",
						"label": "struct Counters.Counter",
						"members": [
							{
								"astId": 204,
								"contract": "AndroidStudioProjects/roomflow/contracts/Roomflow.sol:RoomFlow",
								"label": "_value",
								"offset": 0,
								"slot": "0",
								"type": "t_uint256"
							}
						],
						"numberOfBytes": "32"
					},
					"t_struct(Review)343_storage": {
						"encoding": "inplace",
						"label": "struct RoomFlow.Review",
						"members": [
							{
								"astId": 334,
								"contract": "AndroidStudioProjects/roomflow/contracts/Roomflow.sol:RoomFlow",
								"label": "id",
								"offset": 0,
								"slot": "0",
								"type": "t_uint256"
							},
							{
								"astId": 336,
								"contract": "AndroidStudioProjects/roomflow/contracts/Roomflow.sol:RoomFlow",
								"label": "spaceId",
								"offset": 0,
								"slot": "1",
								"type": "t_uint256"
							},
							{
								"astId": 338,
								"contract": "AndroidStudioProjects/roomflow/contracts/Roomflow.sol:RoomFlow",
								"label": "reviewText",
								"offset": 0,
								"slot": "2",
								"type": "t_string_storage"
							},
							{
								"astId": 340,
								"contract": "AndroidStudioProjects/roomflow/contracts/Roomflow.sol:RoomFlow",
								"label": "timestamp",
								"offset": 0,
								"slot": "3",
								"type": "t_uint256"
							},
							{
								"astId": 342,
								"contract": "AndroidStudioProjects/roomflow/contracts/Roomflow.sol:RoomFlow",
								"label": "reviewer",
								"offset": 0,
								"slot": "4",
								"type": "t_address"
							}
						],
						"numberOfBytes": "160"
					},
					"t_struct(SpaceListing)317_storage": {
						"encoding": "inplace",
						"label": "struct RoomFlow.SpaceListing",
						"members": [
							{
								"astId": 294,
								"contract": "AndroidStudioProjects/roomflow/contracts/Roomflow.sol:RoomFlow",
								"label": "id",
								"offset": 0,
								"slot": "0",
								"type": "t_uint256"
							},
							{
								"astId": 296,
								"contract": "AndroidStudioProjects/roomflow/contracts/Roomflow.sol:RoomFlow",
								"label": "title",
								"offset": 0,
								"slot": "1",
								"type": "t_string_storage"
							},
							{
								"astId": 298,
								"contract": "AndroidStudioProjects/roomflow/contracts/Roomflow.sol:RoomFlow",
								"label": "subtitle",
								"offset": 0,
								"slot": "2",
								"type": "t_string_storage"
							},
							{
								"astId": 300,
								"contract": "AndroidStudioProjects/roomflow/contracts/Roomflow.sol:RoomFlow",
								"label": "description",
								"offset": 0,
								"slot": "3",
								"type": "t_string_storage"
							},
							{
								"astId": 302,
								"contract": "AndroidStudioProjects/roomflow/contracts/Roomflow.sol:RoomFlow",
								"label": "images",
								"offset": 0,
								"slot": "4",
								"type": "t_string_storage"
							},
							{
								"astId": 304,
								"contract": "AndroidStudioProjects/roomflow/contracts/Roomflow.sol:RoomFlow",
								"label": "rooms",
								"offset": 0,
								"slot": "5",
								"type": "t_uint256"
							},
							{
								"astId": 306,
								"contract": "AndroidStudioProjects/roomflow/contracts/Roomflow.sol:RoomFlow",
								"label": "price",
								"offset": 0,
								"slot": "6",
								"type": "t_uint256"
							},
							{
								"astId": 308,
								"contract": "AndroidStudioProjects/roomflow/contracts/Roomflow.sol:RoomFlow",
								"label": "owner",
								"offset": 0,
								"slot": "7",
								"type": "t_address"
							},
							{
								"astId": 310,
								"contract": "AndroidStudioProjects/roomflow/contracts/Roomflow.sol:RoomFlow",
								"label": "booked",
								"offset": 20,
								"slot": "7",
								"type": "t_bool"
							},
							{
								"astId": 312,
								"contract": "AndroidStudioProjects/roomflow/contracts/Roomflow.sol:RoomFlow",
								"label": "deleted",
								"offset": 21,
								"slot": "7",
								"type": "t_bool"
							},
							{
								"astId": 314,
								"contract": "AndroidStudioProjects/roomflow/contracts/Roomflow.sol:RoomFlow",
								"label": "availability",
								"offset": 22,
								"slot": "7",
								"type": "t_bool"
							},
							{
								"astId": 316,
								"contract": "AndroidStudioProjects/roomflow/contracts/Roomflow.sol:RoomFlow",
								"label": "timestamp",
								"offset": 0,
								"slot": "8",
								"type": "t_uint256"
							}
						],
						"numberOfBytes": "288"
					},
					"t_uint256": {
						"encoding": "inplace",
						"label": "uint256",
						"numberOfBytes": "32"
					}
				}
			},
			"userdoc": {
				"kind": "user",
				"methods": {},
				"version": 1
			}
		}
	}
}